{
  "contractName": "ProductContract",
  "abi": [
    {
      "inputs": [
        {
          "internalType": "address",
          "name": "_registryAddress",
          "type": "address"
        }
      ],
      "stateMutability": "nonpayable",
      "type": "constructor"
    },
    {
      "anonymous": false,
      "inputs": [
        {
          "indexed": true,
          "internalType": "address",
          "name": "caller",
          "type": "address"
        },
        {
          "indexed": false,
          "internalType": "bool",
          "name": "authorised",
          "type": "bool"
        }
      ],
      "name": "AuthorisedCallerSet",
      "type": "event"
    },
    {
      "anonymous": false,
      "inputs": [
        {
          "indexed": true,
          "internalType": "string",
          "name": "batchNumber",
          "type": "string"
        },
        {
          "indexed": true,
          "internalType": "address",
          "name": "manufacturerAddr",
          "type": "address"
        },
        {
          "indexed": false,
          "internalType": "string",
          "name": "productName",
          "type": "string"
        },
        {
          "indexed": false,
          "internalType": "uint256",
          "name": "totalQuantity",
          "type": "uint256"
        },
        {
          "indexed": false,
          "internalType": "uint256",
          "name": "expiryDate",
          "type": "uint256"
        },
        {
          "indexed": false,
          "internalType": "uint256",
          "name": "timestamp",
          "type": "uint256"
        }
      ],
      "name": "BatchAdded",
      "type": "event"
    },
    {
      "anonymous": false,
      "inputs": [
        {
          "indexed": true,
          "internalType": "string",
          "name": "batchNumber",
          "type": "string"
        },
        {
          "indexed": true,
          "internalType": "address",
          "name": "updatedBy",
          "type": "address"
        },
        {
          "indexed": false,
          "internalType": "uint256",
          "name": "timestamp",
          "type": "uint256"
        }
      ],
      "name": "BatchDetailsUpdated",
      "type": "event"
    },
    {
      "anonymous": false,
      "inputs": [
        {
          "indexed": true,
          "internalType": "string",
          "name": "batchNumber",
          "type": "string"
        },
        {
          "indexed": false,
          "internalType": "enum ProductContract.BatchStatus",
          "name": "oldStatus",
          "type": "uint8"
        },
        {
          "indexed": false,
          "internalType": "enum ProductContract.BatchStatus",
          "name": "newStatus",
          "type": "uint8"
        },
        {
          "indexed": true,
          "internalType": "address",
          "name": "changedBy",
          "type": "address"
        },
        {
          "indexed": false,
          "internalType": "string",
          "name": "reason",
          "type": "string"
        },
        {
          "indexed": false,
          "internalType": "uint256",
          "name": "timestamp",
          "type": "uint256"
        }
      ],
      "name": "BatchStatusChanged",
      "type": "event"
    },
    {
      "anonymous": false,
      "inputs": [
        {
          "indexed": true,
          "internalType": "string",
          "name": "batchNumber",
          "type": "string"
        },
        {
          "indexed": false,
          "internalType": "string",
          "name": "qrCodeCID",
          "type": "string"
        },
        {
          "indexed": false,
          "internalType": "string",
          "name": "metadataCID",
          "type": "string"
        },
        {
          "indexed": false,
          "internalType": "uint256",
          "name": "timestamp",
          "type": "uint256"
        }
      ],
      "name": "QRUpdated",
      "type": "event"
    },
    {
      "anonymous": false,
      "inputs": [
        {
          "indexed": true,
          "internalType": "string",
          "name": "batchNumber",
          "type": "string"
        },
        {
          "indexed": true,
          "internalType": "address",
          "name": "holder",
          "type": "address"
        },
        {
          "indexed": false,
          "internalType": "uint256",
          "name": "previousQty",
          "type": "uint256"
        },
        {
          "indexed": false,
          "internalType": "uint256",
          "name": "newQty",
          "type": "uint256"
        },
        {
          "indexed": false,
          "internalType": "string",
          "name": "reason",
          "type": "string"
        },
        {
          "indexed": false,
          "internalType": "uint256",
          "name": "timestamp",
          "type": "uint256"
        }
      ],
      "name": "StockAdjusted",
      "type": "event"
    },
    {
      "inputs": [],
      "name": "registry",
      "outputs": [
        {
          "internalType": "contract IRegistry",
          "name": "",
          "type": "address"
        }
      ],
      "stateMutability": "view",
      "type": "function",
      "constant": true
    },
    {
      "inputs": [
        {
          "internalType": "address",
          "name": "_caller",
          "type": "address"
        },
        {
          "internalType": "bool",
          "name": "_authorised",
          "type": "bool"
        }
      ],
      "name": "setAuthorisedCaller",
      "outputs": [],
      "stateMutability": "nonpayable",
      "type": "function"
    },
    {
      "inputs": [
        {
          "internalType": "string",
          "name": "_batchNumber",
          "type": "string"
        },
        {
          "internalType": "string",
          "name": "_productName",
          "type": "string"
        },
        {
          "internalType": "string",
          "name": "_genericName",
          "type": "string"
        },
        {
          "internalType": "string",
          "name": "_dosageForm",
          "type": "string"
        },
        {
          "internalType": "string",
          "name": "_strength",
          "type": "string"
        },
        {
          "internalType": "string",
          "name": "_manufacturerName",
          "type": "string"
        },
        {
          "internalType": "string[]",
          "name": "_rmNames",
          "type": "string[]"
        },
        {
          "internalType": "uint256[]",
          "name": "_rmQuantities",
          "type": "uint256[]"
        },
        {
          "internalType": "string[]",
          "name": "_rmUnits",
          "type": "string[]"
        },
        {
          "internalType": "uint256",
          "name": "_costPerUnit",
          "type": "uint256"
        },
        {
          "internalType": "string",
          "name": "_currency",
          "type": "string"
        },
        {
          "internalType": "uint256",
          "name": "_mfgDate",
          "type": "uint256"
        },
        {
          "internalType": "uint256",
          "name": "_expiryDate",
          "type": "uint256"
        },
        {
          "internalType": "uint256",
          "name": "_totalQuantity",
          "type": "uint256"
        },
        {
          "internalType": "string",
          "name": "_qrCodeCID",
          "type": "string"
        },
        {
          "internalType": "string",
          "name": "_metadataCID",
          "type": "string"
        }
      ],
      "name": "addBatch",
      "outputs": [],
      "stateMutability": "nonpayable",
      "type": "function"
    },
    {
      "inputs": [
        {
          "internalType": "string",
          "name": "_batchNumber",
          "type": "string"
        },
        {
          "internalType": "string",
          "name": "_qrCodeCID",
          "type": "string"
        },
        {
          "internalType": "string",
          "name": "_metadataCID",
          "type": "string"
        }
      ],
      "name": "updateQR",
      "outputs": [],
      "stateMutability": "nonpayable",
      "type": "function"
    },
    {
      "inputs": [
        {
          "internalType": "string",
          "name": "_batchNumber",
          "type": "string"
        },
        {
          "internalType": "string",
          "name": "_genericName",
          "type": "string"
        },
        {
          "internalType": "string",
          "name": "_dosageForm",
          "type": "string"
        },
        {
          "internalType": "string",
          "name": "_strength",
          "type": "string"
        },
        {
          "internalType": "uint256",
          "name": "_costPerUnit",
          "type": "uint256"
        },
        {
          "internalType": "string",
          "name": "_currency",
          "type": "string"
        }
      ],
      "name": "updateBatchDetails",
      "outputs": [],
      "stateMutability": "nonpayable",
      "type": "function"
    },
    {
      "inputs": [
        {
          "internalType": "string",
          "name": "_batchNumber",
          "type": "string"
        },
        {
          "internalType": "string",
          "name": "_reason",
          "type": "string"
        }
      ],
      "name": "recallBatch",
      "outputs": [],
      "stateMutability": "nonpayable",
      "type": "function"
    },
    {
      "inputs": [
        {
          "internalType": "string",
          "name": "_batchNumber",
          "type": "string"
        }
      ],
      "name": "expireBatch",
      "outputs": [],
      "stateMutability": "nonpayable",
      "type": "function"
    },
    {
      "inputs": [],
      "name": "expireAllOverdueBatches",
      "outputs": [],
      "stateMutability": "nonpayable",
      "type": "function"
    },
    {
      "inputs": [
        {
          "internalType": "string",
          "name": "_batchNumber",
          "type": "string"
        },
        {
          "internalType": "address",
          "name": "_from",
          "type": "address"
        },
        {
          "internalType": "address",
          "name": "_to",
          "type": "address"
        },
        {
          "internalType": "uint256",
          "name": "_quantity",
          "type": "uint256"
        }
      ],
      "name": "adjustStock",
      "outputs": [],
      "stateMutability": "nonpayable",
      "type": "function"
    },
    {
      "inputs": [
        {
          "internalType": "string",
          "name": "_batchNumber",
          "type": "string"
        },
        {
          "internalType": "address",
          "name": "_pharmacist",
          "type": "address"
        },
        {
          "internalType": "uint256",
          "name": "_quantity",
          "type": "uint256"
        }
      ],
      "name": "deductSale",
      "outputs": [],
      "stateMutability": "nonpayable",
      "type": "function"
    },
    {
      "inputs": [
        {
          "internalType": "string",
          "name": "_batchNumber",
          "type": "string"
        }
      ],
      "name": "getBatch",
      "outputs": [
        {
          "internalType": "string",
          "name": "batchNumber",
          "type": "string"
        },
        {
          "internalType": "string",
          "name": "productName",
          "type": "string"
        },
        {
          "internalType": "string",
          "name": "genericName",
          "type": "string"
        },
        {
          "internalType": "string",
          "name": "dosageForm",
          "type": "string"
        },
        {
          "internalType": "string",
          "name": "strength",
          "type": "string"
        },
        {
          "internalType": "string",
          "name": "manufacturer",
          "type": "string"
        },
        {
          "internalType": "address",
          "name": "manufacturerAddr",
          "type": "address"
        },
        {
          "internalType": "uint256",
          "name": "costPerUnit",
          "type": "uint256"
        },
        {
          "internalType": "string",
          "name": "currency",
          "type": "string"
        },
        {
          "internalType": "uint256",
          "name": "mfgDate",
          "type": "uint256"
        },
        {
          "internalType": "uint256",
          "name": "expiryDate",
          "type": "uint256"
        },
        {
          "internalType": "uint256",
          "name": "createdAt",
          "type": "uint256"
        },
        {
          "internalType": "uint256",
          "name": "totalQuantity",
          "type": "uint256"
        },
        {
          "internalType": "uint256",
          "name": "remainingAtSource",
          "type": "uint256"
        },
        {
          "internalType": "uint256",
          "name": "transferredOut",
          "type": "uint256"
        },
        {
          "internalType": "string",
          "name": "qrCodeCID",
          "type": "string"
        },
        {
          "internalType": "string",
          "name": "metadataCID",
          "type": "string"
        },
        {
          "internalType": "enum ProductContract.BatchStatus",
          "name": "status",
          "type": "uint8"
        },
        {
          "internalType": "string",
          "name": "recallReason",
          "type": "string"
        }
      ],
      "stateMutability": "view",
      "type": "function",
      "constant": true
    },
    {
      "inputs": [
        {
          "internalType": "string",
          "name": "_batchNumber",
          "type": "string"
        }
      ],
      "name": "getRawMaterials",
      "outputs": [
        {
          "components": [
            {
              "internalType": "string",
              "name": "name",
              "type": "string"
            },
            {
              "internalType": "uint256",
              "name": "quantity",
              "type": "uint256"
            },
            {
              "internalType": "string",
              "name": "unit",
              "type": "string"
            }
          ],
          "internalType": "struct ProductContract.RawMaterial[]",
          "name": "",
          "type": "tuple[]"
        }
      ],
      "stateMutability": "view",
      "type": "function",
      "constant": true
    },
    {
      "inputs": [
        {
          "internalType": "string",
          "name": "_batchNumber",
          "type": "string"
        }
      ],
      "name": "getQRData",
      "outputs": [
        {
          "internalType": "string",
          "name": "qrCodeCID",
          "type": "string"
        },
        {
          "internalType": "string",
          "name": "metadataCID",
          "type": "string"
        }
      ],
      "stateMutability": "view",
      "type": "function",
      "constant": true
    },
    {
      "inputs": [
        {
          "internalType": "string",
          "name": "_batchNumber",
          "type": "string"
        }
      ],
      "name": "isBatchValid",
      "outputs": [
        {
          "internalType": "bool",
          "name": "",
          "type": "bool"
        }
      ],
      "stateMutability": "view",
      "type": "function",
      "constant": true
    },
    {
      "inputs": [
        {
          "internalType": "string",
          "name": "_batchNumber",
          "type": "string"
        }
      ],
      "name": "getBatchStatus",
      "outputs": [
        {
          "internalType": "enum ProductContract.BatchStatus",
          "name": "",
          "type": "uint8"
        }
      ],
      "stateMutability": "view",
      "type": "function",
      "constant": true
    },
    {
      "inputs": [
        {
          "internalType": "string",
          "name": "_batchNumber",
          "type": "string"
        },
        {
          "internalType": "address",
          "name": "_holder",
          "type": "address"
        }
      ],
      "name": "getStockOf",
      "outputs": [
        {
          "internalType": "uint256",
          "name": "",
          "type": "uint256"
        }
      ],
      "stateMutability": "view",
      "type": "function",
      "constant": true
    },
    {
      "inputs": [
        {
          "internalType": "string",
          "name": "_batchNumber",
          "type": "string"
        },
        {
          "internalType": "address",
          "name": "_holder",
          "type": "address"
        }
      ],
      "name": "getStockEntry",
      "outputs": [
        {
          "components": [
            {
              "internalType": "address",
              "name": "holder",
              "type": "address"
            },
            {
              "internalType": "uint256",
              "name": "quantity",
              "type": "uint256"
            },
            {
              "internalType": "uint256",
              "name": "receivedAt",
              "type": "uint256"
            },
            {
              "internalType": "bool",
              "name": "exists",
              "type": "bool"
            }
          ],
          "internalType": "struct ProductContract.StockEntry",
          "name": "",
          "type": "tuple"
        }
      ],
      "stateMutability": "view",
      "type": "function",
      "constant": true
    },
    {
      "inputs": [
        {
          "internalType": "string",
          "name": "_batchNumber",
          "type": "string"
        }
      ],
      "name": "getBatchHolders",
      "outputs": [
        {
          "internalType": "address[]",
          "name": "",
          "type": "address[]"
        }
      ],
      "stateMutability": "view",
      "type": "function",
      "constant": true
    },
    {
      "inputs": [],
      "name": "getAllBatchNumbers",
      "outputs": [
        {
          "internalType": "string[]",
          "name": "",
          "type": "string[]"
        }
      ],
      "stateMutability": "view",
      "type": "function",
      "constant": true
    },
    {
      "inputs": [
        {
          "internalType": "address",
          "name": "_manufacturer",
          "type": "address"
        }
      ],
      "name": "getBatchesByManufacturer",
      "outputs": [
        {
          "internalType": "string[]",
          "name": "",
          "type": "string[]"
        }
      ],
      "stateMutability": "view",
      "type": "function",
      "constant": true
    },
    {
      "inputs": [
        {
          "internalType": "address",
          "name": "_holder",
          "type": "address"
        }
      ],
      "name": "getAvailableStockBatches",
      "outputs": [
        {
          "internalType": "string[]",
          "name": "",
          "type": "string[]"
        }
      ],
      "stateMutability": "view",
      "type": "function",
      "constant": true
    },
    {
      "inputs": [
        {
          "internalType": "address",
          "name": "_holder",
          "type": "address"
        }
      ],
      "name": "getExpiredStockBatches",
      "outputs": [
        {
          "internalType": "string[]",
          "name": "",
          "type": "string[]"
        }
      ],
      "stateMutability": "view",
      "type": "function",
      "constant": true
    },
    {
      "inputs": [
        {
          "internalType": "address",
          "name": "_manufacturer",
          "type": "address"
        }
      ],
      "name": "getActiveBatchesAtManufacturer",
      "outputs": [
        {
          "internalType": "string[]",
          "name": "",
          "type": "string[]"
        }
      ],
      "stateMutability": "view",
      "type": "function",
      "constant": true
    },
    {
      "inputs": [],
      "name": "getRecalledBatches",
      "outputs": [
        {
          "internalType": "string[]",
          "name": "",
          "type": "string[]"
        }
      ],
      "stateMutability": "view",
      "type": "function",
      "constant": true
    },
    {
      "inputs": [
        {
          "internalType": "string",
          "name": "_batchNumber",
          "type": "string"
        }
      ],
      "name": "verifyBatch",
      "outputs": [
        {
          "internalType": "bool",
          "name": "exists_",
          "type": "bool"
        },
        {
          "internalType": "string",
          "name": "productName",
          "type": "string"
        },
        {
          "internalType": "string",
          "name": "genericName",
          "type": "string"
        },
        {
          "internalType": "string",
          "name": "manufacturer",
          "type": "string"
        },
        {
          "internalType": "uint256",
          "name": "mfgDate",
          "type": "uint256"
        },
        {
          "internalType": "uint256",
          "name": "expiryDate",
          "type": "uint256"
        },
        {
          "internalType": "enum ProductContract.BatchStatus",
          "name": "status",
          "type": "uint8"
        },
        {
          "internalType": "bool",
          "name": "isExpired",
          "type": "bool"
        },
        {
          "internalType": "bool",
          "name": "isRecalled",
          "type": "bool"
        },
        {
          "internalType": "string",
          "name": "qrCodeCID",
          "type": "string"
        }
      ],
      "stateMutability": "view",
      "type": "function",
      "constant": true
    },
    {
      "inputs": [
        {
          "internalType": "string",
          "name": "_batchNumber",
          "type": "string"
        }
      ],
      "name": "batchExistsCheck",
      "outputs": [
        {
          "internalType": "bool",
          "name": "",
          "type": "bool"
        }
      ],
      "stateMutability": "view",
      "type": "function",
      "constant": true
    },
    {
      "inputs": [],
      "name": "getAllBatches",
      "outputs": [
        {
          "internalType": "string[]",
          "name": "",
          "type": "string[]"
        }
      ],
      "stateMutability": "view",
      "type": "function",
      "constant": true
    }
  ],
  "bytecode": "0x60a034620000e157601f62003ccf38819003918201601f19168301916001600160401b03831184841017620000e657808492602094604052833981010312620000e157516001600160a01b03811690819003620000e15780156200009c57608052604051613bd29081620000fd823960805181818161033301528181611992015281816120b9015281816126db015281816129e70152612ca70152f35b60405162461bcd60e51b815260206004820152601e60248201527f50726f647563743a207a65726f207265676973747279206164647265737300006044820152606490fd5b600080fd5b634e487b7160e01b600052604160045260246000fdfe610340604052600436101561001357600080fd5b60003560e01c80630b123e7514612eba578063123ecac814612c155780631d51bfda14612a9d57806320e27a8c14612a44578063228f30f0146127fe5780632e89bd89146126945780633da58fe41461264c578063410a5c811461258957806348d26846146124885780634b166b06146122f25780635df9dcde146121375780635f281fc014611af05780637680bf15146119c15780637b1039991461197c5780638e488741146117f75780639d5448e11461160c578063a36522e9146114b3578063daeda8571461139d578063dcb644cd1461129c578063dd5c9efe146112e6578063e7bac6ef146112a1578063e80e076b1461129c578063e906dc42146111dd578063ea99eaaf14611141578063ee6a6d0e146110d4578063f9ca427414610d635763fe6d503b1461014657600080fd5b34610d5e57610200366003190112610d5e576004356001600160401b038111610d5e57610177903690600401613061565b6101a052610160526024356001600160401b038111610d5e5761019e903690600401613061565b61022052610140526044356001600160401b038111610d5e576101c5903690600401613061565b6064356001600160401b038111610d5e576101e4903690600401613061565b92906084356001600160401b038111610d5e57610205903690600401613061565b93909260a4356001600160401b038111610d5e57610227903690600401613061565b610100526102c05260c4356001600160401b038111610d5e5761024e903690600401613181565b9060e4356001600160401b038111610d5e5761026e903690600401613181565b92906001600160401b036101043511610d5e576102913661010435600401613181565b60e052610260526001600160401b036101443511610d5e576102b93661014435600401613061565b6101c05260a0526001600160401b036101c43511610d5e576102e1366101c435600401613061565b610180526102e0526001600160401b036101e43511610d5e5761030a366101e435600401613061565b61024052608052604051630b88ded160e01b81526020818061032f336004830161326d565b03817f00000000000000000000000000000000000000000000000000000000000000006001600160a01b03165afa908115610d5257600091610d23575b5015610cc6576101a05115610c835760ff60146040516101a0516101605182376020816101a05181016000815203019020015416610c32576102205115610bef576103bb6101a4351515613287565b6101643515610bae5761016435610184351115610b5a5742610184351115610b095783821480610afe575b15610aa4576040516101a0516101605182376020816101a051810160008152030190206101205260005b828110610754576104758a8a6104698e8c61045d8d8d61043a6101a0516101605161012051613420565b610451610220516101405160016101205101613420565b60026101205101613420565b60036101205101613420565b60046101205101613420565b61048c610100516102c05160056101205101613420565b610120516006810180546001600160a01b031916331790556101243560088201556101c05160a0516104c092600901613420565b6101205161016435600a82015561018435600b82015542600c8201556101a435600d8201819055600e8201556000600f820155610180516102e05161050792601001613420565b61051d6102405160805160116101205101613420565b6105396013610120516012810160ff1981541690550154613388565b601f811161072c575b506101205160006013820155601401805460ff1916600190811790915554600160401b90818110156107165780600161057e92016001556134e3565b610700576101a0516101605161059392613420565b336000526002602052604060002090815490811015610716576105bb916001820181556134fe565b610700576101a051610160516105d092613420565b61065e6040516105df816131b1565b3381526003602082016101a4358152604083014281526060840191600183526040516101a0516101605182376101a05181018581528190036020908101909120336000908152915260409020945185546001600160a01b0319166001600160a01b03919091161785555160018501555160028401555115159101613244565b6106876040516101a0516101605182376101a05181019060048252602081339303019020613516565b6040516101a051610160518237806101a05181016000815203902060405190608082527f047ffde592dd64018fdb25b5776eaf913cd7251ec63fd5c5e338e75ae4a12d816106df608084016102205161014051613551565b926101a43560208201526101843560408201524260608201528033940390a3005b634e487b7160e01b600052600060045260246000fd5b634e487b7160e01b600052604160045260246000fd5b61074e9060136101205101600052601f6020600020910160051c8101906133c2565b80610542565b61075f8184866132f1565b905015610a6057610771818684613332565b3515610a0f576107cb6107858285876132f1565b91906107bd610795858a88613332565b356107a68660e051610260516132f1565b929093604051966107b6886131cc565b3691613342565b855260208501523691613342565b60408201526101205160070180549190600160401b83101561071657600183018082558310156109f957600052602060002090805180519060018060401b0382116107165761082e8261082360038802870154613388565b6003880287016133d9565b602090601f831160011461098257604093929160009183610977575b50508160011b916000199060031b1c191617600385028401555b60208101516003850284016001015501518051906001600160401b038211610716576108aa8261089c60026003880287010154613388565b6002600388028701016133d9565b602090601f83116001146108f957826002936108e9979695936003936000926108ee575b50508160011b9160001990841b1c19161793020101556132cc565b610410565b0151905038806108ce565b9060026003860285010160005260206000209160005b601f198516811061095f5750836108e997969593600393600193600297601f19811610610947575b505050811b0193020101556132cc565b015160001983861b60f8161c19169055388080610937565b9192602060018192868501518155019401920161090f565b01519050388061084a565b9060038602850160005260206000209160005b601f19851681106109e1575091839160019360409695601f198116106109c8575b505050811b0160038502840155610864565b015160001960f88460031b161c191690553880806109b6565b91926020600181928685015181550194019201610995565b634e487b7160e01b600052603260045260246000fd5b60405162461bcd60e51b815260206004820152602360248201527f50726f647563743a207a65726f20726177206d6174657269616c207175616e7460448201526269747960e81b6064820152608490fd5b606460405162461bcd60e51b815260206004820152602060248201527f50726f647563743a20656d70747920726177206d6174657269616c206e616d656044820152fd5b60405162461bcd60e51b815260206004820152602c60248201527f50726f647563743a20726177206d6174657269616c20617272617973206c656e60448201526b0cee8d040dad2e6dac2e8c6d60a31b6064820152608490fd5b5060e05182146103e6565b60405162461bcd60e51b815260206004820152602360248201527f50726f647563743a20657870697279206461746520616c7265616479207061736044820152621cd95960ea1b6064820152608490fd5b60405162461bcd60e51b815260206004820152602660248201527f50726f647563743a20657870697279206d757374206265206166746572206d6660448201526567206461746560d01b6064820152608490fd5b60405162461bcd60e51b815260206004820152601960248201527850726f647563743a20696e76616c6964206d6667206461746560381b6044820152606490fd5b60405162461bcd60e51b815260206004820152601b60248201527a50726f647563743a20656d7074792070726f64756374206e616d6560281b6044820152606490fd5b60405162461bcd60e51b8152602060048201526024808201527f50726f647563743a206261746368206e756d62657220616c72656164792065786044820152636973747360e01b6064820152608490fd5b60405162461bcd60e51b815260206004820152601b60248201527a283937b23ab1ba1d1032b6b83a3c903130ba31b410373ab6b132b960291b6044820152606490fd5b60405162461bcd60e51b815260206004820152602f60248201527f50726f647563743a2063616c6c6572206973206e6f7420616e20617070726f7660448201526e32b21036b0b73ab330b1ba3ab932b960891b6064820152608490fd5b610d45915060203d602011610d4b575b610d3d8183613202565b810190613255565b3861036c565b503d610d33565b6040513d6000823e3d90fd5b600080fd5b34610d5e576020366003190112610d5e576004356001600160401b038111610d5e57610d93903690600401613061565b906040518282823780838101600081520360200190206014015460ff16610db990613572565b816040519283928337810160008152036020019020806101e052600160a01b60019003600682015416600882015490600a83015491600b840154600c850154600d86015491600e87015493600f88015495601289015460ff1661032052604051610e2481809b61375f565b03610e2f908a613202565b6040518061030052806101e05160010190610e499161375f565b036103005190610e5891613202565b6040518061028052806101e05160020190610e729161375f565b036102805190610e8191613202565b6040519182806101e05160030190610e989161375f565b03610ea39084613202565b60405180806101e05160040190610eb99161375f565b03610ec49082613202565b6040519081806101e05160050190610edb9161375f565b03610ee69083613202565b6040519485806101e05160090190610efd9161375f565b03610f089087613202565b6040519c8d80806101e05160100190610f209161375f565b03610f2a91613202565b604051806102a052806101e05160110190610f449161375f565b036102a05190610f5391613202565b6040518060c052806101e05160130190610f6c9161375f565b0360c05190610f7a91613202565b60405180610200526102608091526102005101610f9691612fbf565b6102005180820390602001526103005190610fb091612fbf565b6102005180820390604001526102805190610fca91612fbf565b610200518082039060600152610fdf91612fbf565b610200518082039060800152610ff491612fbf565b610200518082039060a0015261100991612fbf565b916102005160c001526102005160e001526102005180820390610100015261103091612fbf565b95610200516101200152610200516101400152610200516101600152610200516101800152610200516101a00152610200516101c0015261020051808203906101e0015261107d91612fbf565b610200518082039061020001526102a0519061109891612fbf565b610200516102200161032051906110ae91613174565b61020051808203906102400152610200519060c051906110cd91612fbf565b0361020051f35b34610d5e576020366003190112610d5e576004356001600160401b038111610d5e576111326111096020923690600401613061565b9061112d60ff60146040518585823787818781016000815203019020015416613572565b613870565b61113f6040518092613174565bf35b34610d5e57602080600319360112610d5e576001600160a01b0361116361308e565b16600052600281526040600020805461117b816137f4565b916111896040519384613202565b8183526000908152838120938084015b8383106111b257604051806111ae8782612fff565b0390f35b60018281926040516111cf816111c8818d61375f565b0382613202565b815201960192019194611199565b34610d5e576020366003190112610d5e576004356001600160401b038111610d5e5761127f6111ae61125c61122261121c61126a953690600401613061565b90613a42565b989b95919661124e60409e94969b92999e519e8f9e8f9015158152610140908160208201520190612fbf565b8d810360408f015290612fbf565b908b820360608d0152612fbf565b9660808a015260a089015260c0880190613174565b151560e08601521515610100850152838203610120850152612fbf565b6130fc565b34610d5e576020366003190112610d5e576004356001600160401b038111610d5e576112dc6112d66020923690600401613061565b9061380b565b6040519015158152f35b34610d5e57608060206112f8366130ba565b9290916000606060405161130b816131b1565b828152828582015282604082015201528260405193849283378101600381520301902060018060a01b0380921660005260205260406000209060405190611351826131b1565b82541691828252600181015460208301908152606060ff600360028501549460408701958652015416930192151583526040519384525160208401525160408301525115156060820152f35b34610d5e576000366003190112610d5e5760005b60019081548110156114b1576113d66113c9826134e3565b506040519182809261366c565b60008152602092839103019020906012820193845460ff811693600485101561149b576114159685158061148d575b61141a575b5050505050506132cc565b6113b1565b836114329360ff19161790556040519182809261366c565b039020916114436040518095613174565b830152600c60808060408501528301526b105d5d1bcb595e1c1a5c995960a21b60a0830152426060830152600080516020613b5d83398151915260c03393a382808080808061140a565b50600b820154421015611405565b634e487b7160e01b600052602160045260246000fd5b005b34610d5e576020366003190112610d5e576004356001600160401b038111610d5e576114e3903690600401613061565b61150760ff6014604051848682376020818681016000815203019020015416613572565b6040518183823760208183810160008152030190209160128301805460ff811694600486101561149b57600b9061153e8715613621565b015442106115bc5760ff191660011790556040519182918190833781016000815203902061156f6040518093613174565b60016020830152608060408301526013608083015272115e1c1a5c9e4819185d19481c995858da1959606a1b60a0830152426060830152600080516020613b5d83398151915260c03393a3005b60405162461bcd60e51b815260206004820152602260248201527f50726f647563743a20626174636820686173206e6f7420657870697265642079604482015261195d60f21b6064820152608490fd5b34610d5e5760c0366003190112610d5e576001600160401b03600435818111610d5e5761163d903690600401613061565b91602435818111610d5e57611656903690600401613061565b91604435818111610d5e5761166f903690600401613061565b93606435838111610d5e57611688903690600401613061565b94909360a435908111610d5e576116a3903690600401613061565b9590946116cc60ff60148c60208d82604051938492833781016000815203019020015416613572565b6116fb6040518b8b823760008c8201908152602090829003019020600601546001600160a01b031633146135be565b6040518a8a82376020818c810160008152030190209360ff601286015416600481101561149b576117a2576117619860099661174161174a936117539760028a01613420565b60038701613420565b60048401613420565b608435600882015501613420565b816040519283928337810160008152039020604051904282527f13a95651c84111689a0602d8776ff94a0f0e3c3879194fc9940f3780c1d672b160203393a3005b60405162461bcd60e51b815260206004820152602760248201527f50726f647563743a2063616e206f6e6c792075706461746520416374697665206044820152666261746368657360c81b6064820152608490fd5b34610d5e57602080600319360112610d5e576004356001600160401b038111610d5e578161182b6007923690600401613061565b919061185060ff60146040518685823785818881016000815203019020015416613572565b826040519384928337810160008152030190200190815491611871836137f4565b9261187f6040519485613202565b8084528284018092600052836000206000915b8383106119225750505050604051918083019381845251809452604083019360408160051b85010192916000955b8287106118cd5785850386f35b909192938280611912600193603f198a820301865288519060406118f983516060808552840190612fbf565b9285810151868401520151906040818403910152612fbf565b96019201960195929190926118c0565b600386600192604099989951611937816131cc565b604051611948816111c8818a61375f565b81528486015483820152604051611966816111c88160028b0161375f565b6040820152815201920192019190959495611892565b34610d5e576000366003190112610d5e576040517f00000000000000000000000000000000000000000000000000000000000000006001600160a01b03168152602090f35b34610d5e57602080600319360112610d5e576119db61308e565b6001805490916001600160a01b03166000805b838110611aa557506119ff906138be565b9260009160005b848110611a1b57604051806111ae8882612fff565b611a3587611a28836134e3565b506040519283809261366c565b60038152030190208260005287528260406000200154611a5e575b611a59906132cc565b611a06565b92611a9d611a59916111c8611a82611a75886134e3565b506040519283809261375f565b611a8c828a613908565b52611a978189613908565b506132cc565b939050611a50565b611ab286611a28836134e3565b60038152030190208360005286528460406000200154611adb575b611ad6906132cc565b6119ee565b90611ae8611ad6916132cc565b919050611acd565b34610d5e576080366003190112610d5e576004356001600160401b038111610d5e57611b20903690600401613061565b90611b296130a4565b906044356001600160a01b0381169003610d5e5733600052600560205260ff6040600020541680156120a3575b611b5f906136ef565b611b8360ff6014604051868582376020818881016000815203019020015416613572565b611b906064351515613287565b6001600160a01b03821615612061576044356001600160a01b031615612021576001600160a01b0382811660443590911614611fd2576040518382823760208185810160008152030190209160ff601284015416600481101561149b57611bf79015613621565b604051848382376003858201526020818681010301902060018060a01b038216600052602052604060002060ff60038201541615611f81576001810154906064358210611f2e57600190611c4d60643584613745565b918291015560405186858237808781016000815203902090604051928352602083015260806040830152600c60808301526b1d1c985b9cd9995c8b5bdd5d60a21b60a0830152426060830152600080516020613b7d83398151915260c060018060a01b03851693a360405184838237602081868101600381520301902060018060a01b0360443516600052602052604060002060ff6003820154169081600014611f26576001810154915b611f0f5750611d90604051611d0c816131b1565b60018060a01b036044351681526003602082016064358152604083014281526060840191600183526040518b8a82378b810185815281900360209081019091206044356001600160a01b0390811660009081529190925260409020955186546001600160a01b03191691161785555160018501555160028401555115159101613244565b611db26040518685823786810190600482526020816044359303019020613516565b611dbe60643582613752565b60405186858237808781016000815203902090604051928352602083015260806040830152600b60808301526a3a3930b739b332b916b4b760a91b60a0830152426060830152600080516020613b7d83398151915260c060018060a01b036044351693a360068301546001600160a01b03918216911614611ee4575b600e8201541580611ed3575b611e4c57005b60ff92611e84916012840154936012600387198716179101558160405192839283378101600081520390209160405193849116613174565b60036020830152608060408301526015608083015274105b1b081cdd1bd8dac81d1c985b9cd9995c9c9959605a1b60a0830152426060830152600080516020613b5d83398151915260c03393a3005b50600f820154600d83015414611e46565b600e8201611ef56064358254613745565b9055600f8201611f086064358254613752565b9055611e3a565b600101611f1f6064358254613752565b9055611db2565b600091611cf8565b60405162461bcd60e51b815260206004820152602560248201527f50726f647563743a20696e73756666696369656e742073746f636b206174207360448201526432b73232b960d91b6064820152608490fd5b60405162461bcd60e51b815260206004820152602360248201527f50726f647563743a2073656e64657220686173206e6f2073746f636b207265636044820152621bdc9960ea1b6064820152608490fd5b60405162461bcd60e51b815260206004820152602160248201527f50726f647563743a2066726f6d20616e6420746f20617265207468652073616d6044820152606560f81b6064820152608490fd5b60405162461bcd60e51b815260206004820152601860248201527750726f647563743a207a65726f20746f206164647265737360401b6044820152606490fd5b60405162461bcd60e51b815260206004820152601a60248201527950726f647563743a207a65726f2066726f6d206164647265737360301b6044820152606490fd5b506040516303e1469160e61b81526020816004817f00000000000000000000000000000000000000000000000000000000000000006001600160a01b03165afa8015610d5257611b5f91600091612108575b506001600160a01b031633149050611b56565b61212a915060203d602011612130575b6121228183613202565b810190613225565b856120f5565b503d612118565b34610d5e57602080600319360112610d5e5761215161308e565b906000806001908154925b838110612241575061216d906138be565b9260009060005b84811061218957604051806111ae8882612fff565b612192816134e3565b5061219c8161391c565b60ff60128201541690600482101561149b57868214918215612221575b5050806121f7575b6121d5575b506121d0906132cc565b612174565b6121d091936111c8611a826121f0936040519283809261375f565b92906121c6565b50612201816139af565b6001600160a01b03891660009081529084526040902085015415156121c1565b15915081612232575b5089806121b9565b600b915001544210158961222a565b61224a816134e3565b506122548161391c565b9060ff60128301541691600483101561149b578583149283156122ce575b5050816122a3575b5061228e575b612289906132cc565b61215c565b9061229b612289916132cc565b919050612280565b6122ad91506139af565b6001600160a01b03871660009081529086526040902083015415158761227a565b909192501590816122e3575b50908880612272565b600b91500154421015886122da565b34610d5e576060366003190112610d5e576001600160401b03600435818111610d5e57612323903690600401613061565b9091602435818111610d5e5761233d903690600401613061565b9091604435908111610d5e57612357903690600401613061565b949061237d60ff6014604051888682376020818a81016000815203019020015416613572565b6123ac604051868482376000878201908152602090829003019020600601546001600160a01b031633146135be565b821561244b577faf137996ee9f8474f6a283b198c12df16157c9a5949b0862f4351666c8e3be109461244092612408888460116040518686823760208188810160008152030190206124028a8c60108401613420565b01613420565b81604051928392833781016000815203902095612432604051958695606087526060870191613551565b918483036020860152613551565b4260408301520390a2005b60405162461bcd60e51b8152602060048201526015602482015274141c9bd91d58dd0e88195b5c1d1e4814548810d251605a1b6044820152606490fd5b34610d5e57602080600319360112610d5e576004356001600160401b038111610d5e576124ba82913690600401613061565b91906124df60ff60146040518685823785818881016000815203019020015416613572565b8260405193849283378101600481520301902060405190818382549182815201908192600052846000209060005b8682821061256c57868661252382880383613202565b604051928392818401908285525180915260408401929160005b82811061254c57505050500390f35b83516001600160a01b03168552869550938101939281019260010161253d565b83546001600160a01b03168552909301926001928301920161250d565b34610d5e576020366003190112610d5e576004356001600160401b038111610d5e5760206125be61263e923690600401613061565b91906125e360ff60146040518685823785818881016000815203019020015416613572565b826040519384928337810160008152030190206111ae601161262a6040519361261a85612613816010850161375f565b0386613202565b6111c8604051809481930161375f565b604051938493604085526040850190612fbf565b908382036020850152612fbf565b34610d5e57602061265c366130ba565b929091826040519384928337810160038152030190209060018060a01b03166000526020526020600160406000200154604051908152f35b34610d5e576040366003190112610d5e576126ad61308e565b60243590811515808303610d5e576040516303e1469160e61b81526020926001600160a01b039184816004817f000000000000000000000000000000000000000000000000000000000000000087165afa8015610d525783916000916127e1575b5016330361279d571692831561276057906127577f3046d191ee6b1e047d1d9ffca805ece034ff39d74e00f0475f0d0b603879f0de939285600052600584526040600020613244565b604051908152a2005b60405162461bcd60e51b815260048101849052601560248201527450726f647563743a207a65726f206164647265737360581b6044820152606490fd5b60405162461bcd60e51b815260048101859052601c60248201527b283937b23ab1ba1d1031b0b63632b91034b9903737ba1030b236b4b760211b6044820152606490fd5b6127f89150863d8811612130576121228183613202565b8761270e565b34610d5e576060366003190112610d5e576004356001600160401b038111610d5e5761282e903690600401613061565b6128366130a4565b9160443590336000526020926005845260ff6040600020541680156129ca575b61285f906136ef565b61288260ff60146040518486823787818681016000815203019020015416613572565b61288d831515613287565b60405181838237848183810160038152030190209460018060a01b031694856000528452604060002060ff600382015416156129875760010191825493808510612933579160c093916128f08694600080516020613b7d83398151915297613745565b8093558160405192839283378101600081520390209460405192835282015260806040820152600460808201526373616c6560e01b60a0820152426060820152a3005b60405162461bcd60e51b815260048101879052602660248201527f50726f647563743a20696e73756666696369656e7420706861726d61636973746044820152652073746f636b60d01b6064820152608490fd5b6064856040519062461bcd60e51b825280600483015260248201527f50726f647563743a20706861726d616369737420686173206e6f2073746f636b6044820152fd5b506040516303e1469160e61b81526001600160a01b0385826004817f000000000000000000000000000000000000000000000000000000000000000085165afa8015610d525761285f92600091612a27575b501633149050612856565b612a3e9150873d8911612130576121228183613202565b88612a1c565b34610d5e576020366003190112610d5e576004356001600160401b038111610d5e5760ff60146020612a7b81943690600401613061565b9190826040519384928337810160008152030190200154166040519015158152f35b34610d5e57602080600319360112610d5e576001600160a01b03612abf61308e565b16600052600281526040600020906000808354915b828110612b9b5750612ae5906138be565b9160009060005b838110612b0157604051806111ae8782612fff565b612b0f82611a2883896134fe565b600081520301902060ff601282015416600481101561149b57159081612b8d575b81612b7f575b50612b4a575b612b45906132cc565b612aec565b91612b77612b45916111c8612b62611a75878b6134fe565b612b6c8289613908565b52611a978188613908565b929050612b3c565b600e91500154151587612b36565b600b81015442109150612b30565b612ba984611a2883886134fe565b600081520301902060ff601282015416600481101561149b57159081612c07575b81612bf9575b50612be4575b612bdf906132cc565b612ad4565b90612bf1612bdf916132cc565b919050612bd6565b600e91500154151586612bd0565b600b81015442109150612bca565b34610d5e576040366003190112610d5e576001600160401b03600435818111610d5e57612c46903690600401613061565b9091602435908111610d5e57612c60903690600401613061565b6040519280858537612c8860ff60148684810160008152602098899103019020015416613572565b60405181868237848183810160008152030190209460018060a01b03807f0000000000000000000000000000000000000000000000000000000000000000166040516303e1469160e61b81528781600481855afa8015610d52578391600091612e9d575b5016331491339060068a015416149081612e44575b508115612e3c575b5015612ded57601286019586549660ff881697600489101561149b57612d2f8915613621565b8515612da85792612d6586886013600296600080516020613b5d8339815191529b999688612d999c9a60ff191617905501613420565b81604051928392833781016000815203902095612d856040518099613174565b870152608060408701526080860191613551565b924260608201528033940390a3005b60405162461bcd60e51b815260048101899052601f60248201527f50726f647563743a20726563616c6c20726561736f6e207265717569726564006044820152606490fd5b60405162461bcd60e51b815260048101869052602160248201527f50726f647563743a206e6f7420617574686f726973656420746f20726563616c6044820152601b60fa1b6064820152608490fd5b905087612d09565b604051630b88ded160e01b81529150879082908180612e66336004830161326d565b03915afa908115610d5257600091612e80575b5088612d01565b612e979150873d8911610d4b57610d3d8183613202565b88612e79565b612eb49150893d8b11612130576121228183613202565b8a612cec565b34610d5e576000366003190112610d5e576001546000805b828110612f6e5750612ee3906138be565b60009160005b818110612efe57604051806111ae8582612fff565b60ff6012612f106020611a28856134e3565b6000815203019020015416600481101561149b57600214612f3a575b612f35906132cc565b612ee9565b92612f66612f35916111c8612f51611a75886134e3565b612f5b8287613908565b52611a978186613908565b939050612f2c565b60ff6012612f806020611a28856134e3565b6000815203019020015416600481101561149b57600214612faa575b612fa5906132cc565b612ed2565b90612fb7612fa5916132cc565b919050612f9c565b919082519283825260005b848110612feb575050826000602080949584010152601f8019910116010190565b602081830181015184830182015201612fca565b602080820190808352835180925260408301928160408460051b8301019501936000915b8483106130335750505050505090565b9091929394958480613051600193603f198682030187528a51612fbf565b9801930193019194939290613023565b9181601f84011215610d5e578235916001600160401b038311610d5e5760208381860195010111610d5e57565b600435906001600160a01b0382168203610d5e57565b602435906001600160a01b0382168203610d5e57565b6040600319820112610d5e57600435906001600160401b038211610d5e576130e491600401613061565b90916024356001600160a01b0381168103610d5e5790565b34610d5e5760008060031936011261317157600180549061311c826137f4565b9160409361312c85519485613202565b81845282815260208082208186015b84841061314f578751806111ae8982612fff565b858381928a51613163816111c8818961375f565b81520192019301929061313b565b80fd5b90600482101561149b5752565b9181601f84011215610d5e578235916001600160401b038311610d5e576020808501948460051b010111610d5e57565b608081019081106001600160401b0382111761071657604052565b606081019081106001600160401b0382111761071657604052565b602081019081106001600160401b0382111761071657604052565b601f909101601f19168101906001600160401b0382119082101761071657604052565b90816020910312610d5e57516001600160a01b0381168103610d5e5790565b9060ff801983541691151516179055565b90816020910312610d5e57518015158103610d5e5790565b6001600160a01b0390911681526002602082015260400190565b1561328e57565b60405162461bcd60e51b815260206004820152601660248201527550726f647563743a207a65726f207175616e7469747960501b6044820152606490fd5b60001981146132db5760010190565b634e487b7160e01b600052601160045260246000fd5b91908110156109f95760051b81013590601e1981360301821215610d5e5701803591906001600160401b038311610d5e576020018236038113610d5e579190565b91908110156109f95760051b0190565b9192916001600160401b038211610716576040519161336b601f8201601f191660200184613202565b829481845281830111610d5e578281602093846000960137010152565b90600182811c921680156133b8575b60208310146133a257565b634e487b7160e01b600052602260045260246000fd5b91607f1691613397565b8181106133cd575050565b600081556001016133c2565b9190601f81116133e857505050565b613414926000526020600020906020601f840160051c83019310613416575b601f0160051c01906133c2565b565b9091508190613407565b9092916001600160401b038111610716576134458161343f8454613388565b846133d9565b6000601f821160011461347f5781929394600092613474575b50508160011b916000199060031b1c1916179055565b01359050388061345e565b601f198216948382526020918281209281905b8882106134cb575050836001959697106134b1575b505050811b019055565b0135600019600384901b60f8161c191690553880806134a7565b80600184968294958701358155019501920190613492565b6001548110156109f957600160005260206000200190600090565b80548210156109f95760005260206000200190600090565b8054600160401b81101561071657613533916001820181556134fe565b819291549060031b9160018060a01b03809116831b921b1916179055565b908060209392818452848401376000828201840152601f01601f1916010190565b1561357957565b60405162461bcd60e51b815260206004820152601d60248201527f50726f647563743a20626174636820646f6573206e6f742065786973740000006044820152606490fd5b156135c557565b60405162461bcd60e51b815260206004820152602e60248201527f50726f647563743a2063616c6c657220646964206e6f74206d616e756661637460448201526d0eae4ca40e8d0d2e640c4c2e8c6d60931b6064820152608490fd5b1561362857565b60405162461bcd60e51b815260206004820152601c60248201527b50726f647563743a206261746368206973206e6f742041637469766560201b6044820152606490fd5b60009291815461367b81613388565b926001918083169081156136d45750600114613698575b50505050565b90919293945060005260209081600020906000915b8583106136c35750505050019038808080613692565b8054858401529183019181016136ad565b60ff1916845250505081151590910201915038808080613692565b156136f657565b60405162461bcd60e51b815260206004820152602160248201527f50726f647563743a2063616c6c6572206973206e6f7420617574686f726973656044820152601960fa1b6064820152608490fd5b919082039182116132db57565b919082018092116132db57565b906000929180549161377083613388565b9182825260019384811690816000146137d157506001146137915750505050565b90919394506000526020928360002092846000945b8386106137bd575050505001019038808080613692565b8054858701830152940193859082016137a6565b9294505050602093945060ff191683830152151560051b01019038808080613692565b6001600160401b0381116107165760051b60200190565b60ff601460405184848237602081868101600081520301902001541615613869576020908260405193849283378101600081520301902060ff601282015416600481101561149b5715908161385e575090565b600b91500154421090565b5050600090565b6020908260405193849283378101600081520301902060ff60128201541690600482101561149b57811590816138af575b506138a95790565b50600190565b600b91500154421015386138a1565b906138c8826137f4565b6138d56040519182613202565b82815280926138e6601f19916137f4565b019060005b8281106138f757505050565b8060606020809385010152016138eb565b80518210156109f95760209160051b010190565b60405190816000825461392e81613388565b936001918083169081156139935750600114613956575b505060209250600081520301902090565b90915060005260209081600020906000915b85831061397f575050505060209181013880613945565b805487840152869450918301918101613968565b92505050602093915060ff191682528015150281013880613945565b6040519081600082546139c181613388565b93600191808316908115613a2657506001146139e9575b505060209250600381520301902090565b90915060005260209081600020906000915b858310613a125750505050602091810138806139d8565b8054878401528694509183019181016139fb565b92505050602093915060ff1916825280151502810138806139d8565b906040908151928181853760ff6014838601956020816000988981520301902001541615613b1357602090828451938492833781018581520301902092600a84015490600b8501549460ff601282015416946004861015613aff57506001958451613ab3816111c8818b870161375f565b958551613ac7816111c8816002880161375f565b958051613adb816111c8816005890161375f565b95946010613afc85966111c86002879842101597149551809481930161375f565b90565b634e487b7160e01b81526021600452602490fd5b505081928151613b22816131e7565b838152928251613b31816131e7565b818152928051613b40816131e7565b8281529282809281928280925190613b57826131e7565b81529056fec159f6a1f5787aa93bac8af3da93d2dc7e1cdbcebaafe922c7846fefe0df116d474aaa6ff8202fc7fb53e0e613f0c8d945f541fa13624480265c54b2359b5b0fa26469706673582212202faea11849bd2f13b83f8f3aac10e7aca8c94eb0117478a45a6e7623ed873cb964736f6c63430008140033",
  "immutableReferences": {
    "198": [
      {
        "length": 32,
        "start": 819
      },
      {
        "length": 32,
        "start": 6546
      },
      {
        "length": 32,
        "start": 8377
      },
      {
        "length": 32,
        "start": 9947
      },
      {
        "length": 32,
        "start": 10727
      },
      {
        "length": 32,
        "start": 11431
      }
    ]
  },
  "source": "// SPDX-License-Identifier: MIT\npragma solidity ^0.8.20;\n\n// ─────────────────────────────────────────────────────────────────────────────\n// Interface — RegistryContract\n// ─────────────────────────────────────────────────────────────────────────────\n\nimport \"./IRegistry.sol\";\n\n// ─────────────────────────────────────────────────────────────────────────────\n// ProductContract\n// ─────────────────────────────────────────────────────────────────────────────\n\n/// @title  ProductContract\n/// @notice Manages medicine batch creation, raw-material records, QR metadata,\n///         stock levels, expiry tracking, and recall management for the\n///         Blockchain-Based Medicine Supply Chain system.\n/// @dev    Manufacturers add batches here.  TransferContract calls\n///         adjustStock() whenever ownership moves down the chain.\n///         All role checks are delegated to RegistryContract.\ncontract ProductContract {\n\n    // ─────────────────────────────────────────────────────────────\n    // Registry reference\n    // ─────────────────────────────────────────────────────────────\n\n    IRegistry public immutable registry;\n\n    // ─────────────────────────────────────────────────────────────\n    // Enums\n    // ─────────────────────────────────────────────────────────────\n\n    /// @dev Lifecycle states of a medicine batch.\n    enum BatchStatus {\n        Active,     // 0 – in circulation, valid\n        Expired,    // 1 – past expiry date\n        Recalled,   // 2 – recalled by manufacturer or admin\n        Depleted    // 3 – all units consumed / transferred out\n    }\n\n    // ─────────────────────────────────────────────────────────────\n    // Structs\n    // ─────────────────────────────────────────────────────────────\n\n    struct RawMaterial {\n        string name;\n        uint256 quantity;   // in grams / ml / units (manufacturer decides unit)\n        string  unit;       // \"g\", \"ml\", \"kg\", \"units\", etc.\n    }\n\n    /// @dev Per-node stock entry.  One record exists per (batchNo, holderAddress).\n    struct StockEntry {\n        address holder;             // who currently holds this portion\n        uint256 quantity;           // units held\n        uint256 receivedAt;         // timestamp when this holder received stock\n        bool    exists;\n    }\n\n    struct Batch {\n        // ── Identity ────────────────────────────────────────────\n        string      batchNumber;\n        string      productName;\n        string      genericName;        // INN / generic medicine name\n        string      dosageForm;         // tablet / syrup / injection / capsule …\n        string      strength;           // \"500mg\", \"250mg/5ml\" …\n        string      manufacturer;       // name string (complementary to address)\n        address     manufacturerAddr;\n\n        // ── Raw materials ────────────────────────────────────────\n        RawMaterial[] rawMaterials;\n\n        // ── Financial ────────────────────────────────────────────\n        uint256     costPerUnit;        // in wei (or a stable unit — your choice)\n        string      currency;           // \"PKR\", \"USD\" — informational only\n\n        // ── Dates (unix timestamps) ───────────────────────────────\n        uint256     mfgDate;\n        uint256     expiryDate;\n        uint256     createdAt;          // block.timestamp of addBatch()\n\n        // ── Quantities ───────────────────────────────────────────\n        uint256     totalQuantity;      // produced\n        uint256     remainingAtSource;  // still at manufacturer\n        uint256     transferredOut;     // total units moved downstream\n\n        // ── QR / IPFS ────────────────────────────────────────────\n        string      qrCodeCID;          // IPFS CID of the QR image\n        string      metadataCID;        // IPFS CID of full batch metadata JSON\n\n        // ── Status ───────────────────────────────────────────────\n        BatchStatus status;\n        string      recallReason;       // non-empty only when status == Recalled\n\n        bool        exists;\n    }\n\n    // ─────────────────────────────────────────────────────────────\n    // Storage\n    // ─────────────────────────────────────────────────────────────\n\n    /// @dev Primary store: batchNumber → Batch\n    mapping(string => Batch) private batches;\n\n    /// @dev All batch numbers ever created (for iteration)\n    string[] private allBatchNumbers;\n\n    /// @dev Per-manufacturer batch index: address → batchNumbers[]\n    mapping(address => string[]) private manufacturerBatches;\n\n    /// @dev Per-node stock: batchNumber → holderAddress → StockEntry\n    ///      Updated by both this contract and TransferContract.\n    mapping(string => mapping(address => StockEntry)) private nodeStock;\n\n    /// @dev All holders who have ever held a batch (for expiry sweeps)\n    mapping(string => address[]) private batchHolders;\n\n    /// @dev Authorised callers (TransferContract address once deployed)\n    mapping(address => bool) private authorisedCallers;\n\n    // ─────────────────────────────────────────────────────────────\n    // Events\n    // ─────────────────────────────────────────────────────────────\n\n    event BatchAdded(\n        string  indexed batchNumber,\n        address indexed manufacturerAddr,\n        string          productName,\n        uint256         totalQuantity,\n        uint256         expiryDate,\n        uint256         timestamp\n    );\n\n    event BatchStatusChanged(\n        string  indexed batchNumber,\n        BatchStatus     oldStatus,\n        BatchStatus     newStatus,\n        address indexed changedBy,\n        string          reason,\n        uint256         timestamp\n    );\n\n    event QRUpdated(\n        string  indexed batchNumber,\n        string          qrCodeCID,\n        string          metadataCID,\n        uint256         timestamp\n    );\n\n    event StockAdjusted(\n        string  indexed batchNumber,\n        address indexed holder,\n        uint256         previousQty,\n        uint256         newQty,\n        string          reason,\n        uint256         timestamp\n    );\n\n    event AuthorisedCallerSet(\n        address indexed caller,\n        bool            authorised\n    );\n\n    event BatchDetailsUpdated(\n        string  indexed batchNumber,\n        address indexed updatedBy,\n        uint256         timestamp\n    );\n\n    // ─────────────────────────────────────────────────────────────\n    // Modifiers\n    // ─────────────────────────────────────────────────────────────\n\n    modifier onlyAdmin() {\n        require(\n            msg.sender == registry.admin(),\n            \"Product: caller is not admin\"\n        );\n        _;\n    }\n\n    modifier onlyManufacturer() {\n        require(\n            registry.isApprovedWithRole(msg.sender, IRegistry.Role.Manufacturer),\n            \"Product: caller is not an approved manufacturer\"\n        );\n        _;\n    }\n\n    modifier onlyAuthorisedCaller() {\n        require(\n            authorisedCallers[msg.sender] || msg.sender == registry.admin(),\n            \"Product: caller is not authorised\"\n        );\n        _;\n    }\n\n    modifier batchExists(string calldata _batchNo) {\n        require(batches[_batchNo].exists, \"Product: batch does not exist\");\n        _;\n    }\n\n    modifier batchOwnedByManufacturer(string calldata _batchNo) {\n        require(\n            batches[_batchNo].manufacturerAddr == msg.sender,\n            \"Product: caller did not manufacture this batch\"\n        );\n        _;\n    }\n\n    // ─────────────────────────────────────────────────────────────\n    // Constructor\n    // ─────────────────────────────────────────────────────────────\n\n    constructor(address _registryAddress) {\n        require(_registryAddress != address(0), \"Product: zero registry address\");\n        registry = IRegistry(_registryAddress);\n    }\n\n    // ─────────────────────────────────────────────────────────────\n    // Authorised-Caller Management  (Admin only)\n    // ─────────────────────────────────────────────────────────────\n\n    /// @notice Grant or revoke permission for a contract (e.g. TransferContract)\n    ///         to call adjustStock() and other restricted functions.\n    function setAuthorisedCaller(address _caller, bool _authorised)\n        external\n        onlyAdmin\n    {\n        require(_caller != address(0), \"Product: zero address\");\n        authorisedCallers[_caller] = _authorised;\n        emit AuthorisedCallerSet(_caller, _authorised);\n    }\n\n    // ─────────────────────────────────────────────────────────────\n    // Batch Creation  (Manufacturer)\n    // ─────────────────────────────────────────────────────────────\n\n    /// @notice Add a new medicine batch to the blockchain.\n    /// @param _batchNumber   Unique batch identifier (e.g. \"MFR-2024-B001\").\n    /// @param _productName   Brand / trade name.\n    /// @param _genericName   INN generic name.\n    /// @param _dosageForm    \"Tablet\", \"Syrup\", \"Injection\", etc.\n    /// @param _strength      \"500mg\", \"250mg/5ml\", etc.\n    /// @param _manufacturerName  Legal name of the manufacturing company.\n    /// @param _rmNames       Raw material names array.\n    /// @param _rmQuantities  Raw material quantities array (parallel to names).\n    /// @param _rmUnits       Raw material units array (parallel to names).\n    /// @param _costPerUnit   Cost per medicine unit (in smallest currency unit).\n    /// @param _currency      Currency string: \"PKR\", \"USD\", etc.\n    /// @param _mfgDate       Manufacturing date as unix timestamp.\n    /// @param _expiryDate    Expiry date as unix timestamp.\n    /// @param _totalQuantity Total units produced in this batch.\n    /// @param _qrCodeCID     IPFS CID of the QR code image (can be set later).\n    /// @param _metadataCID   IPFS CID of full batch metadata JSON (can be set later).\n    function addBatch(\n        string   calldata _batchNumber,\n        string   calldata _productName,\n        string   calldata _genericName,\n        string   calldata _dosageForm,\n        string   calldata _strength,\n        string   calldata _manufacturerName,\n        string[] calldata _rmNames,\n        uint256[] calldata _rmQuantities,\n        string[] calldata _rmUnits,\n        uint256  _costPerUnit,\n        string   calldata _currency,\n        uint256  _mfgDate,\n        uint256  _expiryDate,\n        uint256  _totalQuantity,\n        string   calldata _qrCodeCID,\n        string   calldata _metadataCID\n    )\n        external\n        onlyManufacturer\n    {\n        // ── Validations ──────────────────────────────────────────\n        require(bytes(_batchNumber).length > 0,   \"Product: empty batch number\");\n        require(!batches[_batchNumber].exists,     \"Product: batch number already exists\");\n        require(bytes(_productName).length > 0,   \"Product: empty product name\");\n        require(_totalQuantity > 0,               \"Product: zero quantity\");\n        require(_mfgDate > 0,                     \"Product: invalid mfg date\");\n        require(_expiryDate > _mfgDate,           \"Product: expiry must be after mfg date\");\n        require(_expiryDate > block.timestamp,    \"Product: expiry date already passed\");\n        require(\n            _rmNames.length == _rmQuantities.length &&\n            _rmNames.length == _rmUnits.length,\n            \"Product: raw material arrays length mismatch\"\n        );\n\n        // ── Build raw materials array ────────────────────────────\n        Batch storage b = batches[_batchNumber];\n        for (uint256 i = 0; i < _rmNames.length; i++) {\n            require(bytes(_rmNames[i]).length > 0,  \"Product: empty raw material name\");\n            require(_rmQuantities[i] > 0,           \"Product: zero raw material quantity\");\n            b.rawMaterials.push(RawMaterial({\n                name:     _rmNames[i],\n                quantity: _rmQuantities[i],\n                unit:     _rmUnits[i]\n            }));\n        }\n\n        // ── Populate batch ───────────────────────────────────────\n        b.batchNumber       = _batchNumber;\n        b.productName       = _productName;\n        b.genericName       = _genericName;\n        b.dosageForm        = _dosageForm;\n        b.strength          = _strength;\n        b.manufacturer      = _manufacturerName;\n        b.manufacturerAddr  = msg.sender;\n        b.costPerUnit       = _costPerUnit;\n        b.currency          = _currency;\n        b.mfgDate           = _mfgDate;\n        b.expiryDate        = _expiryDate;\n        b.createdAt         = block.timestamp;\n        b.totalQuantity     = _totalQuantity;\n        b.remainingAtSource = _totalQuantity;\n        b.transferredOut    = 0;\n        b.qrCodeCID         = _qrCodeCID;\n        b.metadataCID       = _metadataCID;\n        b.status            = BatchStatus.Active;\n        b.recallReason      = \"\";\n        b.exists            = true;\n\n        // ── Update indexes ───────────────────────────────────────\n        allBatchNumbers.push(_batchNumber);\n        manufacturerBatches[msg.sender].push(_batchNumber);\n\n        // ── Initialise manufacturer's own stock entry ────────────\n        nodeStock[_batchNumber][msg.sender] = StockEntry({\n            holder:     msg.sender,\n            quantity:   _totalQuantity,\n            receivedAt: block.timestamp,\n            exists:     true\n        });\n        batchHolders[_batchNumber].push(msg.sender);\n\n        emit BatchAdded(\n            _batchNumber,\n            msg.sender,\n            _productName,\n            _totalQuantity,\n            _expiryDate,\n            block.timestamp\n        );\n    }\n\n    // ─────────────────────────────────────────────────────────────\n    // QR / Metadata Update  (Manufacturer who owns batch)\n    // ─────────────────────────────────────────────────────────────\n\n    /// @notice Update or add QR code and metadata IPFS CIDs after batch creation.\n    ///         Useful when the QR is generated off-chain right after batch is mined.\n    function updateQR(\n        string calldata _batchNumber,\n        string calldata _qrCodeCID,\n        string calldata _metadataCID\n    )\n        external\n        batchExists(_batchNumber)\n        batchOwnedByManufacturer(_batchNumber)\n    {\n        require(bytes(_qrCodeCID).length > 0, \"Product: empty QR CID\");\n\n        Batch storage b = batches[_batchNumber];\n        b.qrCodeCID   = _qrCodeCID;\n        b.metadataCID = _metadataCID;\n\n        emit QRUpdated(_batchNumber, _qrCodeCID, _metadataCID, block.timestamp);\n    }\n\n    // ─────────────────────────────────────────────────────────────\n    // Batch Detail Update  (Manufacturer who owns batch)\n    // ─────────────────────────────────────────────────────────────\n\n    /// @notice Correct non-critical batch fields (dosage form, strength, CIDs).\n    ///         Core identity fields (batchNumber, mfgDate, expiryDate, quantity)\n    ///         are intentionally immutable after creation.\n    function updateBatchDetails(\n        string calldata _batchNumber,\n        string calldata _genericName,\n        string calldata _dosageForm,\n        string calldata _strength,\n        uint256         _costPerUnit,\n        string calldata _currency\n    )\n        external\n        batchExists(_batchNumber)\n        batchOwnedByManufacturer(_batchNumber)\n    {\n        Batch storage b = batches[_batchNumber];\n        require(\n            b.status == BatchStatus.Active,\n            \"Product: can only update Active batches\"\n        );\n\n        b.genericName = _genericName;\n        b.dosageForm  = _dosageForm;\n        b.strength    = _strength;\n        b.costPerUnit = _costPerUnit;\n        b.currency    = _currency;\n\n        emit BatchDetailsUpdated(_batchNumber, msg.sender, block.timestamp);\n    }\n\n    // ─────────────────────────────────────────────────────────────\n    // Status Management\n    // ─────────────────────────────────────────────────────────────\n\n    /// @notice Mark a batch as Recalled. Callable by the manufacturer who\n    ///         created it, or by admin.\n    function recallBatch(string calldata _batchNumber, string calldata _reason)\n        external\n        batchExists(_batchNumber)\n    {\n        Batch storage b = batches[_batchNumber];\n\n        bool isAdmin        = (msg.sender == registry.admin());\n        bool isManufacturer = (b.manufacturerAddr == msg.sender &&\n            registry.isApprovedWithRole(msg.sender, IRegistry.Role.Manufacturer));\n\n        require(isAdmin || isManufacturer, \"Product: not authorised to recall\");\n        require(b.status == BatchStatus.Active, \"Product: batch is not Active\");\n        require(bytes(_reason).length > 0,      \"Product: recall reason required\");\n\n        BatchStatus old = b.status;\n        b.status       = BatchStatus.Recalled;\n        b.recallReason = _reason;\n\n        emit BatchStatusChanged(\n            _batchNumber, old, BatchStatus.Recalled,\n            msg.sender, _reason, block.timestamp\n        );\n    }\n\n    /// @notice Expire a single batch by batch number.\n    ///         Callable by admin, or by any approved entity checking their own stock.\n    function expireBatch(string calldata _batchNumber)\n        external\n        batchExists(_batchNumber)\n    {\n        Batch storage b = batches[_batchNumber];\n\n        require(b.status == BatchStatus.Active,  \"Product: batch is not Active\");\n        require(\n            block.timestamp >= b.expiryDate,\n            \"Product: batch has not expired yet\"\n        );\n\n        BatchStatus old = b.status;\n        b.status = BatchStatus.Expired;\n\n        emit BatchStatusChanged(\n            _batchNumber, old, BatchStatus.Expired,\n            msg.sender, \"Expiry date reached\", block.timestamp\n        );\n    }\n\n    /// @notice Bulk-expire all batches whose expiryDate has passed.\n    ///         Anyone can call this (gas incentive can be added by the project).\n    function expireAllOverdueBatches() external {\n        for (uint256 i = 0; i < allBatchNumbers.length; i++) {\n            Batch storage b = batches[allBatchNumbers[i]];\n            if (\n                b.status == BatchStatus.Active &&\n                block.timestamp >= b.expiryDate\n            ) {\n                BatchStatus old = b.status;\n                b.status = BatchStatus.Expired;\n                emit BatchStatusChanged(\n                    b.batchNumber, old, BatchStatus.Expired,\n                    msg.sender, \"Auto-expired\", block.timestamp\n                );\n            }\n        }\n    }\n\n    // ─────────────────────────────────────────────────────────────\n    // Stock Adjustment  (Called by TransferContract)\n    // ─────────────────────────────────────────────────────────────\n\n    /// @notice Deduct stock from a sender and credit it to a receiver.\n    ///         Called exclusively by TransferContract when ownership moves.\n    /// @param _batchNumber  The batch being transferred.\n    /// @param _from         Current holder losing stock.\n    /// @param _to           Next holder gaining stock.\n    /// @param _quantity     Number of units moving.\n    function adjustStock(\n        string  calldata _batchNumber,\n        address _from,\n        address _to,\n        uint256 _quantity\n    )\n        external\n        onlyAuthorisedCaller\n        batchExists(_batchNumber)\n    {\n        require(_quantity > 0,           \"Product: zero quantity\");\n        require(_from != address(0),     \"Product: zero from address\");\n        require(_to   != address(0),     \"Product: zero to address\");\n        require(_from != _to,            \"Product: from and to are the same\");\n\n        Batch storage b = batches[_batchNumber];\n        require(\n            b.status == BatchStatus.Active,\n            \"Product: batch is not Active\"\n        );\n\n        // ── Deduct from sender ───────────────────────────────────\n        StockEntry storage fromEntry = nodeStock[_batchNumber][_from];\n        require(fromEntry.exists,                  \"Product: sender has no stock record\");\n        require(fromEntry.quantity >= _quantity,   \"Product: insufficient stock at sender\");\n\n        uint256 prevFrom = fromEntry.quantity;\n        fromEntry.quantity -= _quantity;\n\n        emit StockAdjusted(\n            _batchNumber, _from,\n            prevFrom, fromEntry.quantity,\n            \"transfer-out\", block.timestamp\n        );\n\n        // ── Credit to receiver ───────────────────────────────────\n        StockEntry storage toEntry = nodeStock[_batchNumber][_to];\n        uint256 prevTo = toEntry.exists ? toEntry.quantity : 0;\n\n        if (!toEntry.exists) {\n            nodeStock[_batchNumber][_to] = StockEntry({\n                holder:     _to,\n                quantity:   _quantity,\n                receivedAt: block.timestamp,\n                exists:     true\n            });\n            batchHolders[_batchNumber].push(_to);\n        } else {\n            toEntry.quantity += _quantity;\n        }\n\n        emit StockAdjusted(\n            _batchNumber, _to,\n            prevTo, prevTo + _quantity,\n            \"transfer-in\", block.timestamp\n        );\n\n        // ── Update batch-level counters ──────────────────────────\n        if (_from == b.manufacturerAddr) {\n            // Stock leaving the manufacturer's own hands\n            b.remainingAtSource -= _quantity;\n            b.transferredOut    += _quantity;\n        }\n\n        // ── Auto-deplete if all manufacturer stock is gone ───────\n        if (b.remainingAtSource == 0 && b.transferredOut == b.totalQuantity) {\n            BatchStatus old = b.status;\n            b.status = BatchStatus.Depleted;\n            emit BatchStatusChanged(\n                _batchNumber, old, BatchStatus.Depleted,\n                msg.sender, \"All stock transferred\", block.timestamp\n            );\n        }\n    }\n\n    /// @notice Pharmacist sells to a buyer (reduces pharmacist's stock).\n    ///         Called by TransferContract when a sale is recorded.\n    function deductSale(\n        string  calldata _batchNumber,\n        address _pharmacist,\n        uint256 _quantity\n    )\n        external\n        onlyAuthorisedCaller\n        batchExists(_batchNumber)\n    {\n        require(_quantity > 0, \"Product: zero quantity\");\n\n        StockEntry storage entry = nodeStock[_batchNumber][_pharmacist];\n        require(entry.exists,                  \"Product: pharmacist has no stock\");\n        require(entry.quantity >= _quantity,   \"Product: insufficient pharmacist stock\");\n\n        uint256 prev = entry.quantity;\n        entry.quantity -= _quantity;\n\n        emit StockAdjusted(\n            _batchNumber, _pharmacist,\n            prev, entry.quantity,\n            \"sale\", block.timestamp\n        );\n    }\n\n    // ─────────────────────────────────────────────────────────────\n    // View — Batch Data\n    // ─────────────────────────────────────────────────────────────\n\n    /// @notice Returns the full Batch struct for a given batch number.\n    ///         Note: rawMaterials array is NOT returned here (use getRawMaterials).\n    function getBatch(string calldata _batchNumber)\n        external\n        view\n        batchExists(_batchNumber)\n        returns (\n            string  memory batchNumber,\n            string  memory productName,\n            string  memory genericName,\n            string  memory dosageForm,\n            string  memory strength,\n            string  memory manufacturer,\n            address        manufacturerAddr,\n            uint256        costPerUnit,\n            string  memory currency,\n            uint256        mfgDate,\n            uint256        expiryDate,\n            uint256        createdAt,\n            uint256        totalQuantity,\n            uint256        remainingAtSource,\n            uint256        transferredOut,\n            string  memory qrCodeCID,\n            string  memory metadataCID,\n            BatchStatus    status,\n            string  memory recallReason\n        )\n    {\n        Batch storage b = batches[_batchNumber];\n        return (\n            b.batchNumber,\n            b.productName,\n            b.genericName,\n            b.dosageForm,\n            b.strength,\n            b.manufacturer,\n            b.manufacturerAddr,\n            b.costPerUnit,\n            b.currency,\n            b.mfgDate,\n            b.expiryDate,\n            b.createdAt,\n            b.totalQuantity,\n            b.remainingAtSource,\n            b.transferredOut,\n            b.qrCodeCID,\n            b.metadataCID,\n            b.status,\n            b.recallReason\n        );\n    }\n\n    /// @notice Returns the raw materials list for a batch.\n    function getRawMaterials(string calldata _batchNumber)\n        external\n        view\n        batchExists(_batchNumber)\n        returns (RawMaterial[] memory)\n    {\n        return batches[_batchNumber].rawMaterials;\n    }\n\n    /// @notice Returns QR and metadata CIDs (for the buyer verification page).\n    function getQRData(string calldata _batchNumber)\n        external\n        view\n        batchExists(_batchNumber)\n        returns (string memory qrCodeCID, string memory metadataCID)\n    {\n        Batch storage b = batches[_batchNumber];\n        return (b.qrCodeCID, b.metadataCID);\n    }\n\n    /// @notice Check whether a batch is still valid (Active and not expired).\n    function isBatchValid(string calldata _batchNumber)\n        external\n        view\n        returns (bool)\n    {\n        if (!batches[_batchNumber].exists) return false;\n        Batch storage b = batches[_batchNumber];\n        return b.status == BatchStatus.Active &&\n               block.timestamp < b.expiryDate;\n    }\n\n    /// @notice Returns the current on-chain status of a batch.\n    ///         If the expiry date has passed, returns Expired even if\n    ///         the status hasn't been written yet (lazy check).\n    function getBatchStatus(string calldata _batchNumber)\n        external\n        view\n        batchExists(_batchNumber)\n        returns (BatchStatus)\n    {\n        Batch storage b = batches[_batchNumber];\n        if (b.status == BatchStatus.Active && block.timestamp >= b.expiryDate) {\n            return BatchStatus.Expired;\n        }\n        return b.status;\n    }\n\n    // ─────────────────────────────────────────────────────────────\n    // View — Stock Queries\n    // ─────────────────────────────────────────────────────────────\n\n    /// @notice Returns the stock quantity of a specific batch held by a specific address.\n    function getStockOf(string calldata _batchNumber, address _holder)\n        external\n        view\n        returns (uint256)\n    {\n        return nodeStock[_batchNumber][_holder].quantity;\n    }\n\n    /// @notice Returns the full StockEntry for a holder.\n    function getStockEntry(string calldata _batchNumber, address _holder)\n        external\n        view\n        returns (StockEntry memory)\n    {\n        return nodeStock[_batchNumber][_holder];\n    }\n\n    /// @notice Returns all addresses that have ever held a batch.\n    function getBatchHolders(string calldata _batchNumber)\n        external\n        view\n        batchExists(_batchNumber)\n        returns (address[] memory)\n    {\n        return batchHolders[_batchNumber];\n    }\n\n    // ─────────────────────────────────────────────────────────────\n    // View — Batch Lists\n    // ─────────────────────────────────────────────────────────────\n\n    /// @notice Returns all batch numbers ever created.\n    function getAllBatchNumbers() external view returns (string[] memory) {\n        return allBatchNumbers;\n    }\n\n    /// @notice Returns all batches created by a specific manufacturer.\n    function getBatchesByManufacturer(address _manufacturer)\n        external\n        view\n        returns (string[] memory)\n    {\n        return manufacturerBatches[_manufacturer];\n    }\n\n    /// @notice Returns batch numbers where a specific address still has\n    ///         non-zero stock — used to show \"available stock\" dashboards.\n    function getAvailableStockBatches(address _holder)\n        external\n        view\n        returns (string[] memory)\n    {\n        uint256 count = 0;\n        for (uint256 i = 0; i < allBatchNumbers.length; i++) {\n            if (nodeStock[allBatchNumbers[i]][_holder].quantity > 0) count++;\n        }\n\n        string[] memory result = new string[](count);\n        uint256 idx = 0;\n        for (uint256 i = 0; i < allBatchNumbers.length; i++) {\n            if (nodeStock[allBatchNumbers[i]][_holder].quantity > 0) {\n                result[idx] = allBatchNumbers[i];\n                idx++;\n            }\n        }\n        return result;\n    }\n\n    /// @notice Returns batch numbers that are expired AND where the\n    ///         holder still has non-zero stock (for return/recall workflows).\n    function getExpiredStockBatches(address _holder)\n        external\n        view\n        returns (string[] memory)\n    {\n        uint256 count = 0;\n        for (uint256 i = 0; i < allBatchNumbers.length; i++) {\n            string storage bn = allBatchNumbers[i];\n            Batch  storage b  = batches[bn];\n            bool   expired    = b.status == BatchStatus.Expired ||\n                                (b.status == BatchStatus.Active && block.timestamp >= b.expiryDate);\n            if (expired && nodeStock[bn][_holder].quantity > 0) count++;\n        }\n\n        string[] memory result = new string[](count);\n        uint256 idx = 0;\n        for (uint256 i = 0; i < allBatchNumbers.length; i++) {\n            string storage bn = allBatchNumbers[i];\n            Batch  storage b  = batches[bn];\n            bool   expired    = b.status == BatchStatus.Expired ||\n                                (b.status == BatchStatus.Active && block.timestamp >= b.expiryDate);\n            if (expired && nodeStock[bn][_holder].quantity > 0) {\n                result[idx] = bn;\n                idx++;\n            }\n        }\n        return result;\n    }\n\n    /// @notice Returns all Active (non-expired, non-recalled) batches\n    ///         that still have stock remaining at the manufacturer source.\n    ///         Used by Distributor to see what is available to request.\n    function getActiveBatchesAtManufacturer(address _manufacturer)\n        external\n        view\n        returns (string[] memory)\n    {\n        string[] storage mBatches = manufacturerBatches[_manufacturer];\n        uint256 count = 0;\n\n        for (uint256 i = 0; i < mBatches.length; i++) {\n            Batch storage b = batches[mBatches[i]];\n            if (\n                b.status == BatchStatus.Active &&\n                block.timestamp < b.expiryDate &&\n                b.remainingAtSource > 0\n            ) count++;\n        }\n\n        string[] memory result = new string[](count);\n        uint256 idx = 0;\n        for (uint256 i = 0; i < mBatches.length; i++) {\n            Batch storage b = batches[mBatches[i]];\n            if (\n                b.status == BatchStatus.Active &&\n                block.timestamp < b.expiryDate &&\n                b.remainingAtSource > 0\n            ) {\n                result[idx] = mBatches[i];\n                idx++;\n            }\n        }\n        return result;\n    }\n\n    /// @notice Returns all Recalled batches (system-wide). Admin use.\n    function getRecalledBatches() external view returns (string[] memory) {\n        uint256 count = 0;\n        for (uint256 i = 0; i < allBatchNumbers.length; i++) {\n            if (batches[allBatchNumbers[i]].status == BatchStatus.Recalled) count++;\n        }\n        string[] memory result = new string[](count);\n        uint256 idx = 0;\n        for (uint256 i = 0; i < allBatchNumbers.length; i++) {\n            if (batches[allBatchNumbers[i]].status == BatchStatus.Recalled) {\n                result[idx] = allBatchNumbers[i];\n                idx++;\n            }\n        }\n        return result;\n    }\n\n    // ─────────────────────────────────────────────────────────────\n    // View — Quick Lookups (Buyer / QR scan)\n    // ─────────────────────────────────────────────────────────────\n\n    /// @notice Returns minimal info needed by a Buyer to verify a medicine.\n    function verifyBatch(string calldata _batchNumber)\n        external\n        view\n        returns (\n            bool    exists_,\n            string  memory productName,\n            string  memory genericName,\n            string  memory manufacturer,\n            uint256        mfgDate,\n            uint256        expiryDate,\n            BatchStatus    status,\n            bool    isExpired,\n            bool    isRecalled,\n            string  memory qrCodeCID\n        )\n    {\n        if (!batches[_batchNumber].exists) {\n            return (false, \"\", \"\", \"\", 0, 0, BatchStatus.Active, false, false, \"\");\n        }\n        Batch storage b = batches[_batchNumber];\n        return (\n            true,\n            b.productName,\n            b.genericName,\n            b.manufacturer,\n            b.mfgDate,\n            b.expiryDate,\n            b.status,\n            block.timestamp >= b.expiryDate,\n            b.status == BatchStatus.Recalled,\n            b.qrCodeCID\n        );\n    }\n\n    /// @notice Simple existence check used by TraceContract.\n    function batchExistsCheck(string calldata _batchNumber)\n        external\n        view\n        returns (bool)\n    {\n        return batches[_batchNumber].exists;\n    }\n    function getAllBatches() external view returns (string[] memory) {\n        return allBatchNumbers;\n    }\n}\n",
  "sourcePath": "D:\\FYP Final\\Project\\medicine-supply-chain\\myProject\\contracts\\ProductContract.sol",
  "compiler": {
    "name": "solc",
    "version": "0.8.20+commit.a1b79de6.Emscripten.clang"
  },
  "schemaVersion": "3.4.16",
  "updatedAt": "2026-04-25T21:07:52.667Z",
  "networkType": "ethereum",
  "devdoc": {
    "details": "Manufacturers add batches here.  TransferContract calls         adjustStock() whenever ownership moves down the chain.         All role checks are delegated to RegistryContract.",
    "kind": "dev",
    "methods": {
      "addBatch(string,string,string,string,string,string,string[],uint256[],string[],uint256,string,uint256,uint256,uint256,string,string)": {
        "params": {
          "_batchNumber": "Unique batch identifier (e.g. \"MFR-2024-B001\").",
          "_costPerUnit": "Cost per medicine unit (in smallest currency unit).",
          "_currency": "Currency string: \"PKR\", \"USD\", etc.",
          "_dosageForm": "\"Tablet\", \"Syrup\", \"Injection\", etc.",
          "_expiryDate": "Expiry date as unix timestamp.",
          "_genericName": "INN generic name.",
          "_manufacturerName": "Legal name of the manufacturing company.",
          "_metadataCID": "IPFS CID of full batch metadata JSON (can be set later).",
          "_mfgDate": "Manufacturing date as unix timestamp.",
          "_productName": "Brand / trade name.",
          "_qrCodeCID": "IPFS CID of the QR code image (can be set later).",
          "_rmNames": "Raw material names array.",
          "_rmQuantities": "Raw material quantities array (parallel to names).",
          "_rmUnits": "Raw material units array (parallel to names).",
          "_strength": "\"500mg\", \"250mg/5ml\", etc.",
          "_totalQuantity": "Total units produced in this batch."
        }
      },
      "adjustStock(string,address,address,uint256)": {
        "params": {
          "_batchNumber": "The batch being transferred.",
          "_from": "Current holder losing stock.",
          "_quantity": "Number of units moving.",
          "_to": "Next holder gaining stock."
        }
      }
    },
    "stateVariables": {
      "allBatchNumbers": {
        "details": "All batch numbers ever created (for iteration)"
      },
      "authorisedCallers": {
        "details": "Authorised callers (TransferContract address once deployed)"
      },
      "batchHolders": {
        "details": "All holders who have ever held a batch (for expiry sweeps)"
      },
      "batches": {
        "details": "Primary store: batchNumber → Batch"
      },
      "manufacturerBatches": {
        "details": "Per-manufacturer batch index: address → batchNumbers[]"
      },
      "nodeStock": {
        "details": "Per-node stock: batchNumber → holderAddress → StockEntry      Updated by both this contract and TransferContract."
      }
    },
    "title": "ProductContract",
    "version": 1
  },
  "userdoc": {
    "kind": "user",
    "methods": {
      "addBatch(string,string,string,string,string,string,string[],uint256[],string[],uint256,string,uint256,uint256,uint256,string,string)": {
        "notice": "Add a new medicine batch to the blockchain."
      },
      "adjustStock(string,address,address,uint256)": {
        "notice": "Deduct stock from a sender and credit it to a receiver.         Called exclusively by TransferContract when ownership moves."
      },
      "batchExistsCheck(string)": {
        "notice": "Simple existence check used by TraceContract."
      },
      "deductSale(string,address,uint256)": {
        "notice": "Pharmacist sells to a buyer (reduces pharmacist's stock).         Called by TransferContract when a sale is recorded."
      },
      "expireAllOverdueBatches()": {
        "notice": "Bulk-expire all batches whose expiryDate has passed.         Anyone can call this (gas incentive can be added by the project)."
      },
      "expireBatch(string)": {
        "notice": "Expire a single batch by batch number.         Callable by admin, or by any approved entity checking their own stock."
      },
      "getActiveBatchesAtManufacturer(address)": {
        "notice": "Returns all Active (non-expired, non-recalled) batches         that still have stock remaining at the manufacturer source.         Used by Distributor to see what is available to request."
      },
      "getAllBatchNumbers()": {
        "notice": "Returns all batch numbers ever created."
      },
      "getAvailableStockBatches(address)": {
        "notice": "Returns batch numbers where a specific address still has         non-zero stock — used to show \"available stock\" dashboards."
      },
      "getBatch(string)": {
        "notice": "Returns the full Batch struct for a given batch number.         Note: rawMaterials array is NOT returned here (use getRawMaterials)."
      },
      "getBatchHolders(string)": {
        "notice": "Returns all addresses that have ever held a batch."
      },
      "getBatchStatus(string)": {
        "notice": "Returns the current on-chain status of a batch.         If the expiry date has passed, returns Expired even if         the status hasn't been written yet (lazy check)."
      },
      "getBatchesByManufacturer(address)": {
        "notice": "Returns all batches created by a specific manufacturer."
      },
      "getExpiredStockBatches(address)": {
        "notice": "Returns batch numbers that are expired AND where the         holder still has non-zero stock (for return/recall workflows)."
      },
      "getQRData(string)": {
        "notice": "Returns QR and metadata CIDs (for the buyer verification page)."
      },
      "getRawMaterials(string)": {
        "notice": "Returns the raw materials list for a batch."
      },
      "getRecalledBatches()": {
        "notice": "Returns all Recalled batches (system-wide). Admin use."
      },
      "getStockEntry(string,address)": {
        "notice": "Returns the full StockEntry for a holder."
      },
      "getStockOf(string,address)": {
        "notice": "Returns the stock quantity of a specific batch held by a specific address."
      },
      "isBatchValid(string)": {
        "notice": "Check whether a batch is still valid (Active and not expired)."
      },
      "recallBatch(string,string)": {
        "notice": "Mark a batch as Recalled. Callable by the manufacturer who         created it, or by admin."
      },
      "setAuthorisedCaller(address,bool)": {
        "notice": "Grant or revoke permission for a contract (e.g. TransferContract)         to call adjustStock() and other restricted functions."
      },
      "updateBatchDetails(string,string,string,string,uint256,string)": {
        "notice": "Correct non-critical batch fields (dosage form, strength, CIDs).         Core identity fields (batchNumber, mfgDate, expiryDate, quantity)         are intentionally immutable after creation."
      },
      "updateQR(string,string,string)": {
        "notice": "Update or add QR code and metadata IPFS CIDs after batch creation.         Useful when the QR is generated off-chain right after batch is mined."
      },
      "verifyBatch(string)": {
        "notice": "Returns minimal info needed by a Buyer to verify a medicine."
      }
    },
    "notice": "Manages medicine batch creation, raw-material records, QR metadata,         stock levels, expiry tracking, and recall management for the         Blockchain-Based Medicine Supply Chain system.",
    "version": 1
  }
}