{
  "contractName": "RegistryContract",
  "abi": [
    {
      "inputs": [
        {
          "internalType": "address",
          "name": "_admin",
          "type": "address"
        }
      ],
      "stateMutability": "nonpayable",
      "type": "constructor"
    },
    {
      "anonymous": false,
      "inputs": [
        {
          "indexed": true,
          "internalType": "address",
          "name": "previousAdmin",
          "type": "address"
        },
        {
          "indexed": true,
          "internalType": "address",
          "name": "newAdmin",
          "type": "address"
        }
      ],
      "name": "AdminTransferred",
      "type": "event"
    },
    {
      "anonymous": false,
      "inputs": [
        {
          "indexed": true,
          "internalType": "address",
          "name": "entity",
          "type": "address"
        },
        {
          "indexed": true,
          "internalType": "enum RegistryContract.Role",
          "name": "role",
          "type": "uint8"
        },
        {
          "indexed": false,
          "internalType": "string",
          "name": "licenseNumber",
          "type": "string"
        },
        {
          "indexed": true,
          "internalType": "address",
          "name": "approvedBy",
          "type": "address"
        },
        {
          "indexed": false,
          "internalType": "uint256",
          "name": "timestamp",
          "type": "uint256"
        }
      ],
      "name": "EntityApproved",
      "type": "event"
    },
    {
      "anonymous": false,
      "inputs": [
        {
          "indexed": true,
          "internalType": "address",
          "name": "entity",
          "type": "address"
        },
        {
          "indexed": false,
          "internalType": "uint256",
          "name": "timestamp",
          "type": "uint256"
        }
      ],
      "name": "EntityDetailsUpdated",
      "type": "event"
    },
    {
      "anonymous": false,
      "inputs": [
        {
          "indexed": true,
          "internalType": "address",
          "name": "entity",
          "type": "address"
        },
        {
          "indexed": true,
          "internalType": "address",
          "name": "reactivatedBy",
          "type": "address"
        },
        {
          "indexed": false,
          "internalType": "uint256",
          "name": "timestamp",
          "type": "uint256"
        }
      ],
      "name": "EntityReactivated",
      "type": "event"
    },
    {
      "anonymous": false,
      "inputs": [
        {
          "indexed": true,
          "internalType": "address",
          "name": "entity",
          "type": "address"
        },
        {
          "indexed": true,
          "internalType": "address",
          "name": "rejectedBy",
          "type": "address"
        },
        {
          "indexed": false,
          "internalType": "uint256",
          "name": "timestamp",
          "type": "uint256"
        }
      ],
      "name": "EntityRejected",
      "type": "event"
    },
    {
      "anonymous": false,
      "inputs": [
        {
          "indexed": true,
          "internalType": "address",
          "name": "entity",
          "type": "address"
        },
        {
          "indexed": true,
          "internalType": "address",
          "name": "revokedBy",
          "type": "address"
        },
        {
          "indexed": false,
          "internalType": "uint256",
          "name": "timestamp",
          "type": "uint256"
        }
      ],
      "name": "EntityRevoked",
      "type": "event"
    },
    {
      "anonymous": false,
      "inputs": [
        {
          "indexed": true,
          "internalType": "address",
          "name": "applicant",
          "type": "address"
        },
        {
          "indexed": true,
          "internalType": "enum RegistryContract.Role",
          "name": "role",
          "type": "uint8"
        },
        {
          "indexed": false,
          "internalType": "string",
          "name": "name",
          "type": "string"
        },
        {
          "indexed": false,
          "internalType": "uint256",
          "name": "timestamp",
          "type": "uint256"
        }
      ],
      "name": "RegistrationRequested",
      "type": "event"
    },
    {
      "inputs": [],
      "name": "admin",
      "outputs": [
        {
          "internalType": "address",
          "name": "",
          "type": "address"
        }
      ],
      "stateMutability": "view",
      "type": "function",
      "constant": true
    },
    {
      "inputs": [
        {
          "internalType": "enum RegistryContract.Role",
          "name": "_role",
          "type": "uint8"
        },
        {
          "internalType": "string",
          "name": "_name",
          "type": "string"
        },
        {
          "internalType": "string",
          "name": "_email",
          "type": "string"
        },
        {
          "internalType": "string",
          "name": "_location",
          "type": "string"
        }
      ],
      "name": "requestRegistration",
      "outputs": [],
      "stateMutability": "nonpayable",
      "type": "function"
    },
    {
      "inputs": [
        {
          "internalType": "address",
          "name": "_entity",
          "type": "address"
        },
        {
          "internalType": "string",
          "name": "_licenseNo",
          "type": "string"
        }
      ],
      "name": "approveEntity",
      "outputs": [],
      "stateMutability": "nonpayable",
      "type": "function"
    },
    {
      "inputs": [
        {
          "internalType": "address",
          "name": "_entity",
          "type": "address"
        }
      ],
      "name": "rejectEntity",
      "outputs": [],
      "stateMutability": "nonpayable",
      "type": "function"
    },
    {
      "inputs": [
        {
          "internalType": "address",
          "name": "_entity",
          "type": "address"
        }
      ],
      "name": "revokeEntity",
      "outputs": [],
      "stateMutability": "nonpayable",
      "type": "function"
    },
    {
      "inputs": [
        {
          "internalType": "address",
          "name": "_entity",
          "type": "address"
        }
      ],
      "name": "reactivateEntity",
      "outputs": [],
      "stateMutability": "nonpayable",
      "type": "function"
    },
    {
      "inputs": [
        {
          "internalType": "address",
          "name": "_entity",
          "type": "address"
        },
        {
          "internalType": "string",
          "name": "_name",
          "type": "string"
        },
        {
          "internalType": "string",
          "name": "_email",
          "type": "string"
        },
        {
          "internalType": "string",
          "name": "_location",
          "type": "string"
        }
      ],
      "name": "updateEntityDetails",
      "outputs": [],
      "stateMutability": "nonpayable",
      "type": "function"
    },
    {
      "inputs": [
        {
          "internalType": "string",
          "name": "_email",
          "type": "string"
        },
        {
          "internalType": "string",
          "name": "_location",
          "type": "string"
        }
      ],
      "name": "updateMyDetails",
      "outputs": [],
      "stateMutability": "nonpayable",
      "type": "function"
    },
    {
      "inputs": [
        {
          "internalType": "address",
          "name": "_newAdmin",
          "type": "address"
        }
      ],
      "name": "transferAdmin",
      "outputs": [],
      "stateMutability": "nonpayable",
      "type": "function"
    },
    {
      "inputs": [
        {
          "internalType": "address",
          "name": "_addr",
          "type": "address"
        },
        {
          "internalType": "enum RegistryContract.Role",
          "name": "_role",
          "type": "uint8"
        }
      ],
      "name": "isApprovedWithRole",
      "outputs": [
        {
          "internalType": "bool",
          "name": "",
          "type": "bool"
        }
      ],
      "stateMutability": "view",
      "type": "function",
      "constant": true
    },
    {
      "inputs": [
        {
          "internalType": "address",
          "name": "_addr",
          "type": "address"
        }
      ],
      "name": "isApproved",
      "outputs": [
        {
          "internalType": "bool",
          "name": "",
          "type": "bool"
        }
      ],
      "stateMutability": "view",
      "type": "function",
      "constant": true
    },
    {
      "inputs": [
        {
          "internalType": "address",
          "name": "_addr",
          "type": "address"
        }
      ],
      "name": "getRole",
      "outputs": [
        {
          "internalType": "enum RegistryContract.Role",
          "name": "",
          "type": "uint8"
        }
      ],
      "stateMutability": "view",
      "type": "function",
      "constant": true
    },
    {
      "inputs": [
        {
          "internalType": "address",
          "name": "_addr",
          "type": "address"
        }
      ],
      "name": "getStatus",
      "outputs": [
        {
          "internalType": "enum RegistryContract.ApprovalStatus",
          "name": "",
          "type": "uint8"
        }
      ],
      "stateMutability": "view",
      "type": "function",
      "constant": true
    },
    {
      "inputs": [
        {
          "internalType": "address",
          "name": "_addr",
          "type": "address"
        }
      ],
      "name": "getEntity",
      "outputs": [
        {
          "components": [
            {
              "internalType": "address",
              "name": "walletAddress",
              "type": "address"
            },
            {
              "internalType": "enum RegistryContract.Role",
              "name": "role",
              "type": "uint8"
            },
            {
              "internalType": "enum RegistryContract.ApprovalStatus",
              "name": "status",
              "type": "uint8"
            },
            {
              "internalType": "string",
              "name": "name",
              "type": "string"
            },
            {
              "internalType": "string",
              "name": "email",
              "type": "string"
            },
            {
              "internalType": "string",
              "name": "location",
              "type": "string"
            },
            {
              "internalType": "string",
              "name": "licenseNumber",
              "type": "string"
            },
            {
              "internalType": "uint256",
              "name": "registeredAt",
              "type": "uint256"
            },
            {
              "internalType": "uint256",
              "name": "approvedAt",
              "type": "uint256"
            },
            {
              "internalType": "bool",
              "name": "exists",
              "type": "bool"
            }
          ],
          "internalType": "struct RegistryContract.Entity",
          "name": "",
          "type": "tuple"
        }
      ],
      "stateMutability": "view",
      "type": "function",
      "constant": true
    },
    {
      "inputs": [
        {
          "internalType": "string",
          "name": "_licenseNo",
          "type": "string"
        }
      ],
      "name": "getEntityByLicense",
      "outputs": [
        {
          "components": [
            {
              "internalType": "address",
              "name": "walletAddress",
              "type": "address"
            },
            {
              "internalType": "enum RegistryContract.Role",
              "name": "role",
              "type": "uint8"
            },
            {
              "internalType": "enum RegistryContract.ApprovalStatus",
              "name": "status",
              "type": "uint8"
            },
            {
              "internalType": "string",
              "name": "name",
              "type": "string"
            },
            {
              "internalType": "string",
              "name": "email",
              "type": "string"
            },
            {
              "internalType": "string",
              "name": "location",
              "type": "string"
            },
            {
              "internalType": "string",
              "name": "licenseNumber",
              "type": "string"
            },
            {
              "internalType": "uint256",
              "name": "registeredAt",
              "type": "uint256"
            },
            {
              "internalType": "uint256",
              "name": "approvedAt",
              "type": "uint256"
            },
            {
              "internalType": "bool",
              "name": "exists",
              "type": "bool"
            }
          ],
          "internalType": "struct RegistryContract.Entity",
          "name": "",
          "type": "tuple"
        }
      ],
      "stateMutability": "view",
      "type": "function",
      "constant": true
    },
    {
      "inputs": [],
      "name": "getPendingRequests",
      "outputs": [
        {
          "internalType": "address[]",
          "name": "",
          "type": "address[]"
        }
      ],
      "stateMutability": "view",
      "type": "function",
      "constant": true
    },
    {
      "inputs": [],
      "name": "getPendingEntities",
      "outputs": [
        {
          "components": [
            {
              "internalType": "address",
              "name": "walletAddress",
              "type": "address"
            },
            {
              "internalType": "enum RegistryContract.Role",
              "name": "role",
              "type": "uint8"
            },
            {
              "internalType": "enum RegistryContract.ApprovalStatus",
              "name": "status",
              "type": "uint8"
            },
            {
              "internalType": "string",
              "name": "name",
              "type": "string"
            },
            {
              "internalType": "string",
              "name": "email",
              "type": "string"
            },
            {
              "internalType": "string",
              "name": "location",
              "type": "string"
            },
            {
              "internalType": "string",
              "name": "licenseNumber",
              "type": "string"
            },
            {
              "internalType": "uint256",
              "name": "registeredAt",
              "type": "uint256"
            },
            {
              "internalType": "uint256",
              "name": "approvedAt",
              "type": "uint256"
            },
            {
              "internalType": "bool",
              "name": "exists",
              "type": "bool"
            }
          ],
          "internalType": "struct RegistryContract.Entity[]",
          "name": "",
          "type": "tuple[]"
        }
      ],
      "stateMutability": "view",
      "type": "function",
      "constant": true
    },
    {
      "inputs": [],
      "name": "getAllRegistered",
      "outputs": [
        {
          "internalType": "address[]",
          "name": "",
          "type": "address[]"
        }
      ],
      "stateMutability": "view",
      "type": "function",
      "constant": true
    },
    {
      "inputs": [
        {
          "internalType": "enum RegistryContract.Role",
          "name": "_role",
          "type": "uint8"
        }
      ],
      "name": "getApprovedByRole",
      "outputs": [
        {
          "components": [
            {
              "internalType": "address",
              "name": "walletAddress",
              "type": "address"
            },
            {
              "internalType": "enum RegistryContract.Role",
              "name": "role",
              "type": "uint8"
            },
            {
              "internalType": "enum RegistryContract.ApprovalStatus",
              "name": "status",
              "type": "uint8"
            },
            {
              "internalType": "string",
              "name": "name",
              "type": "string"
            },
            {
              "internalType": "string",
              "name": "email",
              "type": "string"
            },
            {
              "internalType": "string",
              "name": "location",
              "type": "string"
            },
            {
              "internalType": "string",
              "name": "licenseNumber",
              "type": "string"
            },
            {
              "internalType": "uint256",
              "name": "registeredAt",
              "type": "uint256"
            },
            {
              "internalType": "uint256",
              "name": "approvedAt",
              "type": "uint256"
            },
            {
              "internalType": "bool",
              "name": "exists",
              "type": "bool"
            }
          ],
          "internalType": "struct RegistryContract.Entity[]",
          "name": "",
          "type": "tuple[]"
        }
      ],
      "stateMutability": "view",
      "type": "function",
      "constant": true
    },
    {
      "inputs": [
        {
          "internalType": "address",
          "name": "_addr",
          "type": "address"
        }
      ],
      "name": "getLicenseNumber",
      "outputs": [
        {
          "internalType": "string",
          "name": "",
          "type": "string"
        }
      ],
      "stateMutability": "view",
      "type": "function",
      "constant": true
    },
    {
      "inputs": [
        {
          "internalType": "string",
          "name": "_licenseNo",
          "type": "string"
        }
      ],
      "name": "getAddressByLicense",
      "outputs": [
        {
          "internalType": "address",
          "name": "",
          "type": "address"
        }
      ],
      "stateMutability": "view",
      "type": "function",
      "constant": true
    },
    {
      "inputs": [],
      "name": "getAllEntities",
      "outputs": [
        {
          "internalType": "address[]",
          "name": "",
          "type": "address[]"
        }
      ],
      "stateMutability": "view",
      "type": "function",
      "constant": true
    }
  ],
  "bytecode": "0x608034620008ab57601f6200330438819003918201601f19168301916001600160401b03831184841017620004b257808492602094604052833981010312620008ab57516001600160a01b0381168103620008ab576001600160a01b038116156200085757600080546001600160a01b0319166001600160a01b03831617905560405161014081016001600160401b03811182821017620004b25760409081526001600160a01b038316825260016020830152600290820152620000c2620008b0565b600c81526b29bcb9ba32b69020b236b4b760a11b60208201526060820152620000ea620008d0565b600081526080820152620000fd620008d0565b6000815260a082015262000110620008b0565b600981526841444d494e2d30303160b81b602082015260c08201524260e082015242610100820152600161012082015260018060a01b0382166000526001602052604060002060018060a01b038251168154602084015191600683101562000841576040850151600581101562000841576001600160b01b03199092161760a09290921b60ff60a01b169190911760a89190911b60ff60a81b16178155606082015180519093906001600160401b038111620004b2576001830154600181811c9116801562000836575b60208210146200059b57601f8111620007ea575b506020601f8211600114620007765781929394956000926200076a575b50508160011b916000199060031b1c19161760018301555b608083015180519093906001600160401b038111620004b2576002840154600181811c911680156200075f575b60208210146200059b57601f811162000713575b506020601f82116001146200069f57819293949560009262000693575b50508160011b916000199060031b1c19161760028401555b60a081015180519093906001600160401b038111620004b2576003820154600181811c9116801562000688575b60208210146200059b57601f81116200063c575b506020601f8211600114620005c8578192939495600092620005bc575b50508160011b916000199060031b1c19161760038201555b60c08201518051906001600160401b038211620004b2576004830154600181811c91168015620005b1575b60208210146200059b57601f81116200054f575b50602090601f8311600114620004d45791806101209492600794600092620004c8575b50508160011b916000199060031b1c19161760048201555b60e08401516005820155610100840151600682015501910151151560ff8019835416911617905560025468010000000000000000811015620004b25760018101806002558110156200049c5760026000527f405787fa12a823e0f2b7631cc41b3ba8828b3321ca811111fa75cd3aa3bb5ace0180546001600160a01b03199081166001600160a01b0393909316928317909155604080516841444d494e2d30303160b81b8082526005600980840191909152602990922080549094168517909355815182815291820152606081019190915242602082015260019082907fb99357eaf041c6b4f9ef26c88b38609fbf977298507bb7570887fab2714679c290608090a4604051612a139081620008f18239f35b634e487b7160e01b600052603260045260246000fd5b634e487b7160e01b600052604160045260246000fd5b01519050388062000371565b906004840160005260206000209160005b601f198516811062000536575092610120949260019260079583601f198116106200051c575b505050811b01600482015562000389565b015160001960f88460031b161c191690553880806200050b565b91926020600181928685015181550194019201620004e5565b600484016000526020600020601f840160051c81016020851062000593575b601f830160051c82018110620005865750506200034e565b600081556001016200056e565b50806200056e565b634e487b7160e01b600052602260045260246000fd5b90607f16906200033a565b015190503880620002f7565b6003830160005260206000209060005b601f198416811062000623575060019394959683601f1981161062000609575b505050811b0160038201556200030f565b015160001960f88460031b161c19169055388080620005f8565b9091602060018192858b015181550193019101620005d8565b600383016000526020600020601f830160051c81016020841062000680575b601f830160051c8201811062000673575050620002da565b600081556001016200065b565b50806200065b565b90607f1690620002c6565b01519050388062000281565b6002850160005260206000209060005b601f1984168110620006fa575060019394959683601f19811610620006e0575b505050811b01600284015562000299565b015160001960f88460031b161c19169055388080620006cf565b9091602060018192858b015181550193019101620006af565b600285016000526020600020601f830160051c81016020841062000757575b601f830160051c820181106200074a57505062000264565b6000815560010162000732565b508062000732565b90607f169062000250565b0151905038806200020b565b6001840160005260206000209060005b601f1984168110620007d1575060019394959683601f19811610620007b7575b505050811b01600183015562000223565b015160001960f88460031b161c19169055388080620007a6565b9091602060018192858b01518155019301910162000786565b600184016000526020600020601f830160051c8101602084106200082e575b601f830160051c8201811062000821575050620001ee565b6000815560010162000809565b508062000809565b90607f1690620001da565b634e487b7160e01b600052602160045260246000fd5b60405162461bcd60e51b815260206004820152602660248201527f52656769737472793a2061646d696e2063616e6e6f74206265207a65726f206160448201526564647265737360d01b6064820152608490fd5b600080fd5b60408051919082016001600160401b03811183821017620004b257604052565b60405190602082016001600160401b03811183821017620004b25760405256fe608080604052600436101561001357600080fd5b60003560e01c908163030e46cb14611e08575080630b88ded114611d7157806312e0ba4814611d1657806330ccebb514611cd15780633c1a3143146119d1578063442767331461198a578063518ce2b61461190657806355ebca01146111e8578063673448dd14611181578063693c79b214610fd057806372e52f5a14610f7f57806375829def146109b957806375894e8c146109445780637d9d17b7146108785780637e69dae01461032c57806380a1f712146107ea5780639deaf8f11461065f578063ab330f6b14610331578063c85c0d351461032c578063d7b71f5f1461021c578063e024e7471461013f5763f851a4401461011157600080fd5b3461013a57600036600319011261013a576000546040516001600160a01b039091168152602090f35b600080fd5b3461013a57602036600319011261013a57610158612094565b6000546001600160a01b0390610171908216331461258b565b81169081600052600160205261019160ff600760406000200154166125d7565b81600052600160205260406000209081549160ff8360a81c16926005841015610206576101c360016101d79514612623565b60ff60a81b1916600360a81b1790556128c3565b604051904282527f8d359aca665b1a62f2fd210777e6936c72df54cc65eefa41766cf20f746a075a60203393a3005b634e487b7160e01b600052602160045260246000fd5b3461013a57602036600319011261013a57610235612094565b6000546001600160a01b03919061024f908316331461258b565b1680600052600160205261026d60ff600760406000200154166125d7565b8060005260016020526040600020805460ff8160a81c166005811015610206576002036102d45760ff60a81b1916600160aa1b1790556040514281523391907f1a66b2e2e4e77f417c0f793f30f1b62e1371ae6ec6e4e3c008d5d8059808d77490602090a3005b60405162461bcd60e51b815260206004820152602a60248201527f52656769737472793a20656e74697479206973206e6f742063757272656e746c6044820152691e48105c1c1c9bdd995960b21b6064820152608490fd5b61225b565b3461013a57608036600319011261013a5761034a612094565b6001600160401b039060243582811161013a5761036b903690600401612067565b9260443581811161013a57610384903690600401612067565b909360643583811161013a5761039e903690600401612067565b600054909791926001600160a01b03916103bb908316331461258b565b1695866000526001936020968588526103de60ff600760406000200154166125d7565b6103e98415156122de565b8860005285885260406000209386850191888211610568578190610417826104118654612439565b86612473565b600090601f83116001146105fc576000926105f1575b5050600019600383901b1c191690871b1790555b6002830191868211610568576104618261045b8554612439565b85612473565b600090601f8311600114610589576003949392916000918361057e575b505060001982861b1c191690861b1790555b01928611610568576104a68661045b8554612439565b600090601f87116001146104f85795809281926000805160206129be83398151915297986000946104ed575b50501b916000199060031b1c19161790555b604051428152a2005b0135925088806104d2565b9590601f1982169684600052856000209160005b8981106105535750836000805160206129be833981519152989910610539575b505050811b0190556104e4565b0135600019600384901b60f8161c1916905586808061052c565b8282013584559285019290870190870161050c565b634e487b7160e01b600052604160045260246000fd5b013590508b8061047e565b918691949392601f19821690846000528a6000209160005b8c8282106105db5750509683600398106105c3575b505050811b019055610490565b013560001983881b60f8161c191690558b80806105b6565b838a01358555988901988b9690940193016105a1565b013590508c8061042d565b60008581528c81208b95509290601f198516908e5b828210610648575050841161062e575b505050811b019055610441565b0135600019600384901b60f8161c191690558c8080610621565b8385013586558d979095019492830192018e610611565b3461013a5760208060031936011261013a57600660043581811015908161013a576000936000926002958654945b858110610764575061069e9061283a565b9460009260005b8681106106be57604051806106ba8a826121b5565b0390f35b6106c7816124f8565b60018060a01b0391549060031b1c16600052600182526040600020805460ff86818360a01c16906102065786811015610206578914918261074c575b5050610719575b506107149061288a565b6106a5565b610714919561072a61074592612774565b610734828c6128af565b5261073f818b6128af565b5061288a565b949061070a565b60a81c1690506005811015610206578a148b80610703565b61076d816124f8565b60018060a01b0391549060031b1c166000526001845260406000205460ff84818360a01c1690610206578981101561020657871491826107d2575b50506107bd575b6107b89061288a565b61068d565b906107ca6107b89161288a565b9190506107af565b60a81c169050600581101561020657881489806107a8565b3461013a57600036600319011261013a57604051600380548083526000918252602080840193927fc2575a0e9e593c00f959f8c92f12db2869c3395a3b0502d05e2516446f71f85b92915b828210610858576106ba8561084c8189038261237c565b60405191829182612217565b83546001600160a01b031686529485019460019384019390910190610835565b3461013a5760208060031936011261013a576004356001600160401b03811161013a576108a9903690600401612067565b6108b1612681565b5080604051928337600590820190815281900382019020546001600160a01b0316801561090157600052600181526108ec6040600020612774565b906106ba604051928284938452830190612104565b60405162461bcd60e51b815260048101839052601b60248201527a149959da5cdd1c9e4e881b1a58d95b9cd9481b9bdd08199bdd5b99602a1b6044820152606490fd5b3461013a57602036600319011261013a5761095d612094565b610965612681565b506001600160a01b031660008181526001602052604090206007015461098d9060ff166125d7565b60005260016020526106ba6109a56040600020612774565b604051918291602083526020830190612104565b3461013a57602036600319011261013a576109d2612094565b6000546001600160a01b036109ea338284161461258b565b80831615610f415780821681841614610f02578083166001600160a01b03198316811760009081558284168152600160205260408082208054600160aa1b61ffff60a01b19918216179091559282529020600781015490919060ff16610eed57505060405192610a598461232a565b81811684526001602085015260026040850152604051610a7881612361565b600c81526b29bcb9ba32b69020b236b4b760a11b60208201526060850152604051610aa281612346565b600081526080850152604051610ab781612346565b6000815260a0850152604051610acc81612361565b600e81526d20a226a4a716aa2920a729a322a960911b602082015260c08501524260e0850152426101008501526001610120850152818116600052600160205260406000208285511660018060a01b03198254161781556020850151600681101561020657610b3b90826123f1565b6040850151600581101561020657610b539082612415565b606085015180516001600160401b03811161056857806001840192610b7c826104118654612439565b602090601f8311600114610e8757600092610e7c575b50508160011b916000199060031b1c19161790555b608085015180516001600160401b03811161056857806002840192610bd0826104118654612439565b602090601f8311600114610e1657600092610e0b575b50508160011b916000199060031b1c19161790555b60a0850151805160038301916001600160401b038211610568578190610c25826104118654612439565b602090601f8311600114610da557600092610d9a575b50508160011b916000199060031b1c19161790555b60c0850151805190959060048301906001600160401b03811161056857610c8181610c7b8454612439565b84612473565b6020601f8211600114610d2657926007928261012093610ce897968a9b9c600092610d1b575b50508160011b916000199060031b1c19161790555b60e0810151600585015561010081015160068501550151151591019060ff801983541691151516179055565b610cf181612531565b1691167ff8ccb027dfcd135e000e9d45e6cc2d662578a8825d4c45b5e32e0adf67e79ec6600080a3005b015190508c80610ca7565b601f198216988360005260206000209960005b818110610d82575083899a9b610ce8989794600797946101209760019510610d69575b505050811b019055610cbc565b015160001960f88460031b161c191690558c8080610d5c565b838301518c556001909b019a60209384019301610d39565b015190508880610c3b565b6000858152602081209350601f198516905b818110610df35750908460019594939210610dda575b505050811b019055610c50565b015160001960f88460031b161c19169055888080610dcd565b92936020600181928786015181550195019301610db7565b015190508880610be6565b6000858152602081209350601f198516905b818110610e645750908460019594939210610e4b575b505050811b019055610bfb565b015160001960f88460031b161c19169055888080610e3e565b92936020600181928786015181550195019301610e28565b015190508880610b92565b6000858152602081209350601f198516905b818110610ed55750908460019594939210610ebc575b505050811b019055610ba7565b015160001960f88460031b161c19169055888080610eaf565b92936020600181928786015181550195019301610e99565b81541661020160a01b17905590918190610cf1565b60405162461bcd60e51b81526020600482015260176024820152762932b3b4b9ba393c9d1030b63932b0b23c9030b236b4b760491b6044820152606490fd5b60405162461bcd60e51b815260206004820152601660248201527552656769737472793a207a65726f206164647265737360501b6044820152606490fd5b3461013a57602036600319011261013a576001600160a01b03610fa0612094565b1660005260016020526106ba610fbc60046040600020016126d0565b6040519182916020835260208301906120c4565b3461013a5760208060031936011261013a57610fea612094565b6000546001600160a01b039190611004908316331461258b565b16806000526001825261102160ff600760406000200154166125d7565b80600052600182526040600020805460ff8160a81c1660058110156102065760038114908115611176575b50156111135761105f6004830154612439565b156110a95760ff60a81b1916600160a91b17815542600690910181905560405190815233927fff0b22130054be234bcdda0c1c7c0868ef2feab7b8123d07ae5a50cb2574ef0291a3005b6084846040519062461bcd60e51b82526004820152604060248201527f52656769737472793a206e6f206c6963656e7365206e756d626572206f6e207260448201527f65636f72643b2075736520617070726f7665456e7469747920696e73746561646064820152fd5b60405162461bcd60e51b815260048101859052603560248201527f52656769737472793a20656e74697479206973206e6f7420696e2052656a6563604482015274746564206f72205265766f6b65642073746174757360581b6064820152608490fd5b60049150148561104c565b3461013a57602036600319011261013a576001600160a01b036111a2612094565b166000526001602052604060002060ff60078201541690816111cc575b6020826040519015158152f35b60ff91505460a81c1660058110156102065760021460206111bf565b3461013a57608036600319011261013a576006600435101561013a576024356001600160401b03811161013a57611223903690600401612067565b6044356001600160401b03811161013a57611242903690600401612067565b6064356001600160401b03811161013a57611261903690600401612067565b9133600052600160205260ff600760406000200154166118a5576000936002600435148015611895575b858115611884575b8115611872575b5015611818576112ab8615156122de565b81156117d35783156117835761130e604051936112c78561232a565b33855260208501956112db6004358861239f565b6113026040870194600186526112f38c8c36916123ab565b966060890197885236916123ab565b608087015236916123ab565b60a084015260405161131f81612346565b6000815260c08401524260e08401526000610100840152600161012084015233600052600160205260406000209360018060a01b0384511660018060a01b03198654161785555160068110156102065761137990856123f1565b5160058110156102065761138d9084612415565b518051906001600160401b0382116105685781906113bb826113b26001880154612439565b60018801612473565b602090601f831160011461171157600092611706575b50508160011b916000199060031b1c19161760018301555b608081015180516001600160401b03811161056857806002850192611412826104118654612439565b602090601f83116001146116a057600092611695575b50508160011b916000199060031b1c19161790555b60a081015180516001600160401b03811161056857806003850192611466826104118654612439565b602090601f831160011461162f57600092611624575b50508160011b916000199060031b1c19161790555b60c081015180516001600160401b0381116105685760048401916114b98261045b8554612439565b602090601f83116001146115b25792826101209361151d9796936007966000926115a75750508160011b916000199060031b1c191617905560e0810151600585015561010081015160068501550151151591019060ff801983541691151516179055565b61152633612531565b600354600160401b8110156105685761154881600161154f93016003556124c7565b3391612513565b3360005260046020526040600020600160ff19825416179055610206577f1f77daf0cde58fb801ee20100afb681b11e993b40a01c40ee509f9b11053c49e604051806115a260043595339542918461255c565b0390a3005b015190508b80610ca7565b90601f198316918460005260206000209260005b81811061160c57509361151d979693600796936001938361012098106115f357505050811b019055610cbc565b015160001960f88460031b161c191690558b8080610d5c565b929360206001819287860151815501950193016115c6565b01519050888061147c565b6000858152602081209350601f198516905b81811061167d5750908460019594939210611664575b505050811b019055611491565b015160001960f88460031b161c19169055888080611657565b92936020600181928786015181550195019301611641565b015190508880611428565b6000858152602081209350601f198516905b8181106116ee57509084600195949392106116d5575b505050811b01905561143d565b015160001960f88460031b161c191690558880806116c8565b929360206001819287860151815501950193016116b2565b0151905087806113d1565b9250600185016000526020600020906000935b601f1984168510611768576001945083601f1981161061174f575b505050811b0160018301556113e9565b015160001960f88460031b161c1916905587808061173f565b81810151835560209485019460019093019290910190611724565b60405162461bcd60e51b815260206004820152602260248201527f52656769737472793a206c6f636174696f6e2063616e6e6f7420626520656d70604482015261747960f01b6064820152608490fd5b60405162461bcd60e51b815260206004820152601f60248201527f52656769737472793a20656d61696c2063616e6e6f7420626520656d707479006044820152606490fd5b60405162461bcd60e51b815260206004820152602c60248201527f52656769737472793a20696e76616c696420726f6c6520666f722073656c662d60448201526b3932b3b4b9ba3930ba34b7b760a11b6064820152608490fd5b9050610206576005600435148561129a565b905061020657600480351485611293565b506000945060043560031461128b565b60405162461bcd60e51b815260206004820152603360248201527f52656769737472793a206164647265737320616c7265616479206861732061206044820152721c9959da5cdd1c985d1a5bdb881c9958dbdc99606a1b6064820152608490fd5b3461013a57600036600319011261013a57600380546119248161283a565b9160005b82811061193d57604051806106ba86826121b5565b8061194a611985926124c7565b905490841b1c6001600160a01b0316600090815260016020526040902061197090612774565b61197a82876128af565b5261073f81866128af565b611928565b3461013a57602036600319011261013a576001600160a01b036119ab612094565b166000526001602052602060ff60406000205460a01c166119cf60405180926120b7565bf35b3461013a57604036600319011261013a576119ea612094565b60246001600160401b03813581811161013a57611a0b903690600401612067565b60005490946001600160a01b0391611a26908316331461258b565b8181169384600052600190602091808352611a4b60ff600760406000200154166125d7565b8660005280835260406000209485549060ff8260a81c166005811015611cbc5783611a769114612623565b8a15611c67576040518b89823785818d810160058152030190205416611c115760ff60a81b1916600160a91b17855560048501918911611bfc578890611ac08261045b8554612439565b6000601f8311600114611b8d57918060ff97969492611b249694600093611b82575b501b906000198c60031b1c19161790555b426006850155604051908987833760058a830190815282900301902080546001600160a01b031916871790556128c3565b5460a01c16926006841015611b6e5750611b697fb99357eaf041c6b4f9ef26c88b38609fbf977298507bb7570887fab2714679c291604051918291339742918461255c565b0390a4005b634e487b7160e01b60009081526021600452fd5b8a013592508d611ae2565b60008481528581209293508b90601f198216905b818110611be457509160ff9897959391611b2497959310611bca575b50508a811b019055611af3565b89013560001960038e901b60f8161c191690558b80611bbd565b8a840135855593850193928701928d92508701611ba1565b87634e487b7160e01b60005260416004526000fd5b60405162461bcd60e51b8152600481018590526029818b01527f52656769737472793a206c6963656e7365206e756d62657220616c726561647960448201526808185cdcda59db995960ba1b6064820152608490fd5b60405162461bcd60e51b8152600481018690526028818c01527f52656769737472793a206c6963656e7365206e756d6265722063616e6e6f7420604482015267626520656d70747960c01b6064820152608490fd5b8a634e487b7160e01b60005260216004526000fd5b3461013a57602036600319011261013a576001600160a01b03611cf2612094565b166000526001602052602060ff60406000205460a81c166119cf60405180926120aa565b3461013a57602036600319011261013a576004356001600160401b03811161013a57611d486020913690600401612067565b80604051928337600590820190815281900382019020546040516001600160a01b039091168152f35b3461013a57604036600319011261013a57611d8a612094565b60243590600682101561013a576001600160a01b03166000908152600160205260409020600781015460ff169081611dec575b81611dcf576020826040519015158152f35b60ff91505460a01c169060068210156102065760209114826111bf565b905060ff815460a81c1660058110156102065760021490611dbd565b3461013a57604036600319011261013a576001600160401b0360043581811161013a57611e39903690600401612067565b60243583811161013a57611e51903690600401612067565b913360005260019360209685885260ff60406000205460a81c16600581101561020657600203612012575033600052848752604060002091600283019187821161056857611ea38261045b8554612439565b600090601f8311600114611faa5760039493929160009183611f9f575b505060001982861b1c191690871b1790555b0193821161056857611ee8826104118654612439565b600090601f8311600114611f3c57928293918392600094611f31575b50501b916000199060031b1c19161790555b6000805160206129be833981519152604051914283523392a2005b013592508680611f04565b601f198316918560005283876000209360005b8988838310611f885750505010611f6e575b505050811b019055611f16565b0135600019600384901b60f8161c19169055848080611f61565b858701358855909601959384019387935001611f4f565b013590508a80611ec0565b918791949392601f19821690846000528b6000209160005b8d828210611ffc575050968360039810611fe4575b505050811b019055611ed2565b013560001983881b60f8161c191690558a8080611fd7565b838a01358555988901988c969094019301611fc2565b62461bcd60e51b815260048101889052602a60248201527f52656769737472793a2063616c6c6572206973206e6f7420616e20617070726f60448201526976656420656e7469747960b01b6064820152608490fd5b9181601f8401121561013a578235916001600160401b03831161013a576020838186019501011161013a57565b600435906001600160a01b038216820361013a57565b9060058210156102065752565b9060068210156102065752565b919082519283825260005b8481106120f0575050826000602080949584010152601f8019910116010190565b6020818301810151848301820152016120cf565b80516001600160a01b03168252602080820151919291612126918301906120b7565b612138604083015160408301906120aa565b61219061217e61216c61215a60608601516101408060608801528601906120c4565b608086015185820360808701526120c4565b60a085015184820360a08601526120c4565b60c084015183820360c08501526120c4565b9160e081015160e0830152610100808201519083015261012080910151151591015290565b602080820190808352835180925260408301928160408460051b8301019501936000915b8483106121e95750505050505090565b9091929394958480612207600193603f198682030187528a51612104565b98019301930191949392906121d9565b6020908160408183019282815285518094520193019160005b82811061223e575050505090565b83516001600160a01b031685529381019392810192600101612230565b3461013a576000806003193601126122db57604051600280548083529083526020808301937f405787fa12a823e0f2b7631cc41b3ba8828b3321ca811111fa75cd3aa3bb5ace92915b8282106122bb576106ba8561084c8189038261237c565b83546001600160a01b0316865294850194600193840193909101906122a4565b80fd5b156122e557565b60405162461bcd60e51b815260206004820152601e60248201527f52656769737472793a206e616d652063616e6e6f7420626520656d70747900006044820152606490fd5b61014081019081106001600160401b0382111761056857604052565b602081019081106001600160401b0382111761056857604052565b604081019081106001600160401b0382111761056857604052565b601f909101601f19168101906001600160401b0382119082101761056857604052565b60068210156102065752565b9192916001600160401b03821161056857604051916123d4601f8201601f19166020018461237c565b82948184528183011161013a578281602093846000960137010152565b90600681101561020657815460ff60a01b191660a09190911b60ff60a01b16179055565b90600581101561020657815460ff60a81b191660a89190911b60ff60a81b16179055565b90600182811c92168015612469575b602083101461245357565b634e487b7160e01b600052602260045260246000fd5b91607f1691612448565b90601f811161248157505050565b600091825260208220906020601f850160051c830194106124bd575b601f0160051c01915b8281106124b257505050565b8181556001016124a6565b909250829061249d565b6003548110156124e257600360005260206000200190600090565b634e487b7160e01b600052603260045260246000fd5b6002548110156124e257600260005260206000200190600090565b919082549060031b9160018060a01b03809116831b921b1916179055565b60025490600160401b8210156105685761255482600161255a94016002556124f8565b90612513565b565b9392918060609160209360408852816040890152838801376000828288010152601f8019910116850101930152565b1561259257565b60405162461bcd60e51b815260206004820152601d60248201527f52656769737472793a2063616c6c6572206973206e6f742061646d696e0000006044820152606490fd5b156125de57565b60405162461bcd60e51b815260206004820152601f60248201527f52656769737472793a20656e7469747920646f6573206e6f74206578697374006044820152606490fd5b1561262a57565b60405162461bcd60e51b815260206004820152602960248201527f52656769737472793a20656e74697479206973206e6f7420696e2050656e64696044820152686e672073746174757360b81b6064820152608490fd5b6040519061268e8261232a565b8161012060009182815282602082015282604082015260608082015260606080820152606060a0820152606060c08201528260e0820152826101008201520152565b90604051918260008254926126e484612439565b908184526001948581169081600014612751575060011461270e575b505061255a9250038361237c565b9093915060005260209081600020936000915b81831061273957505061255a93508201013880612700565b85548884018501529485019487945091830191612721565b91505061255a94506020925060ff191682840152151560051b8201013880612700565b906040516127818161232a565b809260ff815460018060a01b03811684526127a4828260a01c166020860161239f565b60a81c1690600582101561020657600760ff916101209360408601526127cc600182016126d0565b60608601526127dd600282016126d0565b60808601526127ee600382016126d0565b60a08601526127ff600482016126d0565b60c0860152600581015460e086015260068101546101008601520154161515910152565b6001600160401b0381116105685760051b60200190565b9061284482612823565b612851604051918261237c565b8281528092612862601f1991612823565b019060005b82811061287357505050565b60209061287e612681565b82828501015201612867565b60001981146128995760010190565b634e487b7160e01b600052601160045260246000fd5b80518210156124e25760209160051b010190565b60018060a01b038091169060008281526004908160205260408120805460ff8116156129b55760ff19169055600391825491805b838110612908575b50505050505050565b8686612913836124c7565b905490881b1c161461292d576129289061288a565b6128f7565b94955092936000199391928481019081116129a2579061255487612953612960946124c7565b905490891b1c16916124c7565b835491821561298f5750500191612976836124c7565b9091825491841b1b1916905555388080808080806128ff565b634e487b7160e01b825260319052602490fd5b634e487b7160e01b835260118452602483fd5b50505050505056fe22e408821d014865f7272491db504e0432b9eb1f6dd8d3c86b75407db0d584f8a2646970667358221220f0986ab20319ae2dd404104046b896d5be534bc0428b66d240a9bbad535ef8ba64736f6c63430008140033",
  "immutableReferences": {},
  "source": "// SPDX-License-Identifier: MIT\npragma solidity ^0.8.20;\n\n/// @title  RegistryContract\n/// @notice Central identity & access-control registry for the\n///         Blockchain-Based Medicine Supply Chain system.\n///         All other contracts query this contract to verify\n///         that a caller is approved and holds the correct role.\n/// @dev    Deploy this contract first; pass its address to the\n///         constructor of ProductContract, TransferContract and\n///         TraceContract.\ncontract RegistryContract {\n\n    // ─────────────────────────────────────────────────────────────\n    // Enums\n    // ─────────────────────────────────────────────────────────────\n\n    /// @dev Roles a wallet address can hold in the system.\n    ///      Unregistered wallets have role = None.\n    enum Role {\n        None,           // 0 – not registered\n        Admin,          // 1\n        Manufacturer,   // 2\n        Distributor,    // 3\n        Supplier,       // 4\n        Pharmacist      // 5\n    }\n\n    /// @dev Lifecycle of a registration request.\n    enum ApprovalStatus {\n        None,       // 0 – never applied\n        Pending,    // 1 – awaiting admin decision\n        Approved,   // 2 – active in the system\n        Rejected,   // 3 – denied by admin\n        Revoked     // 4 – previously approved, now disabled\n    }\n\n    // ─────────────────────────────────────────────────────────────\n    // Structs\n    // ─────────────────────────────────────────────────────────────\n\n    struct Entity {\n        address         walletAddress;\n        Role            role;\n        ApprovalStatus  status;\n        string          name;\n        string          email;\n        string          location;\n        string          licenseNumber;   // assigned by admin on approval\n        uint256         registeredAt;    // block.timestamp of registration request\n        uint256         approvedAt;      // block.timestamp of admin approval (0 if not yet)\n        bool            exists;          // guard for mapping lookup\n    }\n\n    // ─────────────────────────────────────────────────────────────\n    // State Variables\n    // ─────────────────────────────────────────────────────────────\n\n    address public admin;\n\n    /// @dev Primary registry: wallet → Entity\n    mapping(address => Entity) private entities;\n\n    /// @dev All addresses that have ever submitted a registration request\n    address[] private allRegistered;\n\n    /// @dev Addresses currently awaiting admin decision\n    address[] private pendingList;\n\n    /// @dev Quick set-membership for pendingList (avoid O(n) scan on removal)\n    mapping(address => bool) private isPending;\n\n    /// @dev License number uniqueness guard: licenseNo → assigned address\n    mapping(string => address) private licenseToAddress;\n\n    // ─────────────────────────────────────────────────────────────\n    // Events\n    // ─────────────────────────────────────────────────────────────\n\n    event AdminTransferred(address indexed previousAdmin, address indexed newAdmin);\n\n    event RegistrationRequested(\n        address indexed applicant,\n        Role    indexed role,\n        string          name,\n        uint256         timestamp\n    );\n\n    event EntityApproved(\n        address indexed entity,\n        Role    indexed role,\n        string          licenseNumber,\n        address indexed approvedBy,\n        uint256         timestamp\n    );\n\n    event EntityRejected(\n        address indexed entity,\n        address indexed rejectedBy,\n        uint256         timestamp\n    );\n\n    event EntityRevoked(\n        address indexed entity,\n        address indexed revokedBy,\n        uint256         timestamp\n    );\n\n    event EntityReactivated(\n        address indexed entity,\n        address indexed reactivatedBy,\n        uint256         timestamp\n    );\n\n    event EntityDetailsUpdated(\n        address indexed entity,\n        uint256         timestamp\n    );\n\n    // ─────────────────────────────────────────────────────────────\n    // Modifiers\n    // ─────────────────────────────────────────────────────────────\n\n    modifier onlyAdmin() {\n        require(msg.sender == admin, \"Registry: caller is not admin\");\n        _;\n    }\n\n    modifier onlyApproved() {\n        require(\n            entities[msg.sender].status == ApprovalStatus.Approved,\n            \"Registry: caller is not an approved entity\"\n        );\n        _;\n    }\n\n    modifier notAlreadyRegistered() {\n        require(\n            !entities[msg.sender].exists,\n            \"Registry: address already has a registration record\"\n        );\n        _;\n    }\n\n    modifier entityExists(address _addr) {\n        require(entities[_addr].exists, \"Registry: entity does not exist\");\n        _;\n    }\n\n    // ─────────────────────────────────────────────────────────────\n    // Constructor\n    // ─────────────────────────────────────────────────────────────\n\n    /// @param _admin The wallet address that will act as system admin.\n    ///               Typically the deployer's address.\n    constructor(address _admin) {\n        require(_admin != address(0), \"Registry: admin cannot be zero address\");\n        admin = _admin;\n\n        // Register admin entity internally (no approval needed)\n        entities[_admin] = Entity({\n            walletAddress:  _admin,\n            role:           Role.Admin,\n            status:         ApprovalStatus.Approved,\n            name:           \"System Admin\",\n            email:          \"\",\n            location:       \"\",\n            licenseNumber:  \"ADMIN-001\",\n            registeredAt:   block.timestamp,\n            approvedAt:     block.timestamp,\n            exists:         true\n        });\n\n        allRegistered.push(_admin);\n        licenseToAddress[\"ADMIN-001\"] = _admin;\n\n        emit EntityApproved(_admin, Role.Admin, \"ADMIN-001\", _admin, block.timestamp);\n    }\n\n    // ─────────────────────────────────────────────────────────────\n    // Registration (Public — called by applicants)\n    // ─────────────────────────────────────────────────────────────\n\n    /// @notice Submit a signup request. Admin must approve before the\n    ///         entity can interact with other contracts.\n    /// @param  _role     One of: Manufacturer(2), Distributor(3),\n    ///                   Supplier(4), Pharmacist(5). Cannot self-register as Admin.\n    /// @param  _name     Full legal name / business name.\n    /// @param  _email    Contact email (stored off-chain ref only).\n    /// @param  _location City / address string.\n    function requestRegistration(\n        Role   _role,\n        string calldata _name,\n        string calldata _email,\n        string calldata _location\n    )\n        external\n        notAlreadyRegistered\n    {\n        require(\n            _role == Role.Manufacturer ||\n            _role == Role.Distributor  ||\n            _role == Role.Supplier     ||\n            _role == Role.Pharmacist,\n            \"Registry: invalid role for self-registration\"\n        );\n        require(bytes(_name).length > 0,     \"Registry: name cannot be empty\");\n        require(bytes(_email).length > 0,    \"Registry: email cannot be empty\");\n        require(bytes(_location).length > 0, \"Registry: location cannot be empty\");\n\n        entities[msg.sender] = Entity({\n            walletAddress:  msg.sender,\n            role:           _role,\n            status:         ApprovalStatus.Pending,\n            name:           _name,\n            email:          _email,\n            location:       _location,\n            licenseNumber:  \"\",           // assigned by admin later\n            registeredAt:   block.timestamp,\n            approvedAt:     0,\n            exists:         true\n        });\n\n        allRegistered.push(msg.sender);\n        pendingList.push(msg.sender);\n        isPending[msg.sender] = true;\n\n        emit RegistrationRequested(msg.sender, _role, _name, block.timestamp);\n    }\n\n    // ─────────────────────────────────────────────────────────────\n    // Admin — Approval / Rejection / Revocation\n    // ─────────────────────────────────────────────────────────────\n\n    /// @notice Approve a pending registration and assign a license number.\n    /// @param  _entity     Applicant wallet address.\n    /// @param  _licenseNo  Unique license string (e.g. \"MFR-2024-001\").\n    function approveEntity(address _entity, string calldata _licenseNo)\n        external\n        onlyAdmin\n        entityExists(_entity)\n    {\n        Entity storage e = entities[_entity];\n\n        require(\n            e.status == ApprovalStatus.Pending,\n            \"Registry: entity is not in Pending status\"\n        );\n        require(bytes(_licenseNo).length > 0, \"Registry: license number cannot be empty\");\n        require(\n            licenseToAddress[_licenseNo] == address(0),\n            \"Registry: license number already assigned\"\n        );\n\n        e.status        = ApprovalStatus.Approved;\n        e.licenseNumber = _licenseNo;\n        e.approvedAt    = block.timestamp;\n\n        licenseToAddress[_licenseNo] = _entity;\n        _removeFromPending(_entity);\n\n        emit EntityApproved(_entity, e.role, _licenseNo, msg.sender, block.timestamp);\n    }\n\n    /// @notice Reject a pending registration request.\n    function rejectEntity(address _entity)\n        external\n        onlyAdmin\n        entityExists(_entity)\n    {\n        Entity storage e = entities[_entity];\n\n        require(\n            e.status == ApprovalStatus.Pending,\n            \"Registry: entity is not in Pending status\"\n        );\n\n        e.status = ApprovalStatus.Rejected;\n        _removeFromPending(_entity);\n\n        emit EntityRejected(_entity, msg.sender, block.timestamp);\n    }\n\n    /// @notice Revoke an already-approved entity (e.g. license violation).\n    ///         The entity's on-chain record is preserved for audit purposes\n    ///         but isApproved() will return false.\n    function revokeEntity(address _entity)\n        external\n        onlyAdmin\n        entityExists(_entity)\n    {\n        Entity storage e = entities[_entity];\n\n        require(\n            e.status == ApprovalStatus.Approved,\n            \"Registry: entity is not currently Approved\"\n        );\n\n        e.status = ApprovalStatus.Revoked;\n\n        emit EntityRevoked(_entity, msg.sender, block.timestamp);\n    }\n\n    /// @notice Re-approve a previously rejected or revoked entity\n    ///         (e.g. after appeal), keeping the same license number.\n    function reactivateEntity(address _entity)\n        external\n        onlyAdmin\n        entityExists(_entity)\n    {\n        Entity storage e = entities[_entity];\n\n        require(\n            e.status == ApprovalStatus.Rejected ||\n            e.status == ApprovalStatus.Revoked,\n            \"Registry: entity is not in Rejected or Revoked status\"\n        );\n        require(\n            bytes(e.licenseNumber).length > 0,\n            \"Registry: no license number on record; use approveEntity instead\"\n        );\n\n        e.status     = ApprovalStatus.Approved;\n        e.approvedAt = block.timestamp;\n\n        emit EntityReactivated(_entity, msg.sender, block.timestamp);\n    }\n\n    // ─────────────────────────────────────────────────────────────\n    // Admin — Update Entity Details\n    // ─────────────────────────────────────────────────────────────\n\n    /// @notice Admin can correct or update an entity's profile fields.\n    ///         Does NOT change role or approval status.\n    function updateEntityDetails(\n        address        _entity,\n        string calldata _name,\n        string calldata _email,\n        string calldata _location\n    )\n        external\n        onlyAdmin\n        entityExists(_entity)\n    {\n        require(bytes(_name).length > 0, \"Registry: name cannot be empty\");\n\n        Entity storage e = entities[_entity];\n        e.name     = _name;\n        e.email    = _email;\n        e.location = _location;\n\n        emit EntityDetailsUpdated(_entity, block.timestamp);\n    }\n\n    // ─────────────────────────────────────────────────────────────\n    // Self-Update (Approved entities only)\n    // ─────────────────────────────────────────────────────────────\n\n    /// @notice Approved entities can update their own email and location.\n    ///         Name and role changes require admin action.\n    function updateMyDetails(\n        string calldata _email,\n        string calldata _location\n    )\n        external\n        onlyApproved\n    {\n        Entity storage e = entities[msg.sender];\n        e.email    = _email;\n        e.location = _location;\n\n        emit EntityDetailsUpdated(msg.sender, block.timestamp);\n    }\n\n    // ─────────────────────────────────────────────────────────────\n    // Admin Transfer\n    // ─────────────────────────────────────────────────────────────\n\n    /// @notice Transfer admin rights to a new wallet.\n    ///         The new admin must already be an approved entity OR\n    ///         be a fresh address (role becomes Admin).\n    function transferAdmin(address _newAdmin) external onlyAdmin {\n        require(_newAdmin != address(0), \"Registry: zero address\");\n        require(_newAdmin != admin,      \"Registry: already admin\");\n\n        address oldAdmin = admin;\n        admin = _newAdmin;\n\n        // Update the old admin entity record\n        entities[oldAdmin].role   = Role.None;\n        entities[oldAdmin].status = ApprovalStatus.Revoked;\n\n        // Create or update new admin record\n        if (!entities[_newAdmin].exists) {\n            entities[_newAdmin] = Entity({\n                walletAddress:  _newAdmin,\n                role:           Role.Admin,\n                status:         ApprovalStatus.Approved,\n                name:           \"System Admin\",\n                email:          \"\",\n                location:       \"\",\n                licenseNumber:  \"ADMIN-TRANSFER\",\n                registeredAt:   block.timestamp,\n                approvedAt:     block.timestamp,\n                exists:         true\n            });\n            allRegistered.push(_newAdmin);\n        } else {\n            entities[_newAdmin].role   = Role.Admin;\n            entities[_newAdmin].status = ApprovalStatus.Approved;\n        }\n\n        emit AdminTransferred(oldAdmin, _newAdmin);\n    }\n\n    // ─────────────────────────────────────────────────────────────\n    // View / Query Functions (called by other contracts & frontend)\n    // ─────────────────────────────────────────────────────────────\n\n    /// @notice Primary guard used by other contracts.\n    ///         Returns true only if the address is Approved AND holds the expected role.\n    function isApprovedWithRole(address _addr, Role _role)\n        external\n        view\n        returns (bool)\n    {\n        Entity storage e = entities[_addr];\n        return e.exists &&\n               e.status == ApprovalStatus.Approved &&\n               e.role   == _role;\n    }\n\n    /// @notice Returns true if the address is approved for ANY valid role.\n    function isApproved(address _addr) external view returns (bool) {\n        return entities[_addr].exists &&\n               entities[_addr].status == ApprovalStatus.Approved;\n    }\n\n    /// @notice Returns the role of an address regardless of approval status.\n    function getRole(address _addr) external view returns (Role) {\n        return entities[_addr].role;\n    }\n\n    /// @notice Returns the approval status of an address.\n    function getStatus(address _addr) external view returns (ApprovalStatus) {\n        return entities[_addr].status;\n    }\n\n    /// @notice Returns full entity record for an address.\n    function getEntity(address _addr)\n        external\n        view\n        entityExists(_addr)\n        returns (Entity memory)\n    {\n        return entities[_addr];\n    }\n\n    /// @notice Lookup an entity by license number.\n    function getEntityByLicense(string calldata _licenseNo)\n        external\n        view\n        returns (Entity memory)\n    {\n        address addr = licenseToAddress[_licenseNo];\n        require(addr != address(0), \"Registry: license not found\");\n        return entities[addr];\n    }\n\n    /// @notice Returns all pending registration requests (for the admin dashboard).\n    function getPendingRequests() external view returns (address[] memory) {\n        return pendingList;\n    }\n\n    /// @notice Returns the full list of pending requests with their Entity details.\n    ///         Useful for the admin panel to render a table in one call.\n    function getPendingEntities() external view returns (Entity[] memory) {\n        uint256 len = pendingList.length;\n        Entity[] memory result = new Entity[](len);\n        for (uint256 i = 0; i < len; i++) {\n            result[i] = entities[pendingList[i]];\n        }\n        return result;\n    }\n\n    /// @notice Returns all registered addresses (approved + pending + rejected + revoked).\n    function getAllRegistered() external view returns (address[] memory) {\n        return allRegistered;\n    }\n\n    /// @notice Returns all entities of a specific role that are Approved.\n    ///         Used by Manufacturer to list available Distributors, etc.\n    function getApprovedByRole(Role _role)\n        external\n        view\n        returns (Entity[] memory)\n    {\n        // First pass: count\n        uint256 count = 0;\n        for (uint256 i = 0; i < allRegistered.length; i++) {\n            Entity storage e = entities[allRegistered[i]];\n            if (e.role == _role && e.status == ApprovalStatus.Approved) {\n                count++;\n            }\n        }\n\n        // Second pass: fill\n        Entity[] memory result = new Entity[](count);\n        uint256 idx = 0;\n        for (uint256 i = 0; i < allRegistered.length; i++) {\n            Entity storage e = entities[allRegistered[i]];\n            if (e.role == _role && e.status == ApprovalStatus.Approved) {\n                result[idx] = e;\n                idx++;\n            }\n        }\n        return result;\n    }\n\n    /// @notice Returns the license number assigned to an address.\n    ///         Returns empty string if not yet assigned.\n    function getLicenseNumber(address _addr)\n        external\n        view\n        returns (string memory)\n    {\n        return entities[_addr].licenseNumber;\n    }\n\n    /// @notice Returns the wallet address registered under a given license number.\n    ///         Returns address(0) if not found.\n    function getAddressByLicense(string calldata _licenseNo)\n        external\n        view\n        returns (address)\n    {\n        return licenseToAddress[_licenseNo];\n    }\n\n    // ─────────────────────────────────────────────────────────────\n    // Internal Helpers\n    // ─────────────────────────────────────────────────────────────\n\n    /// @dev Removes an address from the pendingList array and\n    ///      clears its isPending flag. Uses swap-and-pop for O(n) removal.\n    function _removeFromPending(address _addr) internal {\n        if (!isPending[_addr]) return;\n\n        isPending[_addr] = false;\n\n        uint256 len = pendingList.length;\n        for (uint256 i = 0; i < len; i++) {\n            if (pendingList[i] == _addr) {\n                pendingList[i] = pendingList[len - 1];\n                pendingList.pop();\n                break;\n            }\n        }\n    }\n    function getAllEntities() external view returns (address[] memory) {\n        return allRegistered;\n    }\n}\n",
  "sourcePath": "D:\\FYP Final\\Project\\medicine-supply-chain\\myProject\\contracts\\RegistryContract.sol",
  "compiler": {
    "name": "solc",
    "version": "0.8.20+commit.a1b79de6.Emscripten.clang"
  },
  "schemaVersion": "3.4.16",
  "updatedAt": "2026-04-25T20:34:59.874Z",
  "networkType": "ethereum",
  "devdoc": {
    "details": "Deploy this contract first; pass its address to the         constructor of ProductContract, TransferContract and         TraceContract.",
    "kind": "dev",
    "methods": {
      "approveEntity(address,string)": {
        "params": {
          "_entity": "Applicant wallet address.",
          "_licenseNo": "Unique license string (e.g. \"MFR-2024-001\")."
        }
      },
      "constructor": {
        "params": {
          "_admin": "The wallet address that will act as system admin.               Typically the deployer's address."
        }
      },
      "requestRegistration(uint8,string,string,string)": {
        "params": {
          "_email": "Contact email (stored off-chain ref only).",
          "_location": "City / address string.",
          "_name": "Full legal name / business name.",
          "_role": "One of: Manufacturer(2), Distributor(3),                   Supplier(4), Pharmacist(5). Cannot self-register as Admin."
        }
      }
    },
    "stateVariables": {
      "allRegistered": {
        "details": "All addresses that have ever submitted a registration request"
      },
      "entities": {
        "details": "Primary registry: wallet → Entity"
      },
      "isPending": {
        "details": "Quick set-membership for pendingList (avoid O(n) scan on removal)"
      },
      "licenseToAddress": {
        "details": "License number uniqueness guard: licenseNo → assigned address"
      },
      "pendingList": {
        "details": "Addresses currently awaiting admin decision"
      }
    },
    "title": "RegistryContract",
    "version": 1
  },
  "userdoc": {
    "kind": "user",
    "methods": {
      "approveEntity(address,string)": {
        "notice": "Approve a pending registration and assign a license number."
      },
      "getAddressByLicense(string)": {
        "notice": "Returns the wallet address registered under a given license number.         Returns address(0) if not found."
      },
      "getAllRegistered()": {
        "notice": "Returns all registered addresses (approved + pending + rejected + revoked)."
      },
      "getApprovedByRole(uint8)": {
        "notice": "Returns all entities of a specific role that are Approved.         Used by Manufacturer to list available Distributors, etc."
      },
      "getEntity(address)": {
        "notice": "Returns full entity record for an address."
      },
      "getEntityByLicense(string)": {
        "notice": "Lookup an entity by license number."
      },
      "getLicenseNumber(address)": {
        "notice": "Returns the license number assigned to an address.         Returns empty string if not yet assigned."
      },
      "getPendingEntities()": {
        "notice": "Returns the full list of pending requests with their Entity details.         Useful for the admin panel to render a table in one call."
      },
      "getPendingRequests()": {
        "notice": "Returns all pending registration requests (for the admin dashboard)."
      },
      "getRole(address)": {
        "notice": "Returns the role of an address regardless of approval status."
      },
      "getStatus(address)": {
        "notice": "Returns the approval status of an address."
      },
      "isApproved(address)": {
        "notice": "Returns true if the address is approved for ANY valid role."
      },
      "isApprovedWithRole(address,uint8)": {
        "notice": "Primary guard used by other contracts.         Returns true only if the address is Approved AND holds the expected role."
      },
      "reactivateEntity(address)": {
        "notice": "Re-approve a previously rejected or revoked entity         (e.g. after appeal), keeping the same license number."
      },
      "rejectEntity(address)": {
        "notice": "Reject a pending registration request."
      },
      "requestRegistration(uint8,string,string,string)": {
        "notice": "Submit a signup request. Admin must approve before the         entity can interact with other contracts."
      },
      "revokeEntity(address)": {
        "notice": "Revoke an already-approved entity (e.g. license violation).         The entity's on-chain record is preserved for audit purposes         but isApproved() will return false."
      },
      "transferAdmin(address)": {
        "notice": "Transfer admin rights to a new wallet.         The new admin must already be an approved entity OR         be a fresh address (role becomes Admin)."
      },
      "updateEntityDetails(address,string,string,string)": {
        "notice": "Admin can correct or update an entity's profile fields.         Does NOT change role or approval status."
      },
      "updateMyDetails(string,string)": {
        "notice": "Approved entities can update their own email and location.         Name and role changes require admin action."
      }
    },
    "notice": "Central identity & access-control registry for the         Blockchain-Based Medicine Supply Chain system.         All other contracts query this contract to verify         that a caller is approved and holds the correct role.",
    "version": 1
  }
}