{
  "contractName": "RegistryContract",
  "abi": [
    {
      "inputs": [
        {
          "internalType": "address",
          "name": "_admin",
          "type": "address"
        }
      ],
      "stateMutability": "nonpayable",
      "type": "constructor"
    },
    {
      "anonymous": false,
      "inputs": [
        {
          "indexed": true,
          "internalType": "address",
          "name": "previousAdmin",
          "type": "address"
        },
        {
          "indexed": true,
          "internalType": "address",
          "name": "newAdmin",
          "type": "address"
        }
      ],
      "name": "AdminTransferred",
      "type": "event"
    },
    {
      "anonymous": false,
      "inputs": [
        {
          "indexed": true,
          "internalType": "address",
          "name": "entity",
          "type": "address"
        },
        {
          "indexed": true,
          "internalType": "enum RegistryContract.Role",
          "name": "role",
          "type": "uint8"
        },
        {
          "indexed": false,
          "internalType": "string",
          "name": "licenseNumber",
          "type": "string"
        },
        {
          "indexed": true,
          "internalType": "address",
          "name": "approvedBy",
          "type": "address"
        },
        {
          "indexed": false,
          "internalType": "uint256",
          "name": "timestamp",
          "type": "uint256"
        }
      ],
      "name": "EntityApproved",
      "type": "event"
    },
    {
      "anonymous": false,
      "inputs": [
        {
          "indexed": true,
          "internalType": "address",
          "name": "entity",
          "type": "address"
        },
        {
          "indexed": false,
          "internalType": "uint256",
          "name": "timestamp",
          "type": "uint256"
        }
      ],
      "name": "EntityDetailsUpdated",
      "type": "event"
    },
    {
      "anonymous": false,
      "inputs": [
        {
          "indexed": true,
          "internalType": "address",
          "name": "entity",
          "type": "address"
        },
        {
          "indexed": true,
          "internalType": "address",
          "name": "reactivatedBy",
          "type": "address"
        },
        {
          "indexed": false,
          "internalType": "uint256",
          "name": "timestamp",
          "type": "uint256"
        }
      ],
      "name": "EntityReactivated",
      "type": "event"
    },
    {
      "anonymous": false,
      "inputs": [
        {
          "indexed": true,
          "internalType": "address",
          "name": "entity",
          "type": "address"
        },
        {
          "indexed": true,
          "internalType": "address",
          "name": "rejectedBy",
          "type": "address"
        },
        {
          "indexed": false,
          "internalType": "uint256",
          "name": "timestamp",
          "type": "uint256"
        }
      ],
      "name": "EntityRejected",
      "type": "event"
    },
    {
      "anonymous": false,
      "inputs": [
        {
          "indexed": true,
          "internalType": "address",
          "name": "entity",
          "type": "address"
        },
        {
          "indexed": true,
          "internalType": "address",
          "name": "revokedBy",
          "type": "address"
        },
        {
          "indexed": false,
          "internalType": "uint256",
          "name": "timestamp",
          "type": "uint256"
        }
      ],
      "name": "EntityRevoked",
      "type": "event"
    },
    {
      "anonymous": false,
      "inputs": [
        {
          "indexed": true,
          "internalType": "address",
          "name": "applicant",
          "type": "address"
        },
        {
          "indexed": true,
          "internalType": "enum RegistryContract.Role",
          "name": "role",
          "type": "uint8"
        },
        {
          "indexed": false,
          "internalType": "string",
          "name": "name",
          "type": "string"
        },
        {
          "indexed": false,
          "internalType": "uint256",
          "name": "timestamp",
          "type": "uint256"
        }
      ],
      "name": "RegistrationRequested",
      "type": "event"
    },
    {
      "inputs": [],
      "name": "admin",
      "outputs": [
        {
          "internalType": "address",
          "name": "",
          "type": "address"
        }
      ],
      "stateMutability": "view",
      "type": "function",
      "constant": true
    },
    {
      "inputs": [
        {
          "internalType": "enum RegistryContract.Role",
          "name": "_role",
          "type": "uint8"
        },
        {
          "internalType": "string",
          "name": "_name",
          "type": "string"
        },
        {
          "internalType": "string",
          "name": "_email",
          "type": "string"
        },
        {
          "internalType": "string",
          "name": "_location",
          "type": "string"
        }
      ],
      "name": "requestRegistration",
      "outputs": [],
      "stateMutability": "nonpayable",
      "type": "function"
    },
    {
      "inputs": [
        {
          "internalType": "address",
          "name": "_entity",
          "type": "address"
        },
        {
          "internalType": "string",
          "name": "_licenseNo",
          "type": "string"
        }
      ],
      "name": "approveEntity",
      "outputs": [],
      "stateMutability": "nonpayable",
      "type": "function"
    },
    {
      "inputs": [
        {
          "internalType": "address",
          "name": "_entity",
          "type": "address"
        },
        {
          "internalType": "string",
          "name": "_reason",
          "type": "string"
        }
      ],
      "name": "rejectEntity",
      "outputs": [],
      "stateMutability": "nonpayable",
      "type": "function"
    },
    {
      "inputs": [
        {
          "internalType": "address",
          "name": "_entity",
          "type": "address"
        }
      ],
      "name": "revokeEntity",
      "outputs": [],
      "stateMutability": "nonpayable",
      "type": "function"
    },
    {
      "inputs": [
        {
          "internalType": "address",
          "name": "_entity",
          "type": "address"
        }
      ],
      "name": "reactivateEntity",
      "outputs": [],
      "stateMutability": "nonpayable",
      "type": "function"
    },
    {
      "inputs": [
        {
          "internalType": "address",
          "name": "_entity",
          "type": "address"
        },
        {
          "internalType": "string",
          "name": "_name",
          "type": "string"
        },
        {
          "internalType": "string",
          "name": "_email",
          "type": "string"
        },
        {
          "internalType": "string",
          "name": "_location",
          "type": "string"
        }
      ],
      "name": "updateEntityDetails",
      "outputs": [],
      "stateMutability": "nonpayable",
      "type": "function"
    },
    {
      "inputs": [
        {
          "internalType": "string",
          "name": "_email",
          "type": "string"
        },
        {
          "internalType": "string",
          "name": "_location",
          "type": "string"
        }
      ],
      "name": "updateMyDetails",
      "outputs": [],
      "stateMutability": "nonpayable",
      "type": "function"
    },
    {
      "inputs": [
        {
          "internalType": "address",
          "name": "_newAdmin",
          "type": "address"
        }
      ],
      "name": "transferAdmin",
      "outputs": [],
      "stateMutability": "nonpayable",
      "type": "function"
    },
    {
      "inputs": [
        {
          "internalType": "address",
          "name": "_addr",
          "type": "address"
        },
        {
          "internalType": "enum RegistryContract.Role",
          "name": "_role",
          "type": "uint8"
        }
      ],
      "name": "isApprovedWithRole",
      "outputs": [
        {
          "internalType": "bool",
          "name": "",
          "type": "bool"
        }
      ],
      "stateMutability": "view",
      "type": "function",
      "constant": true
    },
    {
      "inputs": [
        {
          "internalType": "address",
          "name": "_addr",
          "type": "address"
        }
      ],
      "name": "isApproved",
      "outputs": [
        {
          "internalType": "bool",
          "name": "",
          "type": "bool"
        }
      ],
      "stateMutability": "view",
      "type": "function",
      "constant": true
    },
    {
      "inputs": [
        {
          "internalType": "address",
          "name": "_addr",
          "type": "address"
        }
      ],
      "name": "getRole",
      "outputs": [
        {
          "internalType": "enum RegistryContract.Role",
          "name": "",
          "type": "uint8"
        }
      ],
      "stateMutability": "view",
      "type": "function",
      "constant": true
    },
    {
      "inputs": [
        {
          "internalType": "address",
          "name": "_addr",
          "type": "address"
        }
      ],
      "name": "getStatus",
      "outputs": [
        {
          "internalType": "enum RegistryContract.ApprovalStatus",
          "name": "",
          "type": "uint8"
        }
      ],
      "stateMutability": "view",
      "type": "function",
      "constant": true
    },
    {
      "inputs": [
        {
          "internalType": "address",
          "name": "_addr",
          "type": "address"
        }
      ],
      "name": "getEntity",
      "outputs": [
        {
          "components": [
            {
              "internalType": "address",
              "name": "walletAddress",
              "type": "address"
            },
            {
              "internalType": "enum RegistryContract.Role",
              "name": "role",
              "type": "uint8"
            },
            {
              "internalType": "enum RegistryContract.ApprovalStatus",
              "name": "status",
              "type": "uint8"
            },
            {
              "internalType": "string",
              "name": "name",
              "type": "string"
            },
            {
              "internalType": "string",
              "name": "email",
              "type": "string"
            },
            {
              "internalType": "string",
              "name": "location",
              "type": "string"
            },
            {
              "internalType": "string",
              "name": "licenseNumber",
              "type": "string"
            },
            {
              "internalType": "string",
              "name": "rejectionReason",
              "type": "string"
            },
            {
              "internalType": "uint256",
              "name": "registeredAt",
              "type": "uint256"
            },
            {
              "internalType": "uint256",
              "name": "approvedAt",
              "type": "uint256"
            },
            {
              "internalType": "bool",
              "name": "exists",
              "type": "bool"
            }
          ],
          "internalType": "struct RegistryContract.Entity",
          "name": "",
          "type": "tuple"
        }
      ],
      "stateMutability": "view",
      "type": "function",
      "constant": true
    },
    {
      "inputs": [
        {
          "internalType": "string",
          "name": "_licenseNo",
          "type": "string"
        }
      ],
      "name": "getEntityByLicense",
      "outputs": [
        {
          "components": [
            {
              "internalType": "address",
              "name": "walletAddress",
              "type": "address"
            },
            {
              "internalType": "enum RegistryContract.Role",
              "name": "role",
              "type": "uint8"
            },
            {
              "internalType": "enum RegistryContract.ApprovalStatus",
              "name": "status",
              "type": "uint8"
            },
            {
              "internalType": "string",
              "name": "name",
              "type": "string"
            },
            {
              "internalType": "string",
              "name": "email",
              "type": "string"
            },
            {
              "internalType": "string",
              "name": "location",
              "type": "string"
            },
            {
              "internalType": "string",
              "name": "licenseNumber",
              "type": "string"
            },
            {
              "internalType": "string",
              "name": "rejectionReason",
              "type": "string"
            },
            {
              "internalType": "uint256",
              "name": "registeredAt",
              "type": "uint256"
            },
            {
              "internalType": "uint256",
              "name": "approvedAt",
              "type": "uint256"
            },
            {
              "internalType": "bool",
              "name": "exists",
              "type": "bool"
            }
          ],
          "internalType": "struct RegistryContract.Entity",
          "name": "",
          "type": "tuple"
        }
      ],
      "stateMutability": "view",
      "type": "function",
      "constant": true
    },
    {
      "inputs": [],
      "name": "getPendingRequests",
      "outputs": [
        {
          "internalType": "address[]",
          "name": "",
          "type": "address[]"
        }
      ],
      "stateMutability": "view",
      "type": "function",
      "constant": true
    },
    {
      "inputs": [],
      "name": "getPendingEntities",
      "outputs": [
        {
          "components": [
            {
              "internalType": "address",
              "name": "walletAddress",
              "type": "address"
            },
            {
              "internalType": "enum RegistryContract.Role",
              "name": "role",
              "type": "uint8"
            },
            {
              "internalType": "enum RegistryContract.ApprovalStatus",
              "name": "status",
              "type": "uint8"
            },
            {
              "internalType": "string",
              "name": "name",
              "type": "string"
            },
            {
              "internalType": "string",
              "name": "email",
              "type": "string"
            },
            {
              "internalType": "string",
              "name": "location",
              "type": "string"
            },
            {
              "internalType": "string",
              "name": "licenseNumber",
              "type": "string"
            },
            {
              "internalType": "string",
              "name": "rejectionReason",
              "type": "string"
            },
            {
              "internalType": "uint256",
              "name": "registeredAt",
              "type": "uint256"
            },
            {
              "internalType": "uint256",
              "name": "approvedAt",
              "type": "uint256"
            },
            {
              "internalType": "bool",
              "name": "exists",
              "type": "bool"
            }
          ],
          "internalType": "struct RegistryContract.Entity[]",
          "name": "",
          "type": "tuple[]"
        }
      ],
      "stateMutability": "view",
      "type": "function",
      "constant": true
    },
    {
      "inputs": [],
      "name": "getAllRegistered",
      "outputs": [
        {
          "internalType": "address[]",
          "name": "",
          "type": "address[]"
        }
      ],
      "stateMutability": "view",
      "type": "function",
      "constant": true
    },
    {
      "inputs": [
        {
          "internalType": "enum RegistryContract.Role",
          "name": "_role",
          "type": "uint8"
        }
      ],
      "name": "getApprovedByRole",
      "outputs": [
        {
          "components": [
            {
              "internalType": "address",
              "name": "walletAddress",
              "type": "address"
            },
            {
              "internalType": "enum RegistryContract.Role",
              "name": "role",
              "type": "uint8"
            },
            {
              "internalType": "enum RegistryContract.ApprovalStatus",
              "name": "status",
              "type": "uint8"
            },
            {
              "internalType": "string",
              "name": "name",
              "type": "string"
            },
            {
              "internalType": "string",
              "name": "email",
              "type": "string"
            },
            {
              "internalType": "string",
              "name": "location",
              "type": "string"
            },
            {
              "internalType": "string",
              "name": "licenseNumber",
              "type": "string"
            },
            {
              "internalType": "string",
              "name": "rejectionReason",
              "type": "string"
            },
            {
              "internalType": "uint256",
              "name": "registeredAt",
              "type": "uint256"
            },
            {
              "internalType": "uint256",
              "name": "approvedAt",
              "type": "uint256"
            },
            {
              "internalType": "bool",
              "name": "exists",
              "type": "bool"
            }
          ],
          "internalType": "struct RegistryContract.Entity[]",
          "name": "",
          "type": "tuple[]"
        }
      ],
      "stateMutability": "view",
      "type": "function",
      "constant": true
    },
    {
      "inputs": [
        {
          "internalType": "address",
          "name": "_addr",
          "type": "address"
        }
      ],
      "name": "getLicenseNumber",
      "outputs": [
        {
          "internalType": "string",
          "name": "",
          "type": "string"
        }
      ],
      "stateMutability": "view",
      "type": "function",
      "constant": true
    },
    {
      "inputs": [
        {
          "internalType": "string",
          "name": "_licenseNo",
          "type": "string"
        }
      ],
      "name": "getAddressByLicense",
      "outputs": [
        {
          "internalType": "address",
          "name": "",
          "type": "address"
        }
      ],
      "stateMutability": "view",
      "type": "function",
      "constant": true
    },
    {
      "inputs": [],
      "name": "getAllEntities",
      "outputs": [
        {
          "internalType": "address[]",
          "name": "",
          "type": "address[]"
        }
      ],
      "stateMutability": "view",
      "type": "function",
      "constant": true
    }
  ],
  "bytecode": "0x60803462000a0f57601f6200374738819003918201601f19168301916001600160401b038311848410176200053f5780849260209460405283398101031262000a0f57516001600160a01b038116810362000a0f576001600160a01b03811615620009bb57600080546001600160a01b0319166001600160a01b0383161790556040519061016082016001600160401b038111838210176200053f5760409081526001600160a01b038216835260016020840152600290830152620000c362000a14565b600c81526b29bcb9ba32b69020b236b4b760a11b60208201526060830152620000eb62000a34565b600081526080830152620000fe62000a34565b6000815260a08301526200011162000a14565b600981526841444d494e2d30303160b81b602082015260c08301526200013662000a34565b6000815260e08301524261010083015242610120830152600161014083015260018060a01b038116600052600160205260406000209160018060a01b0381511683546020830151916006831015620009a55760408401516005811015620009a5576001600160b01b03199092161760a09290921b60ff60a01b169190911760a89190911b60ff60a81b16178355606081015180519093906001600160401b0381116200053f576001820154600181811c911680156200099a575b60208210146200062857601f81116200094e575b506020601f8211600114620008da578192939495600092620008ce575b50508160011b916000199060031b1c19161760018201555b608082015180519093906001600160401b0381116200053f576002830154600181811c91168015620008c3575b60208210146200062857601f811162000877575b506020601f821160011462000803578192939495600092620007f7575b50508160011b916000199060031b1c19161760028301555b60a083015180519093906001600160401b0381116200053f576003840154600181811c91168015620007ec575b60208210146200062857601f8111620007a0575b506020601f82116001146200072c57819293949560009262000720575b50508160011b916000199060031b1c19161760038401555b60c081015180519093906001600160401b0381116200053f576004820154600181811c9116801562000715575b60208210146200062857601f8111620006c9575b506020601f82116001146200065557819293949560009262000649575b50508160011b916000199060031b1c19161760048201555b60e08201518051906001600160401b0382116200053f576005830154600181811c911680156200063e575b60208210146200062857601f8111620005dc575b50602090601f831160011462000561579180610140949260089460009262000555575b50508160011b916000199060031b1c19161760058201555b6101008401516006820155610120840151600782015501910151151560ff80198354169116179055600254680100000000000000008110156200053f576001810180600255811015620005295760026000527f405787fa12a823e0f2b7631cc41b3ba8828b3321ca811111fa75cd3aa3bb5ace0180546001600160a01b03199081166001600160a01b0393909316928317909155604080516841444d494e2d30303160b81b8082526005600980840191909152602990922080549094168517909355815182815291820152606081019190915242602082015260019082907fb99357eaf041c6b4f9ef26c88b38609fbf977298507bb7570887fab2714679c290608090a4604051612cf2908162000a558239f35b634e487b7160e01b600052603260045260246000fd5b634e487b7160e01b600052604160045260246000fd5b015190503880620003fd565b906005840160005260206000209160005b601f1985168110620005c3575092610140949260019260089583601f19811610620005a9575b505050811b01600582015562000415565b015160001960f88460031b161c1916905538808062000598565b9192602060018192868501518155019401920162000572565b600584016000526020600020601f840160051c81016020851062000620575b601f830160051c8201811062000613575050620003da565b60008155600101620005fb565b5080620005fb565b634e487b7160e01b600052602260045260246000fd5b90607f1690620003c6565b01519050388062000383565b6004830160005260206000209060005b601f1984168110620006b0575060019394959683601f1981161062000696575b505050811b0160048201556200039b565b015160001960f88460031b161c1916905538808062000685565b9091602060018192858b01518155019301910162000665565b600483016000526020600020601f830160051c8101602084106200070d575b601f830160051c820181106200070057505062000366565b60008155600101620006e8565b5080620006e8565b90607f169062000352565b0151905038806200030d565b6003850160005260206000209060005b601f198416811062000787575060019394959683601f198116106200076d575b505050811b01600384015562000325565b015160001960f88460031b161c191690553880806200075c565b9091602060018192858b0151815501930191016200073c565b600385016000526020600020601f830160051c810160208410620007e4575b601f830160051c82018110620007d7575050620002f0565b60008155600101620007bf565b5080620007bf565b90607f1690620002dc565b01519050388062000297565b6002840160005260206000209060005b601f19841681106200085e575060019394959683601f1981161062000844575b505050811b016002830155620002af565b015160001960f88460031b161c1916905538808062000833565b9091602060018192858b01518155019301910162000813565b600284016000526020600020601f830160051c810160208410620008bb575b601f830160051c82018110620008ae5750506200027a565b6000815560010162000896565b508062000896565b90607f169062000266565b01519050388062000221565b6001830160005260206000209060005b601f198416811062000935575060019394959683601f198116106200091b575b505050811b01600182015562000239565b015160001960f88460031b161c191690553880806200090a565b9091602060018192858b015181550193019101620008ea565b600183016000526020600020601f830160051c81016020841062000992575b601f830160051c820181106200098557505062000204565b600081556001016200096d565b50806200096d565b90607f1690620001f0565b634e487b7160e01b600052602160045260246000fd5b60405162461bcd60e51b815260206004820152602660248201527f52656769737472793a2061646d696e2063616e6e6f74206265207a65726f206160448201526564647265737360d01b6064820152608490fd5b600080fd5b60408051919082016001600160401b038111838210176200053f57604052565b60405190602082016001600160401b038111838210176200053f5760405256fe608080604052600436101561001357600080fd5b60003560e01c908163030e46cb14612078575080630b88ded114611fe157806312e0ba4814611f8657806330ccebb514611f415780633c1a314314611ca35780634427673314611c5c578063518ce2b614611bd857806355ebca01146113ae578063673448dd14611347578063693c79b21461119657806372e52f5a1461114557806375829def14610a6957806375894e8c146109f457806378d1dee11461087d5780637d9d17b7146107b15780637e69dae01461026557806380a1f712146107235780639deaf8f114610598578063ab330f6b1461026a578063c85c0d3514610265578063d7b71f5f1461013f5763f851a4401461011157600080fd5b3461013a57600036600319011261013a576000546040516001600160a01b039091168152602090f35b600080fd5b3461013a57602036600319011261013a57610158612304565b6000546001600160a01b0391906101729083163314612854565b1680600052600160205261019060ff600860406000200154166128a0565b8060005260016020526040600020805460ff8160a81c16600581101561024f576002036101f75760ff60a81b1916600160aa1b1790556040514281523391907f1a66b2e2e4e77f417c0f793f30f1b62e1371ae6ec6e4e3c008d5d8059808d77490602090a3005b60405162461bcd60e51b815260206004820152602a60248201527f52656769737472793a20656e74697479206973206e6f742063757272656e746c6044820152691e48105c1c1c9bdd995960b21b6064820152608490fd5b634e487b7160e01b600052602160045260246000fd5b612524565b3461013a57608036600319011261013a57610283612304565b6001600160401b039060243582811161013a576102a49036906004016122d7565b9260443581811161013a576102bd9036906004016122d7565b909360643583811161013a576102d79036906004016122d7565b600054909791926001600160a01b03916102f49083163314612854565b16958660005260019360209685885261031760ff600860406000200154166128a0565b6103228415156125a7565b88600052858852604060002093868501918882116104a15781906103508261034a8654612702565b8661273c565b600090601f83116001146105355760009261052a575b5050600019600383901b1c191690871b1790555b60028301918682116104a15761039a826103948554612702565b8561273c565b600090601f83116001146104c257600394939291600091836104b7575b505060001982861b1c191690861b1790555b019286116104a1576103df866103948554612702565b600090601f8711600114610431579580928192600080516020612c9d8339815191529798600094610426575b50501b916000199060031b1c19161790555b604051428152a2005b01359250888061040b565b9590601f1982169684600052856000209160005b89811061048c575083600080516020612c9d833981519152989910610472575b505050811b01905561041d565b0135600019600384901b60f8161c19169055868080610465565b82820135845592850192908701908701610445565b634e487b7160e01b600052604160045260246000fd5b013590508b806103b7565b918691949392601f19821690846000528a6000209160005b8c8282106105145750509683600398106104fc575b505050811b0190556103c9565b013560001983881b60f8161c191690558b80806104ef565b838a01358555988901988b9690940193016104da565b013590508c80610366565b60008581528c81208b95509290601f198516908e5b8282106105815750508411610567575b505050811b01905561037a565b0135600019600384901b60f8161c191690558c808061055a565b8385013586558d979095019492830192018e61054a565b3461013a5760208060031936011261013a57600660043581811015908161013a576000936000926002958654945b85811061069d57506105d790612b19565b9460009260005b8681106105f757604051806105f38a8261247e565b0390f35b610600816127c1565b60018060a01b0391549060031b1c16600052600182526040600020805460ff86818360a01c169061024f578681101561024f5789149182610685575b5050610652575b5061064d90612b69565b6105de565b61064d919561066361067e92612a41565b61066d828c612b8e565b52610678818b612b8e565b50612b69565b9490610643565b60a81c169050600581101561024f578a148b8061063c565b6106a6816127c1565b60018060a01b0391549060031b1c166000526001845260406000205460ff84818360a01c169061024f578981101561024f578714918261070b575b50506106f6575b6106f190612b69565b6105c6565b906107036106f191612b69565b9190506106e8565b60a81c169050600581101561024f57881489806106e1565b3461013a57600036600319011261013a57604051600380548083526000918252602080840193927fc2575a0e9e593c00f959f8c92f12db2869c3395a3b0502d05e2516446f71f85b92915b828210610791576105f38561078581890382612645565b604051918291826124e0565b83546001600160a01b03168652948501946001938401939091019061076e565b3461013a5760208060031936011261013a576004356001600160401b03811161013a576107e29036906004016122d7565b6107ea61294a565b5080604051928337600590820190815281900382019020546001600160a01b0316801561083a57600052600181526108256040600020612a41565b906105f36040519282849384528301906123b7565b60405162461bcd60e51b815260048101839052601b60248201527a149959da5cdd1c9e4e881b1a58d95b9cd9481b9bdd08199bdd5b99602a1b6044820152606490fd5b3461013a5761088b36612327565b909160018060a01b036108a381600054163314612854565b811690816000526001936020948086526108c760ff600860406000200154166128a0565b83600052808652604060002080549060ff8260a81c1691600583101561024f576108f484600594146128ec565b60ff60a81b1916600360a81b17815501916001600160401b0386116104a157610921866103948554612702565b600090601f871160011461098f5795809281926109579798600094610984575b50501b916000199060031b1c1916179055612ba2565b7f8d359aca665b1a62f2fd210777e6936c72df54cc65eefa41766cf20f746a075a604051924284523393a3005b013592508980610941565b9590601f1982169684600052886000209160005b8a8a82106109e0575050836109579899106109c6575b505050811b019055612ba2565b0135600019600384901b60f8161c191690558780806109b9565b8383013585559386019391820191016109a3565b3461013a57602036600319011261013a57610a0d612304565b610a1561294a565b506001600160a01b0316600081815260016020526040902060080154610a3d9060ff166128a0565b60005260016020526105f3610a556040600020612a41565b6040519182916020835260208301906123b7565b3461013a57602036600319011261013a57610a82612304565b60005490610a9a336001600160a01b03841614612854565b6001600160a01b03811615611107576001600160a01b03818116908316146110c8576001600160a01b031982166001600160a01b038281169182176000908155908416815260016020526040808220805461ffff60a01b19908116600160aa1b179091559282529020600881015490919060ff166110b7575050604051610b20816125f3565b6001600160a01b038216815260016020820152600260408083019190915251610b488161262a565b600c81526b29bcb9ba32b69020b236b4b760a11b60208201526060820152604051610b728161260f565b600081526080820152604051610b878161260f565b6000815260a0820152604051610b9c8161262a565b600e81526d20a226a4a716aa2920a729a322a960911b602082015260c0820152604051610bc88161260f565b6000815260e08201524261010082015242610120820152600161014082015260018060a01b038216600052600160205260406000209060018060a01b0381511660018060a01b03198354161782556020810151600681101561024f57610c2e90836126ba565b6040810151600581101561024f57610c4690836126de565b606081015180516001600160401b0381116104a157806001850192610c6f8261034a8654612702565b602090601f831160011461105157600092611046575b50508160011b916000199060031b1c19161790555b608081015180516001600160401b0381116104a157806002850192610cc38261034a8654612702565b602090601f8311600114610fe057600092610fd5575b50508160011b916000199060031b1c19161790555b60a081015180516001600160401b0381116104a157806003850192610d178261034a8654612702565b602090601f8311600114610f6f57600092610f64575b50508160011b916000199060031b1c19161790555b60c08101518051906001600160401b0382116104a1578190610d7482610d6b6004880154612702565b6004880161273c565b602090601f8311600114610ef757600092610eec575b50508160011b916000199060031b1c19161760048301555b60e0810151805160058401916001600160401b0382116104a157610dca826103948554612702565b602090601f8311600114610e7957928261014093610e31979693600896600092610e6e575b50508160011b916000199060031b1c19161790555b610100810151600685015561012081015160078501550151151591019060ff801983541691151516179055565b610e3a816127fa565b6001600160a01b0390811691167ff8ccb027dfcd135e000e9d45e6cc2d662578a8825d4c45b5e32e0adf67e79ec6600080a3005b015190508a80610def565b90601f198316918460005260206000209260005b818110610ed4575093610e3197969360089693600193836101409810610ebb575b505050811b019055610e04565b015160001960f88460031b161c191690558a8080610eae565b92936020600181928786015181550195019301610e8d565b015190508680610d8a565b600486016000908152602081209350601f198516905b818110610f4c5750908460019594939210610f33575b505050811b016004830155610da2565b015160001960f88460031b161c19169055868080610f23565b92936020600181928786015181550195019301610f0d565b015190508780610d2d565b6000858152602081209350601f198516905b818110610fbd5750908460019594939210610fa4575b505050811b019055610d42565b015160001960f88460031b161c19169055878080610f97565b92936020600181928786015181550195019301610f81565b015190508780610cd9565b6000858152602081209350601f198516905b81811061102e5750908460019594939210611015575b505050811b019055610cee565b015160001960f88460031b161c19169055878080611008565b92936020600181928786015181550195019301610ff2565b015190508780610c85565b6000858152602081209350601f198516905b81811061109f5750908460019594939210611086575b505050811b019055610c9a565b015160001960f88460031b161c19169055878080611079565b92936020600181928786015181550195019301611063565b81541661020160a01b179055610e3a565b60405162461bcd60e51b81526020600482015260176024820152762932b3b4b9ba393c9d1030b63932b0b23c9030b236b4b760491b6044820152606490fd5b60405162461bcd60e51b815260206004820152601660248201527552656769737472793a207a65726f206164647265737360501b6044820152606490fd5b3461013a57602036600319011261013a576001600160a01b03611166612304565b1660005260016020526105f3611182600460406000200161299d565b604051918291602083526020830190612377565b3461013a5760208060031936011261013a576111b0612304565b6000546001600160a01b0391906111ca9083163314612854565b1680600052600182526111e760ff600860406000200154166128a0565b80600052600182526040600020805460ff8160a81c16600581101561024f576003811490811561133c575b50156112d9576112256004830154612702565b1561126f5760ff60a81b1916600160a91b17815542600790910181905560405190815233927fff0b22130054be234bcdda0c1c7c0868ef2feab7b8123d07ae5a50cb2574ef0291a3005b6084846040519062461bcd60e51b82526004820152604060248201527f52656769737472793a206e6f206c6963656e7365206e756d626572206f6e207260448201527f65636f72643b2075736520617070726f7665456e7469747920696e73746561646064820152fd5b60405162461bcd60e51b815260048101859052603560248201527f52656769737472793a20656e74697479206973206e6f7420696e2052656a6563604482015274746564206f72205265766f6b65642073746174757360581b6064820152608490fd5b600491501485611212565b3461013a57602036600319011261013a576001600160a01b03611368612304565b166000526001602052604060002060ff6008820154169081611392575b6020826040519015158152f35b60ff91505460a81c16600581101561024f576002146020611385565b3461013a57608036600319011261013a576006600435101561013a576024356001600160401b03811161013a576113e99036906004016122d7565b6044356001600160401b03811161013a576114089036906004016122d7565b6064356001600160401b03811161013a576114279036906004016122d7565b9133600052600160205260ff60086040600020015416611b77576000936002600435148015611b67575b858115611b56575b8115611b44575b5015611aea576114718615156125a7565b8115611aa5578315611a55576114d46040519361148d856125f3565b33855260208501956114a160043588612668565b6114c86040870194600186526114b98c8c3691612674565b96606089019788523691612674565b60808701523691612674565b60a08401526040516114e58161260f565b6000815260c08401526040516114fa8161260f565b6000815260e0840152426101008401526000610120840152600161014084015233600052600160205260406000209360018060a01b0384511660018060a01b031986541617855551600681101561024f5761155590856126ba565b51600581101561024f5761156990846126de565b518051906001600160401b0382116104a15781906115978261158e6001880154612702565b6001880161273c565b602090601f83116001146119e3576000926119d8575b50508160011b916000199060031b1c19161760018301555b60808101518051906001600160401b0382116104a15781906115f7826115ee6002880154612702565b6002880161273c565b602090601f83116001146119665760009261195b575b50508160011b916000199060031b1c19161760028301555b60a08101518051906001600160401b0382116104a15781906116578261164e6003880154612702565b6003880161273c565b602090601f83116001146118e9576000926118de575b50508160011b916000199060031b1c19161760038301555b60c081015180516001600160401b0381116104a1578060048501926116ae8261034a8654612702565b602090601f83116001146118785760009261186d575b50508160011b916000199060031b1c19161790555b60e081015180516001600160401b0381116104a1576005840191611701826103948554612702565b602090601f83116001146117fb579282610140936117669796936008966000926117f05750508160011b916000199060031b1c1916179055610100810151600685015561012081015160078501550151151591019060ff801983541691151516179055565b61176f336127fa565b600354600160401b8110156104a1576117918160016117989301600355612790565b33916127dc565b3360005260046020526040600020600160ff1982541617905561024f577f1f77daf0cde58fb801ee20100afb681b11e993b40a01c40ee509f9b11053c49e604051806117eb600435953395429184612825565b0390a3005b015190508b80610def565b90601f198316918460005260206000209260005b8181106118555750936117669796936008969360019383610140981061183c57505050811b019055610e04565b015160001960f88460031b161c191690558b8080610eae565b9293602060018192878601518155019501930161180f565b0151905088806116c4565b6000858152602081209350601f198516905b8181106118c657509084600195949392106118ad575b505050811b0190556116d9565b015160001960f88460031b161c191690558880806118a0565b9293602060018192878601518155019501930161188a565b01519050878061166d565b9250600385016000526020600020906000935b601f1984168510611940576001945083601f19811610611927575b505050811b016003830155611685565b015160001960f88460031b161c19169055878080611917565b818101518355602094850194600190930192909101906118fc565b01519050878061160d565b9250600285016000526020600020906000935b601f19841685106119bd576001945083601f198116106119a4575b505050811b016002830155611625565b015160001960f88460031b161c19169055878080611994565b81810151835560209485019460019093019290910190611979565b0151905087806115ad565b9250600185016000526020600020906000935b601f1984168510611a3a576001945083601f19811610611a21575b505050811b0160018301556115c5565b015160001960f88460031b161c19169055878080611a11565b818101518355602094850194600190930192909101906119f6565b60405162461bcd60e51b815260206004820152602260248201527f52656769737472793a206c6f636174696f6e2063616e6e6f7420626520656d70604482015261747960f01b6064820152608490fd5b60405162461bcd60e51b815260206004820152601f60248201527f52656769737472793a20656d61696c2063616e6e6f7420626520656d707479006044820152606490fd5b60405162461bcd60e51b815260206004820152602c60248201527f52656769737472793a20696e76616c696420726f6c6520666f722073656c662d60448201526b3932b3b4b9ba3930ba34b7b760a11b6064820152608490fd5b905061024f5760056004351485611460565b905061024f57600480351485611459565b5060009450600435600314611451565b60405162461bcd60e51b815260206004820152603360248201527f52656769737472793a206164647265737320616c7265616479206861732061206044820152721c9959da5cdd1c985d1a5bdb881c9958dbdc99606a1b6064820152608490fd5b3461013a57600036600319011261013a5760038054611bf681612b19565b9160005b828110611c0f57604051806105f3868261247e565b80611c1c611c5792612790565b905490841b1c6001600160a01b03166000908152600160205260409020611c4290612a41565b611c4c8287612b8e565b526106788186612b8e565b611bfa565b3461013a57602036600319011261013a576001600160a01b03611c7d612304565b166000526001602052602060ff60406000205460a01c16611ca1604051809261236a565bf35b3461013a57611cb136612327565b9060018060a01b03611cc881600054163314612854565b8084169081600052600194602095808752611ced60ff600860406000200154166128a0565b8360005280875260406000209283549060ff8260a81c16600581101561024f5783611d1891146128ec565b8715611eeb576040518888823789818a810160058152030190205416611e945760ff60a81b1916600160a91b17835560048301906001600160401b0387116104a157611d6e87611d688454612702565b8461273c565b6000601f8811600114611e285791878060ff9798999a93611dd49695600093611e1d575b501b906000198b60031b1c19161790555b4260078501556040519088888337600589830190815282900301902080546001600160a01b03191686179055612ba2565b5460a01c1691600683101561024f57611e187fb99357eaf041c6b4f9ef26c88b38609fbf977298507bb7570887fab2714679c2916040519182913397429184612825565b0390a4005b8b013592508c611d92565b601f1988169083600052896000209160005b818110611e7f575091899a939160ff98999a611dd497969410611e65575b505089811b019055611da3565b8a013560001960038d901b60f8161c191690558a80611e58565b89830135845592840192918b01918b01611e3a565b60405162461bcd60e51b815260048101899052602960248201527f52656769737472793a206c6963656e7365206e756d62657220616c726561647960448201526808185cdcda59db995960ba1b6064820152608490fd5b60405162461bcd60e51b8152600481018a9052602860248201527f52656769737472793a206c6963656e7365206e756d6265722063616e6e6f7420604482015267626520656d70747960c01b6064820152608490fd5b3461013a57602036600319011261013a576001600160a01b03611f62612304565b166000526001602052602060ff60406000205460a81c16611ca1604051809261231a565b3461013a57602036600319011261013a576004356001600160401b03811161013a57611fb860209136906004016122d7565b80604051928337600590820190815281900382019020546040516001600160a01b039091168152f35b3461013a57604036600319011261013a57611ffa612304565b60243590600682101561013a576001600160a01b03166000908152600160205260409020600881015460ff16908161205c575b8161203f576020826040519015158152f35b60ff91505460a01c1690600682101561024f576020911482611385565b905060ff815460a81c16600581101561024f576002149061202d565b3461013a57604036600319011261013a576001600160401b0360043581811161013a576120a99036906004016122d7565b60243583811161013a576120c19036906004016122d7565b913360005260019360209685885260ff60406000205460a81c16600581101561024f5760020361228257503360005284875260406000209160028301918782116104a157612113826103948554612702565b600090601f831160011461221a576003949392916000918361220f575b505060001982861b1c191690871b1790555b019382116104a1576121588261034a8654612702565b600090601f83116001146121ac579282939183926000946121a1575b50501b916000199060031b1c19161790555b600080516020612c9d833981519152604051914283523392a2005b013592508680612174565b601f198316918560005283876000209360005b89888383106121f857505050106121de575b505050811b019055612186565b0135600019600384901b60f8161c191690558480806121d1565b8587013588559096019593840193879350016121bf565b013590508a80612130565b918791949392601f19821690846000528b6000209160005b8d82821061226c575050968360039810612254575b505050811b019055612142565b013560001983881b60f8161c191690558a8080612247565b838a01358555988901988c969094019301612232565b62461bcd60e51b815260048101889052602a60248201527f52656769737472793a2063616c6c6572206973206e6f7420616e20617070726f60448201526976656420656e7469747960b01b6064820152608490fd5b9181601f8401121561013a578235916001600160401b03831161013a576020838186019501011161013a57565b600435906001600160a01b038216820361013a57565b90600582101561024f5752565b90604060031983011261013a576004356001600160a01b038116810361013a5791602435906001600160401b03821161013a57612366916004016122d7565b9091565b90600682101561024f5752565b919082519283825260005b8481106123a3575050826000602080949584010152601f8019910116010190565b602081830181015184830182015201612382565b80516001600160a01b031682526020808201519192916123d99183019061236a565b6123eb6040830151604083019061231a565b6124586124466124346124226124106060870151610160806060890152870190612377565b60808701518682036080880152612377565b60a086015185820360a0870152612377565b60c085015184820360c0860152612377565b60e084015183820360e0850152612377565b916101008082015190830152610120808201519083015261014080910151151591015290565b602080820190808352835180925260408301928160408460051b8301019501936000915b8483106124b25750505050505090565b90919293949584806124d0600193603f198682030187528a516123b7565b98019301930191949392906124a2565b6020908160408183019282815285518094520193019160005b828110612507575050505090565b83516001600160a01b0316855293810193928101926001016124f9565b3461013a576000806003193601126125a457604051600280548083529083526020808301937f405787fa12a823e0f2b7631cc41b3ba8828b3321ca811111fa75cd3aa3bb5ace92915b828210612584576105f38561078581890382612645565b83546001600160a01b03168652948501946001938401939091019061256d565b80fd5b156125ae57565b60405162461bcd60e51b815260206004820152601e60248201527f52656769737472793a206e616d652063616e6e6f7420626520656d70747900006044820152606490fd5b61016081019081106001600160401b038211176104a157604052565b602081019081106001600160401b038211176104a157604052565b604081019081106001600160401b038211176104a157604052565b601f909101601f19168101906001600160401b038211908210176104a157604052565b600682101561024f5752565b9192916001600160401b0382116104a1576040519161269d601f8201601f191660200184612645565b82948184528183011161013a578281602093846000960137010152565b90600681101561024f57815460ff60a01b191660a09190911b60ff60a01b16179055565b90600581101561024f57815460ff60a81b191660a89190911b60ff60a81b16179055565b90600182811c92168015612732575b602083101461271c57565b634e487b7160e01b600052602260045260246000fd5b91607f1691612711565b90601f811161274a57505050565b600091825260208220906020601f850160051c83019410612786575b601f0160051c01915b82811061277b57505050565b81815560010161276f565b9092508290612766565b6003548110156127ab57600360005260206000200190600090565b634e487b7160e01b600052603260045260246000fd5b6002548110156127ab57600260005260206000200190600090565b919082549060031b9160018060a01b03809116831b921b1916179055565b60025490600160401b8210156104a15761281d82600161282394016002556127c1565b906127dc565b565b9392918060609160209360408852816040890152838801376000828288010152601f8019910116850101930152565b1561285b57565b60405162461bcd60e51b815260206004820152601d60248201527f52656769737472793a2063616c6c6572206973206e6f742061646d696e0000006044820152606490fd5b156128a757565b60405162461bcd60e51b815260206004820152601f60248201527f52656769737472793a20656e7469747920646f6573206e6f74206578697374006044820152606490fd5b156128f357565b60405162461bcd60e51b815260206004820152602960248201527f52656769737472793a20656e74697479206973206e6f7420696e2050656e64696044820152686e672073746174757360b81b6064820152608490fd5b60405190612957826125f3565b81610140600091828152826020820152826040820152606080808301528060808301528060a08301528060c083015260e082015282610100820152826101208201520152565b90604051918260008254926129b184612702565b908184526001948581169081600014612a1e57506001146129db575b505061282392500383612645565b9093915060005260209081600020936000915b818310612a06575050612823935082010138806129cd565b855488840185015294850194879450918301916129ee565b91505061282394506020925060ff191682840152151560051b82010138806129cd565b90604051612a4e816125f3565b809260ff815460018060a01b0381168452612a71828260a01c1660208601612668565b60a81c1690600582101561024f57600860ff91610140936040860152612a996001820161299d565b6060860152612aaa6002820161299d565b6080860152612abb6003820161299d565b60a0860152612acc6004820161299d565b60c0860152612add6005820161299d565b60e0860152600681015461010086015260078101546101208601520154161515910152565b6001600160401b0381116104a15760051b60200190565b90612b2382612b02565b612b306040519182612645565b8281528092612b41601f1991612b02565b019060005b828110612b5257505050565b602090612b5d61294a565b82828501015201612b46565b6000198114612b785760010190565b634e487b7160e01b600052601160045260246000fd5b80518210156127ab5760209160051b010190565b60018060a01b038091169060008281526004908160205260408120805460ff811615612c945760ff19169055600391825491805b838110612be7575b50505050505050565b8686612bf283612790565b905490881b1c1614612c0c57612c0790612b69565b612bd6565b9495509293600019939192848101908111612c81579061281d87612c32612c3f94612790565b905490891b1c1691612790565b8354918215612c6e5750500191612c5583612790565b9091825491841b1b191690555538808080808080612bde565b634e487b7160e01b825260319052602490fd5b634e487b7160e01b835260118452602483fd5b50505050505056fe22e408821d014865f7272491db504e0432b9eb1f6dd8d3c86b75407db0d584f8a2646970667358221220fcfdef0a1f5168c96c3bb4e2e58edc99c04a5819c23db8faab46669e5030df5f64736f6c63430008140033",
  "immutableReferences": {},
  "source": "// SPDX-License-Identifier: MIT\npragma solidity ^0.8.20;\n\n/// @title  RegistryContract\n/// @notice Central identity & access-control registry for the\n///         Blockchain-Based Medicine Supply Chain system.\n///         All other contracts query this contract to verify\n///         that a caller is approved and holds the correct role.\n/// @dev    Deploy this contract first; pass its address to the\n///         constructor of ProductContract, TransferContract and\n///         TraceContract.\ncontract RegistryContract {\n\n    // ─────────────────────────────────────────────────────────────\n    // Enums\n    // ─────────────────────────────────────────────────────────────\n\n    /// @dev Roles a wallet address can hold in the system.\n    ///      Unregistered wallets have role = None.\n    enum Role {\n        None,           // 0 – not registered\n        Admin,          // 1\n        Manufacturer,   // 2\n        Distributor,    // 3\n        Supplier,       // 4\n        Pharmacist      // 5\n    }\n\n    /// @dev Lifecycle of a registration request.\n    enum ApprovalStatus {\n        None,       // 0 – never applied\n        Pending,    // 1 – awaiting admin decision\n        Approved,   // 2 – active in the system\n        Rejected,   // 3 – denied by admin\n        Revoked     // 4 – previously approved, now disabled\n    }\n\n    // ─────────────────────────────────────────────────────────────\n    // Structs\n    // ─────────────────────────────────────────────────────────────\n\n    struct Entity {\n        address         walletAddress;\n        Role            role;\n        ApprovalStatus  status;\n        string          name;\n        string          email;\n        string          location;\n        string          licenseNumber;   // assigned by admin on approval\n        string          rejectionReason; // Reason for rejection\n        uint256         registeredAt;    // block.timestamp of registration request\n        uint256         approvedAt;      // block.timestamp of admin approval (0 if not yet)\n        bool            exists;          // guard for mapping lookup\n    }\n\n    // ─────────────────────────────────────────────────────────────\n    // State Variables\n    // ─────────────────────────────────────────────────────────────\n\n    address public admin;\n\n    /// @dev Primary registry: wallet → Entity\n    mapping(address => Entity) private entities;\n\n    /// @dev All addresses that have ever submitted a registration request\n    address[] private allRegistered;\n\n    /// @dev Addresses currently awaiting admin decision\n    address[] private pendingList;\n\n    /// @dev Quick set-membership for pendingList (avoid O(n) scan on removal)\n    mapping(address => bool) private isPending;\n\n    /// @dev License number uniqueness guard: licenseNo → assigned address\n    mapping(string => address) private licenseToAddress;\n\n    // ─────────────────────────────────────────────────────────────\n    // Events\n    // ─────────────────────────────────────────────────────────────\n\n    event AdminTransferred(address indexed previousAdmin, address indexed newAdmin);\n\n    event RegistrationRequested(\n        address indexed applicant,\n        Role    indexed role,\n        string          name,\n        uint256         timestamp\n    );\n\n    event EntityApproved(\n        address indexed entity,\n        Role    indexed role,\n        string          licenseNumber,\n        address indexed approvedBy,\n        uint256         timestamp\n    );\n\n    event EntityRejected(\n        address indexed entity,\n        address indexed rejectedBy,\n        uint256         timestamp\n    );\n\n    event EntityRevoked(\n        address indexed entity,\n        address indexed revokedBy,\n        uint256         timestamp\n    );\n\n    event EntityReactivated(\n        address indexed entity,\n        address indexed reactivatedBy,\n        uint256         timestamp\n    );\n\n    event EntityDetailsUpdated(\n        address indexed entity,\n        uint256         timestamp\n    );\n\n    // ─────────────────────────────────────────────────────────────\n    // Modifiers\n    // ─────────────────────────────────────────────────────────────\n\n    modifier onlyAdmin() {\n        require(msg.sender == admin, \"Registry: caller is not admin\");\n        _;\n    }\n\n    modifier onlyApproved() {\n        require(\n            entities[msg.sender].status == ApprovalStatus.Approved,\n            \"Registry: caller is not an approved entity\"\n        );\n        _;\n    }\n\n    modifier notAlreadyRegistered() {\n        require(\n            !entities[msg.sender].exists,\n            \"Registry: address already has a registration record\"\n        );\n        _;\n    }\n\n    modifier entityExists(address _addr) {\n        require(entities[_addr].exists, \"Registry: entity does not exist\");\n        _;\n    }\n\n    // ─────────────────────────────────────────────────────────────\n    // Constructor\n    // ─────────────────────────────────────────────────────────────\n\n    /// @param _admin The wallet address that will act as system admin.\n    ///               Typically the deployer's address.\n    constructor(address _admin) {\n        require(_admin != address(0), \"Registry: admin cannot be zero address\");\n        admin = _admin;\n\n        // Register admin entity internally (no approval needed)\n        entities[_admin] = Entity({\n            walletAddress:  _admin,\n            role:           Role.Admin,\n            status:         ApprovalStatus.Approved,\n            name:           \"System Admin\",\n            email:          \"\",\n            location:       \"\",\n            licenseNumber:  \"ADMIN-001\",\n            rejectionReason:\"\",\n            registeredAt:   block.timestamp,\n            approvedAt:     block.timestamp,\n            exists:         true\n        });\n\n        allRegistered.push(_admin);\n        licenseToAddress[\"ADMIN-001\"] = _admin;\n\n        emit EntityApproved(_admin, Role.Admin, \"ADMIN-001\", _admin, block.timestamp);\n    }\n\n    // ─────────────────────────────────────────────────────────────\n    // Registration (Public — called by applicants)\n    // ─────────────────────────────────────────────────────────────\n\n    /// @notice Submit a signup request. Admin must approve before the\n    ///         entity can interact with other contracts.\n    /// @param  _role     One of: Manufacturer(2), Distributor(3),\n    ///                   Supplier(4), Pharmacist(5). Cannot self-register as Admin.\n    /// @param  _name     Full legal name / business name.\n    /// @param  _email    Contact email (stored off-chain ref only).\n    /// @param  _location City / address string.\n    function requestRegistration(\n        Role   _role,\n        string calldata _name,\n        string calldata _email,\n        string calldata _location\n    )\n        external\n        notAlreadyRegistered\n    {\n        require(\n            _role == Role.Manufacturer ||\n            _role == Role.Distributor  ||\n            _role == Role.Supplier     ||\n            _role == Role.Pharmacist,\n            \"Registry: invalid role for self-registration\"\n        );\n        require(bytes(_name).length > 0,     \"Registry: name cannot be empty\");\n        require(bytes(_email).length > 0,    \"Registry: email cannot be empty\");\n        require(bytes(_location).length > 0, \"Registry: location cannot be empty\");\n\n        entities[msg.sender] = Entity({\n            walletAddress:  msg.sender,\n            role:           _role,\n            status:         ApprovalStatus.Pending,\n            name:           _name,\n            email:          _email,\n            location:       _location,\n            licenseNumber:  \"\",           \n            rejectionReason:\"\",\n            registeredAt:   block.timestamp,\n            approvedAt:     0,\n            exists:         true\n        });\n\n        allRegistered.push(msg.sender);\n        pendingList.push(msg.sender);\n        isPending[msg.sender] = true;\n\n        emit RegistrationRequested(msg.sender, _role, _name, block.timestamp);\n    }\n\n    // ─────────────────────────────────────────────────────────────\n    // Admin — Approval / Rejection / Revocation\n    // ─────────────────────────────────────────────────────────────\n\n    /// @notice Approve a pending registration and assign a license number.\n    /// @param  _entity     Applicant wallet address.\n    /// @param  _licenseNo  Unique license string (e.g. \"MFR-2024-001\").\n    function approveEntity(address _entity, string calldata _licenseNo)\n        external\n        onlyAdmin\n        entityExists(_entity)\n    {\n        Entity storage e = entities[_entity];\n\n        require(\n            e.status == ApprovalStatus.Pending,\n            \"Registry: entity is not in Pending status\"\n        );\n        require(bytes(_licenseNo).length > 0, \"Registry: license number cannot be empty\");\n        require(\n            licenseToAddress[_licenseNo] == address(0),\n            \"Registry: license number already assigned\"\n        );\n\n        e.status        = ApprovalStatus.Approved;\n        e.licenseNumber = _licenseNo;\n        e.approvedAt    = block.timestamp;\n\n        licenseToAddress[_licenseNo] = _entity;\n        _removeFromPending(_entity);\n\n        emit EntityApproved(_entity, e.role, _licenseNo, msg.sender, block.timestamp);\n    }\n\n    /// @notice Reject a pending registration request.\n    function rejectEntity(address _entity, string calldata _reason)\n        external\n        onlyAdmin\n        entityExists(_entity)\n    {\n        Entity storage e = entities[_entity];\n\n        require(\n            e.status == ApprovalStatus.Pending,\n            \"Registry: entity is not in Pending status\"\n        );\n\n        e.status = ApprovalStatus.Rejected;\n        e.rejectionReason = _reason;\n        _removeFromPending(_entity);\n\n        emit EntityRejected(_entity, msg.sender, block.timestamp);\n    }\n\n    /// @notice Revoke an already-approved entity (e.g. license violation).\n    ///         The entity's on-chain record is preserved for audit purposes\n    ///         but isApproved() will return false.\n    function revokeEntity(address _entity)\n        external\n        onlyAdmin\n        entityExists(_entity)\n    {\n        Entity storage e = entities[_entity];\n\n        require(\n            e.status == ApprovalStatus.Approved,\n            \"Registry: entity is not currently Approved\"\n        );\n\n        e.status = ApprovalStatus.Revoked;\n\n        emit EntityRevoked(_entity, msg.sender, block.timestamp);\n    }\n\n    /// @notice Re-approve a previously rejected or revoked entity\n    ///         (e.g. after appeal), keeping the same license number.\n    function reactivateEntity(address _entity)\n        external\n        onlyAdmin\n        entityExists(_entity)\n    {\n        Entity storage e = entities[_entity];\n\n        require(\n            e.status == ApprovalStatus.Rejected ||\n            e.status == ApprovalStatus.Revoked,\n            \"Registry: entity is not in Rejected or Revoked status\"\n        );\n        require(\n            bytes(e.licenseNumber).length > 0,\n            \"Registry: no license number on record; use approveEntity instead\"\n        );\n\n        e.status     = ApprovalStatus.Approved;\n        e.approvedAt = block.timestamp;\n\n        emit EntityReactivated(_entity, msg.sender, block.timestamp);\n    }\n\n    // ─────────────────────────────────────────────────────────────\n    // Admin — Update Entity Details\n    // ─────────────────────────────────────────────────────────────\n\n    /// @notice Admin can correct or update an entity's profile fields.\n    ///         Does NOT change role or approval status.\n    function updateEntityDetails(\n        address        _entity,\n        string calldata _name,\n        string calldata _email,\n        string calldata _location\n    )\n        external\n        onlyAdmin\n        entityExists(_entity)\n    {\n        require(bytes(_name).length > 0, \"Registry: name cannot be empty\");\n\n        Entity storage e = entities[_entity];\n        e.name     = _name;\n        e.email    = _email;\n        e.location = _location;\n\n        emit EntityDetailsUpdated(_entity, block.timestamp);\n    }\n\n    // ─────────────────────────────────────────────────────────────\n    // Self-Update (Approved entities only)\n    // ─────────────────────────────────────────────────────────────\n\n    /// @notice Approved entities can update their own email and location.\n    ///         Name and role changes require admin action.\n    function updateMyDetails(\n        string calldata _email,\n        string calldata _location\n    )\n        external\n        onlyApproved\n    {\n        Entity storage e = entities[msg.sender];\n        e.email    = _email;\n        e.location = _location;\n\n        emit EntityDetailsUpdated(msg.sender, block.timestamp);\n    }\n\n    // ─────────────────────────────────────────────────────────────\n    // Admin Transfer\n    // ─────────────────────────────────────────────────────────────\n\n    /// @notice Transfer admin rights to a new wallet.\n    ///         The new admin must already be an approved entity OR\n    ///         be a fresh address (role becomes Admin).\n    function transferAdmin(address _newAdmin) external onlyAdmin {\n        require(_newAdmin != address(0), \"Registry: zero address\");\n        require(_newAdmin != admin,      \"Registry: already admin\");\n\n        address oldAdmin = admin;\n        admin = _newAdmin;\n\n        // Update the old admin entity record\n        entities[oldAdmin].role   = Role.None;\n        entities[oldAdmin].status = ApprovalStatus.Revoked;\n\n        // Create or update new admin record\n        if (!entities[_newAdmin].exists) {\n            entities[_newAdmin] = Entity({\n                walletAddress:  _newAdmin,\n                role:           Role.Admin,\n                status:         ApprovalStatus.Approved,\n                name:           \"System Admin\",\n                email:          \"\",\n                location:       \"\",\n                licenseNumber:  \"ADMIN-TRANSFER\",\n                rejectionReason:\"\",\n                registeredAt:   block.timestamp,\n                approvedAt:     block.timestamp,\n                exists:         true\n            });\n            allRegistered.push(_newAdmin);\n        } else {\n            entities[_newAdmin].role   = Role.Admin;\n            entities[_newAdmin].status = ApprovalStatus.Approved;\n        }\n\n        emit AdminTransferred(oldAdmin, _newAdmin);\n    }\n\n    // ─────────────────────────────────────────────────────────────\n    // View / Query Functions (called by other contracts & frontend)\n    // ─────────────────────────────────────────────────────────────\n\n    /// @notice Primary guard used by other contracts.\n    ///         Returns true only if the address is Approved AND holds the expected role.\n    function isApprovedWithRole(address _addr, Role _role)\n        external\n        view\n        returns (bool)\n    {\n        Entity storage e = entities[_addr];\n        return e.exists &&\n               e.status == ApprovalStatus.Approved &&\n               e.role   == _role;\n    }\n\n    /// @notice Returns true if the address is approved for ANY valid role.\n    function isApproved(address _addr) external view returns (bool) {\n        return entities[_addr].exists &&\n               entities[_addr].status == ApprovalStatus.Approved;\n    }\n\n    /// @notice Returns the role of an address regardless of approval status.\n    function getRole(address _addr) external view returns (Role) {\n        return entities[_addr].role;\n    }\n\n    /// @notice Returns the approval status of an address.\n    function getStatus(address _addr) external view returns (ApprovalStatus) {\n        return entities[_addr].status;\n    }\n\n    /// @notice Returns full entity record for an address.\n    function getEntity(address _addr)\n        external\n        view\n        entityExists(_addr)\n        returns (Entity memory)\n    {\n        return entities[_addr];\n    }\n\n    /// @notice Lookup an entity by license number.\n    function getEntityByLicense(string calldata _licenseNo)\n        external\n        view\n        returns (Entity memory)\n    {\n        address addr = licenseToAddress[_licenseNo];\n        require(addr != address(0), \"Registry: license not found\");\n        return entities[addr];\n    }\n\n    /// @notice Returns all pending registration requests (for the admin dashboard).\n    function getPendingRequests() external view returns (address[] memory) {\n        return pendingList;\n    }\n\n    /// @notice Returns the full list of pending requests with their Entity details.\n    ///         Useful for the admin panel to render a table in one call.\n    function getPendingEntities() external view returns (Entity[] memory) {\n        uint256 len = pendingList.length;\n        Entity[] memory result = new Entity[](len);\n        for (uint256 i = 0; i < len; i++) {\n            result[i] = entities[pendingList[i]];\n        }\n        return result;\n    }\n\n    /// @notice Returns all registered addresses (approved + pending + rejected + revoked).\n    function getAllRegistered() external view returns (address[] memory) {\n        return allRegistered;\n    }\n\n    /// @notice Returns all entities of a specific role that are Approved.\n    ///         Used by Manufacturer to list available Distributors, etc.\n    function getApprovedByRole(Role _role)\n        external\n        view\n        returns (Entity[] memory)\n    {\n        // First pass: count\n        uint256 count = 0;\n        for (uint256 i = 0; i < allRegistered.length; i++) {\n            Entity storage e = entities[allRegistered[i]];\n            if (e.role == _role && e.status == ApprovalStatus.Approved) {\n                count++;\n            }\n        }\n\n        // Second pass: fill\n        Entity[] memory result = new Entity[](count);\n        uint256 idx = 0;\n        for (uint256 i = 0; i < allRegistered.length; i++) {\n            Entity storage e = entities[allRegistered[i]];\n            if (e.role == _role && e.status == ApprovalStatus.Approved) {\n                result[idx] = e;\n                idx++;\n            }\n        }\n        return result;\n    }\n\n    /// @notice Returns the license number assigned to an address.\n    ///         Returns empty string if not yet assigned.\n    function getLicenseNumber(address _addr)\n        external\n        view\n        returns (string memory)\n    {\n        return entities[_addr].licenseNumber;\n    }\n\n    /// @notice Returns the wallet address registered under a given license number.\n    ///         Returns address(0) if not found.\n    function getAddressByLicense(string calldata _licenseNo)\n        external\n        view\n        returns (address)\n    {\n        return licenseToAddress[_licenseNo];\n    }\n\n    // ─────────────────────────────────────────────────────────────\n    // Internal Helpers\n    // ─────────────────────────────────────────────────────────────\n\n    /// @dev Removes an address from the pendingList array and\n    ///      clears its isPending flag. Uses swap-and-pop for O(n) removal.\n    function _removeFromPending(address _addr) internal {\n        if (!isPending[_addr]) return;\n\n        isPending[_addr] = false;\n\n        uint256 len = pendingList.length;\n        for (uint256 i = 0; i < len; i++) {\n            if (pendingList[i] == _addr) {\n                pendingList[i] = pendingList[len - 1];\n                pendingList.pop();\n                break;\n            }\n        }\n    }\n    function getAllEntities() external view returns (address[] memory) {\n        return allRegistered;\n    }\n}\n",
  "sourcePath": "D:\\FYP Final\\Project\\medicine-supply-chain\\myProject\\contracts\\RegistryContract.sol",
  "compiler": {
    "name": "solc",
    "version": "0.8.20+commit.a1b79de6.Emscripten.clang"
  },
  "schemaVersion": "3.4.16",
  "updatedAt": "2026-04-25T22:57:15.599Z",
  "networkType": "ethereum",
  "devdoc": {
    "details": "Deploy this contract first; pass its address to the         constructor of ProductContract, TransferContract and         TraceContract.",
    "kind": "dev",
    "methods": {
      "approveEntity(address,string)": {
        "params": {
          "_entity": "Applicant wallet address.",
          "_licenseNo": "Unique license string (e.g. \"MFR-2024-001\")."
        }
      },
      "constructor": {
        "params": {
          "_admin": "The wallet address that will act as system admin.               Typically the deployer's address."
        }
      },
      "requestRegistration(uint8,string,string,string)": {
        "params": {
          "_email": "Contact email (stored off-chain ref only).",
          "_location": "City / address string.",
          "_name": "Full legal name / business name.",
          "_role": "One of: Manufacturer(2), Distributor(3),                   Supplier(4), Pharmacist(5). Cannot self-register as Admin."
        }
      }
    },
    "stateVariables": {
      "allRegistered": {
        "details": "All addresses that have ever submitted a registration request"
      },
      "entities": {
        "details": "Primary registry: wallet → Entity"
      },
      "isPending": {
        "details": "Quick set-membership for pendingList (avoid O(n) scan on removal)"
      },
      "licenseToAddress": {
        "details": "License number uniqueness guard: licenseNo → assigned address"
      },
      "pendingList": {
        "details": "Addresses currently awaiting admin decision"
      }
    },
    "title": "RegistryContract",
    "version": 1
  },
  "userdoc": {
    "kind": "user",
    "methods": {
      "approveEntity(address,string)": {
        "notice": "Approve a pending registration and assign a license number."
      },
      "getAddressByLicense(string)": {
        "notice": "Returns the wallet address registered under a given license number.         Returns address(0) if not found."
      },
      "getAllRegistered()": {
        "notice": "Returns all registered addresses (approved + pending + rejected + revoked)."
      },
      "getApprovedByRole(uint8)": {
        "notice": "Returns all entities of a specific role that are Approved.         Used by Manufacturer to list available Distributors, etc."
      },
      "getEntity(address)": {
        "notice": "Returns full entity record for an address."
      },
      "getEntityByLicense(string)": {
        "notice": "Lookup an entity by license number."
      },
      "getLicenseNumber(address)": {
        "notice": "Returns the license number assigned to an address.         Returns empty string if not yet assigned."
      },
      "getPendingEntities()": {
        "notice": "Returns the full list of pending requests with their Entity details.         Useful for the admin panel to render a table in one call."
      },
      "getPendingRequests()": {
        "notice": "Returns all pending registration requests (for the admin dashboard)."
      },
      "getRole(address)": {
        "notice": "Returns the role of an address regardless of approval status."
      },
      "getStatus(address)": {
        "notice": "Returns the approval status of an address."
      },
      "isApproved(address)": {
        "notice": "Returns true if the address is approved for ANY valid role."
      },
      "isApprovedWithRole(address,uint8)": {
        "notice": "Primary guard used by other contracts.         Returns true only if the address is Approved AND holds the expected role."
      },
      "reactivateEntity(address)": {
        "notice": "Re-approve a previously rejected or revoked entity         (e.g. after appeal), keeping the same license number."
      },
      "rejectEntity(address,string)": {
        "notice": "Reject a pending registration request."
      },
      "requestRegistration(uint8,string,string,string)": {
        "notice": "Submit a signup request. Admin must approve before the         entity can interact with other contracts."
      },
      "revokeEntity(address)": {
        "notice": "Revoke an already-approved entity (e.g. license violation).         The entity's on-chain record is preserved for audit purposes         but isApproved() will return false."
      },
      "transferAdmin(address)": {
        "notice": "Transfer admin rights to a new wallet.         The new admin must already be an approved entity OR         be a fresh address (role becomes Admin)."
      },
      "updateEntityDetails(address,string,string,string)": {
        "notice": "Admin can correct or update an entity's profile fields.         Does NOT change role or approval status."
      },
      "updateMyDetails(string,string)": {
        "notice": "Approved entities can update their own email and location.         Name and role changes require admin action."
      }
    },
    "notice": "Central identity & access-control registry for the         Blockchain-Based Medicine Supply Chain system.         All other contracts query this contract to verify         that a caller is approved and holds the correct role.",
    "version": 1
  }
}