{
  "contractName": "RegistryContract",
  "abi": [
    {
      "inputs": [
        {
          "internalType": "address",
          "name": "_admin",
          "type": "address"
        }
      ],
      "stateMutability": "nonpayable",
      "type": "constructor"
    },
    {
      "anonymous": false,
      "inputs": [
        {
          "indexed": true,
          "internalType": "address",
          "name": "previousAdmin",
          "type": "address"
        },
        {
          "indexed": true,
          "internalType": "address",
          "name": "newAdmin",
          "type": "address"
        }
      ],
      "name": "AdminTransferred",
      "type": "event"
    },
    {
      "anonymous": false,
      "inputs": [
        {
          "indexed": true,
          "internalType": "address",
          "name": "entity",
          "type": "address"
        },
        {
          "indexed": true,
          "internalType": "enum RegistryContract.Role",
          "name": "role",
          "type": "uint8"
        },
        {
          "indexed": false,
          "internalType": "string",
          "name": "licenseNumber",
          "type": "string"
        },
        {
          "indexed": true,
          "internalType": "address",
          "name": "approvedBy",
          "type": "address"
        },
        {
          "indexed": false,
          "internalType": "uint256",
          "name": "timestamp",
          "type": "uint256"
        }
      ],
      "name": "EntityApproved",
      "type": "event"
    },
    {
      "anonymous": false,
      "inputs": [
        {
          "indexed": true,
          "internalType": "address",
          "name": "entity",
          "type": "address"
        },
        {
          "indexed": false,
          "internalType": "uint256",
          "name": "timestamp",
          "type": "uint256"
        }
      ],
      "name": "EntityDetailsUpdated",
      "type": "event"
    },
    {
      "anonymous": false,
      "inputs": [
        {
          "indexed": true,
          "internalType": "address",
          "name": "entity",
          "type": "address"
        },
        {
          "indexed": true,
          "internalType": "address",
          "name": "reactivatedBy",
          "type": "address"
        },
        {
          "indexed": false,
          "internalType": "uint256",
          "name": "timestamp",
          "type": "uint256"
        }
      ],
      "name": "EntityReactivated",
      "type": "event"
    },
    {
      "anonymous": false,
      "inputs": [
        {
          "indexed": true,
          "internalType": "address",
          "name": "entity",
          "type": "address"
        },
        {
          "indexed": true,
          "internalType": "address",
          "name": "rejectedBy",
          "type": "address"
        },
        {
          "indexed": false,
          "internalType": "uint256",
          "name": "timestamp",
          "type": "uint256"
        }
      ],
      "name": "EntityRejected",
      "type": "event"
    },
    {
      "anonymous": false,
      "inputs": [
        {
          "indexed": true,
          "internalType": "address",
          "name": "entity",
          "type": "address"
        },
        {
          "indexed": true,
          "internalType": "address",
          "name": "revokedBy",
          "type": "address"
        },
        {
          "indexed": false,
          "internalType": "uint256",
          "name": "timestamp",
          "type": "uint256"
        }
      ],
      "name": "EntityRevoked",
      "type": "event"
    },
    {
      "anonymous": false,
      "inputs": [
        {
          "indexed": true,
          "internalType": "address",
          "name": "applicant",
          "type": "address"
        },
        {
          "indexed": true,
          "internalType": "enum RegistryContract.Role",
          "name": "role",
          "type": "uint8"
        },
        {
          "indexed": false,
          "internalType": "string",
          "name": "name",
          "type": "string"
        },
        {
          "indexed": false,
          "internalType": "uint256",
          "name": "timestamp",
          "type": "uint256"
        }
      ],
      "name": "RegistrationRequested",
      "type": "event"
    },
    {
      "inputs": [],
      "name": "admin",
      "outputs": [
        {
          "internalType": "address",
          "name": "",
          "type": "address"
        }
      ],
      "stateMutability": "view",
      "type": "function",
      "constant": true
    },
    {
      "inputs": [
        {
          "internalType": "enum RegistryContract.Role",
          "name": "_role",
          "type": "uint8"
        },
        {
          "internalType": "string",
          "name": "_name",
          "type": "string"
        },
        {
          "internalType": "string",
          "name": "_email",
          "type": "string"
        },
        {
          "internalType": "string",
          "name": "_location",
          "type": "string"
        }
      ],
      "name": "requestRegistration",
      "outputs": [],
      "stateMutability": "nonpayable",
      "type": "function"
    },
    {
      "inputs": [
        {
          "internalType": "address",
          "name": "_entity",
          "type": "address"
        },
        {
          "internalType": "string",
          "name": "_licenseNo",
          "type": "string"
        }
      ],
      "name": "approveEntity",
      "outputs": [],
      "stateMutability": "nonpayable",
      "type": "function"
    },
    {
      "inputs": [
        {
          "internalType": "address",
          "name": "_entity",
          "type": "address"
        }
      ],
      "name": "rejectEntity",
      "outputs": [],
      "stateMutability": "nonpayable",
      "type": "function"
    },
    {
      "inputs": [
        {
          "internalType": "address",
          "name": "_entity",
          "type": "address"
        }
      ],
      "name": "revokeEntity",
      "outputs": [],
      "stateMutability": "nonpayable",
      "type": "function"
    },
    {
      "inputs": [
        {
          "internalType": "address",
          "name": "_entity",
          "type": "address"
        }
      ],
      "name": "reactivateEntity",
      "outputs": [],
      "stateMutability": "nonpayable",
      "type": "function"
    },
    {
      "inputs": [
        {
          "internalType": "address",
          "name": "_entity",
          "type": "address"
        },
        {
          "internalType": "string",
          "name": "_name",
          "type": "string"
        },
        {
          "internalType": "string",
          "name": "_email",
          "type": "string"
        },
        {
          "internalType": "string",
          "name": "_location",
          "type": "string"
        }
      ],
      "name": "updateEntityDetails",
      "outputs": [],
      "stateMutability": "nonpayable",
      "type": "function"
    },
    {
      "inputs": [
        {
          "internalType": "string",
          "name": "_email",
          "type": "string"
        },
        {
          "internalType": "string",
          "name": "_location",
          "type": "string"
        }
      ],
      "name": "updateMyDetails",
      "outputs": [],
      "stateMutability": "nonpayable",
      "type": "function"
    },
    {
      "inputs": [
        {
          "internalType": "address",
          "name": "_newAdmin",
          "type": "address"
        }
      ],
      "name": "transferAdmin",
      "outputs": [],
      "stateMutability": "nonpayable",
      "type": "function"
    },
    {
      "inputs": [
        {
          "internalType": "address",
          "name": "_addr",
          "type": "address"
        },
        {
          "internalType": "enum RegistryContract.Role",
          "name": "_role",
          "type": "uint8"
        }
      ],
      "name": "isApprovedWithRole",
      "outputs": [
        {
          "internalType": "bool",
          "name": "",
          "type": "bool"
        }
      ],
      "stateMutability": "view",
      "type": "function",
      "constant": true
    },
    {
      "inputs": [
        {
          "internalType": "address",
          "name": "_addr",
          "type": "address"
        }
      ],
      "name": "isApproved",
      "outputs": [
        {
          "internalType": "bool",
          "name": "",
          "type": "bool"
        }
      ],
      "stateMutability": "view",
      "type": "function",
      "constant": true
    },
    {
      "inputs": [
        {
          "internalType": "address",
          "name": "_addr",
          "type": "address"
        }
      ],
      "name": "getRole",
      "outputs": [
        {
          "internalType": "enum RegistryContract.Role",
          "name": "",
          "type": "uint8"
        }
      ],
      "stateMutability": "view",
      "type": "function",
      "constant": true
    },
    {
      "inputs": [
        {
          "internalType": "address",
          "name": "_addr",
          "type": "address"
        }
      ],
      "name": "getStatus",
      "outputs": [
        {
          "internalType": "enum RegistryContract.ApprovalStatus",
          "name": "",
          "type": "uint8"
        }
      ],
      "stateMutability": "view",
      "type": "function",
      "constant": true
    },
    {
      "inputs": [
        {
          "internalType": "address",
          "name": "_addr",
          "type": "address"
        }
      ],
      "name": "getEntity",
      "outputs": [
        {
          "components": [
            {
              "internalType": "address",
              "name": "walletAddress",
              "type": "address"
            },
            {
              "internalType": "enum RegistryContract.Role",
              "name": "role",
              "type": "uint8"
            },
            {
              "internalType": "enum RegistryContract.ApprovalStatus",
              "name": "status",
              "type": "uint8"
            },
            {
              "internalType": "string",
              "name": "name",
              "type": "string"
            },
            {
              "internalType": "string",
              "name": "email",
              "type": "string"
            },
            {
              "internalType": "string",
              "name": "location",
              "type": "string"
            },
            {
              "internalType": "string",
              "name": "licenseNumber",
              "type": "string"
            },
            {
              "internalType": "uint256",
              "name": "registeredAt",
              "type": "uint256"
            },
            {
              "internalType": "uint256",
              "name": "approvedAt",
              "type": "uint256"
            },
            {
              "internalType": "bool",
              "name": "exists",
              "type": "bool"
            }
          ],
          "internalType": "struct RegistryContract.Entity",
          "name": "",
          "type": "tuple"
        }
      ],
      "stateMutability": "view",
      "type": "function",
      "constant": true
    },
    {
      "inputs": [
        {
          "internalType": "string",
          "name": "_licenseNo",
          "type": "string"
        }
      ],
      "name": "getEntityByLicense",
      "outputs": [
        {
          "components": [
            {
              "internalType": "address",
              "name": "walletAddress",
              "type": "address"
            },
            {
              "internalType": "enum RegistryContract.Role",
              "name": "role",
              "type": "uint8"
            },
            {
              "internalType": "enum RegistryContract.ApprovalStatus",
              "name": "status",
              "type": "uint8"
            },
            {
              "internalType": "string",
              "name": "name",
              "type": "string"
            },
            {
              "internalType": "string",
              "name": "email",
              "type": "string"
            },
            {
              "internalType": "string",
              "name": "location",
              "type": "string"
            },
            {
              "internalType": "string",
              "name": "licenseNumber",
              "type": "string"
            },
            {
              "internalType": "uint256",
              "name": "registeredAt",
              "type": "uint256"
            },
            {
              "internalType": "uint256",
              "name": "approvedAt",
              "type": "uint256"
            },
            {
              "internalType": "bool",
              "name": "exists",
              "type": "bool"
            }
          ],
          "internalType": "struct RegistryContract.Entity",
          "name": "",
          "type": "tuple"
        }
      ],
      "stateMutability": "view",
      "type": "function",
      "constant": true
    },
    {
      "inputs": [],
      "name": "getPendingRequests",
      "outputs": [
        {
          "internalType": "address[]",
          "name": "",
          "type": "address[]"
        }
      ],
      "stateMutability": "view",
      "type": "function",
      "constant": true
    },
    {
      "inputs": [],
      "name": "getPendingEntities",
      "outputs": [
        {
          "components": [
            {
              "internalType": "address",
              "name": "walletAddress",
              "type": "address"
            },
            {
              "internalType": "enum RegistryContract.Role",
              "name": "role",
              "type": "uint8"
            },
            {
              "internalType": "enum RegistryContract.ApprovalStatus",
              "name": "status",
              "type": "uint8"
            },
            {
              "internalType": "string",
              "name": "name",
              "type": "string"
            },
            {
              "internalType": "string",
              "name": "email",
              "type": "string"
            },
            {
              "internalType": "string",
              "name": "location",
              "type": "string"
            },
            {
              "internalType": "string",
              "name": "licenseNumber",
              "type": "string"
            },
            {
              "internalType": "uint256",
              "name": "registeredAt",
              "type": "uint256"
            },
            {
              "internalType": "uint256",
              "name": "approvedAt",
              "type": "uint256"
            },
            {
              "internalType": "bool",
              "name": "exists",
              "type": "bool"
            }
          ],
          "internalType": "struct RegistryContract.Entity[]",
          "name": "",
          "type": "tuple[]"
        }
      ],
      "stateMutability": "view",
      "type": "function",
      "constant": true
    },
    {
      "inputs": [],
      "name": "getAllRegistered",
      "outputs": [
        {
          "internalType": "address[]",
          "name": "",
          "type": "address[]"
        }
      ],
      "stateMutability": "view",
      "type": "function",
      "constant": true
    },
    {
      "inputs": [
        {
          "internalType": "enum RegistryContract.Role",
          "name": "_role",
          "type": "uint8"
        }
      ],
      "name": "getApprovedByRole",
      "outputs": [
        {
          "components": [
            {
              "internalType": "address",
              "name": "walletAddress",
              "type": "address"
            },
            {
              "internalType": "enum RegistryContract.Role",
              "name": "role",
              "type": "uint8"
            },
            {
              "internalType": "enum RegistryContract.ApprovalStatus",
              "name": "status",
              "type": "uint8"
            },
            {
              "internalType": "string",
              "name": "name",
              "type": "string"
            },
            {
              "internalType": "string",
              "name": "email",
              "type": "string"
            },
            {
              "internalType": "string",
              "name": "location",
              "type": "string"
            },
            {
              "internalType": "string",
              "name": "licenseNumber",
              "type": "string"
            },
            {
              "internalType": "uint256",
              "name": "registeredAt",
              "type": "uint256"
            },
            {
              "internalType": "uint256",
              "name": "approvedAt",
              "type": "uint256"
            },
            {
              "internalType": "bool",
              "name": "exists",
              "type": "bool"
            }
          ],
          "internalType": "struct RegistryContract.Entity[]",
          "name": "",
          "type": "tuple[]"
        }
      ],
      "stateMutability": "view",
      "type": "function",
      "constant": true
    },
    {
      "inputs": [
        {
          "internalType": "address",
          "name": "_addr",
          "type": "address"
        }
      ],
      "name": "getLicenseNumber",
      "outputs": [
        {
          "internalType": "string",
          "name": "",
          "type": "string"
        }
      ],
      "stateMutability": "view",
      "type": "function",
      "constant": true
    },
    {
      "inputs": [
        {
          "internalType": "string",
          "name": "_licenseNo",
          "type": "string"
        }
      ],
      "name": "getAddressByLicense",
      "outputs": [
        {
          "internalType": "address",
          "name": "",
          "type": "address"
        }
      ],
      "stateMutability": "view",
      "type": "function",
      "constant": true
    }
  ],
  "bytecode": "0x608034620008ab57601f620032f338819003918201601f19168301916001600160401b03831184841017620004b257808492602094604052833981010312620008ab57516001600160a01b0381168103620008ab576001600160a01b038116156200085757600080546001600160a01b0319166001600160a01b03831617905560405161014081016001600160401b03811182821017620004b25760409081526001600160a01b038316825260016020830152600290820152620000c2620008b0565b600c81526b29bcb9ba32b69020b236b4b760a11b60208201526060820152620000ea620008d0565b600081526080820152620000fd620008d0565b6000815260a082015262000110620008b0565b600981526841444d494e2d30303160b81b602082015260c08201524260e082015242610100820152600161012082015260018060a01b0382166000526001602052604060002060018060a01b038251168154602084015191600683101562000841576040850151600581101562000841576001600160b01b03199092161760a09290921b60ff60a01b169190911760a89190911b60ff60a81b16178155606082015180519093906001600160401b038111620004b2576001830154600181811c9116801562000836575b60208210146200059b57601f8111620007ea575b506020601f8211600114620007765781929394956000926200076a575b50508160011b916000199060031b1c19161760018301555b608083015180519093906001600160401b038111620004b2576002840154600181811c911680156200075f575b60208210146200059b57601f811162000713575b506020601f82116001146200069f57819293949560009262000693575b50508160011b916000199060031b1c19161760028401555b60a081015180519093906001600160401b038111620004b2576003820154600181811c9116801562000688575b60208210146200059b57601f81116200063c575b506020601f8211600114620005c8578192939495600092620005bc575b50508160011b916000199060031b1c19161760038201555b60c08201518051906001600160401b038211620004b2576004830154600181811c91168015620005b1575b60208210146200059b57601f81116200054f575b50602090601f8311600114620004d45791806101209492600794600092620004c8575b50508160011b916000199060031b1c19161760048201555b60e08401516005820155610100840151600682015501910151151560ff8019835416911617905560025468010000000000000000811015620004b25760018101806002558110156200049c5760026000527f405787fa12a823e0f2b7631cc41b3ba8828b3321ca811111fa75cd3aa3bb5ace0180546001600160a01b03199081166001600160a01b0393909316928317909155604080516841444d494e2d30303160b81b8082526005600980840191909152602990922080549094168517909355815182815291820152606081019190915242602082015260019082907fb99357eaf041c6b4f9ef26c88b38609fbf977298507bb7570887fab2714679c290608090a4604051612a029081620008f18239f35b634e487b7160e01b600052603260045260246000fd5b634e487b7160e01b600052604160045260246000fd5b01519050388062000371565b906004840160005260206000209160005b601f198516811062000536575092610120949260019260079583601f198116106200051c575b505050811b01600482015562000389565b015160001960f88460031b161c191690553880806200050b565b91926020600181928685015181550194019201620004e5565b600484016000526020600020601f840160051c81016020851062000593575b601f830160051c82018110620005865750506200034e565b600081556001016200056e565b50806200056e565b634e487b7160e01b600052602260045260246000fd5b90607f16906200033a565b015190503880620002f7565b6003830160005260206000209060005b601f198416811062000623575060019394959683601f1981161062000609575b505050811b0160038201556200030f565b015160001960f88460031b161c19169055388080620005f8565b9091602060018192858b015181550193019101620005d8565b600383016000526020600020601f830160051c81016020841062000680575b601f830160051c8201811062000673575050620002da565b600081556001016200065b565b50806200065b565b90607f1690620002c6565b01519050388062000281565b6002850160005260206000209060005b601f1984168110620006fa575060019394959683601f19811610620006e0575b505050811b01600284015562000299565b015160001960f88460031b161c19169055388080620006cf565b9091602060018192858b015181550193019101620006af565b600285016000526020600020601f830160051c81016020841062000757575b601f830160051c820181106200074a57505062000264565b6000815560010162000732565b508062000732565b90607f169062000250565b0151905038806200020b565b6001840160005260206000209060005b601f1984168110620007d1575060019394959683601f19811610620007b7575b505050811b01600183015562000223565b015160001960f88460031b161c19169055388080620007a6565b9091602060018192858b01518155019301910162000786565b600184016000526020600020601f830160051c8101602084106200082e575b601f830160051c8201811062000821575050620001ee565b6000815560010162000809565b508062000809565b90607f1690620001da565b634e487b7160e01b600052602160045260246000fd5b60405162461bcd60e51b815260206004820152602660248201527f52656769737472793a2061646d696e2063616e6e6f74206265207a65726f206160448201526564647265737360d01b6064820152608490fd5b600080fd5b60408051919082016001600160401b03811183821017620004b257604052565b60405190602082016001600160401b03811183821017620004b25760405256fe608080604052600436101561001357600080fd5b60003560e01c908163030e46cb14611e7a575080630b88ded114611de357806312e0ba4814611d8857806330ccebb514611d435780633c1a314314611a4357806344276733146119fc578063518ce2b61461197857806355ebca011461125a578063673448dd146111f3578063693c79b21461104257806372e52f5a14610ff157806375829def14610a2b57806375894e8c146109b65780637d9d17b7146108ea57806380a1f712146108685780639deaf8f1146106e1578063ab330f6b146103b3578063c85c0d3514610321578063d7b71f5f14610211578063e024e747146101345763f851a4401461010657600080fd5b3461012f57600036600319011261012f576000546040516001600160a01b039091168152602090f35b600080fd5b3461012f57602036600319011261012f5761014d612106565b6000546001600160a01b0390610166908216331461257a565b81169081600052600160205261018660ff600760406000200154166125c6565b81600052600160205260406000209081549160ff8360a81c169260058410156101fb576101b860016101cc9514612612565b60ff60a81b1916600360a81b1790556128b2565b604051904282527f8d359aca665b1a62f2fd210777e6936c72df54cc65eefa41766cf20f746a075a60203393a3005b634e487b7160e01b600052602160045260246000fd5b3461012f57602036600319011261012f5761022a612106565b6000546001600160a01b039190610244908316331461257a565b1680600052600160205261026260ff600760406000200154166125c6565b8060005260016020526040600020805460ff8160a81c1660058110156101fb576002036102c95760ff60a81b1916600160aa1b1790556040514281523391907f1a66b2e2e4e77f417c0f793f30f1b62e1371ae6ec6e4e3c008d5d8059808d77490602090a3005b60405162461bcd60e51b815260206004820152602a60248201527f52656769737472793a20656e74697479206973206e6f742063757272656e746c6044820152691e48105c1c1c9bdd995960b21b6064820152608490fd5b3461012f57600036600319011261012f57604051600280548083526000918252602080840193927f405787fa12a823e0f2b7631cc41b3ba8828b3321ca811111fa75cd3aa3bb5ace92915b8282106103935761038f856103838189038261236b565b60405191829182612289565b0390f35b83546001600160a01b03168652948501946001938401939091019061036c565b3461012f57608036600319011261012f576103cc612106565b6001600160401b039060243582811161012f576103ed9036906004016120d9565b9260443581811161012f576104069036906004016120d9565b909360643583811161012f576104209036906004016120d9565b600054909791926001600160a01b039161043d908316331461257a565b16958660005260019360209685885261046060ff600760406000200154166125c6565b61046b8415156122cd565b88600052858852604060002093868501918882116105ea578190610499826104938654612428565b86612462565b600090601f831160011461067e57600092610673575b5050600019600383901b1c191690871b1790555b60028301918682116105ea576104e3826104dd8554612428565b85612462565b600090601f831160011461060b5760039493929160009183610600575b505060001982861b1c191690861b1790555b019286116105ea57610528866104dd8554612428565b600090601f871160011461057a5795809281926000805160206129ad833981519152979860009461056f575b50501b916000199060031b1c19161790555b604051428152a2005b013592508880610554565b9590601f1982169684600052856000209160005b8981106105d55750836000805160206129ad8339815191529899106105bb575b505050811b019055610566565b0135600019600384901b60f8161c191690558680806105ae565b8282013584559285019290870190870161058e565b634e487b7160e01b600052604160045260246000fd5b013590508b80610500565b918691949392601f19821690846000528a6000209160005b8c82821061065d575050968360039810610645575b505050811b019055610512565b013560001983881b60f8161c191690558b8080610638565b838a01358555988901988b969094019301610623565b013590508c806104af565b60008581528c81208b95509290601f198516908e5b8282106106ca57505084116106b0575b505050811b0190556104c3565b0135600019600384901b60f8161c191690558c80806106a3565b8385013586558d979095019492830192018e610693565b3461012f5760208060031936011261012f57600660043581811015908161012f576000936000926002958654945b8581106107e2575061072090612829565b9460009260005b86811061073c576040518061038f8a82612227565b610745816124e7565b60018060a01b0391549060031b1c16600052600182526040600020805460ff86818360a01c16906101fb57868110156101fb57891491826107ca575b5050610797575b5061079290612879565b610727565b61079291956107a86107c392612763565b6107b2828c61289e565b526107bd818b61289e565b50612879565b9490610788565b60a81c16905060058110156101fb578a148b80610781565b6107eb816124e7565b60018060a01b0391549060031b1c166000526001845260406000205460ff84818360a01c16906101fb57898110156101fb5787149182610850575b505061083b575b61083690612879565b61070f565b9061084861083691612879565b91905061082d565b60a81c16905060058110156101fb5788148980610826565b3461012f57600036600319011261012f57604051600380548083526000918252602080840193927fc2575a0e9e593c00f959f8c92f12db2869c3395a3b0502d05e2516446f71f85b92915b8282106108ca5761038f856103838189038261236b565b83546001600160a01b0316865294850194600193840193909101906108b3565b3461012f5760208060031936011261012f576004356001600160401b03811161012f5761091b9036906004016120d9565b610923612670565b5080604051928337600590820190815281900382019020546001600160a01b03168015610973576000526001815261095e6040600020612763565b9061038f604051928284938452830190612176565b60405162461bcd60e51b815260048101839052601b60248201527a149959da5cdd1c9e4e881b1a58d95b9cd9481b9bdd08199bdd5b99602a1b6044820152606490fd5b3461012f57602036600319011261012f576109cf612106565b6109d7612670565b506001600160a01b03166000818152600160205260409020600701546109ff9060ff166125c6565b600052600160205261038f610a176040600020612763565b604051918291602083526020830190612176565b3461012f57602036600319011261012f57610a44612106565b6000546001600160a01b03610a5c338284161461257a565b80831615610fb35780821681841614610f74578083166001600160a01b03198316811760009081558284168152600160205260408082208054600160aa1b61ffff60a01b19918216179091559282529020600781015490919060ff16610f5f57505060405192610acb84612319565b81811684526001602085015260026040850152604051610aea81612350565b600c81526b29bcb9ba32b69020b236b4b760a11b60208201526060850152604051610b1481612335565b600081526080850152604051610b2981612335565b6000815260a0850152604051610b3e81612350565b600e81526d20a226a4a716aa2920a729a322a960911b602082015260c08501524260e0850152426101008501526001610120850152818116600052600160205260406000208285511660018060a01b0319825416178155602085015160068110156101fb57610bad90826123e0565b604085015160058110156101fb57610bc59082612404565b606085015180516001600160401b0381116105ea57806001840192610bee826104938654612428565b602090601f8311600114610ef957600092610eee575b50508160011b916000199060031b1c19161790555b608085015180516001600160401b0381116105ea57806002840192610c42826104938654612428565b602090601f8311600114610e8857600092610e7d575b50508160011b916000199060031b1c19161790555b60a0850151805160038301916001600160401b0382116105ea578190610c97826104938654612428565b602090601f8311600114610e1757600092610e0c575b50508160011b916000199060031b1c19161790555b60c0850151805190959060048301906001600160401b0381116105ea57610cf381610ced8454612428565b84612462565b6020601f8211600114610d9857926007928261012093610d5a97968a9b9c600092610d8d575b50508160011b916000199060031b1c19161790555b60e0810151600585015561010081015160068501550151151591019060ff801983541691151516179055565b610d6381612520565b1691167ff8ccb027dfcd135e000e9d45e6cc2d662578a8825d4c45b5e32e0adf67e79ec6600080a3005b015190508c80610d19565b601f198216988360005260206000209960005b818110610df4575083899a9b610d5a989794600797946101209760019510610ddb575b505050811b019055610d2e565b015160001960f88460031b161c191690558c8080610dce565b838301518c556001909b019a60209384019301610dab565b015190508880610cad565b6000858152602081209350601f198516905b818110610e655750908460019594939210610e4c575b505050811b019055610cc2565b015160001960f88460031b161c19169055888080610e3f565b92936020600181928786015181550195019301610e29565b015190508880610c58565b6000858152602081209350601f198516905b818110610ed65750908460019594939210610ebd575b505050811b019055610c6d565b015160001960f88460031b161c19169055888080610eb0565b92936020600181928786015181550195019301610e9a565b015190508880610c04565b6000858152602081209350601f198516905b818110610f475750908460019594939210610f2e575b505050811b019055610c19565b015160001960f88460031b161c19169055888080610f21565b92936020600181928786015181550195019301610f0b565b81541661020160a01b17905590918190610d63565b60405162461bcd60e51b81526020600482015260176024820152762932b3b4b9ba393c9d1030b63932b0b23c9030b236b4b760491b6044820152606490fd5b60405162461bcd60e51b815260206004820152601660248201527552656769737472793a207a65726f206164647265737360501b6044820152606490fd5b3461012f57602036600319011261012f576001600160a01b03611012612106565b16600052600160205261038f61102e60046040600020016126bf565b604051918291602083526020830190612136565b3461012f5760208060031936011261012f5761105c612106565b6000546001600160a01b039190611076908316331461257a565b16806000526001825261109360ff600760406000200154166125c6565b80600052600182526040600020805460ff8160a81c1660058110156101fb57600381149081156111e8575b5015611185576110d16004830154612428565b1561111b5760ff60a81b1916600160a91b17815542600690910181905560405190815233927fff0b22130054be234bcdda0c1c7c0868ef2feab7b8123d07ae5a50cb2574ef0291a3005b6084846040519062461bcd60e51b82526004820152604060248201527f52656769737472793a206e6f206c6963656e7365206e756d626572206f6e207260448201527f65636f72643b2075736520617070726f7665456e7469747920696e73746561646064820152fd5b60405162461bcd60e51b815260048101859052603560248201527f52656769737472793a20656e74697479206973206e6f7420696e2052656a6563604482015274746564206f72205265766f6b65642073746174757360581b6064820152608490fd5b6004915014856110be565b3461012f57602036600319011261012f576001600160a01b03611214612106565b166000526001602052604060002060ff600782015416908161123e575b6020826040519015158152f35b60ff91505460a81c1660058110156101fb576002146020611231565b3461012f57608036600319011261012f576006600435101561012f576024356001600160401b03811161012f576112959036906004016120d9565b6044356001600160401b03811161012f576112b49036906004016120d9565b6064356001600160401b03811161012f576112d39036906004016120d9565b9133600052600160205260ff60076040600020015416611917576000936002600435148015611907575b8581156118f6575b81156118e4575b501561188a5761131d8615156122cd565b81156118455783156117f5576113806040519361133985612319565b338552602085019561134d6004358861238e565b6113746040870194600186526113658c8c369161239a565b9660608901978852369161239a565b6080870152369161239a565b60a084015260405161139181612335565b6000815260c08401524260e08401526000610100840152600161012084015233600052600160205260406000209360018060a01b0384511660018060a01b03198654161785555160068110156101fb576113eb90856123e0565b5160058110156101fb576113ff9084612404565b518051906001600160401b0382116105ea57819061142d826114246001880154612428565b60018801612462565b602090601f831160011461178357600092611778575b50508160011b916000199060031b1c19161760018301555b608081015180516001600160401b0381116105ea57806002850192611484826104938654612428565b602090601f831160011461171257600092611707575b50508160011b916000199060031b1c19161790555b60a081015180516001600160401b0381116105ea578060038501926114d8826104938654612428565b602090601f83116001146116a157600092611696575b50508160011b916000199060031b1c19161790555b60c081015180516001600160401b0381116105ea57600484019161152b826104dd8554612428565b602090601f83116001146116245792826101209361158f9796936007966000926116195750508160011b916000199060031b1c191617905560e0810151600585015561010081015160068501550151151591019060ff801983541691151516179055565b61159833612520565b600354600160401b8110156105ea576115ba8160016115c193016003556124b6565b3391612502565b3360005260046020526040600020600160ff198254161790556101fb577f1f77daf0cde58fb801ee20100afb681b11e993b40a01c40ee509f9b11053c49e6040518061161460043595339542918461254b565b0390a3005b015190508b80610d19565b90601f198316918460005260206000209260005b81811061167e57509361158f9796936007969360019383610120981061166557505050811b019055610d2e565b015160001960f88460031b161c191690558b8080610dce565b92936020600181928786015181550195019301611638565b0151905088806114ee565b6000858152602081209350601f198516905b8181106116ef57509084600195949392106116d6575b505050811b019055611503565b015160001960f88460031b161c191690558880806116c9565b929360206001819287860151815501950193016116b3565b01519050888061149a565b6000858152602081209350601f198516905b8181106117605750908460019594939210611747575b505050811b0190556114af565b015160001960f88460031b161c1916905588808061173a565b92936020600181928786015181550195019301611724565b015190508780611443565b9250600185016000526020600020906000935b601f19841685106117da576001945083601f198116106117c1575b505050811b01600183015561145b565b015160001960f88460031b161c191690558780806117b1565b81810151835560209485019460019093019290910190611796565b60405162461bcd60e51b815260206004820152602260248201527f52656769737472793a206c6f636174696f6e2063616e6e6f7420626520656d70604482015261747960f01b6064820152608490fd5b60405162461bcd60e51b815260206004820152601f60248201527f52656769737472793a20656d61696c2063616e6e6f7420626520656d707479006044820152606490fd5b60405162461bcd60e51b815260206004820152602c60248201527f52656769737472793a20696e76616c696420726f6c6520666f722073656c662d60448201526b3932b3b4b9ba3930ba34b7b760a11b6064820152608490fd5b90506101fb576005600435148561130c565b90506101fb57600480351485611305565b50600094506004356003146112fd565b60405162461bcd60e51b815260206004820152603360248201527f52656769737472793a206164647265737320616c7265616479206861732061206044820152721c9959da5cdd1c985d1a5bdb881c9958dbdc99606a1b6064820152608490fd5b3461012f57600036600319011261012f576003805461199681612829565b9160005b8281106119af576040518061038f8682612227565b806119bc6119f7926124b6565b905490841b1c6001600160a01b031660009081526001602052604090206119e290612763565b6119ec828761289e565b526107bd818661289e565b61199a565b3461012f57602036600319011261012f576001600160a01b03611a1d612106565b166000526001602052602060ff60406000205460a01c16611a416040518092612129565bf35b3461012f57604036600319011261012f57611a5c612106565b60246001600160401b03813581811161012f57611a7d9036906004016120d9565b60005490946001600160a01b0391611a98908316331461257a565b8181169384600052600190602091808352611abd60ff600760406000200154166125c6565b8660005280835260406000209485549060ff8260a81c166005811015611d2e5783611ae89114612612565b8a15611cd9576040518b89823785818d810160058152030190205416611c835760ff60a81b1916600160a91b17855560048501918911611c6e578890611b32826104dd8554612428565b6000601f8311600114611bff57918060ff97969492611b969694600093611bf4575b501b906000198c60031b1c19161790555b426006850155604051908987833760058a830190815282900301902080546001600160a01b031916871790556128b2565b5460a01c16926006841015611be05750611bdb7fb99357eaf041c6b4f9ef26c88b38609fbf977298507bb7570887fab2714679c291604051918291339742918461254b565b0390a4005b634e487b7160e01b60009081526021600452fd5b8a013592508d611b54565b60008481528581209293508b90601f198216905b818110611c5657509160ff9897959391611b9697959310611c3c575b50508a811b019055611b65565b89013560001960038e901b60f8161c191690558b80611c2f565b8a840135855593850193928701928d92508701611c13565b87634e487b7160e01b60005260416004526000fd5b60405162461bcd60e51b8152600481018590526029818b01527f52656769737472793a206c6963656e7365206e756d62657220616c726561647960448201526808185cdcda59db995960ba1b6064820152608490fd5b60405162461bcd60e51b8152600481018690526028818c01527f52656769737472793a206c6963656e7365206e756d6265722063616e6e6f7420604482015267626520656d70747960c01b6064820152608490fd5b8a634e487b7160e01b60005260216004526000fd5b3461012f57602036600319011261012f576001600160a01b03611d64612106565b166000526001602052602060ff60406000205460a81c16611a41604051809261211c565b3461012f57602036600319011261012f576004356001600160401b03811161012f57611dba60209136906004016120d9565b80604051928337600590820190815281900382019020546040516001600160a01b039091168152f35b3461012f57604036600319011261012f57611dfc612106565b60243590600682101561012f576001600160a01b03166000908152600160205260409020600781015460ff169081611e5e575b81611e41576020826040519015158152f35b60ff91505460a01c169060068210156101fb576020911482611231565b905060ff815460a81c1660058110156101fb5760021490611e2f565b3461012f57604036600319011261012f576001600160401b0360043581811161012f57611eab9036906004016120d9565b60243583811161012f57611ec39036906004016120d9565b913360005260019360209685885260ff60406000205460a81c1660058110156101fb5760020361208457503360005284875260406000209160028301918782116105ea57611f15826104dd8554612428565b600090601f831160011461201c5760039493929160009183612011575b505060001982861b1c191690871b1790555b019382116105ea57611f5a826104938654612428565b600090601f8311600114611fae57928293918392600094611fa3575b50501b916000199060031b1c19161790555b6000805160206129ad833981519152604051914283523392a2005b013592508680611f76565b601f198316918560005283876000209360005b8988838310611ffa5750505010611fe0575b505050811b019055611f88565b0135600019600384901b60f8161c19169055848080611fd3565b858701358855909601959384019387935001611fc1565b013590508a80611f32565b918791949392601f19821690846000528b6000209160005b8d82821061206e575050968360039810612056575b505050811b019055611f44565b013560001983881b60f8161c191690558a8080612049565b838a01358555988901988c969094019301612034565b62461bcd60e51b815260048101889052602a60248201527f52656769737472793a2063616c6c6572206973206e6f7420616e20617070726f60448201526976656420656e7469747960b01b6064820152608490fd5b9181601f8401121561012f578235916001600160401b03831161012f576020838186019501011161012f57565b600435906001600160a01b038216820361012f57565b9060058210156101fb5752565b9060068210156101fb5752565b919082519283825260005b848110612162575050826000602080949584010152601f8019910116010190565b602081830181015184830182015201612141565b80516001600160a01b0316825260208082015191929161219891830190612129565b6121aa6040830151604083019061211c565b6122026121f06121de6121cc6060860151610140806060880152860190612136565b60808601518582036080870152612136565b60a085015184820360a0860152612136565b60c084015183820360c0850152612136565b9160e081015160e0830152610100808201519083015261012080910151151591015290565b602080820190808352835180925260408301928160408460051b8301019501936000915b84831061225b5750505050505090565b9091929394958480612279600193603f198682030187528a51612176565b980193019301919493929061224b565b6020908160408183019282815285518094520193019160005b8281106122b0575050505090565b83516001600160a01b0316855293810193928101926001016122a2565b156122d457565b60405162461bcd60e51b815260206004820152601e60248201527f52656769737472793a206e616d652063616e6e6f7420626520656d70747900006044820152606490fd5b61014081019081106001600160401b038211176105ea57604052565b602081019081106001600160401b038211176105ea57604052565b604081019081106001600160401b038211176105ea57604052565b601f909101601f19168101906001600160401b038211908210176105ea57604052565b60068210156101fb5752565b9192916001600160401b0382116105ea57604051916123c3601f8201601f19166020018461236b565b82948184528183011161012f578281602093846000960137010152565b9060068110156101fb57815460ff60a01b191660a09190911b60ff60a01b16179055565b9060058110156101fb57815460ff60a81b191660a89190911b60ff60a81b16179055565b90600182811c92168015612458575b602083101461244257565b634e487b7160e01b600052602260045260246000fd5b91607f1691612437565b90601f811161247057505050565b600091825260208220906020601f850160051c830194106124ac575b601f0160051c01915b8281106124a157505050565b818155600101612495565b909250829061248c565b6003548110156124d157600360005260206000200190600090565b634e487b7160e01b600052603260045260246000fd5b6002548110156124d157600260005260206000200190600090565b919082549060031b9160018060a01b03809116831b921b1916179055565b60025490600160401b8210156105ea5761254382600161254994016002556124e7565b90612502565b565b9392918060609160209360408852816040890152838801376000828288010152601f8019910116850101930152565b1561258157565b60405162461bcd60e51b815260206004820152601d60248201527f52656769737472793a2063616c6c6572206973206e6f742061646d696e0000006044820152606490fd5b156125cd57565b60405162461bcd60e51b815260206004820152601f60248201527f52656769737472793a20656e7469747920646f6573206e6f74206578697374006044820152606490fd5b1561261957565b60405162461bcd60e51b815260206004820152602960248201527f52656769737472793a20656e74697479206973206e6f7420696e2050656e64696044820152686e672073746174757360b81b6064820152608490fd5b6040519061267d82612319565b8161012060009182815282602082015282604082015260608082015260606080820152606060a0820152606060c08201528260e0820152826101008201520152565b90604051918260008254926126d384612428565b90818452600194858116908160001461274057506001146126fd575b50506125499250038361236b565b9093915060005260209081600020936000915b818310612728575050612549935082010138806126ef565b85548884018501529485019487945091830191612710565b91505061254994506020925060ff191682840152151560051b82010138806126ef565b9060405161277081612319565b809260ff815460018060a01b0381168452612793828260a01c166020860161238e565b60a81c169060058210156101fb57600760ff916101209360408601526127bb600182016126bf565b60608601526127cc600282016126bf565b60808601526127dd600382016126bf565b60a08601526127ee600482016126bf565b60c0860152600581015460e086015260068101546101008601520154161515910152565b6001600160401b0381116105ea5760051b60200190565b9061283382612812565b612840604051918261236b565b8281528092612851601f1991612812565b019060005b82811061286257505050565b60209061286d612670565b82828501015201612856565b60001981146128885760010190565b634e487b7160e01b600052601160045260246000fd5b80518210156124d15760209160051b010190565b60018060a01b038091169060008281526004908160205260408120805460ff8116156129a45760ff19169055600391825491805b8381106128f7575b50505050505050565b8686612902836124b6565b905490881b1c161461291c5761291790612879565b6128e6565b949550929360001993919284810190811161299157906125438761294261294f946124b6565b905490891b1c16916124b6565b835491821561297e5750500191612965836124b6565b9091825491841b1b1916905555388080808080806128ee565b634e487b7160e01b825260319052602490fd5b634e487b7160e01b835260118452602483fd5b50505050505056fe22e408821d014865f7272491db504e0432b9eb1f6dd8d3c86b75407db0d584f8a2646970667358221220bc2520ea49d62e763f8c1a2104626bc3a311c25e815121c688bba3b14f9db75864736f6c63430008140033",
  "immutableReferences": {},
  "source": "// SPDX-License-Identifier: MIT\npragma solidity ^0.8.20;\n\n/// @title  RegistryContract\n/// @notice Central identity & access-control registry for the\n///         Blockchain-Based Medicine Supply Chain system.\n///         All other contracts query this contract to verify\n///         that a caller is approved and holds the correct role.\n/// @dev    Deploy this contract first; pass its address to the\n///         constructor of ProductContract, TransferContract and\n///         TraceContract.\ncontract RegistryContract {\n\n    // ─────────────────────────────────────────────────────────────\n    // Enums\n    // ─────────────────────────────────────────────────────────────\n\n    /// @dev Roles a wallet address can hold in the system.\n    ///      Unregistered wallets have role = None.\n    enum Role {\n        None,           // 0 – not registered\n        Admin,          // 1\n        Manufacturer,   // 2\n        Distributor,    // 3\n        Supplier,       // 4\n        Pharmacist      // 5\n    }\n\n    /// @dev Lifecycle of a registration request.\n    enum ApprovalStatus {\n        None,       // 0 – never applied\n        Pending,    // 1 – awaiting admin decision\n        Approved,   // 2 – active in the system\n        Rejected,   // 3 – denied by admin\n        Revoked     // 4 – previously approved, now disabled\n    }\n\n    // ─────────────────────────────────────────────────────────────\n    // Structs\n    // ─────────────────────────────────────────────────────────────\n\n    struct Entity {\n        address         walletAddress;\n        Role            role;\n        ApprovalStatus  status;\n        string          name;\n        string          email;\n        string          location;\n        string          licenseNumber;   // assigned by admin on approval\n        uint256         registeredAt;    // block.timestamp of registration request\n        uint256         approvedAt;      // block.timestamp of admin approval (0 if not yet)\n        bool            exists;          // guard for mapping lookup\n    }\n\n    // ─────────────────────────────────────────────────────────────\n    // State Variables\n    // ─────────────────────────────────────────────────────────────\n\n    address public admin;\n\n    /// @dev Primary registry: wallet → Entity\n    mapping(address => Entity) private entities;\n\n    /// @dev All addresses that have ever submitted a registration request\n    address[] private allRegistered;\n\n    /// @dev Addresses currently awaiting admin decision\n    address[] private pendingList;\n\n    /// @dev Quick set-membership for pendingList (avoid O(n) scan on removal)\n    mapping(address => bool) private isPending;\n\n    /// @dev License number uniqueness guard: licenseNo → assigned address\n    mapping(string => address) private licenseToAddress;\n\n    // ─────────────────────────────────────────────────────────────\n    // Events\n    // ─────────────────────────────────────────────────────────────\n\n    event AdminTransferred(address indexed previousAdmin, address indexed newAdmin);\n\n    event RegistrationRequested(\n        address indexed applicant,\n        Role    indexed role,\n        string          name,\n        uint256         timestamp\n    );\n\n    event EntityApproved(\n        address indexed entity,\n        Role    indexed role,\n        string          licenseNumber,\n        address indexed approvedBy,\n        uint256         timestamp\n    );\n\n    event EntityRejected(\n        address indexed entity,\n        address indexed rejectedBy,\n        uint256         timestamp\n    );\n\n    event EntityRevoked(\n        address indexed entity,\n        address indexed revokedBy,\n        uint256         timestamp\n    );\n\n    event EntityReactivated(\n        address indexed entity,\n        address indexed reactivatedBy,\n        uint256         timestamp\n    );\n\n    event EntityDetailsUpdated(\n        address indexed entity,\n        uint256         timestamp\n    );\n\n    // ─────────────────────────────────────────────────────────────\n    // Modifiers\n    // ─────────────────────────────────────────────────────────────\n\n    modifier onlyAdmin() {\n        require(msg.sender == admin, \"Registry: caller is not admin\");\n        _;\n    }\n\n    modifier onlyApproved() {\n        require(\n            entities[msg.sender].status == ApprovalStatus.Approved,\n            \"Registry: caller is not an approved entity\"\n        );\n        _;\n    }\n\n    modifier notAlreadyRegistered() {\n        require(\n            !entities[msg.sender].exists,\n            \"Registry: address already has a registration record\"\n        );\n        _;\n    }\n\n    modifier entityExists(address _addr) {\n        require(entities[_addr].exists, \"Registry: entity does not exist\");\n        _;\n    }\n\n    // ─────────────────────────────────────────────────────────────\n    // Constructor\n    // ─────────────────────────────────────────────────────────────\n\n    /// @param _admin The wallet address that will act as system admin.\n    ///               Typically the deployer's address.\n    constructor(address _admin) {\n        require(_admin != address(0), \"Registry: admin cannot be zero address\");\n        admin = _admin;\n\n        // Register admin entity internally (no approval needed)\n        entities[_admin] = Entity({\n            walletAddress:  _admin,\n            role:           Role.Admin,\n            status:         ApprovalStatus.Approved,\n            name:           \"System Admin\",\n            email:          \"\",\n            location:       \"\",\n            licenseNumber:  \"ADMIN-001\",\n            registeredAt:   block.timestamp,\n            approvedAt:     block.timestamp,\n            exists:         true\n        });\n\n        allRegistered.push(_admin);\n        licenseToAddress[\"ADMIN-001\"] = _admin;\n\n        emit EntityApproved(_admin, Role.Admin, \"ADMIN-001\", _admin, block.timestamp);\n    }\n\n    // ─────────────────────────────────────────────────────────────\n    // Registration (Public — called by applicants)\n    // ─────────────────────────────────────────────────────────────\n\n    /// @notice Submit a signup request. Admin must approve before the\n    ///         entity can interact with other contracts.\n    /// @param  _role     One of: Manufacturer(2), Distributor(3),\n    ///                   Supplier(4), Pharmacist(5). Cannot self-register as Admin.\n    /// @param  _name     Full legal name / business name.\n    /// @param  _email    Contact email (stored off-chain ref only).\n    /// @param  _location City / address string.\n    function requestRegistration(\n        Role   _role,\n        string calldata _name,\n        string calldata _email,\n        string calldata _location\n    )\n        external\n        notAlreadyRegistered\n    {\n        require(\n            _role == Role.Manufacturer ||\n            _role == Role.Distributor  ||\n            _role == Role.Supplier     ||\n            _role == Role.Pharmacist,\n            \"Registry: invalid role for self-registration\"\n        );\n        require(bytes(_name).length > 0,     \"Registry: name cannot be empty\");\n        require(bytes(_email).length > 0,    \"Registry: email cannot be empty\");\n        require(bytes(_location).length > 0, \"Registry: location cannot be empty\");\n\n        entities[msg.sender] = Entity({\n            walletAddress:  msg.sender,\n            role:           _role,\n            status:         ApprovalStatus.Pending,\n            name:           _name,\n            email:          _email,\n            location:       _location,\n            licenseNumber:  \"\",           // assigned by admin later\n            registeredAt:   block.timestamp,\n            approvedAt:     0,\n            exists:         true\n        });\n\n        allRegistered.push(msg.sender);\n        pendingList.push(msg.sender);\n        isPending[msg.sender] = true;\n\n        emit RegistrationRequested(msg.sender, _role, _name, block.timestamp);\n    }\n\n    // ─────────────────────────────────────────────────────────────\n    // Admin — Approval / Rejection / Revocation\n    // ─────────────────────────────────────────────────────────────\n\n    /// @notice Approve a pending registration and assign a license number.\n    /// @param  _entity     Applicant wallet address.\n    /// @param  _licenseNo  Unique license string (e.g. \"MFR-2024-001\").\n    function approveEntity(address _entity, string calldata _licenseNo)\n        external\n        onlyAdmin\n        entityExists(_entity)\n    {\n        Entity storage e = entities[_entity];\n\n        require(\n            e.status == ApprovalStatus.Pending,\n            \"Registry: entity is not in Pending status\"\n        );\n        require(bytes(_licenseNo).length > 0, \"Registry: license number cannot be empty\");\n        require(\n            licenseToAddress[_licenseNo] == address(0),\n            \"Registry: license number already assigned\"\n        );\n\n        e.status        = ApprovalStatus.Approved;\n        e.licenseNumber = _licenseNo;\n        e.approvedAt    = block.timestamp;\n\n        licenseToAddress[_licenseNo] = _entity;\n        _removeFromPending(_entity);\n\n        emit EntityApproved(_entity, e.role, _licenseNo, msg.sender, block.timestamp);\n    }\n\n    /// @notice Reject a pending registration request.\n    function rejectEntity(address _entity)\n        external\n        onlyAdmin\n        entityExists(_entity)\n    {\n        Entity storage e = entities[_entity];\n\n        require(\n            e.status == ApprovalStatus.Pending,\n            \"Registry: entity is not in Pending status\"\n        );\n\n        e.status = ApprovalStatus.Rejected;\n        _removeFromPending(_entity);\n\n        emit EntityRejected(_entity, msg.sender, block.timestamp);\n    }\n\n    /// @notice Revoke an already-approved entity (e.g. license violation).\n    ///         The entity's on-chain record is preserved for audit purposes\n    ///         but isApproved() will return false.\n    function revokeEntity(address _entity)\n        external\n        onlyAdmin\n        entityExists(_entity)\n    {\n        Entity storage e = entities[_entity];\n\n        require(\n            e.status == ApprovalStatus.Approved,\n            \"Registry: entity is not currently Approved\"\n        );\n\n        e.status = ApprovalStatus.Revoked;\n\n        emit EntityRevoked(_entity, msg.sender, block.timestamp);\n    }\n\n    /// @notice Re-approve a previously rejected or revoked entity\n    ///         (e.g. after appeal), keeping the same license number.\n    function reactivateEntity(address _entity)\n        external\n        onlyAdmin\n        entityExists(_entity)\n    {\n        Entity storage e = entities[_entity];\n\n        require(\n            e.status == ApprovalStatus.Rejected ||\n            e.status == ApprovalStatus.Revoked,\n            \"Registry: entity is not in Rejected or Revoked status\"\n        );\n        require(\n            bytes(e.licenseNumber).length > 0,\n            \"Registry: no license number on record; use approveEntity instead\"\n        );\n\n        e.status     = ApprovalStatus.Approved;\n        e.approvedAt = block.timestamp;\n\n        emit EntityReactivated(_entity, msg.sender, block.timestamp);\n    }\n\n    // ─────────────────────────────────────────────────────────────\n    // Admin — Update Entity Details\n    // ─────────────────────────────────────────────────────────────\n\n    /// @notice Admin can correct or update an entity's profile fields.\n    ///         Does NOT change role or approval status.\n    function updateEntityDetails(\n        address        _entity,\n        string calldata _name,\n        string calldata _email,\n        string calldata _location\n    )\n        external\n        onlyAdmin\n        entityExists(_entity)\n    {\n        require(bytes(_name).length > 0, \"Registry: name cannot be empty\");\n\n        Entity storage e = entities[_entity];\n        e.name     = _name;\n        e.email    = _email;\n        e.location = _location;\n\n        emit EntityDetailsUpdated(_entity, block.timestamp);\n    }\n\n    // ─────────────────────────────────────────────────────────────\n    // Self-Update (Approved entities only)\n    // ─────────────────────────────────────────────────────────────\n\n    /// @notice Approved entities can update their own email and location.\n    ///         Name and role changes require admin action.\n    function updateMyDetails(\n        string calldata _email,\n        string calldata _location\n    )\n        external\n        onlyApproved\n    {\n        Entity storage e = entities[msg.sender];\n        e.email    = _email;\n        e.location = _location;\n\n        emit EntityDetailsUpdated(msg.sender, block.timestamp);\n    }\n\n    // ─────────────────────────────────────────────────────────────\n    // Admin Transfer\n    // ─────────────────────────────────────────────────────────────\n\n    /// @notice Transfer admin rights to a new wallet.\n    ///         The new admin must already be an approved entity OR\n    ///         be a fresh address (role becomes Admin).\n    function transferAdmin(address _newAdmin) external onlyAdmin {\n        require(_newAdmin != address(0), \"Registry: zero address\");\n        require(_newAdmin != admin,      \"Registry: already admin\");\n\n        address oldAdmin = admin;\n        admin = _newAdmin;\n\n        // Update the old admin entity record\n        entities[oldAdmin].role   = Role.None;\n        entities[oldAdmin].status = ApprovalStatus.Revoked;\n\n        // Create or update new admin record\n        if (!entities[_newAdmin].exists) {\n            entities[_newAdmin] = Entity({\n                walletAddress:  _newAdmin,\n                role:           Role.Admin,\n                status:         ApprovalStatus.Approved,\n                name:           \"System Admin\",\n                email:          \"\",\n                location:       \"\",\n                licenseNumber:  \"ADMIN-TRANSFER\",\n                registeredAt:   block.timestamp,\n                approvedAt:     block.timestamp,\n                exists:         true\n            });\n            allRegistered.push(_newAdmin);\n        } else {\n            entities[_newAdmin].role   = Role.Admin;\n            entities[_newAdmin].status = ApprovalStatus.Approved;\n        }\n\n        emit AdminTransferred(oldAdmin, _newAdmin);\n    }\n\n    // ─────────────────────────────────────────────────────────────\n    // View / Query Functions (called by other contracts & frontend)\n    // ─────────────────────────────────────────────────────────────\n\n    /// @notice Primary guard used by other contracts.\n    ///         Returns true only if the address is Approved AND holds the expected role.\n    function isApprovedWithRole(address _addr, Role _role)\n        external\n        view\n        returns (bool)\n    {\n        Entity storage e = entities[_addr];\n        return e.exists &&\n               e.status == ApprovalStatus.Approved &&\n               e.role   == _role;\n    }\n\n    /// @notice Returns true if the address is approved for ANY valid role.\n    function isApproved(address _addr) external view returns (bool) {\n        return entities[_addr].exists &&\n               entities[_addr].status == ApprovalStatus.Approved;\n    }\n\n    /// @notice Returns the role of an address regardless of approval status.\n    function getRole(address _addr) external view returns (Role) {\n        return entities[_addr].role;\n    }\n\n    /// @notice Returns the approval status of an address.\n    function getStatus(address _addr) external view returns (ApprovalStatus) {\n        return entities[_addr].status;\n    }\n\n    /// @notice Returns full entity record for an address.\n    function getEntity(address _addr)\n        external\n        view\n        entityExists(_addr)\n        returns (Entity memory)\n    {\n        return entities[_addr];\n    }\n\n    /// @notice Lookup an entity by license number.\n    function getEntityByLicense(string calldata _licenseNo)\n        external\n        view\n        returns (Entity memory)\n    {\n        address addr = licenseToAddress[_licenseNo];\n        require(addr != address(0), \"Registry: license not found\");\n        return entities[addr];\n    }\n\n    /// @notice Returns all pending registration requests (for the admin dashboard).\n    function getPendingRequests() external view returns (address[] memory) {\n        return pendingList;\n    }\n\n    /// @notice Returns the full list of pending requests with their Entity details.\n    ///         Useful for the admin panel to render a table in one call.\n    function getPendingEntities() external view returns (Entity[] memory) {\n        uint256 len = pendingList.length;\n        Entity[] memory result = new Entity[](len);\n        for (uint256 i = 0; i < len; i++) {\n            result[i] = entities[pendingList[i]];\n        }\n        return result;\n    }\n\n    /// @notice Returns all registered addresses (approved + pending + rejected + revoked).\n    function getAllRegistered() external view returns (address[] memory) {\n        return allRegistered;\n    }\n\n    /// @notice Returns all entities of a specific role that are Approved.\n    ///         Used by Manufacturer to list available Distributors, etc.\n    function getApprovedByRole(Role _role)\n        external\n        view\n        returns (Entity[] memory)\n    {\n        // First pass: count\n        uint256 count = 0;\n        for (uint256 i = 0; i < allRegistered.length; i++) {\n            Entity storage e = entities[allRegistered[i]];\n            if (e.role == _role && e.status == ApprovalStatus.Approved) {\n                count++;\n            }\n        }\n\n        // Second pass: fill\n        Entity[] memory result = new Entity[](count);\n        uint256 idx = 0;\n        for (uint256 i = 0; i < allRegistered.length; i++) {\n            Entity storage e = entities[allRegistered[i]];\n            if (e.role == _role && e.status == ApprovalStatus.Approved) {\n                result[idx] = e;\n                idx++;\n            }\n        }\n        return result;\n    }\n\n    /// @notice Returns the license number assigned to an address.\n    ///         Returns empty string if not yet assigned.\n    function getLicenseNumber(address _addr)\n        external\n        view\n        returns (string memory)\n    {\n        return entities[_addr].licenseNumber;\n    }\n\n    /// @notice Returns the wallet address registered under a given license number.\n    ///         Returns address(0) if not found.\n    function getAddressByLicense(string calldata _licenseNo)\n        external\n        view\n        returns (address)\n    {\n        return licenseToAddress[_licenseNo];\n    }\n\n    // ─────────────────────────────────────────────────────────────\n    // Internal Helpers\n    // ─────────────────────────────────────────────────────────────\n\n    /// @dev Removes an address from the pendingList array and\n    ///      clears its isPending flag. Uses swap-and-pop for O(n) removal.\n    function _removeFromPending(address _addr) internal {\n        if (!isPending[_addr]) return;\n\n        isPending[_addr] = false;\n\n        uint256 len = pendingList.length;\n        for (uint256 i = 0; i < len; i++) {\n            if (pendingList[i] == _addr) {\n                pendingList[i] = pendingList[len - 1];\n                pendingList.pop();\n                break;\n            }\n        }\n    }\n}\n",
  "sourcePath": "D:\\FYP Final\\Project\\medicine-supply-chain\\myProject\\contracts\\RegistryContract.sol",
  "compiler": {
    "name": "solc",
    "version": "0.8.20+commit.a1b79de6.Emscripten.clang"
  },
  "schemaVersion": "3.4.16",
  "updatedAt": "2026-04-25T20:02:47.175Z",
  "networkType": "ethereum",
  "devdoc": {
    "details": "Deploy this contract first; pass its address to the         constructor of ProductContract, TransferContract and         TraceContract.",
    "kind": "dev",
    "methods": {
      "approveEntity(address,string)": {
        "params": {
          "_entity": "Applicant wallet address.",
          "_licenseNo": "Unique license string (e.g. \"MFR-2024-001\")."
        }
      },
      "constructor": {
        "params": {
          "_admin": "The wallet address that will act as system admin.               Typically the deployer's address."
        }
      },
      "requestRegistration(uint8,string,string,string)": {
        "params": {
          "_email": "Contact email (stored off-chain ref only).",
          "_location": "City / address string.",
          "_name": "Full legal name / business name.",
          "_role": "One of: Manufacturer(2), Distributor(3),                   Supplier(4), Pharmacist(5). Cannot self-register as Admin."
        }
      }
    },
    "stateVariables": {
      "allRegistered": {
        "details": "All addresses that have ever submitted a registration request"
      },
      "entities": {
        "details": "Primary registry: wallet → Entity"
      },
      "isPending": {
        "details": "Quick set-membership for pendingList (avoid O(n) scan on removal)"
      },
      "licenseToAddress": {
        "details": "License number uniqueness guard: licenseNo → assigned address"
      },
      "pendingList": {
        "details": "Addresses currently awaiting admin decision"
      }
    },
    "title": "RegistryContract",
    "version": 1
  },
  "userdoc": {
    "kind": "user",
    "methods": {
      "approveEntity(address,string)": {
        "notice": "Approve a pending registration and assign a license number."
      },
      "getAddressByLicense(string)": {
        "notice": "Returns the wallet address registered under a given license number.         Returns address(0) if not found."
      },
      "getAllRegistered()": {
        "notice": "Returns all registered addresses (approved + pending + rejected + revoked)."
      },
      "getApprovedByRole(uint8)": {
        "notice": "Returns all entities of a specific role that are Approved.         Used by Manufacturer to list available Distributors, etc."
      },
      "getEntity(address)": {
        "notice": "Returns full entity record for an address."
      },
      "getEntityByLicense(string)": {
        "notice": "Lookup an entity by license number."
      },
      "getLicenseNumber(address)": {
        "notice": "Returns the license number assigned to an address.         Returns empty string if not yet assigned."
      },
      "getPendingEntities()": {
        "notice": "Returns the full list of pending requests with their Entity details.         Useful for the admin panel to render a table in one call."
      },
      "getPendingRequests()": {
        "notice": "Returns all pending registration requests (for the admin dashboard)."
      },
      "getRole(address)": {
        "notice": "Returns the role of an address regardless of approval status."
      },
      "getStatus(address)": {
        "notice": "Returns the approval status of an address."
      },
      "isApproved(address)": {
        "notice": "Returns true if the address is approved for ANY valid role."
      },
      "isApprovedWithRole(address,uint8)": {
        "notice": "Primary guard used by other contracts.         Returns true only if the address is Approved AND holds the expected role."
      },
      "reactivateEntity(address)": {
        "notice": "Re-approve a previously rejected or revoked entity         (e.g. after appeal), keeping the same license number."
      },
      "rejectEntity(address)": {
        "notice": "Reject a pending registration request."
      },
      "requestRegistration(uint8,string,string,string)": {
        "notice": "Submit a signup request. Admin must approve before the         entity can interact with other contracts."
      },
      "revokeEntity(address)": {
        "notice": "Revoke an already-approved entity (e.g. license violation).         The entity's on-chain record is preserved for audit purposes         but isApproved() will return false."
      },
      "transferAdmin(address)": {
        "notice": "Transfer admin rights to a new wallet.         The new admin must already be an approved entity OR         be a fresh address (role becomes Admin)."
      },
      "updateEntityDetails(address,string,string,string)": {
        "notice": "Admin can correct or update an entity's profile fields.         Does NOT change role or approval status."
      },
      "updateMyDetails(string,string)": {
        "notice": "Approved entities can update their own email and location.         Name and role changes require admin action."
      }
    },
    "notice": "Central identity & access-control registry for the         Blockchain-Based Medicine Supply Chain system.         All other contracts query this contract to verify         that a caller is approved and holds the correct role.",
    "version": 1
  }
}