{
  "contractName": "RegistryContract",
  "abi": [
    {
      "inputs": [
        {
          "internalType": "address",
          "name": "_admin",
          "type": "address"
        }
      ],
      "stateMutability": "nonpayable",
      "type": "constructor"
    },
    {
      "anonymous": false,
      "inputs": [
        {
          "indexed": true,
          "internalType": "address",
          "name": "previousAdmin",
          "type": "address"
        },
        {
          "indexed": true,
          "internalType": "address",
          "name": "newAdmin",
          "type": "address"
        }
      ],
      "name": "AdminTransferred",
      "type": "event"
    },
    {
      "anonymous": false,
      "inputs": [
        {
          "indexed": true,
          "internalType": "address",
          "name": "entity",
          "type": "address"
        },
        {
          "indexed": true,
          "internalType": "enum RegistryContract.Role",
          "name": "role",
          "type": "uint8"
        },
        {
          "indexed": false,
          "internalType": "string",
          "name": "licenseNumber",
          "type": "string"
        },
        {
          "indexed": true,
          "internalType": "address",
          "name": "approvedBy",
          "type": "address"
        },
        {
          "indexed": false,
          "internalType": "uint256",
          "name": "timestamp",
          "type": "uint256"
        }
      ],
      "name": "EntityApproved",
      "type": "event"
    },
    {
      "anonymous": false,
      "inputs": [
        {
          "indexed": true,
          "internalType": "address",
          "name": "entity",
          "type": "address"
        },
        {
          "indexed": false,
          "internalType": "uint256",
          "name": "timestamp",
          "type": "uint256"
        }
      ],
      "name": "EntityDetailsUpdated",
      "type": "event"
    },
    {
      "anonymous": false,
      "inputs": [
        {
          "indexed": true,
          "internalType": "address",
          "name": "entity",
          "type": "address"
        },
        {
          "indexed": true,
          "internalType": "address",
          "name": "reactivatedBy",
          "type": "address"
        },
        {
          "indexed": false,
          "internalType": "uint256",
          "name": "timestamp",
          "type": "uint256"
        }
      ],
      "name": "EntityReactivated",
      "type": "event"
    },
    {
      "anonymous": false,
      "inputs": [
        {
          "indexed": true,
          "internalType": "address",
          "name": "entity",
          "type": "address"
        },
        {
          "indexed": true,
          "internalType": "address",
          "name": "rejectedBy",
          "type": "address"
        },
        {
          "indexed": false,
          "internalType": "uint256",
          "name": "timestamp",
          "type": "uint256"
        }
      ],
      "name": "EntityRejected",
      "type": "event"
    },
    {
      "anonymous": false,
      "inputs": [
        {
          "indexed": true,
          "internalType": "address",
          "name": "entity",
          "type": "address"
        },
        {
          "indexed": true,
          "internalType": "address",
          "name": "revokedBy",
          "type": "address"
        },
        {
          "indexed": false,
          "internalType": "uint256",
          "name": "timestamp",
          "type": "uint256"
        }
      ],
      "name": "EntityRevoked",
      "type": "event"
    },
    {
      "anonymous": false,
      "inputs": [
        {
          "indexed": true,
          "internalType": "address",
          "name": "applicant",
          "type": "address"
        },
        {
          "indexed": true,
          "internalType": "enum RegistryContract.Role",
          "name": "role",
          "type": "uint8"
        },
        {
          "indexed": false,
          "internalType": "string",
          "name": "name",
          "type": "string"
        },
        {
          "indexed": false,
          "internalType": "uint256",
          "name": "timestamp",
          "type": "uint256"
        }
      ],
      "name": "RegistrationRequested",
      "type": "event"
    },
    {
      "inputs": [],
      "name": "admin",
      "outputs": [
        {
          "internalType": "address",
          "name": "",
          "type": "address"
        }
      ],
      "stateMutability": "view",
      "type": "function",
      "constant": true
    },
    {
      "inputs": [
        {
          "internalType": "enum RegistryContract.Role",
          "name": "_role",
          "type": "uint8"
        },
        {
          "internalType": "string",
          "name": "_name",
          "type": "string"
        },
        {
          "internalType": "string",
          "name": "_email",
          "type": "string"
        },
        {
          "internalType": "string",
          "name": "_location",
          "type": "string"
        },
        {
          "internalType": "string",
          "name": "_cnicFront",
          "type": "string"
        },
        {
          "internalType": "string",
          "name": "_cnicBack",
          "type": "string"
        },
        {
          "internalType": "string",
          "name": "_essentialDocs",
          "type": "string"
        }
      ],
      "name": "requestRegistration",
      "outputs": [],
      "stateMutability": "nonpayable",
      "type": "function"
    },
    {
      "inputs": [
        {
          "internalType": "address",
          "name": "_entity",
          "type": "address"
        },
        {
          "internalType": "string",
          "name": "_licenseNo",
          "type": "string"
        }
      ],
      "name": "approveEntity",
      "outputs": [],
      "stateMutability": "nonpayable",
      "type": "function"
    },
    {
      "inputs": [
        {
          "internalType": "address",
          "name": "_entity",
          "type": "address"
        },
        {
          "internalType": "string",
          "name": "_reason",
          "type": "string"
        }
      ],
      "name": "rejectEntity",
      "outputs": [],
      "stateMutability": "nonpayable",
      "type": "function"
    },
    {
      "inputs": [
        {
          "internalType": "address",
          "name": "_entity",
          "type": "address"
        }
      ],
      "name": "revokeEntity",
      "outputs": [],
      "stateMutability": "nonpayable",
      "type": "function"
    },
    {
      "inputs": [
        {
          "internalType": "address",
          "name": "_entity",
          "type": "address"
        }
      ],
      "name": "reactivateEntity",
      "outputs": [],
      "stateMutability": "nonpayable",
      "type": "function"
    },
    {
      "inputs": [
        {
          "internalType": "address",
          "name": "_entity",
          "type": "address"
        },
        {
          "internalType": "string",
          "name": "_name",
          "type": "string"
        },
        {
          "internalType": "string",
          "name": "_email",
          "type": "string"
        },
        {
          "internalType": "string",
          "name": "_location",
          "type": "string"
        }
      ],
      "name": "updateEntityDetails",
      "outputs": [],
      "stateMutability": "nonpayable",
      "type": "function"
    },
    {
      "inputs": [
        {
          "internalType": "string",
          "name": "_email",
          "type": "string"
        },
        {
          "internalType": "string",
          "name": "_location",
          "type": "string"
        }
      ],
      "name": "updateMyDetails",
      "outputs": [],
      "stateMutability": "nonpayable",
      "type": "function"
    },
    {
      "inputs": [
        {
          "internalType": "address",
          "name": "_newAdmin",
          "type": "address"
        }
      ],
      "name": "transferAdmin",
      "outputs": [],
      "stateMutability": "nonpayable",
      "type": "function"
    },
    {
      "inputs": [
        {
          "internalType": "address",
          "name": "_addr",
          "type": "address"
        },
        {
          "internalType": "enum RegistryContract.Role",
          "name": "_role",
          "type": "uint8"
        }
      ],
      "name": "isApprovedWithRole",
      "outputs": [
        {
          "internalType": "bool",
          "name": "",
          "type": "bool"
        }
      ],
      "stateMutability": "view",
      "type": "function",
      "constant": true
    },
    {
      "inputs": [
        {
          "internalType": "address",
          "name": "_addr",
          "type": "address"
        }
      ],
      "name": "isApproved",
      "outputs": [
        {
          "internalType": "bool",
          "name": "",
          "type": "bool"
        }
      ],
      "stateMutability": "view",
      "type": "function",
      "constant": true
    },
    {
      "inputs": [
        {
          "internalType": "address",
          "name": "_addr",
          "type": "address"
        }
      ],
      "name": "getRole",
      "outputs": [
        {
          "internalType": "enum RegistryContract.Role",
          "name": "",
          "type": "uint8"
        }
      ],
      "stateMutability": "view",
      "type": "function",
      "constant": true
    },
    {
      "inputs": [
        {
          "internalType": "address",
          "name": "_addr",
          "type": "address"
        }
      ],
      "name": "getStatus",
      "outputs": [
        {
          "internalType": "enum RegistryContract.ApprovalStatus",
          "name": "",
          "type": "uint8"
        }
      ],
      "stateMutability": "view",
      "type": "function",
      "constant": true
    },
    {
      "inputs": [
        {
          "internalType": "address",
          "name": "_addr",
          "type": "address"
        }
      ],
      "name": "getEntity",
      "outputs": [
        {
          "components": [
            {
              "internalType": "address",
              "name": "walletAddress",
              "type": "address"
            },
            {
              "internalType": "enum RegistryContract.Role",
              "name": "role",
              "type": "uint8"
            },
            {
              "internalType": "enum RegistryContract.ApprovalStatus",
              "name": "status",
              "type": "uint8"
            },
            {
              "internalType": "string",
              "name": "name",
              "type": "string"
            },
            {
              "internalType": "string",
              "name": "email",
              "type": "string"
            },
            {
              "internalType": "string",
              "name": "location",
              "type": "string"
            },
            {
              "internalType": "string",
              "name": "licenseNumber",
              "type": "string"
            },
            {
              "internalType": "string",
              "name": "cnicFront",
              "type": "string"
            },
            {
              "internalType": "string",
              "name": "cnicBack",
              "type": "string"
            },
            {
              "internalType": "string",
              "name": "essentialDocs",
              "type": "string"
            },
            {
              "internalType": "string",
              "name": "rejectionReason",
              "type": "string"
            },
            {
              "internalType": "uint256",
              "name": "registeredAt",
              "type": "uint256"
            },
            {
              "internalType": "uint256",
              "name": "approvedAt",
              "type": "uint256"
            },
            {
              "internalType": "bool",
              "name": "exists",
              "type": "bool"
            }
          ],
          "internalType": "struct RegistryContract.Entity",
          "name": "",
          "type": "tuple"
        }
      ],
      "stateMutability": "view",
      "type": "function",
      "constant": true
    },
    {
      "inputs": [
        {
          "internalType": "string",
          "name": "_licenseNo",
          "type": "string"
        }
      ],
      "name": "getEntityByLicense",
      "outputs": [
        {
          "components": [
            {
              "internalType": "address",
              "name": "walletAddress",
              "type": "address"
            },
            {
              "internalType": "enum RegistryContract.Role",
              "name": "role",
              "type": "uint8"
            },
            {
              "internalType": "enum RegistryContract.ApprovalStatus",
              "name": "status",
              "type": "uint8"
            },
            {
              "internalType": "string",
              "name": "name",
              "type": "string"
            },
            {
              "internalType": "string",
              "name": "email",
              "type": "string"
            },
            {
              "internalType": "string",
              "name": "location",
              "type": "string"
            },
            {
              "internalType": "string",
              "name": "licenseNumber",
              "type": "string"
            },
            {
              "internalType": "string",
              "name": "cnicFront",
              "type": "string"
            },
            {
              "internalType": "string",
              "name": "cnicBack",
              "type": "string"
            },
            {
              "internalType": "string",
              "name": "essentialDocs",
              "type": "string"
            },
            {
              "internalType": "string",
              "name": "rejectionReason",
              "type": "string"
            },
            {
              "internalType": "uint256",
              "name": "registeredAt",
              "type": "uint256"
            },
            {
              "internalType": "uint256",
              "name": "approvedAt",
              "type": "uint256"
            },
            {
              "internalType": "bool",
              "name": "exists",
              "type": "bool"
            }
          ],
          "internalType": "struct RegistryContract.Entity",
          "name": "",
          "type": "tuple"
        }
      ],
      "stateMutability": "view",
      "type": "function",
      "constant": true
    },
    {
      "inputs": [],
      "name": "getPendingRequests",
      "outputs": [
        {
          "internalType": "address[]",
          "name": "",
          "type": "address[]"
        }
      ],
      "stateMutability": "view",
      "type": "function",
      "constant": true
    },
    {
      "inputs": [],
      "name": "getPendingEntities",
      "outputs": [
        {
          "components": [
            {
              "internalType": "address",
              "name": "walletAddress",
              "type": "address"
            },
            {
              "internalType": "enum RegistryContract.Role",
              "name": "role",
              "type": "uint8"
            },
            {
              "internalType": "enum RegistryContract.ApprovalStatus",
              "name": "status",
              "type": "uint8"
            },
            {
              "internalType": "string",
              "name": "name",
              "type": "string"
            },
            {
              "internalType": "string",
              "name": "email",
              "type": "string"
            },
            {
              "internalType": "string",
              "name": "location",
              "type": "string"
            },
            {
              "internalType": "string",
              "name": "licenseNumber",
              "type": "string"
            },
            {
              "internalType": "string",
              "name": "cnicFront",
              "type": "string"
            },
            {
              "internalType": "string",
              "name": "cnicBack",
              "type": "string"
            },
            {
              "internalType": "string",
              "name": "essentialDocs",
              "type": "string"
            },
            {
              "internalType": "string",
              "name": "rejectionReason",
              "type": "string"
            },
            {
              "internalType": "uint256",
              "name": "registeredAt",
              "type": "uint256"
            },
            {
              "internalType": "uint256",
              "name": "approvedAt",
              "type": "uint256"
            },
            {
              "internalType": "bool",
              "name": "exists",
              "type": "bool"
            }
          ],
          "internalType": "struct RegistryContract.Entity[]",
          "name": "",
          "type": "tuple[]"
        }
      ],
      "stateMutability": "view",
      "type": "function",
      "constant": true
    },
    {
      "inputs": [],
      "name": "getAllRegistered",
      "outputs": [
        {
          "internalType": "address[]",
          "name": "",
          "type": "address[]"
        }
      ],
      "stateMutability": "view",
      "type": "function",
      "constant": true
    },
    {
      "inputs": [
        {
          "internalType": "enum RegistryContract.Role",
          "name": "_role",
          "type": "uint8"
        }
      ],
      "name": "getApprovedByRole",
      "outputs": [
        {
          "components": [
            {
              "internalType": "address",
              "name": "walletAddress",
              "type": "address"
            },
            {
              "internalType": "enum RegistryContract.Role",
              "name": "role",
              "type": "uint8"
            },
            {
              "internalType": "enum RegistryContract.ApprovalStatus",
              "name": "status",
              "type": "uint8"
            },
            {
              "internalType": "string",
              "name": "name",
              "type": "string"
            },
            {
              "internalType": "string",
              "name": "email",
              "type": "string"
            },
            {
              "internalType": "string",
              "name": "location",
              "type": "string"
            },
            {
              "internalType": "string",
              "name": "licenseNumber",
              "type": "string"
            },
            {
              "internalType": "string",
              "name": "cnicFront",
              "type": "string"
            },
            {
              "internalType": "string",
              "name": "cnicBack",
              "type": "string"
            },
            {
              "internalType": "string",
              "name": "essentialDocs",
              "type": "string"
            },
            {
              "internalType": "string",
              "name": "rejectionReason",
              "type": "string"
            },
            {
              "internalType": "uint256",
              "name": "registeredAt",
              "type": "uint256"
            },
            {
              "internalType": "uint256",
              "name": "approvedAt",
              "type": "uint256"
            },
            {
              "internalType": "bool",
              "name": "exists",
              "type": "bool"
            }
          ],
          "internalType": "struct RegistryContract.Entity[]",
          "name": "",
          "type": "tuple[]"
        }
      ],
      "stateMutability": "view",
      "type": "function",
      "constant": true
    },
    {
      "inputs": [
        {
          "internalType": "address",
          "name": "_addr",
          "type": "address"
        }
      ],
      "name": "getLicenseNumber",
      "outputs": [
        {
          "internalType": "string",
          "name": "",
          "type": "string"
        }
      ],
      "stateMutability": "view",
      "type": "function",
      "constant": true
    },
    {
      "inputs": [
        {
          "internalType": "string",
          "name": "_licenseNo",
          "type": "string"
        }
      ],
      "name": "getAddressByLicense",
      "outputs": [
        {
          "internalType": "address",
          "name": "",
          "type": "address"
        }
      ],
      "stateMutability": "view",
      "type": "function",
      "constant": true
    },
    {
      "inputs": [],
      "name": "getAllEntities",
      "outputs": [
        {
          "internalType": "address[]",
          "name": "",
          "type": "address[]"
        }
      ],
      "stateMutability": "view",
      "type": "function",
      "constant": true
    }
  ],
  "bytecode": "0x60803462000e3557601f620041e738819003918201601f19168301916001600160401b03831184841017620006e05780849260209460405283398101031262000e3557516001600160a01b038116810362000e35576001600160a01b0381161562000de157600080546001600160a01b0319166001600160a01b038316179055604051906101c082016001600160401b03811183821017620006e05760409081526001600160a01b038216835260016020840152600290830152620000c362000e3a565b600c81526b29bcb9ba32b69020b236b4b760a11b60208201526060830152620000eb62000e5a565b600081526080830152620000fe62000e5a565b6000815260a08301526200011162000e3a565b600981526841444d494e2d30303160b81b602082015260c08301526200013662000e5a565b6000815260e08301526200014962000e5a565b600081526101008301526200015d62000e5a565b600081526101208301526200017162000e5a565b60008152610140830152426101608301524261018083015260016101a083015260018060a01b038116600052600160205260406000209160018060a01b038151168354602083015191600683101562000dcb576040840151600581101562000dcb576001600160b01b03199092161760a09290921b60ff60a01b169190911760a89190911b60ff60a81b16178355606081015180519093906001600160401b038111620006e0576001820154600181811c9116801562000dc0575b6020821014620007c957601f811162000d74575b506020601f821160011462000d0057819293949560009262000cf4575b50508160011b916000199060031b1c19161760018201555b608082015180519093906001600160401b038111620006e0576002830154600181811c9116801562000ce9575b6020821014620007c957601f811162000c9d575b506020601f821160011462000c2957819293949560009262000c1d575b50508160011b916000199060031b1c19161760028301555b60a083015180519093906001600160401b038111620006e0576003840154600181811c9116801562000c12575b6020821014620007c957601f811162000bc6575b506020601f821160011462000b5257819293949560009262000b46575b50508160011b916000199060031b1c19161760038401555b60c081015180519093906001600160401b038111620006e0576004820154600181811c9116801562000b3b575b6020821014620007c957601f811162000aef575b506020601f821160011462000a7b57819293949560009262000a6f575b50508160011b916000199060031b1c19161760048201555b60e082015180519093906001600160401b038111620006e0576005830154600181811c9116801562000a64575b6020821014620007c957601f811162000a18575b506020601f8211600114620009a457819293949560009262000998575b50508160011b916000199060031b1c19161760058301555b61010083015180519093906001600160401b038111620006e0576006840154600181811c911680156200098d575b6020821014620007c957601f811162000941575b506020601f8211600114620008cd578192939495600092620008c1575b50508160011b916000199060031b1c19161760068401555b61012081015180519093906001600160401b038111620006e0576007820154600181811c91168015620008b6575b6020821014620007c957601f81116200086a575b506020601f8211600114620007f6578192939495600092620007ea575b50508160011b916000199060031b1c19161760078201555b6101408201518051906001600160401b038211620006e0576008830154600181811c91168015620007df575b6020821014620007c957601f81116200077d575b50602090601f8311600114620007025791806101a09492600b94600092620006f6575b50508160011b916000199060031b1c19161760088201555b6101608401516009820155610180840151600a82015501910151151560ff8019835416911617905560025468010000000000000000811015620006e0576001810180600255811015620006ca5760026000527f405787fa12a823e0f2b7631cc41b3ba8828b3321ca811111fa75cd3aa3bb5ace0180546001600160a01b03199081166001600160a01b0393909316928317909155604080516841444d494e2d30303160b81b8082526005600980840191909152602990922080549094168517909355815182815291820152606081019190915242602082015260019082907fb99357eaf041c6b4f9ef26c88b38609fbf977298507bb7570887fab2714679c290608090a460405161336c908162000e7b8239f35b634e487b7160e01b600052603260045260246000fd5b634e487b7160e01b600052604160045260246000fd5b0151905038806200059e565b906008840160005260206000209160005b601f1985168110620007645750926101a09492600192600b9583601f198116106200074a575b505050811b016008820155620005b6565b015160001960f88460031b161c1916905538808062000739565b9192602060018192868501518155019401920162000713565b600884016000526020600020601f840160051c810160208510620007c1575b601f830160051c82018110620007b45750506200057b565b600081556001016200079c565b50806200079c565b634e487b7160e01b600052602260045260246000fd5b90607f169062000567565b01519050388062000523565b6007830160005260206000209060005b601f198416811062000851575060019394959683601f1981161062000837575b505050811b0160078201556200053b565b015160001960f88460031b161c1916905538808062000826565b9091602060018192858b01518155019301910162000806565b600783016000526020600020601f830160051c810160208410620008ae575b601f830160051c82018110620008a157505062000506565b6000815560010162000889565b508062000889565b90607f1690620004f2565b015190503880620004ac565b6006850160005260206000209060005b601f198416811062000928575060019394959683601f198116106200090e575b505050811b016006840155620004c4565b015160001960f88460031b161c19169055388080620008fd565b9091602060018192858b015181550193019101620008dd565b600685016000526020600020601f830160051c81016020841062000985575b601f830160051c82018110620009785750506200048f565b6000815560010162000960565b508062000960565b90607f16906200047b565b01519050388062000435565b6005840160005260206000209060005b601f1984168110620009ff575060019394959683601f19811610620009e5575b505050811b0160058301556200044d565b015160001960f88460031b161c19169055388080620009d4565b9091602060018192858b015181550193019101620009b4565b600584016000526020600020601f830160051c81016020841062000a5c575b601f830160051c8201811062000a4f57505062000418565b6000815560010162000a37565b508062000a37565b90607f169062000404565b015190503880620003bf565b6004830160005260206000209060005b601f198416811062000ad6575060019394959683601f1981161062000abc575b505050811b016004820155620003d7565b015160001960f88460031b161c1916905538808062000aab565b9091602060018192858b01518155019301910162000a8b565b600483016000526020600020601f830160051c81016020841062000b33575b601f830160051c8201811062000b26575050620003a2565b6000815560010162000b0e565b508062000b0e565b90607f16906200038e565b01519050388062000349565b6003850160005260206000209060005b601f198416811062000bad575060019394959683601f1981161062000b93575b505050811b01600384015562000361565b015160001960f88460031b161c1916905538808062000b82565b9091602060018192858b01518155019301910162000b62565b600385016000526020600020601f830160051c81016020841062000c0a575b601f830160051c8201811062000bfd5750506200032c565b6000815560010162000be5565b508062000be5565b90607f169062000318565b015190503880620002d3565b6002840160005260206000209060005b601f198416811062000c84575060019394959683601f1981161062000c6a575b505050811b016002830155620002eb565b015160001960f88460031b161c1916905538808062000c59565b9091602060018192858b01518155019301910162000c39565b600284016000526020600020601f830160051c81016020841062000ce1575b601f830160051c8201811062000cd4575050620002b6565b6000815560010162000cbc565b508062000cbc565b90607f1690620002a2565b0151905038806200025d565b6001830160005260206000209060005b601f198416811062000d5b575060019394959683601f1981161062000d41575b505050811b01600182015562000275565b015160001960f88460031b161c1916905538808062000d30565b9091602060018192858b01518155019301910162000d10565b600183016000526020600020601f830160051c81016020841062000db8575b601f830160051c8201811062000dab57505062000240565b6000815560010162000d93565b508062000d93565b90607f16906200022c565b634e487b7160e01b600052602160045260246000fd5b60405162461bcd60e51b815260206004820152602660248201527f52656769737472793a2061646d696e2063616e6e6f74206265207a65726f206160448201526564647265737360d01b6064820152608490fd5b600080fd5b60408051919082016001600160401b03811183821017620006e057604052565b60405190602082016001600160401b03811183821017620006e05760405256fe608080604052600436101561001357600080fd5b60003560e01c908163030e46cb14612662575080630b88ded1146125cb57806312e0ba481461257057806330ccebb51461252b5780633c1a31431461228d5780634427673314612246578063518ce2b6146121c2578063673448dd1461215b578063693c79b214611faa57806372e52f5a14611f5957806375829def146115f057806375894e8c1461157b57806378d1dee1146114045780637d9d17b7146113385780637e69dae01461026557806380a1f712146112aa578063920fa06c146107235780639deaf8f114610598578063ab330f6b1461026a578063c85c0d3514610265578063d7b71f5f1461013f5763f851a4401461011157600080fd5b3461013a57600036600319011261013a576000546040516001600160a01b039091168152602090f35b600080fd5b3461013a57602036600319011261013a576101586128ee565b6000546001600160a01b0391906101729083163314612e83565b1680600052600160205261019060ff600b6040600020015416612ecf565b8060005260016020526040600020805460ff8160a81c16600581101561024f576002036101f75760ff60a81b1916600160aa1b1790556040514281523391907f1a66b2e2e4e77f417c0f793f30f1b62e1371ae6ec6e4e3c008d5d8059808d77490602090a3005b60405162461bcd60e51b815260206004820152602a60248201527f52656769737472793a20656e74697479206973206e6f742063757272656e746c6044820152691e48105c1c1c9bdd995960b21b6064820152608490fd5b634e487b7160e01b600052602160045260246000fd5b612b53565b3461013a57608036600319011261013a576102836128ee565b6001600160401b039060243582811161013a576102a49036906004016128c1565b9260443581811161013a576102bd9036906004016128c1565b909360643583811161013a576102d79036906004016128c1565b600054909791926001600160a01b03916102f49083163314612e83565b16958660005260019360209685885261031760ff600b6040600020015416612ecf565b610322841515612bd6565b88600052858852604060002093868501918882116104a15781906103508261034a8654612d31565b86612d6b565b600090601f83116001146105355760009261052a575b5050600019600383901b1c191690871b1790555b60028301918682116104a15761039a826103948554612d31565b85612d6b565b600090601f83116001146104c257600394939291600091836104b7575b505060001982861b1c191690861b1790555b019286116104a1576103df866103948554612d31565b600090601f87116001146104315795809281926000805160206133178339815191529798600094610426575b50501b916000199060031b1c19161790555b604051428152a2005b01359250888061040b565b9590601f1982169684600052856000209160005b89811061048c575083600080516020613317833981519152989910610472575b505050811b01905561041d565b0135600019600384901b60f8161c19169055868080610465565b82820135845592850192908701908701610445565b634e487b7160e01b600052604160045260246000fd5b013590508b806103b7565b918691949392601f19821690846000528a6000209160005b8c8282106105145750509683600398106104fc575b505050811b0190556103c9565b013560001983881b60f8161c191690558b80806104ef565b838a01358555988901988b9690940193016104da565b013590508c80610366565b60008581528c81208b95509290601f198516908e5b8282106105815750508411610567575b505050811b01905561037a565b0135600019600384901b60f8161c191690558c808061055a565b8385013586558d979095019492830192018e61054a565b3461013a5760208060031936011261013a57600660043581811015908161013a576000936000926002958654945b85811061069d57506105d790613193565b9460009260005b8681106105f757604051806105f38a82612aad565b0390f35b61060081612df0565b60018060a01b0391549060031b1c16600052600182526040600020805460ff86818360a01c169061024f578681101561024f5789149182610685575b5050610652575b5061064d906131e3565b6105de565b61064d919561066361067e92613085565b61066d828c613208565b52610678818b613208565b506131e3565b9490610643565b60a81c169050600581101561024f578a148b8061063c565b6106a681612df0565b60018060a01b0391549060031b1c166000526001845260406000205460ff84818360a01c169061024f578981101561024f578714918261070b575b50506106f6575b6106f1906131e3565b6105c6565b906107036106f1916131e3565b9190506106e8565b60a81c169050600581101561024f57881489806106e1565b3461013a5760e036600319011261013a576006600435101561013a576024356001600160401b03811161013a5761075e9036906004016128c1565b6044356001600160401b03811161013a5761077d9036906004016128c1565b6064356001600160401b03811161013a5761079c9036906004016128c1565b906084356001600160401b03811161013a576107bc9036906004016128c1565b9060a4356001600160401b03811161013a576107dc9036906004016128c1565b909290919060c4356001600160401b03811161013a576108009036906004016128c1565b95909633600052600160205260ff600b6040600020015416611249576000996002600435148015611239575b8b8115611228575b8115611216575b50156111bc5761084c8c1515612bd6565b891561117757811561112757604051996108658b612c22565b338b5261087760043560208d01612c97565b60408b01600190528d8d369061088c92612ca3565b60608c0152369061089c92612ca3565b60808a015236906108ac92612ca3565b60a08801526040516108bd81612c59565b6000815260c088015236906108d192612ca3565b60e086015236906108e192612ca3565b61010084015236906108f292612ca3565b61012082015260405161090481612c59565b60008152610140820152426101608201526101808101600090526101a0810160019052336000526001602052604060002090600160a01b60019003815116600160a01b60019003198354161782556020810151600681101561024f5761096a9083612ce9565b6040810151600581101561024f576109829083612d0d565b60608101518051906001600160401b0382116104a15781906109b4826109ab6001880154612d31565b60018801612d6b565b602090601f83116001146110b5576000926110aa575b50508160011b916000199060031b1c19161760018301555b60808101518051906001600160401b0382116104a1578190610a1482610a0b6002880154612d31565b60028801612d6b565b602090601f83116001146110385760009261102d575b50508160011b916000199060031b1c19161760028301555b60a08101518051906001600160401b0382116104a1578190610a7482610a6b6003880154612d31565b60038801612d6b565b602090601f8311600114610fbb57600092610fb0575b50508160011b916000199060031b1c19161760038301555b60c08101518051906001600160401b0382116104a1578190610ad482610acb6004880154612d31565b60048801612d6b565b602090601f8311600114610f3e57600092610f33575b50508160011b916000199060031b1c19161760048301555b60e08101518051906001600160401b0382116104a1578190610b3482610b2b6005880154612d31565b60058801612d6b565b602090601f8311600114610ec157600092610eb6575b50508160011b916000199060031b1c19161760058301555b6101008101518051906001600160401b0382116104a1578190610b9582610b8c6006880154612d31565b60068801612d6b565b602090601f8311600114610e4457600092610e39575b50508160011b916000199060031b1c19161760068301555b6101208101518051906001600160401b0382116104a1578190610bf682610bed6007880154612d31565b60078801612d6b565b602090601f8311600114610dc757600092610dbc575b50508160011b916000199060031b1c19161760078301555b61014081015180516001600160401b0381116104a1576008840191610c4d826103948554612d31565b602090601f8311600114610d495792826101a093610cb4979693600b96600092610d3e575b50508160011b916000199060031b1c19161790555b6101608101516009850155610180810151600a8501550151151591019060ff801983541691151516179055565b610cbd33612e29565b600354600160401b8110156104a157610cdf816001610ce69301600355612dbf565b3391612e0b565b3360005260046020526040600020600160ff1982541617905561024f577f1f77daf0cde58fb801ee20100afb681b11e993b40a01c40ee509f9b11053c49e60405180610d39600435953395429184612e54565b0390a3005b015190508b80610c72565b90601f198316918460005260206000209260005b818110610da4575093610cb4979693600b9693600193836101a09810610d8b575b505050811b019055610c87565b015160001960f88460031b161c191690558b8080610d7e565b92936020600181928786015181550195019301610d5d565b015190508780610c0c565b9250600785016000526020600020906000935b601f1984168510610e1e576001945083601f19811610610e05575b505050811b016007830155610c24565b015160001960f88460031b161c19169055878080610df5565b81810151835560209485019460019093019290910190610dda565b015190508780610bab565b9250600685016000526020600020906000935b601f1984168510610e9b576001945083601f19811610610e82575b505050811b016006830155610bc3565b015160001960f88460031b161c19169055878080610e72565b81810151835560209485019460019093019290910190610e57565b015190508780610b4a565b9250600585016000526020600020906000935b601f1984168510610f18576001945083601f19811610610eff575b505050811b016005830155610b62565b015160001960f88460031b161c19169055878080610eef565b81810151835560209485019460019093019290910190610ed4565b015190508780610aea565b9250600485016000526020600020906000935b601f1984168510610f95576001945083601f19811610610f7c575b505050811b016004830155610b02565b015160001960f88460031b161c19169055878080610f6c565b81810151835560209485019460019093019290910190610f51565b015190508780610a8a565b9250600385016000526020600020906000935b601f1984168510611012576001945083601f19811610610ff9575b505050811b016003830155610aa2565b015160001960f88460031b161c19169055878080610fe9565b81810151835560209485019460019093019290910190610fce565b015190508780610a2a565b9250600285016000526020600020906000935b601f198416851061108f576001945083601f19811610611076575b505050811b016002830155610a42565b015160001960f88460031b161c19169055878080611066565b8181015183556020948501946001909301929091019061104b565b0151905087806109ca565b9250600185016000526020600020906000935b601f198416851061110c576001945083601f198116106110f3575b505050811b0160018301556109e2565b015160001960f88460031b161c191690558780806110e3565b818101518355602094850194600190930192909101906110c8565b60405162461bcd60e51b815260206004820152602260248201527f52656769737472793a206c6f636174696f6e2063616e6e6f7420626520656d70604482015261747960f01b6064820152608490fd5b60405162461bcd60e51b815260206004820152601f60248201527f52656769737472793a20656d61696c2063616e6e6f7420626520656d707479006044820152606490fd5b60405162461bcd60e51b815260206004820152602c60248201527f52656769737472793a20696e76616c696420726f6c6520666f722073656c662d60448201526b3932b3b4b9ba3930ba34b7b760a11b6064820152608490fd5b905061024f576005600435148b61083b565b905061024f5760048035148b610834565b5060009a5060043560031461082c565b60405162461bcd60e51b815260206004820152603360248201527f52656769737472793a206164647265737320616c7265616479206861732061206044820152721c9959da5cdd1c985d1a5bdb881c9958dbdc99606a1b6064820152608490fd5b3461013a57600036600319011261013a57604051600380548083526000918252602080840193927fc2575a0e9e593c00f959f8c92f12db2869c3395a3b0502d05e2516446f71f85b92915b828210611318576105f38561130c81890382612c74565b60405191829182612b0f565b83546001600160a01b0316865294850194600193840193909101906112f5565b3461013a5760208060031936011261013a576004356001600160401b03811161013a576113699036906004016128c1565b611371612f79565b5080604051928337600590820190815281900382019020546001600160a01b031680156113c157600052600181526113ac6040600020613085565b906105f36040519282849384528301906129a1565b60405162461bcd60e51b815260048101839052601b60248201527a149959da5cdd1c9e4e881b1a58d95b9cd9481b9bdd08199bdd5b99602a1b6044820152606490fd5b3461013a5761141236612911565b909160018060a01b0361142a81600054163314612e83565b8116908160005260019360209480865261144e60ff600b6040600020015416612ecf565b83600052808652604060002080549060ff8260a81c1691600583101561024f5761147b8460089414612f1b565b60ff60a81b1916600360a81b17815501916001600160401b0386116104a1576114a8866103948554612d31565b600090601f87116001146115165795809281926114de979860009461150b575b50501b916000199060031b1c191617905561321c565b7f8d359aca665b1a62f2fd210777e6936c72df54cc65eefa41766cf20f746a075a604051924284523393a3005b0135925089806114c8565b9590601f1982169684600052886000209160005b8a8a8210611567575050836114de98991061154d575b505050811b01905561321c565b0135600019600384901b60f8161c19169055878080611540565b83830135855593860193918201910161152a565b3461013a57602036600319011261013a576115946128ee565b61159c612f79565b506001600160a01b03166000818152600160205260409020600b01546115c49060ff16612ecf565b60005260016020526105f36115dc6040600020613085565b6040519182916020835260208301906129a1565b3461013a57602036600319011261013a576116096128ee565b60005490611621336001600160a01b03841614612e83565b6001600160a01b03811615611f1b576001600160a01b0381811690831614611edc576001600160a01b031982166001600160a01b038281169182176000908155908416815260016020526040808220805461ffff60a01b19908116600160aa1b179091559282529020600b81015490919060ff16611ecb5750506040516116a781612c22565b6001600160a01b0382168152600160208201526002604080830191909152516116cf81612c3e565b600c81526b29bcb9ba32b69020b236b4b760a11b602082015260608201526040516116f981612c59565b60008152608082015260405161170e81612c59565b6000815260a082015260405161172381612c3e565b600e81526d20a226a4a716aa2920a729a322a960911b602082015260c082015260405161174f81612c59565b6000815260e082015260405161176481612c59565b6000815261010082015260405161177a81612c59565b6000815261012082015260405161179081612c59565b60008152610140820152426101608201524261018082015260016101a082015260018060a01b038216600052600160205260406000209060018060a01b0381511660018060a01b03198354161782556020810151600681101561024f576117f79083612ce9565b6040810151600581101561024f5761180f9083612d0d565b60608101518051906001600160401b0382116104a1578190611838826109ab6001880154612d31565b602090601f8311600114611e5957600092611e4e575b50508160011b916000199060031b1c19161760018301555b608081015180516001600160401b0381116104a15780600285019261188f8261034a8654612d31565b602090601f8311600114611de857600092611ddd575b50508160011b916000199060031b1c19161790555b60a081015180516001600160401b0381116104a1578060038501926118e38261034a8654612d31565b602090601f8311600114611d7757600092611d6c575b50508160011b916000199060031b1c19161790555b60c081015180516001600160401b0381116104a1578060048501926119378261034a8654612d31565b602090601f8311600114611d0657600092611cfb575b50508160011b916000199060031b1c19161790555b60e081015180516001600160401b0381116104a15780600585019261198b8261034a8654612d31565b602090601f8311600114611c9557600092611c8a575b50508160011b916000199060031b1c19161790555b61010081015180516001600160401b0381116104a1578060068501926119e08261034a8654612d31565b602090601f8311600114611c2457600092611c19575b50508160011b916000199060031b1c19161790555b61012081015180516001600160401b0381116104a157806007850192611a358261034a8654612d31565b602090601f8311600114611bb357600092611ba8575b50508160011b916000199060031b1c19161790555b610140810151805160088401916001600160401b0382116104a157611a89826103948554612d31565b602090601f8311600114611b365792826101a093611aee979693600b96600092611b2b5750508160011b916000199060031b1c19161790556101608101516009850155610180810151600a8501550151151591019060ff801983541691151516179055565b611af781612e29565b6001600160a01b0390811691167ff8ccb027dfcd135e000e9d45e6cc2d662578a8825d4c45b5e32e0adf67e79ec6600080a3005b015190508a80610c72565b90601f198316918460005260206000209260005b818110611b90575093611aee979693600b9693600193836101a09810611b7757505050811b019055610c87565b015160001960f88460031b161c191690558a8080610d7e565b92936020600181928786015181550195019301611b4a565b015190508780611a4b565b6000858152602081209350601f198516905b818110611c015750908460019594939210611be8575b505050811b019055611a60565b015160001960f88460031b161c19169055878080611bdb565b92936020600181928786015181550195019301611bc5565b0151905087806119f6565b6000858152602081209350601f198516905b818110611c725750908460019594939210611c59575b505050811b019055611a0b565b015160001960f88460031b161c19169055878080611c4c565b92936020600181928786015181550195019301611c36565b0151905087806119a1565b6000858152602081209350601f198516905b818110611ce35750908460019594939210611cca575b505050811b0190556119b6565b015160001960f88460031b161c19169055878080611cbd565b92936020600181928786015181550195019301611ca7565b01519050878061194d565b6000858152602081209350601f198516905b818110611d545750908460019594939210611d3b575b505050811b019055611962565b015160001960f88460031b161c19169055878080611d2e565b92936020600181928786015181550195019301611d18565b0151905087806118f9565b6000858152602081209350601f198516905b818110611dc55750908460019594939210611dac575b505050811b01905561190e565b015160001960f88460031b161c19169055878080611d9f565b92936020600181928786015181550195019301611d89565b0151905087806118a5565b6000858152602081209350601f198516905b818110611e365750908460019594939210611e1d575b505050811b0190556118ba565b015160001960f88460031b161c19169055878080611e10565b92936020600181928786015181550195019301611dfa565b01519050868061184e565b9250600185016000526020600020906000935b601f1984168510611eb0576001945083601f19811610611e97575b505050811b016001830155611866565b015160001960f88460031b161c19169055868080611e87565b81810151835560209485019460019093019290910190611e6c565b81541661020160a01b179055611af7565b60405162461bcd60e51b81526020600482015260176024820152762932b3b4b9ba393c9d1030b63932b0b23c9030b236b4b760491b6044820152606490fd5b60405162461bcd60e51b815260206004820152601660248201527552656769737472793a207a65726f206164647265737360501b6044820152606490fd5b3461013a57602036600319011261013a576001600160a01b03611f7a6128ee565b1660005260016020526105f3611f966004604060002001612fe1565b604051918291602083526020830190612961565b3461013a5760208060031936011261013a57611fc46128ee565b6000546001600160a01b039190611fde9083163314612e83565b168060005260018252611ffb60ff600b6040600020015416612ecf565b80600052600182526040600020805460ff8160a81c16600581101561024f5760038114908115612150575b50156120ed576120396004830154612d31565b156120835760ff60a81b1916600160a91b17815542600a90910181905560405190815233927fff0b22130054be234bcdda0c1c7c0868ef2feab7b8123d07ae5a50cb2574ef0291a3005b6084846040519062461bcd60e51b82526004820152604060248201527f52656769737472793a206e6f206c6963656e7365206e756d626572206f6e207260448201527f65636f72643b2075736520617070726f7665456e7469747920696e73746561646064820152fd5b60405162461bcd60e51b815260048101859052603560248201527f52656769737472793a20656e74697479206973206e6f7420696e2052656a6563604482015274746564206f72205265766f6b65642073746174757360581b6064820152608490fd5b600491501485612026565b3461013a57602036600319011261013a576001600160a01b0361217c6128ee565b166000526001602052604060002060ff600b8201541690816121a6575b6020826040519015158152f35b60ff91505460a81c16600581101561024f576002146020612199565b3461013a57600036600319011261013a57600380546121e081613193565b9160005b8281106121f957604051806105f38682612aad565b8061220661224192612dbf565b905490841b1c6001600160a01b0316600090815260016020526040902061222c90613085565b6122368287613208565b526106788186613208565b6121e4565b3461013a57602036600319011261013a576001600160a01b036122676128ee565b166000526001602052602060ff60406000205460a01c1661228b6040518092612954565bf35b3461013a5761229b36612911565b9060018060a01b036122b281600054163314612e83565b80841690816000526001946020958087526122d760ff600b6040600020015416612ecf565b8360005280875260406000209283549060ff8260a81c16600581101561024f57836123029114612f1b565b87156124d5576040518888823789818a81016005815203019020541661247e5760ff60a81b1916600160a91b17835560048301906001600160401b0387116104a157612358876123528454612d31565b84612d6b565b6000601f88116001146124125791878060ff9798999a936123be9695600093612407575b501b906000198b60031b1c19161790555b42600a8501556040519088888337600589830190815282900301902080546001600160a01b0319168617905561321c565b5460a01c1691600683101561024f576124027fb99357eaf041c6b4f9ef26c88b38609fbf977298507bb7570887fab2714679c2916040519182913397429184612e54565b0390a4005b8b013592508c61237c565b601f1988169083600052896000209160005b818110612469575091899a939160ff98999a6123be9796941061244f575b505089811b01905561238d565b8a013560001960038d901b60f8161c191690558a80612442565b89830135845592840192918b01918b01612424565b60405162461bcd60e51b815260048101899052602960248201527f52656769737472793a206c6963656e7365206e756d62657220616c726561647960448201526808185cdcda59db995960ba1b6064820152608490fd5b60405162461bcd60e51b8152600481018a9052602860248201527f52656769737472793a206c6963656e7365206e756d6265722063616e6e6f7420604482015267626520656d70747960c01b6064820152608490fd5b3461013a57602036600319011261013a576001600160a01b0361254c6128ee565b166000526001602052602060ff60406000205460a81c1661228b6040518092612904565b3461013a57602036600319011261013a576004356001600160401b03811161013a576125a260209136906004016128c1565b80604051928337600590820190815281900382019020546040516001600160a01b039091168152f35b3461013a57604036600319011261013a576125e46128ee565b60243590600682101561013a576001600160a01b03166000908152600160205260409020600b81015460ff169081612646575b81612629576020826040519015158152f35b60ff91505460a01c1690600682101561024f576020911482612199565b905060ff815460a81c16600581101561024f5760021490612617565b3461013a57604036600319011261013a576001600160401b0360043581811161013a576126939036906004016128c1565b60243583811161013a576126ab9036906004016128c1565b913360005260019360209685885260ff60406000205460a81c16600581101561024f5760020361286c57503360005284875260406000209160028301918782116104a1576126fd826103948554612d31565b600090601f831160011461280457600394939291600091836127f9575b505060001982861b1c191690871b1790555b019382116104a1576127428261034a8654612d31565b600090601f83116001146127965792829391839260009461278b575b50501b916000199060031b1c19161790555b600080516020613317833981519152604051914283523392a2005b01359250868061275e565b601f198316918560005283876000209360005b89888383106127e257505050106127c8575b505050811b019055612770565b0135600019600384901b60f8161c191690558480806127bb565b8587013588559096019593840193879350016127a9565b013590508a8061271a565b918791949392601f19821690846000528b6000209160005b8d82821061285657505096836003981061283e575b505050811b01905561272c565b013560001983881b60f8161c191690558a8080612831565b838a01358555988901988c96909401930161281c565b62461bcd60e51b815260048101889052602a60248201527f52656769737472793a2063616c6c6572206973206e6f7420616e20617070726f60448201526976656420656e7469747960b01b6064820152608490fd5b9181601f8401121561013a578235916001600160401b03831161013a576020838186019501011161013a57565b600435906001600160a01b038216820361013a57565b90600582101561024f5752565b90604060031983011261013a576004356001600160a01b038116810361013a5791602435906001600160401b03821161013a57612950916004016128c1565b9091565b90600682101561024f5752565b919082519283825260005b84811061298d575050826000602080949584010152601f8019910116010190565b60208183018101518483018201520161296c565b80516001600160a01b031682526020808201519192916129c391830190612954565b6129d560408301516040830190612904565b612a87612a73612a5f612a4b612a39612a27612a15612a0360608a01516101c08060608c01528a0190612961565b60808a015189820360808b0152612961565b60a089015188820360a08a0152612961565b60c088015187820360c0890152612961565b60e087015186820360e0880152612961565b610100808701519086830390870152612961565b610120808601519085830390860152612961565b610140808501519084830390850152612961565b91610160808201519083015261018080820151908301526101a080910151151591015290565b602080820190808352835180925260408301928160408460051b8301019501936000915b848310612ae15750505050505090565b9091929394958480612aff600193603f198682030187528a516129a1565b9801930193019194939290612ad1565b6020908160408183019282815285518094520193019160005b828110612b36575050505090565b83516001600160a01b031685529381019392810192600101612b28565b3461013a57600080600319360112612bd357604051600280548083529083526020808301937f405787fa12a823e0f2b7631cc41b3ba8828b3321ca811111fa75cd3aa3bb5ace92915b828210612bb3576105f38561130c81890382612c74565b83546001600160a01b031686529485019460019384019390910190612b9c565b80fd5b15612bdd57565b60405162461bcd60e51b815260206004820152601e60248201527f52656769737472793a206e616d652063616e6e6f7420626520656d70747900006044820152606490fd5b6101c081019081106001600160401b038211176104a157604052565b604081019081106001600160401b038211176104a157604052565b602081019081106001600160401b038211176104a157604052565b601f909101601f19168101906001600160401b038211908210176104a157604052565b600682101561024f5752565b9192916001600160401b0382116104a15760405191612ccc601f8201601f191660200184612c74565b82948184528183011161013a578281602093846000960137010152565b90600681101561024f57815460ff60a01b191660a09190911b60ff60a01b16179055565b90600581101561024f57815460ff60a81b191660a89190911b60ff60a81b16179055565b90600182811c92168015612d61575b6020831014612d4b57565b634e487b7160e01b600052602260045260246000fd5b91607f1691612d40565b90601f8111612d7957505050565b600091825260208220906020601f850160051c83019410612db5575b601f0160051c01915b828110612daa57505050565b818155600101612d9e565b9092508290612d95565b600354811015612dda57600360005260206000200190600090565b634e487b7160e01b600052603260045260246000fd5b600254811015612dda57600260005260206000200190600090565b919082549060031b9160018060a01b03809116831b921b1916179055565b60025490600160401b8210156104a157612e4c826001612e529401600255612df0565b90612e0b565b565b9392918060609160209360408852816040890152838801376000828288010152601f8019910116850101930152565b15612e8a57565b60405162461bcd60e51b815260206004820152601d60248201527f52656769737472793a2063616c6c6572206973206e6f742061646d696e0000006044820152606490fd5b15612ed657565b60405162461bcd60e51b815260206004820152601f60248201527f52656769737472793a20656e7469747920646f6573206e6f74206578697374006044820152606490fd5b15612f2257565b60405162461bcd60e51b815260206004820152602960248201527f52656769737472793a20656e74697479206973206e6f7420696e2050656e64696044820152686e672073746174757360b81b6064820152608490fd5b60405190612f8682612c22565b816101a0600091828152826020820152826040820152606080808301528060808301528060a08301528060c08301528060e0830152806101008301528061012083015261014082015282610160820152826101808201520152565b9060405191826000825492612ff584612d31565b908184526001948581169081600014613062575060011461301f575b5050612e5292500383612c74565b9093915060005260209081600020936000915b81831061304a575050612e5293508201013880613011565b85548884018501529485019487945091830191613032565b915050612e5294506020925060ff191682840152151560051b8201013880613011565b9060405161309281612c22565b809260ff815460018060a01b03811684526130b5828260a01c1660208601612c97565b60a81c1690600582101561024f57600b60ff916101a09360408601526130dd60018201612fe1565b60608601526130ee60028201612fe1565b60808601526130ff60038201612fe1565b60a086015261311060048201612fe1565b60c086015261312160058201612fe1565b60e086015261313260068201612fe1565b61010086015261314460078201612fe1565b61012086015261315660088201612fe1565b6101408601526009810154610160860152600a8101546101808601520154161515910152565b6001600160401b0381116104a15760051b60200190565b9061319d8261317c565b6131aa6040519182612c74565b82815280926131bb601f199161317c565b019060005b8281106131cc57505050565b6020906131d7612f79565b828285010152016131c0565b60001981146131f25760010190565b634e487b7160e01b600052601160045260246000fd5b8051821015612dda5760209160051b010190565b60018060a01b038091169060008281526004908160205260408120805460ff81161561330e5760ff19169055600391825491805b838110613261575b50505050505050565b868661326c83612dbf565b905490881b1c161461328657613281906131e3565b613250565b94955092936000199391928481019081116132fb5790612e4c876132ac6132b994612dbf565b905490891b1c1691612dbf565b83549182156132e857505001916132cf83612dbf565b9091825491841b1b191690555538808080808080613258565b634e487b7160e01b825260319052602490fd5b634e487b7160e01b835260118452602483fd5b50505050505056fe22e408821d014865f7272491db504e0432b9eb1f6dd8d3c86b75407db0d584f8a2646970667358221220ae2786447b7202b3abb06875e6a261033f956629b7870248dc2ead525405222264736f6c63430008140033",
  "immutableReferences": {},
  "source": "// SPDX-License-Identifier: MIT\npragma solidity ^0.8.20;\n\n/// @title  RegistryContract\n/// @notice Central identity & access-control registry for the\n///         Blockchain-Based Medicine Supply Chain system.\n///         All other contracts query this contract to verify\n///         that a caller is approved and holds the correct role.\n/// @dev    Deploy this contract first; pass its address to the\n///         constructor of ProductContract, TransferContract and\n///         TraceContract.\ncontract RegistryContract {\n\n    // ─────────────────────────────────────────────────────────────\n    // Enums\n    // ─────────────────────────────────────────────────────────────\n\n    /// @dev Roles a wallet address can hold in the system.\n    ///      Unregistered wallets have role = None.\n    enum Role {\n        None,           // 0 – not registered\n        Admin,          // 1\n        Manufacturer,   // 2\n        Distributor,    // 3\n        Supplier,       // 4\n        Pharmacist      // 5\n    }\n\n    /// @dev Lifecycle of a registration request.\n    enum ApprovalStatus {\n        None,       // 0 – never applied\n        Pending,    // 1 – awaiting admin decision\n        Approved,   // 2 – active in the system\n        Rejected,   // 3 – denied by admin\n        Revoked     // 4 – previously approved, now disabled\n    }\n\n    // ─────────────────────────────────────────────────────────────\n    // Structs\n    // ─────────────────────────────────────────────────────────────\n\n    struct Entity {\n        address         walletAddress;\n        Role            role;\n        ApprovalStatus  status;\n        string          name;\n        string          email;\n        string          location;\n        string          licenseNumber;   // assigned by admin on approval\n        string          cnicFront;       // IPFS CID\n        string          cnicBack;        // IPFS CID\n        string          essentialDocs;   // IPFS CID\n        string          rejectionReason; // Reason for rejection\n        uint256         registeredAt;    // block.timestamp of registration request\n        uint256         approvedAt;      // block.timestamp of admin approval (0 if not yet)\n        bool            exists;          // guard for mapping lookup\n    }\n\n    // ─────────────────────────────────────────────────────────────\n    // State Variables\n    // ─────────────────────────────────────────────────────────────\n\n    address public admin;\n\n    /// @dev Primary registry: wallet → Entity\n    mapping(address => Entity) private entities;\n\n    /// @dev All addresses that have ever submitted a registration request\n    address[] private allRegistered;\n\n    /// @dev Addresses currently awaiting admin decision\n    address[] private pendingList;\n\n    /// @dev Quick set-membership for pendingList (avoid O(n) scan on removal)\n    mapping(address => bool) private isPending;\n\n    /// @dev License number uniqueness guard: licenseNo → assigned address\n    mapping(string => address) private licenseToAddress;\n\n    // ─────────────────────────────────────────────────────────────\n    // Events\n    // ─────────────────────────────────────────────────────────────\n\n    event AdminTransferred(address indexed previousAdmin, address indexed newAdmin);\n\n    event RegistrationRequested(\n        address indexed applicant,\n        Role    indexed role,\n        string          name,\n        uint256         timestamp\n    );\n\n    event EntityApproved(\n        address indexed entity,\n        Role    indexed role,\n        string          licenseNumber,\n        address indexed approvedBy,\n        uint256         timestamp\n    );\n\n    event EntityRejected(\n        address indexed entity,\n        address indexed rejectedBy,\n        uint256         timestamp\n    );\n\n    event EntityRevoked(\n        address indexed entity,\n        address indexed revokedBy,\n        uint256         timestamp\n    );\n\n    event EntityReactivated(\n        address indexed entity,\n        address indexed reactivatedBy,\n        uint256         timestamp\n    );\n\n    event EntityDetailsUpdated(\n        address indexed entity,\n        uint256         timestamp\n    );\n\n    // ─────────────────────────────────────────────────────────────\n    // Modifiers\n    // ─────────────────────────────────────────────────────────────\n\n    modifier onlyAdmin() {\n        require(msg.sender == admin, \"Registry: caller is not admin\");\n        _;\n    }\n\n    modifier onlyApproved() {\n        require(\n            entities[msg.sender].status == ApprovalStatus.Approved,\n            \"Registry: caller is not an approved entity\"\n        );\n        _;\n    }\n\n    modifier notAlreadyRegistered() {\n        require(\n            !entities[msg.sender].exists,\n            \"Registry: address already has a registration record\"\n        );\n        _;\n    }\n\n    modifier entityExists(address _addr) {\n        require(entities[_addr].exists, \"Registry: entity does not exist\");\n        _;\n    }\n\n    // ─────────────────────────────────────────────────────────────\n    // Constructor\n    // ─────────────────────────────────────────────────────────────\n\n    /// @param _admin The wallet address that will act as system admin.\n    ///               Typically the deployer's address.\n    constructor(address _admin) {\n        require(_admin != address(0), \"Registry: admin cannot be zero address\");\n        admin = _admin;\n\n        // Register admin entity internally (no approval needed)\n        entities[_admin] = Entity({\n            walletAddress:  _admin,\n            role:           Role.Admin,\n            status:         ApprovalStatus.Approved,\n            name:           \"System Admin\",\n            email:          \"\",\n            location:       \"\",\n            licenseNumber:  \"ADMIN-001\",\n            cnicFront:      \"\",\n            cnicBack:       \"\",\n            essentialDocs:  \"\",\n            rejectionReason:\"\",\n            registeredAt:   block.timestamp,\n            approvedAt:     block.timestamp,\n            exists:         true\n        });\n\n        allRegistered.push(_admin);\n        licenseToAddress[\"ADMIN-001\"] = _admin;\n\n        emit EntityApproved(_admin, Role.Admin, \"ADMIN-001\", _admin, block.timestamp);\n    }\n\n    // ─────────────────────────────────────────────────────────────\n    // Registration (Public — called by applicants)\n    // ─────────────────────────────────────────────────────────────\n\n    /// @notice Submit a signup request. Admin must approve before the\n    ///         entity can interact with other contracts.\n    /// @param  _role     One of: Manufacturer(2), Distributor(3),\n    ///                   Supplier(4), Pharmacist(5). Cannot self-register as Admin.\n    /// @param  _name     Full legal name / business name.\n    /// @param  _email    Contact email (stored off-chain ref only).\n    /// @param  _location City / address string.\n    function requestRegistration(\n        Role   _role,\n        string calldata _name,\n        string calldata _email,\n        string calldata _location,\n        string calldata _cnicFront,\n        string calldata _cnicBack,\n        string calldata _essentialDocs\n    )\n        external\n        notAlreadyRegistered\n    {\n        require(\n            _role == Role.Manufacturer ||\n            _role == Role.Distributor  ||\n            _role == Role.Supplier     ||\n            _role == Role.Pharmacist,\n            \"Registry: invalid role for self-registration\"\n        );\n        require(bytes(_name).length > 0,     \"Registry: name cannot be empty\");\n        require(bytes(_email).length > 0,    \"Registry: email cannot be empty\");\n        require(bytes(_location).length > 0, \"Registry: location cannot be empty\");\n\n        entities[msg.sender] = Entity({\n            walletAddress:  msg.sender,\n            role:           _role,\n            status:         ApprovalStatus.Pending,\n            name:           _name,\n            email:          _email,\n            location:       _location,\n            licenseNumber:  \"\",           \n            cnicFront:      _cnicFront,\n            cnicBack:       _cnicBack,\n            essentialDocs:  _essentialDocs,\n            rejectionReason:\"\",\n            registeredAt:   block.timestamp,\n            approvedAt:     0,\n            exists:         true\n        });\n\n        allRegistered.push(msg.sender);\n        pendingList.push(msg.sender);\n        isPending[msg.sender] = true;\n\n        emit RegistrationRequested(msg.sender, _role, _name, block.timestamp);\n    }\n\n    // ─────────────────────────────────────────────────────────────\n    // Admin — Approval / Rejection / Revocation\n    // ─────────────────────────────────────────────────────────────\n\n    /// @notice Approve a pending registration and assign a license number.\n    /// @param  _entity     Applicant wallet address.\n    /// @param  _licenseNo  Unique license string (e.g. \"MFR-2024-001\").\n    function approveEntity(address _entity, string calldata _licenseNo)\n        external\n        onlyAdmin\n        entityExists(_entity)\n    {\n        Entity storage e = entities[_entity];\n\n        require(\n            e.status == ApprovalStatus.Pending,\n            \"Registry: entity is not in Pending status\"\n        );\n        require(bytes(_licenseNo).length > 0, \"Registry: license number cannot be empty\");\n        require(\n            licenseToAddress[_licenseNo] == address(0),\n            \"Registry: license number already assigned\"\n        );\n\n        e.status        = ApprovalStatus.Approved;\n        e.licenseNumber = _licenseNo;\n        e.approvedAt    = block.timestamp;\n\n        licenseToAddress[_licenseNo] = _entity;\n        _removeFromPending(_entity);\n\n        emit EntityApproved(_entity, e.role, _licenseNo, msg.sender, block.timestamp);\n    }\n\n    /// @notice Reject a pending registration request.\n    function rejectEntity(address _entity, string calldata _reason)\n        external\n        onlyAdmin\n        entityExists(_entity)\n    {\n        Entity storage e = entities[_entity];\n\n        require(\n            e.status == ApprovalStatus.Pending,\n            \"Registry: entity is not in Pending status\"\n        );\n\n        e.status = ApprovalStatus.Rejected;\n        e.rejectionReason = _reason;\n        _removeFromPending(_entity);\n\n        emit EntityRejected(_entity, msg.sender, block.timestamp);\n    }\n\n    /// @notice Revoke an already-approved entity (e.g. license violation).\n    ///         The entity's on-chain record is preserved for audit purposes\n    ///         but isApproved() will return false.\n    function revokeEntity(address _entity)\n        external\n        onlyAdmin\n        entityExists(_entity)\n    {\n        Entity storage e = entities[_entity];\n\n        require(\n            e.status == ApprovalStatus.Approved,\n            \"Registry: entity is not currently Approved\"\n        );\n\n        e.status = ApprovalStatus.Revoked;\n\n        emit EntityRevoked(_entity, msg.sender, block.timestamp);\n    }\n\n    /// @notice Re-approve a previously rejected or revoked entity\n    ///         (e.g. after appeal), keeping the same license number.\n    function reactivateEntity(address _entity)\n        external\n        onlyAdmin\n        entityExists(_entity)\n    {\n        Entity storage e = entities[_entity];\n\n        require(\n            e.status == ApprovalStatus.Rejected ||\n            e.status == ApprovalStatus.Revoked,\n            \"Registry: entity is not in Rejected or Revoked status\"\n        );\n        require(\n            bytes(e.licenseNumber).length > 0,\n            \"Registry: no license number on record; use approveEntity instead\"\n        );\n\n        e.status     = ApprovalStatus.Approved;\n        e.approvedAt = block.timestamp;\n\n        emit EntityReactivated(_entity, msg.sender, block.timestamp);\n    }\n\n    // ─────────────────────────────────────────────────────────────\n    // Admin — Update Entity Details\n    // ─────────────────────────────────────────────────────────────\n\n    /// @notice Admin can correct or update an entity's profile fields.\n    ///         Does NOT change role or approval status.\n    function updateEntityDetails(\n        address        _entity,\n        string calldata _name,\n        string calldata _email,\n        string calldata _location\n    )\n        external\n        onlyAdmin\n        entityExists(_entity)\n    {\n        require(bytes(_name).length > 0, \"Registry: name cannot be empty\");\n\n        Entity storage e = entities[_entity];\n        e.name     = _name;\n        e.email    = _email;\n        e.location = _location;\n\n        emit EntityDetailsUpdated(_entity, block.timestamp);\n    }\n\n    // ─────────────────────────────────────────────────────────────\n    // Self-Update (Approved entities only)\n    // ─────────────────────────────────────────────────────────────\n\n    /// @notice Approved entities can update their own email and location.\n    ///         Name and role changes require admin action.\n    function updateMyDetails(\n        string calldata _email,\n        string calldata _location\n    )\n        external\n        onlyApproved\n    {\n        Entity storage e = entities[msg.sender];\n        e.email    = _email;\n        e.location = _location;\n\n        emit EntityDetailsUpdated(msg.sender, block.timestamp);\n    }\n\n    // ─────────────────────────────────────────────────────────────\n    // Admin Transfer\n    // ─────────────────────────────────────────────────────────────\n\n    /// @notice Transfer admin rights to a new wallet.\n    ///         The new admin must already be an approved entity OR\n    ///         be a fresh address (role becomes Admin).\n    function transferAdmin(address _newAdmin) external onlyAdmin {\n        require(_newAdmin != address(0), \"Registry: zero address\");\n        require(_newAdmin != admin,      \"Registry: already admin\");\n\n        address oldAdmin = admin;\n        admin = _newAdmin;\n\n        // Update the old admin entity record\n        entities[oldAdmin].role   = Role.None;\n        entities[oldAdmin].status = ApprovalStatus.Revoked;\n\n        // Create or update new admin record\n        if (!entities[_newAdmin].exists) {\n            entities[_newAdmin] = Entity({\n                walletAddress:  _newAdmin,\n                role:           Role.Admin,\n                status:         ApprovalStatus.Approved,\n                name:           \"System Admin\",\n                email:          \"\",\n                location:       \"\",\n                licenseNumber:  \"ADMIN-TRANSFER\",\n                cnicFront:      \"\",\n                cnicBack:       \"\",\n                essentialDocs:  \"\",\n                rejectionReason:\"\",\n                registeredAt:   block.timestamp,\n                approvedAt:     block.timestamp,\n                exists:         true\n            });\n            allRegistered.push(_newAdmin);\n        } else {\n            entities[_newAdmin].role   = Role.Admin;\n            entities[_newAdmin].status = ApprovalStatus.Approved;\n        }\n\n        emit AdminTransferred(oldAdmin, _newAdmin);\n    }\n\n    // ─────────────────────────────────────────────────────────────\n    // View / Query Functions (called by other contracts & frontend)\n    // ─────────────────────────────────────────────────────────────\n\n    /// @notice Primary guard used by other contracts.\n    ///         Returns true only if the address is Approved AND holds the expected role.\n    function isApprovedWithRole(address _addr, Role _role)\n        external\n        view\n        returns (bool)\n    {\n        Entity storage e = entities[_addr];\n        return e.exists &&\n               e.status == ApprovalStatus.Approved &&\n               e.role   == _role;\n    }\n\n    /// @notice Returns true if the address is approved for ANY valid role.\n    function isApproved(address _addr) external view returns (bool) {\n        return entities[_addr].exists &&\n               entities[_addr].status == ApprovalStatus.Approved;\n    }\n\n    /// @notice Returns the role of an address regardless of approval status.\n    function getRole(address _addr) external view returns (Role) {\n        return entities[_addr].role;\n    }\n\n    /// @notice Returns the approval status of an address.\n    function getStatus(address _addr) external view returns (ApprovalStatus) {\n        return entities[_addr].status;\n    }\n\n    /// @notice Returns full entity record for an address.\n    function getEntity(address _addr)\n        external\n        view\n        entityExists(_addr)\n        returns (Entity memory)\n    {\n        return entities[_addr];\n    }\n\n    /// @notice Lookup an entity by license number.\n    function getEntityByLicense(string calldata _licenseNo)\n        external\n        view\n        returns (Entity memory)\n    {\n        address addr = licenseToAddress[_licenseNo];\n        require(addr != address(0), \"Registry: license not found\");\n        return entities[addr];\n    }\n\n    /// @notice Returns all pending registration requests (for the admin dashboard).\n    function getPendingRequests() external view returns (address[] memory) {\n        return pendingList;\n    }\n\n    /// @notice Returns the full list of pending requests with their Entity details.\n    ///         Useful for the admin panel to render a table in one call.\n    function getPendingEntities() external view returns (Entity[] memory) {\n        uint256 len = pendingList.length;\n        Entity[] memory result = new Entity[](len);\n        for (uint256 i = 0; i < len; i++) {\n            result[i] = entities[pendingList[i]];\n        }\n        return result;\n    }\n\n    /// @notice Returns all registered addresses (approved + pending + rejected + revoked).\n    function getAllRegistered() external view returns (address[] memory) {\n        return allRegistered;\n    }\n\n    /// @notice Returns all entities of a specific role that are Approved.\n    ///         Used by Manufacturer to list available Distributors, etc.\n    function getApprovedByRole(Role _role)\n        external\n        view\n        returns (Entity[] memory)\n    {\n        // First pass: count\n        uint256 count = 0;\n        for (uint256 i = 0; i < allRegistered.length; i++) {\n            Entity storage e = entities[allRegistered[i]];\n            if (e.role == _role && e.status == ApprovalStatus.Approved) {\n                count++;\n            }\n        }\n\n        // Second pass: fill\n        Entity[] memory result = new Entity[](count);\n        uint256 idx = 0;\n        for (uint256 i = 0; i < allRegistered.length; i++) {\n            Entity storage e = entities[allRegistered[i]];\n            if (e.role == _role && e.status == ApprovalStatus.Approved) {\n                result[idx] = e;\n                idx++;\n            }\n        }\n        return result;\n    }\n\n    /// @notice Returns the license number assigned to an address.\n    ///         Returns empty string if not yet assigned.\n    function getLicenseNumber(address _addr)\n        external\n        view\n        returns (string memory)\n    {\n        return entities[_addr].licenseNumber;\n    }\n\n    /// @notice Returns the wallet address registered under a given license number.\n    ///         Returns address(0) if not found.\n    function getAddressByLicense(string calldata _licenseNo)\n        external\n        view\n        returns (address)\n    {\n        return licenseToAddress[_licenseNo];\n    }\n\n    // ─────────────────────────────────────────────────────────────\n    // Internal Helpers\n    // ─────────────────────────────────────────────────────────────\n\n    /// @dev Removes an address from the pendingList array and\n    ///      clears its isPending flag. Uses swap-and-pop for O(n) removal.\n    function _removeFromPending(address _addr) internal {\n        if (!isPending[_addr]) return;\n\n        isPending[_addr] = false;\n\n        uint256 len = pendingList.length;\n        for (uint256 i = 0; i < len; i++) {\n            if (pendingList[i] == _addr) {\n                pendingList[i] = pendingList[len - 1];\n                pendingList.pop();\n                break;\n            }\n        }\n    }\n    function getAllEntities() external view returns (address[] memory) {\n        return allRegistered;\n    }\n}\n",
  "sourcePath": "D:\\FYP Final\\Project\\medicine-supply-chain\\myProject\\contracts\\RegistryContract.sol",
  "compiler": {
    "name": "solc",
    "version": "0.8.20+commit.a1b79de6.Emscripten.clang"
  },
  "schemaVersion": "3.4.16",
  "updatedAt": "2026-04-25T21:07:52.618Z",
  "networkType": "ethereum",
  "devdoc": {
    "details": "Deploy this contract first; pass its address to the         constructor of ProductContract, TransferContract and         TraceContract.",
    "kind": "dev",
    "methods": {
      "approveEntity(address,string)": {
        "params": {
          "_entity": "Applicant wallet address.",
          "_licenseNo": "Unique license string (e.g. \"MFR-2024-001\")."
        }
      },
      "constructor": {
        "params": {
          "_admin": "The wallet address that will act as system admin.               Typically the deployer's address."
        }
      },
      "requestRegistration(uint8,string,string,string,string,string,string)": {
        "params": {
          "_email": "Contact email (stored off-chain ref only).",
          "_location": "City / address string.",
          "_name": "Full legal name / business name.",
          "_role": "One of: Manufacturer(2), Distributor(3),                   Supplier(4), Pharmacist(5). Cannot self-register as Admin."
        }
      }
    },
    "stateVariables": {
      "allRegistered": {
        "details": "All addresses that have ever submitted a registration request"
      },
      "entities": {
        "details": "Primary registry: wallet → Entity"
      },
      "isPending": {
        "details": "Quick set-membership for pendingList (avoid O(n) scan on removal)"
      },
      "licenseToAddress": {
        "details": "License number uniqueness guard: licenseNo → assigned address"
      },
      "pendingList": {
        "details": "Addresses currently awaiting admin decision"
      }
    },
    "title": "RegistryContract",
    "version": 1
  },
  "userdoc": {
    "kind": "user",
    "methods": {
      "approveEntity(address,string)": {
        "notice": "Approve a pending registration and assign a license number."
      },
      "getAddressByLicense(string)": {
        "notice": "Returns the wallet address registered under a given license number.         Returns address(0) if not found."
      },
      "getAllRegistered()": {
        "notice": "Returns all registered addresses (approved + pending + rejected + revoked)."
      },
      "getApprovedByRole(uint8)": {
        "notice": "Returns all entities of a specific role that are Approved.         Used by Manufacturer to list available Distributors, etc."
      },
      "getEntity(address)": {
        "notice": "Returns full entity record for an address."
      },
      "getEntityByLicense(string)": {
        "notice": "Lookup an entity by license number."
      },
      "getLicenseNumber(address)": {
        "notice": "Returns the license number assigned to an address.         Returns empty string if not yet assigned."
      },
      "getPendingEntities()": {
        "notice": "Returns the full list of pending requests with their Entity details.         Useful for the admin panel to render a table in one call."
      },
      "getPendingRequests()": {
        "notice": "Returns all pending registration requests (for the admin dashboard)."
      },
      "getRole(address)": {
        "notice": "Returns the role of an address regardless of approval status."
      },
      "getStatus(address)": {
        "notice": "Returns the approval status of an address."
      },
      "isApproved(address)": {
        "notice": "Returns true if the address is approved for ANY valid role."
      },
      "isApprovedWithRole(address,uint8)": {
        "notice": "Primary guard used by other contracts.         Returns true only if the address is Approved AND holds the expected role."
      },
      "reactivateEntity(address)": {
        "notice": "Re-approve a previously rejected or revoked entity         (e.g. after appeal), keeping the same license number."
      },
      "rejectEntity(address,string)": {
        "notice": "Reject a pending registration request."
      },
      "requestRegistration(uint8,string,string,string,string,string,string)": {
        "notice": "Submit a signup request. Admin must approve before the         entity can interact with other contracts."
      },
      "revokeEntity(address)": {
        "notice": "Revoke an already-approved entity (e.g. license violation).         The entity's on-chain record is preserved for audit purposes         but isApproved() will return false."
      },
      "transferAdmin(address)": {
        "notice": "Transfer admin rights to a new wallet.         The new admin must already be an approved entity OR         be a fresh address (role becomes Admin)."
      },
      "updateEntityDetails(address,string,string,string)": {
        "notice": "Admin can correct or update an entity's profile fields.         Does NOT change role or approval status."
      },
      "updateMyDetails(string,string)": {
        "notice": "Approved entities can update their own email and location.         Name and role changes require admin action."
      }
    },
    "notice": "Central identity & access-control registry for the         Blockchain-Based Medicine Supply Chain system.         All other contracts query this contract to verify         that a caller is approved and holds the correct role.",
    "version": 1
  }
}