{
  "contractName": "RegistryContract",
  "abi": [
    {
      "inputs": [
        {
          "internalType": "address",
          "name": "_admin",
          "type": "address"
        }
      ],
      "stateMutability": "nonpayable",
      "type": "constructor"
    },
    {
      "anonymous": false,
      "inputs": [
        {
          "indexed": true,
          "internalType": "address",
          "name": "previousAdmin",
          "type": "address"
        },
        {
          "indexed": true,
          "internalType": "address",
          "name": "newAdmin",
          "type": "address"
        }
      ],
      "name": "AdminTransferred",
      "type": "event"
    },
    {
      "anonymous": false,
      "inputs": [
        {
          "indexed": true,
          "internalType": "address",
          "name": "entity",
          "type": "address"
        },
        {
          "indexed": true,
          "internalType": "enum RegistryContract.Role",
          "name": "role",
          "type": "uint8"
        },
        {
          "indexed": false,
          "internalType": "string",
          "name": "licenseNumber",
          "type": "string"
        },
        {
          "indexed": true,
          "internalType": "address",
          "name": "approvedBy",
          "type": "address"
        },
        {
          "indexed": false,
          "internalType": "uint256",
          "name": "timestamp",
          "type": "uint256"
        }
      ],
      "name": "EntityApproved",
      "type": "event"
    },
    {
      "anonymous": false,
      "inputs": [
        {
          "indexed": true,
          "internalType": "address",
          "name": "entity",
          "type": "address"
        },
        {
          "indexed": false,
          "internalType": "uint256",
          "name": "timestamp",
          "type": "uint256"
        }
      ],
      "name": "EntityDetailsUpdated",
      "type": "event"
    },
    {
      "anonymous": false,
      "inputs": [
        {
          "indexed": true,
          "internalType": "address",
          "name": "entity",
          "type": "address"
        },
        {
          "indexed": true,
          "internalType": "address",
          "name": "reactivatedBy",
          "type": "address"
        },
        {
          "indexed": false,
          "internalType": "uint256",
          "name": "timestamp",
          "type": "uint256"
        }
      ],
      "name": "EntityReactivated",
      "type": "event"
    },
    {
      "anonymous": false,
      "inputs": [
        {
          "indexed": true,
          "internalType": "address",
          "name": "entity",
          "type": "address"
        },
        {
          "indexed": true,
          "internalType": "address",
          "name": "rejectedBy",
          "type": "address"
        },
        {
          "indexed": false,
          "internalType": "uint256",
          "name": "timestamp",
          "type": "uint256"
        }
      ],
      "name": "EntityRejected",
      "type": "event"
    },
    {
      "anonymous": false,
      "inputs": [
        {
          "indexed": true,
          "internalType": "address",
          "name": "entity",
          "type": "address"
        },
        {
          "indexed": true,
          "internalType": "address",
          "name": "revokedBy",
          "type": "address"
        },
        {
          "indexed": false,
          "internalType": "uint256",
          "name": "timestamp",
          "type": "uint256"
        }
      ],
      "name": "EntityRevoked",
      "type": "event"
    },
    {
      "anonymous": false,
      "inputs": [
        {
          "indexed": true,
          "internalType": "address",
          "name": "applicant",
          "type": "address"
        },
        {
          "indexed": true,
          "internalType": "enum RegistryContract.Role",
          "name": "role",
          "type": "uint8"
        },
        {
          "indexed": false,
          "internalType": "string",
          "name": "name",
          "type": "string"
        },
        {
          "indexed": false,
          "internalType": "uint256",
          "name": "timestamp",
          "type": "uint256"
        }
      ],
      "name": "RegistrationRequested",
      "type": "event"
    },
    {
      "inputs": [],
      "name": "admin",
      "outputs": [
        {
          "internalType": "address",
          "name": "",
          "type": "address"
        }
      ],
      "stateMutability": "view",
      "type": "function"
    },
    {
      "inputs": [
        {
          "internalType": "enum RegistryContract.Role",
          "name": "_role",
          "type": "uint8"
        },
        {
          "internalType": "string",
          "name": "_name",
          "type": "string"
        },
        {
          "internalType": "string",
          "name": "_email",
          "type": "string"
        },
        {
          "internalType": "string",
          "name": "_location",
          "type": "string"
        }
      ],
      "name": "requestRegistration",
      "outputs": [],
      "stateMutability": "nonpayable",
      "type": "function"
    },
    {
      "inputs": [
        {
          "internalType": "address",
          "name": "_entity",
          "type": "address"
        },
        {
          "internalType": "string",
          "name": "_licenseNo",
          "type": "string"
        }
      ],
      "name": "approveEntity",
      "outputs": [],
      "stateMutability": "nonpayable",
      "type": "function"
    },
    {
      "inputs": [
        {
          "internalType": "address",
          "name": "_entity",
          "type": "address"
        }
      ],
      "name": "rejectEntity",
      "outputs": [],
      "stateMutability": "nonpayable",
      "type": "function"
    },
    {
      "inputs": [
        {
          "internalType": "address",
          "name": "_entity",
          "type": "address"
        }
      ],
      "name": "revokeEntity",
      "outputs": [],
      "stateMutability": "nonpayable",
      "type": "function"
    },
    {
      "inputs": [
        {
          "internalType": "address",
          "name": "_entity",
          "type": "address"
        }
      ],
      "name": "reactivateEntity",
      "outputs": [],
      "stateMutability": "nonpayable",
      "type": "function"
    },
    {
      "inputs": [
        {
          "internalType": "address",
          "name": "_entity",
          "type": "address"
        },
        {
          "internalType": "string",
          "name": "_name",
          "type": "string"
        },
        {
          "internalType": "string",
          "name": "_email",
          "type": "string"
        },
        {
          "internalType": "string",
          "name": "_location",
          "type": "string"
        }
      ],
      "name": "updateEntityDetails",
      "outputs": [],
      "stateMutability": "nonpayable",
      "type": "function"
    },
    {
      "inputs": [
        {
          "internalType": "string",
          "name": "_email",
          "type": "string"
        },
        {
          "internalType": "string",
          "name": "_location",
          "type": "string"
        }
      ],
      "name": "updateMyDetails",
      "outputs": [],
      "stateMutability": "nonpayable",
      "type": "function"
    },
    {
      "inputs": [
        {
          "internalType": "address",
          "name": "_newAdmin",
          "type": "address"
        }
      ],
      "name": "transferAdmin",
      "outputs": [],
      "stateMutability": "nonpayable",
      "type": "function"
    },
    {
      "inputs": [
        {
          "internalType": "address",
          "name": "_addr",
          "type": "address"
        },
        {
          "internalType": "enum RegistryContract.Role",
          "name": "_role",
          "type": "uint8"
        }
      ],
      "name": "isApprovedWithRole",
      "outputs": [
        {
          "internalType": "bool",
          "name": "",
          "type": "bool"
        }
      ],
      "stateMutability": "view",
      "type": "function"
    },
    {
      "inputs": [
        {
          "internalType": "address",
          "name": "_addr",
          "type": "address"
        }
      ],
      "name": "isApproved",
      "outputs": [
        {
          "internalType": "bool",
          "name": "",
          "type": "bool"
        }
      ],
      "stateMutability": "view",
      "type": "function"
    },
    {
      "inputs": [
        {
          "internalType": "address",
          "name": "_addr",
          "type": "address"
        }
      ],
      "name": "getRole",
      "outputs": [
        {
          "internalType": "enum RegistryContract.Role",
          "name": "",
          "type": "uint8"
        }
      ],
      "stateMutability": "view",
      "type": "function"
    },
    {
      "inputs": [
        {
          "internalType": "address",
          "name": "_addr",
          "type": "address"
        }
      ],
      "name": "getStatus",
      "outputs": [
        {
          "internalType": "enum RegistryContract.ApprovalStatus",
          "name": "",
          "type": "uint8"
        }
      ],
      "stateMutability": "view",
      "type": "function"
    },
    {
      "inputs": [
        {
          "internalType": "address",
          "name": "_addr",
          "type": "address"
        }
      ],
      "name": "getEntity",
      "outputs": [
        {
          "components": [
            {
              "internalType": "address",
              "name": "walletAddress",
              "type": "address"
            },
            {
              "internalType": "enum RegistryContract.Role",
              "name": "role",
              "type": "uint8"
            },
            {
              "internalType": "enum RegistryContract.ApprovalStatus",
              "name": "status",
              "type": "uint8"
            },
            {
              "internalType": "string",
              "name": "name",
              "type": "string"
            },
            {
              "internalType": "string",
              "name": "email",
              "type": "string"
            },
            {
              "internalType": "string",
              "name": "location",
              "type": "string"
            },
            {
              "internalType": "string",
              "name": "licenseNumber",
              "type": "string"
            },
            {
              "internalType": "uint256",
              "name": "registeredAt",
              "type": "uint256"
            },
            {
              "internalType": "uint256",
              "name": "approvedAt",
              "type": "uint256"
            },
            {
              "internalType": "bool",
              "name": "exists",
              "type": "bool"
            }
          ],
          "internalType": "struct RegistryContract.Entity",
          "name": "",
          "type": "tuple"
        }
      ],
      "stateMutability": "view",
      "type": "function"
    },
    {
      "inputs": [
        {
          "internalType": "string",
          "name": "_licenseNo",
          "type": "string"
        }
      ],
      "name": "getEntityByLicense",
      "outputs": [
        {
          "components": [
            {
              "internalType": "address",
              "name": "walletAddress",
              "type": "address"
            },
            {
              "internalType": "enum RegistryContract.Role",
              "name": "role",
              "type": "uint8"
            },
            {
              "internalType": "enum RegistryContract.ApprovalStatus",
              "name": "status",
              "type": "uint8"
            },
            {
              "internalType": "string",
              "name": "name",
              "type": "string"
            },
            {
              "internalType": "string",
              "name": "email",
              "type": "string"
            },
            {
              "internalType": "string",
              "name": "location",
              "type": "string"
            },
            {
              "internalType": "string",
              "name": "licenseNumber",
              "type": "string"
            },
            {
              "internalType": "uint256",
              "name": "registeredAt",
              "type": "uint256"
            },
            {
              "internalType": "uint256",
              "name": "approvedAt",
              "type": "uint256"
            },
            {
              "internalType": "bool",
              "name": "exists",
              "type": "bool"
            }
          ],
          "internalType": "struct RegistryContract.Entity",
          "name": "",
          "type": "tuple"
        }
      ],
      "stateMutability": "view",
      "type": "function"
    },
    {
      "inputs": [],
      "name": "getPendingRequests",
      "outputs": [
        {
          "internalType": "address[]",
          "name": "",
          "type": "address[]"
        }
      ],
      "stateMutability": "view",
      "type": "function"
    },
    {
      "inputs": [],
      "name": "getPendingEntities",
      "outputs": [
        {
          "components": [
            {
              "internalType": "address",
              "name": "walletAddress",
              "type": "address"
            },
            {
              "internalType": "enum RegistryContract.Role",
              "name": "role",
              "type": "uint8"
            },
            {
              "internalType": "enum RegistryContract.ApprovalStatus",
              "name": "status",
              "type": "uint8"
            },
            {
              "internalType": "string",
              "name": "name",
              "type": "string"
            },
            {
              "internalType": "string",
              "name": "email",
              "type": "string"
            },
            {
              "internalType": "string",
              "name": "location",
              "type": "string"
            },
            {
              "internalType": "string",
              "name": "licenseNumber",
              "type": "string"
            },
            {
              "internalType": "uint256",
              "name": "registeredAt",
              "type": "uint256"
            },
            {
              "internalType": "uint256",
              "name": "approvedAt",
              "type": "uint256"
            },
            {
              "internalType": "bool",
              "name": "exists",
              "type": "bool"
            }
          ],
          "internalType": "struct RegistryContract.Entity[]",
          "name": "",
          "type": "tuple[]"
        }
      ],
      "stateMutability": "view",
      "type": "function"
    },
    {
      "inputs": [],
      "name": "getAllRegistered",
      "outputs": [
        {
          "internalType": "address[]",
          "name": "",
          "type": "address[]"
        }
      ],
      "stateMutability": "view",
      "type": "function"
    },
    {
      "inputs": [
        {
          "internalType": "enum RegistryContract.Role",
          "name": "_role",
          "type": "uint8"
        }
      ],
      "name": "getApprovedByRole",
      "outputs": [
        {
          "components": [
            {
              "internalType": "address",
              "name": "walletAddress",
              "type": "address"
            },
            {
              "internalType": "enum RegistryContract.Role",
              "name": "role",
              "type": "uint8"
            },
            {
              "internalType": "enum RegistryContract.ApprovalStatus",
              "name": "status",
              "type": "uint8"
            },
            {
              "internalType": "string",
              "name": "name",
              "type": "string"
            },
            {
              "internalType": "string",
              "name": "email",
              "type": "string"
            },
            {
              "internalType": "string",
              "name": "location",
              "type": "string"
            },
            {
              "internalType": "string",
              "name": "licenseNumber",
              "type": "string"
            },
            {
              "internalType": "uint256",
              "name": "registeredAt",
              "type": "uint256"
            },
            {
              "internalType": "uint256",
              "name": "approvedAt",
              "type": "uint256"
            },
            {
              "internalType": "bool",
              "name": "exists",
              "type": "bool"
            }
          ],
          "internalType": "struct RegistryContract.Entity[]",
          "name": "",
          "type": "tuple[]"
        }
      ],
      "stateMutability": "view",
      "type": "function"
    },
    {
      "inputs": [
        {
          "internalType": "address",
          "name": "_addr",
          "type": "address"
        }
      ],
      "name": "getLicenseNumber",
      "outputs": [
        {
          "internalType": "string",
          "name": "",
          "type": "string"
        }
      ],
      "stateMutability": "view",
      "type": "function"
    },
    {
      "inputs": [
        {
          "internalType": "string",
          "name": "_licenseNo",
          "type": "string"
        }
      ],
      "name": "getAddressByLicense",
      "outputs": [
        {
          "internalType": "address",
          "name": "",
          "type": "address"
        }
      ],
      "stateMutability": "view",
      "type": "function"
    }
  ],
  "bytecode": "0x6080346200087957601f6200326b38819003918201601f19168301916001600160401b03831184841017620004a2578084926020946040528339810103126200087957516001600160a01b038116810362000879576001600160a01b0381161562000825575f80546001600160a01b0319166001600160a01b03831617905560405161014081016001600160401b03811182821017620004a25760409081526001600160a01b038316825260016020830152600290820152620000c16200087d565b600c81526b29bcb9ba32b69020b236b4b760a11b60208201526060820152620000e96200089d565b5f81526080820152620000fb6200089d565b5f815260a08201526200010d6200087d565b600981526841444d494e2d30303160b81b602082015260c08201524260e082015242610100820152600161012082015260018060a01b0382165f52600160205260405f2060018060a01b038251168154602084015191600683101562000811576040850151600581101562000811576001600160b01b03199092161760a09290921b60ff60a01b169190911760a89190911b60ff60a81b16178155606082015180519093906001600160401b038111620004a2576001830154600181811c9116801562000806575b60208210146200058257601f8111620007bd575b506020601f82116001146200074d5781929394955f9262000741575b50508160011b915f199060031b1c19161760018301555b608083015180519093906001600160401b038111620004a2576002840154600181811c9116801562000736575b60208210146200058257601f8111620006ed575b506020601f82116001146200067d5781929394955f9262000671575b50508160011b915f199060031b1c19161760028401555b60a081015180519093906001600160401b038111620004a2576003820154600181811c9116801562000666575b60208210146200058257601f81116200061d575b506020601f8211600114620005ad5781929394955f92620005a1575b50508160011b915f199060031b1c19161760038201555b60c08201518051906001600160401b038211620004a2576004830154600181811c9116801562000596575b60208210146200058257601f811162000539575b50602090601f8311600114620004c257918061012094926007945f92620004b6575b50508160011b915f199060031b1c19161760048201555b60e08401516005820155610100840151600682015501910151151560ff8019835416911617905560025468010000000000000000811015620004a25760018101806002558110156200048e5760025f527f405787fa12a823e0f2b7631cc41b3ba8828b3321ca811111fa75cd3aa3bb5ace0180546001600160a01b03199081166001600160a01b0393909316928317909155604080516841444d494e2d30303160b81b8082526005600980840191909152602990922080549094168517909355815182815291820152606081019190915242602082015260019082907fb99357eaf041c6b4f9ef26c88b38609fbf977298507bb7570887fab2714679c290608090a46040516129ad9081620008be8239f35b634e487b7160e01b5f52603260045260245ffd5b634e487b7160e01b5f52604160045260245ffd5b015190505f8062000365565b90600484015f5260205f20915f5b601f198516811062000520575092610120949260019260079583601f1981161062000507575b505050811b0160048201556200037c565b01515f1960f88460031b161c191690555f8080620004f6565b91926020600181928685015181550194019201620004d0565b600484015f5260205f20601f840160051c8101602085106200057a575b601f830160051c820181106200056e57505062000343565b5f815560010162000556565b508062000556565b634e487b7160e01b5f52602260045260245ffd5b90607f16906200032f565b015190505f80620002ed565b600383015f5260205f20905f5b601f198416811062000604575060019394959683601f19811610620005eb575b505050811b01600382015562000304565b01515f1960f88460031b161c191690555f8080620005da565b9091602060018192858b015181550193019101620005ba565b600383015f5260205f20601f830160051c8101602084106200065e575b601f830160051c8201811062000652575050620002d1565b5f81556001016200063a565b50806200063a565b90607f1690620002bd565b015190505f8062000279565b600285015f5260205f20905f5b601f1984168110620006d4575060019394959683601f19811610620006bb575b505050811b01600284015562000290565b01515f1960f88460031b161c191690555f8080620006aa565b9091602060018192858b0151815501930191016200068a565b600285015f5260205f20601f830160051c8101602084106200072e575b601f830160051c82018110620007225750506200025d565b5f81556001016200070a565b50806200070a565b90607f169062000249565b015190505f8062000205565b600184015f5260205f20905f5b601f1984168110620007a4575060019394959683601f198116106200078b575b505050811b0160018301556200021c565b01515f1960f88460031b161c191690555f80806200077a565b9091602060018192858b0151815501930191016200075a565b600184015f5260205f20601f830160051c810160208410620007fe575b601f830160051c82018110620007f2575050620001e9565b5f8155600101620007da565b5080620007da565b90607f1690620001d5565b634e487b7160e01b5f52602160045260245ffd5b60405162461bcd60e51b815260206004820152602660248201527f52656769737472793a2061646d696e2063616e6e6f74206265207a65726f206160448201526564647265737360d01b6064820152608490fd5b5f80fd5b60408051919082016001600160401b03811183821017620004a257604052565b60405190602082016001600160401b03811183821017620004a25760405256fe6080806040526004361015610012575f80fd5b5f3560e01c908163030e46cb14611e2f575080630b88ded114611d9957806312e0ba4814611d3e57806330ccebb514611cfb5780633c1a314314611a0a57806344276733146119c5578063518ce2b61461194457806355ebca011461122a578063673448dd146111c5578063693c79b21461101957806372e52f5a14610fca57806375829def14610a1657806375894e8c146109a45780637d9d17b7146108d857806380a1f712146108575780639deaf8f1146106d8578063ab330f6b146103a0578063c85c0d351461030f578063d7b71f5f14610204578063e024e7471461012e5763f851a44014610103575f80fd5b3461012a575f36600319011261012a575f546040516001600160a01b039091168152602090f35b5f80fd5b3461012a57602036600319011261012a576101476120bb565b5f546001600160a01b039061015f9082163314612551565b811690815f52600160205261017d60ff600760405f2001541661259d565b815f52600160205260405f209081549160ff8360a81c169260058410156101f0576101ad60016101c195146125e9565b60ff60a81b1916600360a81b17905561287f565b604051904282527f8d359aca665b1a62f2fd210777e6936c72df54cc65eefa41766cf20f746a075a60203393a3005b634e487b7160e01b5f52602160045260245ffd5b3461012a57602036600319011261012a5761021d6120bb565b5f546001600160a01b0391906102369083163314612551565b16805f52600160205261025260ff600760405f2001541661259d565b805f52600160205260405f20805460ff8160a81c1660058110156101f0576002036102b75760ff60a81b1916600160aa1b1790556040514281523391907f1a66b2e2e4e77f417c0f793f30f1b62e1371ae6ec6e4e3c008d5d8059808d77490602090a3005b60405162461bcd60e51b815260206004820152602a60248201527f52656769737472793a20656e74697479206973206e6f742063757272656e746c6044820152691e48105c1c1c9bdd995960b21b6064820152608490fd5b3461012a575f36600319011261012a57604051806002549182815260208091019260025f527f405787fa12a823e0f2b7631cc41b3ba8828b3321ca811111fa75cd3aa3bb5ace915f905b8282106103805761037c856103708189038261231c565b6040519182918261223b565b0390f35b83546001600160a01b031686529485019460019384019390910190610359565b3461012a57608036600319011261012a576103b96120bb565b6001600160401b039060243582811161012a576103da90369060040161208e565b9260443581811161012a576103f390369060040161208e565b909360643583811161012a5761040d90369060040161208e565b5f54909791926001600160a01b03916104299083163314612551565b1695865f5260019360209685885261044a60ff600760405f2001541661259d565b61045584151561227e565b885f5285885260405f2093868501918882116105e95781906104818261047b86546123d6565b8661240e565b5f90601f8311600114610677575f9261066c575b50505f19600383901b1c191690871b1790555b60028301918682116105e9576104c8826104c285546123d6565b8561240e565b5f90601f8311600114610608576003949392915f91836105fd575b50505f1982861b1c191690861b1790555b019286116105e95761050a866104c285546123d6565b5f90601f871160011461056b5795809281927f22e408821d014865f7272491db504e0432b9eb1f6dd8d3c86b75407db0d584f897985f94610560575b50501b915f199060031b1c19161790555b604051428152a2005b013592508880610546565b9590601f19821696845f52855f20915f5b8981106105d45750837f22e408821d014865f7272491db504e0432b9eb1f6dd8d3c86b75407db0d584f89899106105bb575b505050811b019055610557565b01355f19600384901b60f8161c191690558680806105ae565b8282013584559285019290870190870161057c565b634e487b7160e01b5f52604160045260245ffd5b013590508b806104e3565b918691949392601f19821690845f528a5f20915f5b8c82821061065657505096836003981061063f575b505050811b0190556104f4565b01355f1983881b60f8161c191690558b8080610632565b838a01358555988901988b96909401930161061d565b013590508c80610495565b5f8581528c81208b95509290601f198516908e5b8282106106c157505084116106a8575b505050811b0190556104a8565b01355f19600384901b60f8161c191690558c808061069b565b8385013586558d979095019492830192018e61068b565b3461012a5760208060031936011261012a57600660043581811015908161012a575f935f926002958654945b8581106107d35750610715906127fa565b945f925f5b86811061072f576040518061037c8a826121da565b610738816124aa565b60018060a01b0391549060031b1c165f526001825260405f20805460ff86818360a01c16906101f057868110156101f057891491826107bb575b5050610788575b5061078390612849565b61071a565b61078391956107996107b492612734565b6107a3828c61286b565b526107ae818b61286b565b50612849565b9490610779565b60a81c16905060058110156101f0578a148b80610772565b6107dc816124aa565b60018060a01b0391549060031b1c165f526001845260405f205460ff84818360a01c16906101f057898110156101f0578714918261083f575b505061082a575b61082590612849565b610704565b9061083761082591612849565b91905061081c565b60a81c16905060058110156101f05788148980610815565b3461012a575f36600319011261012a57604051806003549182815260208091019260035f527fc2575a0e9e593c00f959f8c92f12db2869c3395a3b0502d05e2516446f71f85b915f905b8282106108b85761037c856103708189038261231c565b83546001600160a01b0316865294850194600193840193909101906108a1565b3461012a5760208060031936011261012a576004356001600160401b03811161012a5761090990369060040161208e565b610911612647565b5080604051928337600590820190815281900382019020546001600160a01b0316801561095f575f526001815261094a60405f20612734565b9061037c604051928284938452830190612129565b60405162461bcd60e51b815260048101839052601b60248201527f52656769737472793a206c6963656e7365206e6f7420666f756e6400000000006044820152606490fd5b3461012a57602036600319011261012a576109bd6120bb565b6109c5612647565b506001600160a01b03165f818152600160205260409020600701546109ec9060ff1661259d565b5f52600160205261037c610a0260405f20612734565b604051918291602083526020830190612129565b3461012a57602036600319011261012a57610a2f6120bb565b5f546001600160a01b03610a463382841614612551565b80831615610f8c5780821681841614610f47578083166001600160a01b0319831681175f9081558284168152600160205260408082208054600160aa1b61ffff60a01b19918216179091559282529020600781015490919060ff16610f3257505060405192610ab4846122ca565b81811684526001602085015260026040850152604051610ad381612301565b600c81526b29bcb9ba32b69020b236b4b760a11b60208201526060850152604051610afd816122e6565b5f81526080850152604051610b11816122e6565b5f815260a0850152604051610b2581612301565b600e81526d20a226a4a716aa2920a729a322a960911b602082015260c08501524260e08501524261010085015260016101208501528181165f52600160205260405f20828551166001600160601b0360a01b825416178155602085015160068110156101f057610b95908261238e565b604085015160058110156101f057610bad90826123b2565b606085015180516001600160401b0381116105e957806001840192610bd68261047b86546123d6565b602090601f8311600114610ece575f92610ec3575b50508160011b915f199060031b1c19161790555b608085015180516001600160401b0381116105e957806002840192610c288261047b86546123d6565b602090601f8311600114610e5f575f92610e54575b50508160011b915f199060031b1c19161790555b6003810160a08601518051906001600160401b0382116105e9578190610c7b8261047b86546123d6565b602090601f8311600114610df0575f92610de5575b50508160011b915f199060031b1c19161790555b600481019460c08101519586516001600160401b0381116105e957610cd381610ccd84546123d6565b8461240e565b6020601f8211600114610d7557926007928261012093610d3897968a9b9c5f92610d6a575b50508160011b915f199060031b1c19161790555b60e0810151600585015561010081015160068501550151151591019060ff801983541691151516179055565b610d41816124df565b1691167ff8ccb027dfcd135e000e9d45e6cc2d662578a8825d4c45b5e32e0adf67e79ec65f80a3005b015190508c80610cf8565b601f19821698835f5260205f20995f5b818110610dcd575083899a9b610d38989794600797946101209760019510610db5575b505050811b019055610d0c565b01515f1960f88460031b161c191690558c8080610da8565b838301518c556001909b019a60209384019301610d85565b015190508880610c90565b5f858152602081209350601f198516905b818110610e3c5750908460019594939210610e24575b505050811b019055610ca4565b01515f1960f88460031b161c19169055888080610e17565b92936020600181928786015181550195019301610e01565b015190508880610c3d565b5f858152602081209350601f198516905b818110610eab5750908460019594939210610e93575b505050811b019055610c51565b01515f1960f88460031b161c19169055888080610e86565b92936020600181928786015181550195019301610e70565b015190508880610beb565b5f858152602081209350601f198516905b818110610f1a5750908460019594939210610f02575b505050811b019055610bff565b01515f1960f88460031b161c19169055888080610ef5565b92936020600181928786015181550195019301610edf565b81541661020160a01b17905590918190610d41565b60405162461bcd60e51b815260206004820152601760248201527f52656769737472793a20616c72656164792061646d696e0000000000000000006044820152606490fd5b60405162461bcd60e51b815260206004820152601660248201527552656769737472793a207a65726f206164647265737360501b6044820152606490fd5b3461012a57602036600319011261012a576001600160a01b03610feb6120bb565b165f52600160205261037c611005600460405f2001612695565b6040519182916020835260208301906120eb565b3461012a5760208060031936011261012a576110336120bb565b5f546001600160a01b03919061104c9083163314612551565b16805f526001825261106760ff600760405f2001541661259d565b805f526001825260405f20805460ff8160a81c1660058110156101f057600381149081156111ba575b5015611157576110a360048301546123d6565b156110ed5760ff60a81b1916600160a91b17815542600690910181905560405190815233927fff0b22130054be234bcdda0c1c7c0868ef2feab7b8123d07ae5a50cb2574ef0291a3005b6084846040519062461bcd60e51b82526004820152604060248201527f52656769737472793a206e6f206c6963656e7365206e756d626572206f6e207260448201527f65636f72643b2075736520617070726f7665456e7469747920696e73746561646064820152fd5b60405162461bcd60e51b815260048101859052603560248201527f52656769737472793a20656e74697479206973206e6f7420696e2052656a6563604482015274746564206f72205265766f6b65642073746174757360581b6064820152608490fd5b600491501485611090565b3461012a57602036600319011261012a576001600160a01b036111e66120bb565b165f52600160205260405f2060ff600782015416908161120e575b6020826040519015158152f35b60ff91505460a81c1660058110156101f0576002146020611201565b3461012a57608036600319011261012a576006600435101561012a576024356001600160401b03811161012a5761126590369060040161208e565b6044356001600160401b03811161012a5761128490369060040161208e565b6064356001600160401b03811161012a576112a390369060040161208e565b91335f52600160205260ff600760405f200154166118e3575f9360026004351480156118d4575b8581156118c3575b81156118b1575b5015611857576112ea86151561227e565b81156118125783156117c25761134d60405193611306856122ca565b338552602085019561131a6004358861233d565b6113416040870194600186526113328c8c3691612349565b96606089019788523691612349565b60808701523691612349565b60a084015260405161135e816122e6565b5f815260c08401524260e08401525f6101008401526001610120840152335f52600160205260405f209360018060a01b038451166001600160601b0360a01b8654161785555160068110156101f0576113b7908561238e565b5160058110156101f0576113cb90846123b2565b518051906001600160401b0382116105e95781906113f9826113f060018801546123d6565b6001880161240e565b602090601f8311600114611754575f92611749575b50508160011b915f199060031b1c19161760018301555b608081015180516001600160401b0381116105e95780600285019261144e8261047b86546123d6565b602090601f83116001146116e5575f926116da575b50508160011b915f199060031b1c19161790555b60a081015180516001600160401b0381116105e9578060038501926114a08261047b86546123d6565b602090601f8311600114611676575f9261166b575b50508160011b915f199060031b1c19161790555b60c081015180516001600160401b0381116105e95760048401916114f1826104c285546123d6565b602090601f83116001146115fd579282610120936115539796936007965f926115f25750508160011b915f199060031b1c191617905560e0810151600585015561010081015160068501550151151591019060ff801983541691151516179055565b61155c336124df565b600354600160401b8110156105e95761157e81600161159c9301600355612461565b81546001600160a01b0360039290921b91821b19163390911b179055565b335f52600460205260405f20600160ff198254161790556101f0577f1f77daf0cde58fb801ee20100afb681b11e993b40a01c40ee509f9b11053c49e604051806115ed600435953395429184612523565b0390a3005b015190508b80610cf8565b90601f19831691845f5260205f20925f5b8181106116535750936115539796936007969360019383610120981061163b57505050811b019055610d0c565b01515f1960f88460031b161c191690558b8080610da8565b9293602060018192878601518155019501930161160e565b0151905088806114b5565b5f858152602081209350601f198516905b8181106116c257509084600195949392106116aa575b505050811b0190556114c9565b01515f1960f88460031b161c1916905588808061169d565b92936020600181928786015181550195019301611687565b015190508880611463565b5f858152602081209350601f198516905b8181106117315750908460019594939210611719575b505050811b019055611477565b01515f1960f88460031b161c1916905588808061170c565b929360206001819287860151815501950193016116f6565b01519050878061140e565b9250600185015f5260205f20905f935b601f19841685106117a7576001945083601f1981161061178f575b505050811b016001830155611425565b01515f1960f88460031b161c1916905587808061177f565b81810151835560209485019460019093019290910190611764565b60405162461bcd60e51b815260206004820152602260248201527f52656769737472793a206c6f636174696f6e2063616e6e6f7420626520656d70604482015261747960f01b6064820152608490fd5b60405162461bcd60e51b815260206004820152601f60248201527f52656769737472793a20656d61696c2063616e6e6f7420626520656d707479006044820152606490fd5b60405162461bcd60e51b815260206004820152602c60248201527f52656769737472793a20696e76616c696420726f6c6520666f722073656c662d60448201526b3932b3b4b9ba3930ba34b7b760a11b6064820152608490fd5b90506101f057600560043514856112d9565b90506101f0576004803514856112d2565b505f94506004356003146112ca565b60405162461bcd60e51b815260206004820152603360248201527f52656769737472793a206164647265737320616c7265616479206861732061206044820152721c9959da5cdd1c985d1a5bdb881c9958dbdc99606a1b6064820152608490fd5b3461012a575f36600319011261012a5760038054611961816127fa565b915f5b828110611979576040518061037c86826121da565b806119866119c092612461565b905490841b1c6001600160a01b03165f9081526001602052604090206119ab90612734565b6119b5828761286b565b526107ae818661286b565b611964565b3461012a57602036600319011261012a576001600160a01b036119e66120bb565b165f526001602052602060ff60405f205460a01c16611a0860405180926120de565bf35b3461012a57604036600319011261012a57611a236120bb565b60246001600160401b03813581811161012a57611a4490369060040161208e565b5f5490946001600160a01b0391611a5e9083163314612551565b81811693845f52600190602091808352611a8160ff600760405f2001541661259d565b865f5280835260405f209485549060ff8260a81c166005811015611ce85783611aaa91146125e9565b8a15611c93576040518b89823785818d810160058152030190205416611c3d5760ff60a81b1916600160a91b17855560048501918911611c2a578890611af4826104c285546123d6565b5f601f8311600114611bbd57918060ff97969492611b5596945f93611bb2575b501b905f198c60031b1c19161790555b4260068501556040519089878337818a81016005815203019020866001600160601b0360a01b82541617905561287f565b5460a01c16926006841015611b9f5750611b9a7fb99357eaf041c6b4f9ef26c88b38609fbf977298507bb7570887fab2714679c2916040519182913397429184612523565b0390a4005b634e487b7160e01b5f9081526021600452fd5b8a013592508d611b14565b5f8481528581209293508b90601f198216905b818110611c1257509160ff9897959391611b5597959310611bf9575b50508a811b019055611b24565b8901355f1960038e901b60f8161c191690558b80611bec565b8a840135855593850193928701928d92508701611bd0565b87634e487b7160e01b5f5260416004525ffd5b60405162461bcd60e51b8152600481018590526029818b01527f52656769737472793a206c6963656e7365206e756d62657220616c726561647960448201526808185cdcda59db995960ba1b6064820152608490fd5b60405162461bcd60e51b8152600481018690526028818c01527f52656769737472793a206c6963656e7365206e756d6265722063616e6e6f7420604482015267626520656d70747960c01b6064820152608490fd5b8a634e487b7160e01b5f5260216004525ffd5b3461012a57602036600319011261012a576001600160a01b03611d1c6120bb565b165f526001602052602060ff60405f205460a81c16611a0860405180926120d1565b3461012a57602036600319011261012a576004356001600160401b03811161012a57611d70602091369060040161208e565b80604051928337600590820190815281900382019020546040516001600160a01b039091168152f35b3461012a57604036600319011261012a57611db26120bb565b60243590600682101561012a576001600160a01b03165f908152600160205260409020600781015460ff169081611e13575b81611df6576020826040519015158152f35b60ff91505460a01c169060068210156101f0576020911482611201565b905060ff815460a81c1660058110156101f05760021490611de4565b3461012a57604036600319011261012a576001600160401b0360043581811161012a57611e6090369060040161208e565b60243583811161012a57611e7890369060040161208e565b91335f5260019360209685885260ff60405f205460a81c1660058110156101f0576002036120395750335f5284875260405f209160028301918782116105e957611ec6826104c285546123d6565b5f90601f8311600114611fd5576003949392915f9183611fca575b50505f1982861b1c191690871b1790555b019382116105e957611f088261047b86546123d6565b5f90601f8311600114611f6b579282939183925f94611f60575b50501b915f199060031b1c19161790555b7f22e408821d014865f7272491db504e0432b9eb1f6dd8d3c86b75407db0d584f8604051914283523392a2005b013592508680611f22565b601f19831691855f5283875f20935f5b8988838310611fb35750505010611f9a575b505050811b019055611f33565b01355f19600384901b60f8161c19169055848080611f8d565b858701358855909601959384019387935001611f7b565b013590508a80611ee1565b918791949392601f19821690845f528b5f20915f5b8d82821061202357505096836003981061200c575b505050811b019055611ef2565b01355f1983881b60f8161c191690558a8080611fff565b838a01358555988901988c969094019301611fea565b62461bcd60e51b815260048101889052602a60248201527f52656769737472793a2063616c6c6572206973206e6f7420616e20617070726f60448201526976656420656e7469747960b01b6064820152608490fd5b9181601f8401121561012a578235916001600160401b03831161012a576020838186019501011161012a57565b600435906001600160a01b038216820361012a57565b9060058210156101f05752565b9060068210156101f05752565b91908251928382525f5b848110612115575050825f602080949584010152601f8019910116010190565b6020818301810151848301820152016120f5565b80516001600160a01b0316825260208082015191929161214b918301906120de565b61215d604083015160408301906120d1565b6121b56121a361219161217f60608601516101408060608801528601906120eb565b608086015185820360808701526120eb565b60a085015184820360a08601526120eb565b60c084015183820360c08501526120eb565b9160e081015160e0830152610100808201519083015261012080910151151591015290565b602080820190808352835180925260408301928160408460051b8301019501935f915b84831061220d5750505050505090565b909192939495848061222b600193603f198682030187528a51612129565b98019301930191949392906121fd565b602090816040818301928281528551809452019301915f5b828110612261575050505090565b83516001600160a01b031685529381019392810192600101612253565b1561228557565b60405162461bcd60e51b815260206004820152601e60248201527f52656769737472793a206e616d652063616e6e6f7420626520656d70747900006044820152606490fd5b61014081019081106001600160401b038211176105e957604052565b602081019081106001600160401b038211176105e957604052565b604081019081106001600160401b038211176105e957604052565b90601f801991011681019081106001600160401b038211176105e957604052565b60068210156101f05752565b9291926001600160401b0382116105e95760405191612372601f8201601f19166020018461231c565b82948184528183011161012a578281602093845f960137010152565b9060068110156101f057815460ff60a01b191660a09190911b60ff60a01b16179055565b9060058110156101f057815460ff60a81b191660a89190911b60ff60a81b16179055565b90600182811c92168015612404575b60208310146123f057565b634e487b7160e01b5f52602260045260245ffd5b91607f16916123e5565b90601f811161241c57505050565b5f91825260208220906020601f850160051c83019410612457575b601f0160051c01915b82811061244c57505050565b818155600101612440565b9092508290612437565b6003548110156124965760035f527fc2575a0e9e593c00f959f8c92f12db2869c3395a3b0502d05e2516446f71f85b01905f90565b634e487b7160e01b5f52603260045260245ffd5b6002548110156124965760025f527f405787fa12a823e0f2b7631cc41b3ba8828b3321ca811111fa75cd3aa3bb5ace01905f90565b60025490600160401b8210156105e95761250282600161252194016002556124aa565b90919082549060031b9160018060a01b03809116831b921b1916179055565b565b9392918060609160209360408852816040890152838801375f828288010152601f8019910116850101930152565b1561255857565b60405162461bcd60e51b815260206004820152601d60248201527f52656769737472793a2063616c6c6572206973206e6f742061646d696e0000006044820152606490fd5b156125a457565b60405162461bcd60e51b815260206004820152601f60248201527f52656769737472793a20656e7469747920646f6573206e6f74206578697374006044820152606490fd5b156125f057565b60405162461bcd60e51b815260206004820152602960248201527f52656769737472793a20656e74697479206973206e6f7420696e2050656e64696044820152686e672073746174757360b81b6064820152608490fd5b60405190612654826122ca565b816101205f9182815282602082015282604082015260608082015260606080820152606060a0820152606060c08201528260e0820152826101008201520152565b9060405191825f8254926126a8846123d6565b9081845260019485811690815f1461271157506001146126d1575b50506125219250038361231c565b909391505f52602090815f20935f915b8183106126f957505061252193508201015f806126c3565b855488840185015294850194879450918301916126e1565b91505061252194506020925060ff191682840152151560051b8201015f806126c3565b90604051612741816122ca565b809260ff815460018060a01b0381168452612764828260a01c166020860161233d565b60a81c169060058210156101f057600760ff9161012093604086015261278c60018201612695565b606086015261279d60028201612695565b60808601526127ae60038201612695565b60a08601526127bf60048201612695565b60c0860152600581015460e086015260068101546101008601520154161515910152565b6001600160401b0381116105e95760051b60200190565b90612804826127e3565b612811604051918261231c565b8281528092612822601f19916127e3565b01905f5b82811061283257505050565b60209061283d612647565b82828501015201612826565b5f1981146128575760010190565b634e487b7160e01b5f52601160045260245ffd5b80518210156124965760209160051b010190565b60018060a01b03809116905f8281526004908160205260408120805460ff81161561296f5760ff19169055600391825491805b8381106128c3575b50505050505050565b86866128ce83612461565b905490881b1c16146128e8576128e390612849565b6128b2565b94955092935f1993919284810190811161295c57906125028761290d61291a94612461565b905490891b1c1691612461565b8354918215612949575050019161293083612461565b9091825491841b1b19169055555f8080808080806128ba565b634e487b7160e01b825260319052602490fd5b634e487b7160e01b835260118452602483fd5b50505050505056fea26469706673582212202bf8c0cdb660acd0c3eb8dde5e2cfa730bd39bd1a3aa9ab589fbbfc77a7c0c5264736f6c63430008140033",
  "immutableReferences": {},
  "source": "// SPDX-License-Identifier: MIT\npragma solidity ^0.8.20;\n\n/// @title  RegistryContract\n/// @notice Central identity & access-control registry for the\n///         Blockchain-Based Medicine Supply Chain system.\n///         All other contracts query this contract to verify\n///         that a caller is approved and holds the correct role.\n/// @dev    Deploy this contract first; pass its address to the\n///         constructor of ProductContract, TransferContract and\n///         TraceContract.\ncontract RegistryContract {\n\n    // ─────────────────────────────────────────────────────────────\n    // Enums\n    // ─────────────────────────────────────────────────────────────\n\n    /// @dev Roles a wallet address can hold in the system.\n    ///      Unregistered wallets have role = None.\n    enum Role {\n        None,           // 0 – not registered\n        Admin,          // 1\n        Manufacturer,   // 2\n        Distributor,    // 3\n        Supplier,       // 4\n        Pharmacist      // 5\n    }\n\n    /// @dev Lifecycle of a registration request.\n    enum ApprovalStatus {\n        None,       // 0 – never applied\n        Pending,    // 1 – awaiting admin decision\n        Approved,   // 2 – active in the system\n        Rejected,   // 3 – denied by admin\n        Revoked     // 4 – previously approved, now disabled\n    }\n\n    // ─────────────────────────────────────────────────────────────\n    // Structs\n    // ─────────────────────────────────────────────────────────────\n\n    struct Entity {\n        address         walletAddress;\n        Role            role;\n        ApprovalStatus  status;\n        string          name;\n        string          email;\n        string          location;\n        string          licenseNumber;   // assigned by admin on approval\n        uint256         registeredAt;    // block.timestamp of registration request\n        uint256         approvedAt;      // block.timestamp of admin approval (0 if not yet)\n        bool            exists;          // guard for mapping lookup\n    }\n\n    // ─────────────────────────────────────────────────────────────\n    // State Variables\n    // ─────────────────────────────────────────────────────────────\n\n    address public admin;\n\n    /// @dev Primary registry: wallet → Entity\n    mapping(address => Entity) private entities;\n\n    /// @dev All addresses that have ever submitted a registration request\n    address[] private allRegistered;\n\n    /// @dev Addresses currently awaiting admin decision\n    address[] private pendingList;\n\n    /// @dev Quick set-membership for pendingList (avoid O(n) scan on removal)\n    mapping(address => bool) private isPending;\n\n    /// @dev License number uniqueness guard: licenseNo → assigned address\n    mapping(string => address) private licenseToAddress;\n\n    // ─────────────────────────────────────────────────────────────\n    // Events\n    // ─────────────────────────────────────────────────────────────\n\n    event AdminTransferred(address indexed previousAdmin, address indexed newAdmin);\n\n    event RegistrationRequested(\n        address indexed applicant,\n        Role    indexed role,\n        string          name,\n        uint256         timestamp\n    );\n\n    event EntityApproved(\n        address indexed entity,\n        Role    indexed role,\n        string          licenseNumber,\n        address indexed approvedBy,\n        uint256         timestamp\n    );\n\n    event EntityRejected(\n        address indexed entity,\n        address indexed rejectedBy,\n        uint256         timestamp\n    );\n\n    event EntityRevoked(\n        address indexed entity,\n        address indexed revokedBy,\n        uint256         timestamp\n    );\n\n    event EntityReactivated(\n        address indexed entity,\n        address indexed reactivatedBy,\n        uint256         timestamp\n    );\n\n    event EntityDetailsUpdated(\n        address indexed entity,\n        uint256         timestamp\n    );\n\n    // ─────────────────────────────────────────────────────────────\n    // Modifiers\n    // ─────────────────────────────────────────────────────────────\n\n    modifier onlyAdmin() {\n        require(msg.sender == admin, \"Registry: caller is not admin\");\n        _;\n    }\n\n    modifier onlyApproved() {\n        require(\n            entities[msg.sender].status == ApprovalStatus.Approved,\n            \"Registry: caller is not an approved entity\"\n        );\n        _;\n    }\n\n    modifier notAlreadyRegistered() {\n        require(\n            !entities[msg.sender].exists,\n            \"Registry: address already has a registration record\"\n        );\n        _;\n    }\n\n    modifier entityExists(address _addr) {\n        require(entities[_addr].exists, \"Registry: entity does not exist\");\n        _;\n    }\n\n    // ─────────────────────────────────────────────────────────────\n    // Constructor\n    // ─────────────────────────────────────────────────────────────\n\n    /// @param _admin The wallet address that will act as system admin.\n    ///               Typically the deployer's address.\n    constructor(address _admin) {\n        require(_admin != address(0), \"Registry: admin cannot be zero address\");\n        admin = _admin;\n\n        // Register admin entity internally (no approval needed)\n        entities[_admin] = Entity({\n            walletAddress:  _admin,\n            role:           Role.Admin,\n            status:         ApprovalStatus.Approved,\n            name:           \"System Admin\",\n            email:          \"\",\n            location:       \"\",\n            licenseNumber:  \"ADMIN-001\",\n            registeredAt:   block.timestamp,\n            approvedAt:     block.timestamp,\n            exists:         true\n        });\n\n        allRegistered.push(_admin);\n        licenseToAddress[\"ADMIN-001\"] = _admin;\n\n        emit EntityApproved(_admin, Role.Admin, \"ADMIN-001\", _admin, block.timestamp);\n    }\n\n    // ─────────────────────────────────────────────────────────────\n    // Registration (Public — called by applicants)\n    // ─────────────────────────────────────────────────────────────\n\n    /// @notice Submit a signup request. Admin must approve before the\n    ///         entity can interact with other contracts.\n    /// @param  _role     One of: Manufacturer(2), Distributor(3),\n    ///                   Supplier(4), Pharmacist(5). Cannot self-register as Admin.\n    /// @param  _name     Full legal name / business name.\n    /// @param  _email    Contact email (stored off-chain ref only).\n    /// @param  _location City / address string.\n    function requestRegistration(\n        Role   _role,\n        string calldata _name,\n        string calldata _email,\n        string calldata _location\n    )\n        external\n        notAlreadyRegistered\n    {\n        require(\n            _role == Role.Manufacturer ||\n            _role == Role.Distributor  ||\n            _role == Role.Supplier     ||\n            _role == Role.Pharmacist,\n            \"Registry: invalid role for self-registration\"\n        );\n        require(bytes(_name).length > 0,     \"Registry: name cannot be empty\");\n        require(bytes(_email).length > 0,    \"Registry: email cannot be empty\");\n        require(bytes(_location).length > 0, \"Registry: location cannot be empty\");\n\n        entities[msg.sender] = Entity({\n            walletAddress:  msg.sender,\n            role:           _role,\n            status:         ApprovalStatus.Pending,\n            name:           _name,\n            email:          _email,\n            location:       _location,\n            licenseNumber:  \"\",           // assigned by admin later\n            registeredAt:   block.timestamp,\n            approvedAt:     0,\n            exists:         true\n        });\n\n        allRegistered.push(msg.sender);\n        pendingList.push(msg.sender);\n        isPending[msg.sender] = true;\n\n        emit RegistrationRequested(msg.sender, _role, _name, block.timestamp);\n    }\n\n    // ─────────────────────────────────────────────────────────────\n    // Admin — Approval / Rejection / Revocation\n    // ─────────────────────────────────────────────────────────────\n\n    /// @notice Approve a pending registration and assign a license number.\n    /// @param  _entity     Applicant wallet address.\n    /// @param  _licenseNo  Unique license string (e.g. \"MFR-2024-001\").\n    function approveEntity(address _entity, string calldata _licenseNo)\n        external\n        onlyAdmin\n        entityExists(_entity)\n    {\n        Entity storage e = entities[_entity];\n\n        require(\n            e.status == ApprovalStatus.Pending,\n            \"Registry: entity is not in Pending status\"\n        );\n        require(bytes(_licenseNo).length > 0, \"Registry: license number cannot be empty\");\n        require(\n            licenseToAddress[_licenseNo] == address(0),\n            \"Registry: license number already assigned\"\n        );\n\n        e.status        = ApprovalStatus.Approved;\n        e.licenseNumber = _licenseNo;\n        e.approvedAt    = block.timestamp;\n\n        licenseToAddress[_licenseNo] = _entity;\n        _removeFromPending(_entity);\n\n        emit EntityApproved(_entity, e.role, _licenseNo, msg.sender, block.timestamp);\n    }\n\n    /// @notice Reject a pending registration request.\n    function rejectEntity(address _entity)\n        external\n        onlyAdmin\n        entityExists(_entity)\n    {\n        Entity storage e = entities[_entity];\n\n        require(\n            e.status == ApprovalStatus.Pending,\n            \"Registry: entity is not in Pending status\"\n        );\n\n        e.status = ApprovalStatus.Rejected;\n        _removeFromPending(_entity);\n\n        emit EntityRejected(_entity, msg.sender, block.timestamp);\n    }\n\n    /// @notice Revoke an already-approved entity (e.g. license violation).\n    ///         The entity's on-chain record is preserved for audit purposes\n    ///         but isApproved() will return false.\n    function revokeEntity(address _entity)\n        external\n        onlyAdmin\n        entityExists(_entity)\n    {\n        Entity storage e = entities[_entity];\n\n        require(\n            e.status == ApprovalStatus.Approved,\n            \"Registry: entity is not currently Approved\"\n        );\n\n        e.status = ApprovalStatus.Revoked;\n\n        emit EntityRevoked(_entity, msg.sender, block.timestamp);\n    }\n\n    /// @notice Re-approve a previously rejected or revoked entity\n    ///         (e.g. after appeal), keeping the same license number.\n    function reactivateEntity(address _entity)\n        external\n        onlyAdmin\n        entityExists(_entity)\n    {\n        Entity storage e = entities[_entity];\n\n        require(\n            e.status == ApprovalStatus.Rejected ||\n            e.status == ApprovalStatus.Revoked,\n            \"Registry: entity is not in Rejected or Revoked status\"\n        );\n        require(\n            bytes(e.licenseNumber).length > 0,\n            \"Registry: no license number on record; use approveEntity instead\"\n        );\n\n        e.status     = ApprovalStatus.Approved;\n        e.approvedAt = block.timestamp;\n\n        emit EntityReactivated(_entity, msg.sender, block.timestamp);\n    }\n\n    // ─────────────────────────────────────────────────────────────\n    // Admin — Update Entity Details\n    // ─────────────────────────────────────────────────────────────\n\n    /// @notice Admin can correct or update an entity's profile fields.\n    ///         Does NOT change role or approval status.\n    function updateEntityDetails(\n        address        _entity,\n        string calldata _name,\n        string calldata _email,\n        string calldata _location\n    )\n        external\n        onlyAdmin\n        entityExists(_entity)\n    {\n        require(bytes(_name).length > 0, \"Registry: name cannot be empty\");\n\n        Entity storage e = entities[_entity];\n        e.name     = _name;\n        e.email    = _email;\n        e.location = _location;\n\n        emit EntityDetailsUpdated(_entity, block.timestamp);\n    }\n\n    // ─────────────────────────────────────────────────────────────\n    // Self-Update (Approved entities only)\n    // ─────────────────────────────────────────────────────────────\n\n    /// @notice Approved entities can update their own email and location.\n    ///         Name and role changes require admin action.\n    function updateMyDetails(\n        string calldata _email,\n        string calldata _location\n    )\n        external\n        onlyApproved\n    {\n        Entity storage e = entities[msg.sender];\n        e.email    = _email;\n        e.location = _location;\n\n        emit EntityDetailsUpdated(msg.sender, block.timestamp);\n    }\n\n    // ─────────────────────────────────────────────────────────────\n    // Admin Transfer\n    // ─────────────────────────────────────────────────────────────\n\n    /// @notice Transfer admin rights to a new wallet.\n    ///         The new admin must already be an approved entity OR\n    ///         be a fresh address (role becomes Admin).\n    function transferAdmin(address _newAdmin) external onlyAdmin {\n        require(_newAdmin != address(0), \"Registry: zero address\");\n        require(_newAdmin != admin,      \"Registry: already admin\");\n\n        address oldAdmin = admin;\n        admin = _newAdmin;\n\n        // Update the old admin entity record\n        entities[oldAdmin].role   = Role.None;\n        entities[oldAdmin].status = ApprovalStatus.Revoked;\n\n        // Create or update new admin record\n        if (!entities[_newAdmin].exists) {\n            entities[_newAdmin] = Entity({\n                walletAddress:  _newAdmin,\n                role:           Role.Admin,\n                status:         ApprovalStatus.Approved,\n                name:           \"System Admin\",\n                email:          \"\",\n                location:       \"\",\n                licenseNumber:  \"ADMIN-TRANSFER\",\n                registeredAt:   block.timestamp,\n                approvedAt:     block.timestamp,\n                exists:         true\n            });\n            allRegistered.push(_newAdmin);\n        } else {\n            entities[_newAdmin].role   = Role.Admin;\n            entities[_newAdmin].status = ApprovalStatus.Approved;\n        }\n\n        emit AdminTransferred(oldAdmin, _newAdmin);\n    }\n\n    // ─────────────────────────────────────────────────────────────\n    // View / Query Functions (called by other contracts & frontend)\n    // ─────────────────────────────────────────────────────────────\n\n    /// @notice Primary guard used by other contracts.\n    ///         Returns true only if the address is Approved AND holds the expected role.\n    function isApprovedWithRole(address _addr, Role _role)\n        external\n        view\n        returns (bool)\n    {\n        Entity storage e = entities[_addr];\n        return e.exists &&\n               e.status == ApprovalStatus.Approved &&\n               e.role   == _role;\n    }\n\n    /// @notice Returns true if the address is approved for ANY valid role.\n    function isApproved(address _addr) external view returns (bool) {\n        return entities[_addr].exists &&\n               entities[_addr].status == ApprovalStatus.Approved;\n    }\n\n    /// @notice Returns the role of an address regardless of approval status.\n    function getRole(address _addr) external view returns (Role) {\n        return entities[_addr].role;\n    }\n\n    /// @notice Returns the approval status of an address.\n    function getStatus(address _addr) external view returns (ApprovalStatus) {\n        return entities[_addr].status;\n    }\n\n    /// @notice Returns full entity record for an address.\n    function getEntity(address _addr)\n        external\n        view\n        entityExists(_addr)\n        returns (Entity memory)\n    {\n        return entities[_addr];\n    }\n\n    /// @notice Lookup an entity by license number.\n    function getEntityByLicense(string calldata _licenseNo)\n        external\n        view\n        returns (Entity memory)\n    {\n        address addr = licenseToAddress[_licenseNo];\n        require(addr != address(0), \"Registry: license not found\");\n        return entities[addr];\n    }\n\n    /// @notice Returns all pending registration requests (for the admin dashboard).\n    function getPendingRequests() external view returns (address[] memory) {\n        return pendingList;\n    }\n\n    /// @notice Returns the full list of pending requests with their Entity details.\n    ///         Useful for the admin panel to render a table in one call.\n    function getPendingEntities() external view returns (Entity[] memory) {\n        uint256 len = pendingList.length;\n        Entity[] memory result = new Entity[](len);\n        for (uint256 i = 0; i < len; i++) {\n            result[i] = entities[pendingList[i]];\n        }\n        return result;\n    }\n\n    /// @notice Returns all registered addresses (approved + pending + rejected + revoked).\n    function getAllRegistered() external view returns (address[] memory) {\n        return allRegistered;\n    }\n\n    /// @notice Returns all entities of a specific role that are Approved.\n    ///         Used by Manufacturer to list available Distributors, etc.\n    function getApprovedByRole(Role _role)\n        external\n        view\n        returns (Entity[] memory)\n    {\n        // First pass: count\n        uint256 count = 0;\n        for (uint256 i = 0; i < allRegistered.length; i++) {\n            Entity storage e = entities[allRegistered[i]];\n            if (e.role == _role && e.status == ApprovalStatus.Approved) {\n                count++;\n            }\n        }\n\n        // Second pass: fill\n        Entity[] memory result = new Entity[](count);\n        uint256 idx = 0;\n        for (uint256 i = 0; i < allRegistered.length; i++) {\n            Entity storage e = entities[allRegistered[i]];\n            if (e.role == _role && e.status == ApprovalStatus.Approved) {\n                result[idx] = e;\n                idx++;\n            }\n        }\n        return result;\n    }\n\n    /// @notice Returns the license number assigned to an address.\n    ///         Returns empty string if not yet assigned.\n    function getLicenseNumber(address _addr)\n        external\n        view\n        returns (string memory)\n    {\n        return entities[_addr].licenseNumber;\n    }\n\n    /// @notice Returns the wallet address registered under a given license number.\n    ///         Returns address(0) if not found.\n    function getAddressByLicense(string calldata _licenseNo)\n        external\n        view\n        returns (address)\n    {\n        return licenseToAddress[_licenseNo];\n    }\n\n    // ─────────────────────────────────────────────────────────────\n    // Internal Helpers\n    // ─────────────────────────────────────────────────────────────\n\n    /// @dev Removes an address from the pendingList array and\n    ///      clears its isPending flag. Uses swap-and-pop for O(n) removal.\n    function _removeFromPending(address _addr) internal {\n        if (!isPending[_addr]) return;\n\n        isPending[_addr] = false;\n\n        uint256 len = pendingList.length;\n        for (uint256 i = 0; i < len; i++) {\n            if (pendingList[i] == _addr) {\n                pendingList[i] = pendingList[len - 1];\n                pendingList.pop();\n                break;\n            }\n        }\n    }\n}\n",
  "sourcePath": "D:\\FYP Final\\Project\\medicine-supply-chain\\myProject\\contracts\\RegistryContract.sol",
  "compiler": {
    "name": "solc",
    "version": "0.8.20+commit.a1b79de6.Emscripten.clang"
  },
  "schemaVersion": "3.4.16",
  "updatedAt": "2026-04-24T20:00:32.155Z",
  "devdoc": {
    "details": "Deploy this contract first; pass its address to the         constructor of ProductContract, TransferContract and         TraceContract.",
    "kind": "dev",
    "methods": {
      "approveEntity(address,string)": {
        "params": {
          "_entity": "Applicant wallet address.",
          "_licenseNo": "Unique license string (e.g. \"MFR-2024-001\")."
        }
      },
      "constructor": {
        "params": {
          "_admin": "The wallet address that will act as system admin.               Typically the deployer's address."
        }
      },
      "requestRegistration(uint8,string,string,string)": {
        "params": {
          "_email": "Contact email (stored off-chain ref only).",
          "_location": "City / address string.",
          "_name": "Full legal name / business name.",
          "_role": "One of: Manufacturer(2), Distributor(3),                   Supplier(4), Pharmacist(5). Cannot self-register as Admin."
        }
      }
    },
    "stateVariables": {
      "allRegistered": {
        "details": "All addresses that have ever submitted a registration request"
      },
      "entities": {
        "details": "Primary registry: wallet → Entity"
      },
      "isPending": {
        "details": "Quick set-membership for pendingList (avoid O(n) scan on removal)"
      },
      "licenseToAddress": {
        "details": "License number uniqueness guard: licenseNo → assigned address"
      },
      "pendingList": {
        "details": "Addresses currently awaiting admin decision"
      }
    },
    "title": "RegistryContract",
    "version": 1
  },
  "userdoc": {
    "kind": "user",
    "methods": {
      "approveEntity(address,string)": {
        "notice": "Approve a pending registration and assign a license number."
      },
      "getAddressByLicense(string)": {
        "notice": "Returns the wallet address registered under a given license number.         Returns address(0) if not found."
      },
      "getAllRegistered()": {
        "notice": "Returns all registered addresses (approved + pending + rejected + revoked)."
      },
      "getApprovedByRole(uint8)": {
        "notice": "Returns all entities of a specific role that are Approved.         Used by Manufacturer to list available Distributors, etc."
      },
      "getEntity(address)": {
        "notice": "Returns full entity record for an address."
      },
      "getEntityByLicense(string)": {
        "notice": "Lookup an entity by license number."
      },
      "getLicenseNumber(address)": {
        "notice": "Returns the license number assigned to an address.         Returns empty string if not yet assigned."
      },
      "getPendingEntities()": {
        "notice": "Returns the full list of pending requests with their Entity details.         Useful for the admin panel to render a table in one call."
      },
      "getPendingRequests()": {
        "notice": "Returns all pending registration requests (for the admin dashboard)."
      },
      "getRole(address)": {
        "notice": "Returns the role of an address regardless of approval status."
      },
      "getStatus(address)": {
        "notice": "Returns the approval status of an address."
      },
      "isApproved(address)": {
        "notice": "Returns true if the address is approved for ANY valid role."
      },
      "isApprovedWithRole(address,uint8)": {
        "notice": "Primary guard used by other contracts.         Returns true only if the address is Approved AND holds the expected role."
      },
      "reactivateEntity(address)": {
        "notice": "Re-approve a previously rejected or revoked entity         (e.g. after appeal), keeping the same license number."
      },
      "rejectEntity(address)": {
        "notice": "Reject a pending registration request."
      },
      "requestRegistration(uint8,string,string,string)": {
        "notice": "Submit a signup request. Admin must approve before the         entity can interact with other contracts."
      },
      "revokeEntity(address)": {
        "notice": "Revoke an already-approved entity (e.g. license violation).         The entity's on-chain record is preserved for audit purposes         but isApproved() will return false."
      },
      "transferAdmin(address)": {
        "notice": "Transfer admin rights to a new wallet.         The new admin must already be an approved entity OR         be a fresh address (role becomes Admin)."
      },
      "updateEntityDetails(address,string,string,string)": {
        "notice": "Admin can correct or update an entity's profile fields.         Does NOT change role or approval status."
      },
      "updateMyDetails(string,string)": {
        "notice": "Approved entities can update their own email and location.         Name and role changes require admin action."
      }
    },
    "notice": "Central identity & access-control registry for the         Blockchain-Based Medicine Supply Chain system.         All other contracts query this contract to verify         that a caller is approved and holds the correct role.",
    "version": 1
  }
}