{
  "contractName": "TraceContract",
  "abi": [
    {
      "inputs": [
        {
          "internalType": "address",
          "name": "_registry",
          "type": "address"
        },
        {
          "internalType": "address",
          "name": "_product",
          "type": "address"
        },
        {
          "internalType": "address",
          "name": "_transfer",
          "type": "address"
        }
      ],
      "stateMutability": "nonpayable",
      "type": "constructor"
    },
    {
      "anonymous": false,
      "inputs": [
        {
          "indexed": true,
          "internalType": "string",
          "name": "batchNumber",
          "type": "string"
        },
        {
          "indexed": true,
          "internalType": "address",
          "name": "admin",
          "type": "address"
        },
        {
          "indexed": false,
          "internalType": "uint256",
          "name": "timestamp",
          "type": "uint256"
        }
      ],
      "name": "AdminAnnotationAdded",
      "type": "event"
    },
    {
      "anonymous": false,
      "inputs": [
        {
          "indexed": true,
          "internalType": "address",
          "name": "caller",
          "type": "address"
        },
        {
          "indexed": false,
          "internalType": "bool",
          "name": "authorised",
          "type": "bool"
        }
      ],
      "name": "AuthorisedCallerSet",
      "type": "event"
    },
    {
      "anonymous": false,
      "inputs": [
        {
          "indexed": true,
          "internalType": "string",
          "name": "batchNumber",
          "type": "string"
        },
        {
          "indexed": false,
          "internalType": "bytes32",
          "name": "dataHash",
          "type": "bytes32"
        },
        {
          "indexed": true,
          "internalType": "address",
          "name": "registeredBy",
          "type": "address"
        },
        {
          "indexed": false,
          "internalType": "uint256",
          "name": "timestamp",
          "type": "uint256"
        }
      ],
      "name": "FingerprintRegistered",
      "type": "event"
    },
    {
      "anonymous": false,
      "inputs": [
        {
          "indexed": true,
          "internalType": "uint256",
          "name": "eventId",
          "type": "uint256"
        },
        {
          "indexed": true,
          "internalType": "string",
          "name": "batchNumber",
          "type": "string"
        },
        {
          "indexed": true,
          "internalType": "address",
          "name": "actor",
          "type": "address"
        },
        {
          "indexed": false,
          "internalType": "enum TraceContract.EventType",
          "name": "eventType",
          "type": "uint8"
        },
        {
          "indexed": false,
          "internalType": "uint256",
          "name": "quantity",
          "type": "uint256"
        },
        {
          "indexed": false,
          "internalType": "bytes32",
          "name": "eventHash",
          "type": "bytes32"
        },
        {
          "indexed": false,
          "internalType": "uint256",
          "name": "timestamp",
          "type": "uint256"
        }
      ],
      "name": "TraceEventRecorded",
      "type": "event"
    },
    {
      "inputs": [],
      "name": "productContract",
      "outputs": [
        {
          "internalType": "contract IProduct",
          "name": "",
          "type": "address"
        }
      ],
      "stateMutability": "view",
      "type": "function",
      "constant": true
    },
    {
      "inputs": [],
      "name": "registry",
      "outputs": [
        {
          "internalType": "contract IRegistry",
          "name": "",
          "type": "address"
        }
      ],
      "stateMutability": "view",
      "type": "function",
      "constant": true
    },
    {
      "inputs": [],
      "name": "transferContract",
      "outputs": [
        {
          "internalType": "contract ITransfer",
          "name": "",
          "type": "address"
        }
      ],
      "stateMutability": "view",
      "type": "function",
      "constant": true
    },
    {
      "inputs": [
        {
          "internalType": "address",
          "name": "_caller",
          "type": "address"
        },
        {
          "internalType": "bool",
          "name": "_authorised",
          "type": "bool"
        }
      ],
      "name": "setAuthorisedCaller",
      "outputs": [],
      "stateMutability": "nonpayable",
      "type": "function"
    },
    {
      "inputs": [
        {
          "internalType": "string",
          "name": "_batchNumber",
          "type": "string"
        },
        {
          "internalType": "address",
          "name": "_actor",
          "type": "address"
        },
        {
          "internalType": "string",
          "name": "_action",
          "type": "string"
        },
        {
          "internalType": "uint256",
          "name": "_quantity",
          "type": "uint256"
        },
        {
          "internalType": "string",
          "name": "_note",
          "type": "string"
        }
      ],
      "name": "recordEvent",
      "outputs": [],
      "stateMutability": "nonpayable",
      "type": "function"
    },
    {
      "inputs": [
        {
          "internalType": "string",
          "name": "_batchNumber",
          "type": "string"
        },
        {
          "internalType": "bytes32",
          "name": "_dataHash",
          "type": "bytes32"
        }
      ],
      "name": "registerFingerprint",
      "outputs": [],
      "stateMutability": "nonpayable",
      "type": "function"
    },
    {
      "inputs": [
        {
          "internalType": "string",
          "name": "_batchNumber",
          "type": "string"
        },
        {
          "internalType": "string",
          "name": "_note",
          "type": "string"
        }
      ],
      "name": "annotate",
      "outputs": [],
      "stateMutability": "nonpayable",
      "type": "function"
    },
    {
      "inputs": [
        {
          "internalType": "string",
          "name": "_batchNumber",
          "type": "string"
        }
      ],
      "name": "getFullHistory",
      "outputs": [
        {
          "components": [
            {
              "internalType": "uint256",
              "name": "eventId",
              "type": "uint256"
            },
            {
              "internalType": "string",
              "name": "batchNumber",
              "type": "string"
            },
            {
              "internalType": "address",
              "name": "actor",
              "type": "address"
            },
            {
              "internalType": "enum IRegistry.Role",
              "name": "actorRole",
              "type": "uint8"
            },
            {
              "internalType": "string",
              "name": "actorLicense",
              "type": "string"
            },
            {
              "internalType": "enum TraceContract.EventType",
              "name": "eventType",
              "type": "uint8"
            },
            {
              "internalType": "string",
              "name": "action",
              "type": "string"
            },
            {
              "internalType": "uint256",
              "name": "quantity",
              "type": "uint256"
            },
            {
              "internalType": "string",
              "name": "note",
              "type": "string"
            },
            {
              "internalType": "uint256",
              "name": "timestamp",
              "type": "uint256"
            },
            {
              "internalType": "bytes32",
              "name": "eventHash",
              "type": "bytes32"
            }
          ],
          "internalType": "struct TraceContract.TraceEvent[]",
          "name": "",
          "type": "tuple[]"
        }
      ],
      "stateMutability": "view",
      "type": "function",
      "constant": true
    },
    {
      "inputs": [
        {
          "internalType": "string",
          "name": "_batchNumber",
          "type": "string"
        },
        {
          "internalType": "uint256",
          "name": "_from",
          "type": "uint256"
        },
        {
          "internalType": "uint256",
          "name": "_to",
          "type": "uint256"
        }
      ],
      "name": "getHistorySlice",
      "outputs": [
        {
          "components": [
            {
              "internalType": "uint256",
              "name": "eventId",
              "type": "uint256"
            },
            {
              "internalType": "string",
              "name": "batchNumber",
              "type": "string"
            },
            {
              "internalType": "address",
              "name": "actor",
              "type": "address"
            },
            {
              "internalType": "enum IRegistry.Role",
              "name": "actorRole",
              "type": "uint8"
            },
            {
              "internalType": "string",
              "name": "actorLicense",
              "type": "string"
            },
            {
              "internalType": "enum TraceContract.EventType",
              "name": "eventType",
              "type": "uint8"
            },
            {
              "internalType": "string",
              "name": "action",
              "type": "string"
            },
            {
              "internalType": "uint256",
              "name": "quantity",
              "type": "uint256"
            },
            {
              "internalType": "string",
              "name": "note",
              "type": "string"
            },
            {
              "internalType": "uint256",
              "name": "timestamp",
              "type": "uint256"
            },
            {
              "internalType": "bytes32",
              "name": "eventHash",
              "type": "bytes32"
            }
          ],
          "internalType": "struct TraceContract.TraceEvent[]",
          "name": "",
          "type": "tuple[]"
        }
      ],
      "stateMutability": "view",
      "type": "function",
      "constant": true
    },
    {
      "inputs": [
        {
          "internalType": "string",
          "name": "_batchNumber",
          "type": "string"
        },
        {
          "internalType": "enum TraceContract.EventType",
          "name": "_eventType",
          "type": "uint8"
        }
      ],
      "name": "getHistoryByType",
      "outputs": [
        {
          "components": [
            {
              "internalType": "uint256",
              "name": "eventId",
              "type": "uint256"
            },
            {
              "internalType": "string",
              "name": "batchNumber",
              "type": "string"
            },
            {
              "internalType": "address",
              "name": "actor",
              "type": "address"
            },
            {
              "internalType": "enum IRegistry.Role",
              "name": "actorRole",
              "type": "uint8"
            },
            {
              "internalType": "string",
              "name": "actorLicense",
              "type": "string"
            },
            {
              "internalType": "enum TraceContract.EventType",
              "name": "eventType",
              "type": "uint8"
            },
            {
              "internalType": "string",
              "name": "action",
              "type": "string"
            },
            {
              "internalType": "uint256",
              "name": "quantity",
              "type": "uint256"
            },
            {
              "internalType": "string",
              "name": "note",
              "type": "string"
            },
            {
              "internalType": "uint256",
              "name": "timestamp",
              "type": "uint256"
            },
            {
              "internalType": "bytes32",
              "name": "eventHash",
              "type": "bytes32"
            }
          ],
          "internalType": "struct TraceContract.TraceEvent[]",
          "name": "",
          "type": "tuple[]"
        }
      ],
      "stateMutability": "view",
      "type": "function",
      "constant": true
    },
    {
      "inputs": [
        {
          "internalType": "address",
          "name": "_actor",
          "type": "address"
        }
      ],
      "name": "getEventsByActor",
      "outputs": [
        {
          "components": [
            {
              "internalType": "uint256",
              "name": "eventId",
              "type": "uint256"
            },
            {
              "internalType": "string",
              "name": "batchNumber",
              "type": "string"
            },
            {
              "internalType": "address",
              "name": "actor",
              "type": "address"
            },
            {
              "internalType": "enum IRegistry.Role",
              "name": "actorRole",
              "type": "uint8"
            },
            {
              "internalType": "string",
              "name": "actorLicense",
              "type": "string"
            },
            {
              "internalType": "enum TraceContract.EventType",
              "name": "eventType",
              "type": "uint8"
            },
            {
              "internalType": "string",
              "name": "action",
              "type": "string"
            },
            {
              "internalType": "uint256",
              "name": "quantity",
              "type": "uint256"
            },
            {
              "internalType": "string",
              "name": "note",
              "type": "string"
            },
            {
              "internalType": "uint256",
              "name": "timestamp",
              "type": "uint256"
            },
            {
              "internalType": "bytes32",
              "name": "eventHash",
              "type": "bytes32"
            }
          ],
          "internalType": "struct TraceContract.TraceEvent[]",
          "name": "",
          "type": "tuple[]"
        }
      ],
      "stateMutability": "view",
      "type": "function",
      "constant": true
    },
    {
      "inputs": [
        {
          "internalType": "uint256",
          "name": "_eventId",
          "type": "uint256"
        }
      ],
      "name": "getEventById",
      "outputs": [
        {
          "components": [
            {
              "internalType": "uint256",
              "name": "eventId",
              "type": "uint256"
            },
            {
              "internalType": "string",
              "name": "batchNumber",
              "type": "string"
            },
            {
              "internalType": "address",
              "name": "actor",
              "type": "address"
            },
            {
              "internalType": "enum IRegistry.Role",
              "name": "actorRole",
              "type": "uint8"
            },
            {
              "internalType": "string",
              "name": "actorLicense",
              "type": "string"
            },
            {
              "internalType": "enum TraceContract.EventType",
              "name": "eventType",
              "type": "uint8"
            },
            {
              "internalType": "string",
              "name": "action",
              "type": "string"
            },
            {
              "internalType": "uint256",
              "name": "quantity",
              "type": "uint256"
            },
            {
              "internalType": "string",
              "name": "note",
              "type": "string"
            },
            {
              "internalType": "uint256",
              "name": "timestamp",
              "type": "uint256"
            },
            {
              "internalType": "bytes32",
              "name": "eventHash",
              "type": "bytes32"
            }
          ],
          "internalType": "struct TraceContract.TraceEvent",
          "name": "",
          "type": "tuple"
        }
      ],
      "stateMutability": "view",
      "type": "function",
      "constant": true
    },
    {
      "inputs": [
        {
          "internalType": "string",
          "name": "_batchNumber",
          "type": "string"
        }
      ],
      "name": "getEventCount",
      "outputs": [
        {
          "internalType": "uint256",
          "name": "",
          "type": "uint256"
        }
      ],
      "stateMutability": "view",
      "type": "function",
      "constant": true
    },
    {
      "inputs": [],
      "name": "getTotalEventCount",
      "outputs": [
        {
          "internalType": "uint256",
          "name": "",
          "type": "uint256"
        }
      ],
      "stateMutability": "view",
      "type": "function",
      "constant": true
    },
    {
      "inputs": [
        {
          "internalType": "string",
          "name": "_batchNumber",
          "type": "string"
        }
      ],
      "name": "verifyProduct",
      "outputs": [
        {
          "components": [
            {
              "internalType": "bool",
              "name": "batchFound",
              "type": "bool"
            },
            {
              "internalType": "bool",
              "name": "isOriginal",
              "type": "bool"
            },
            {
              "internalType": "bool",
              "name": "isExpired",
              "type": "bool"
            },
            {
              "internalType": "bool",
              "name": "isRecalled",
              "type": "bool"
            },
            {
              "internalType": "bool",
              "name": "isActive",
              "type": "bool"
            },
            {
              "internalType": "string",
              "name": "productName",
              "type": "string"
            },
            {
              "internalType": "string",
              "name": "genericName",
              "type": "string"
            },
            {
              "internalType": "string",
              "name": "manufacturer",
              "type": "string"
            },
            {
              "internalType": "string",
              "name": "manufacturerLicense",
              "type": "string"
            },
            {
              "internalType": "uint256",
              "name": "mfgDate",
              "type": "uint256"
            },
            {
              "internalType": "uint256",
              "name": "expiryDate",
              "type": "uint256"
            },
            {
              "internalType": "address",
              "name": "currentOwner",
              "type": "address"
            },
            {
              "internalType": "enum IRegistry.Role",
              "name": "currentOwnerRole",
              "type": "uint8"
            },
            {
              "internalType": "uint256",
              "name": "totalTransfers",
              "type": "uint256"
            },
            {
              "internalType": "uint256",
              "name": "totalSold",
              "type": "uint256"
            },
            {
              "internalType": "uint256",
              "name": "eventCount",
              "type": "uint256"
            },
            {
              "internalType": "string",
              "name": "qrCodeCID",
              "type": "string"
            },
            {
              "internalType": "string",
              "name": "metadataCID",
              "type": "string"
            },
            {
              "internalType": "enum IProduct.BatchStatus",
              "name": "batchStatus",
              "type": "uint8"
            }
          ],
          "internalType": "struct TraceContract.VerificationResult",
          "name": "result",
          "type": "tuple"
        }
      ],
      "stateMutability": "view",
      "type": "function",
      "constant": true
    },
    {
      "inputs": [
        {
          "internalType": "string",
          "name": "_batchNumber",
          "type": "string"
        },
        {
          "internalType": "bytes32",
          "name": "_suppliedHash",
          "type": "bytes32"
        }
      ],
      "name": "verifyFingerprint",
      "outputs": [
        {
          "internalType": "bool",
          "name": "matches",
          "type": "bool"
        },
        {
          "internalType": "bool",
          "name": "fingerprintExists",
          "type": "bool"
        },
        {
          "internalType": "address",
          "name": "registeredBy",
          "type": "address"
        },
        {
          "internalType": "uint256",
          "name": "registeredAt",
          "type": "uint256"
        }
      ],
      "stateMutability": "view",
      "type": "function",
      "constant": true
    },
    {
      "inputs": [
        {
          "internalType": "string",
          "name": "_batchNumber",
          "type": "string"
        }
      ],
      "name": "getFingerprint",
      "outputs": [
        {
          "components": [
            {
              "internalType": "bytes32",
              "name": "dataHash",
              "type": "bytes32"
            },
            {
              "internalType": "uint256",
              "name": "registeredAt",
              "type": "uint256"
            },
            {
              "internalType": "address",
              "name": "registeredBy",
              "type": "address"
            },
            {
              "internalType": "bool",
              "name": "exists",
              "type": "bool"
            }
          ],
          "internalType": "struct TraceContract.ProductFingerprint",
          "name": "",
          "type": "tuple"
        }
      ],
      "stateMutability": "view",
      "type": "function",
      "constant": true
    },
    {
      "inputs": [
        {
          "internalType": "string",
          "name": "_batchNumber",
          "type": "string"
        }
      ],
      "name": "getCustodyChain",
      "outputs": [
        {
          "components": [
            {
              "internalType": "address",
              "name": "holder",
              "type": "address"
            },
            {
              "internalType": "uint256",
              "name": "timestamp",
              "type": "uint256"
            },
            {
              "internalType": "string",
              "name": "action",
              "type": "string"
            }
          ],
          "internalType": "struct ITransfer.CustodyEntry[]",
          "name": "",
          "type": "tuple[]"
        }
      ],
      "stateMutability": "view",
      "type": "function",
      "constant": true
    },
    {
      "inputs": [
        {
          "internalType": "string",
          "name": "_batchNumber",
          "type": "string"
        }
      ],
      "name": "getCustodyTimeline",
      "outputs": [
        {
          "internalType": "address[]",
          "name": "holders",
          "type": "address[]"
        },
        {
          "internalType": "string[]",
          "name": "roles",
          "type": "string[]"
        },
        {
          "internalType": "string[]",
          "name": "licenses",
          "type": "string[]"
        },
        {
          "internalType": "string[]",
          "name": "actions",
          "type": "string[]"
        },
        {
          "internalType": "uint256[]",
          "name": "timestamps",
          "type": "uint256[]"
        }
      ],
      "stateMutability": "view",
      "type": "function",
      "constant": true
    },
    {
      "inputs": [
        {
          "internalType": "string",
          "name": "_batchNumber",
          "type": "string"
        },
        {
          "internalType": "address",
          "name": "_holder",
          "type": "address"
        }
      ],
      "name": "getStockOf",
      "outputs": [
        {
          "internalType": "uint256",
          "name": "",
          "type": "uint256"
        }
      ],
      "stateMutability": "view",
      "type": "function",
      "constant": true
    },
    {
      "inputs": [
        {
          "internalType": "string",
          "name": "_batchNumber",
          "type": "string"
        },
        {
          "internalType": "address",
          "name": "_holder",
          "type": "address"
        }
      ],
      "name": "getEventsForHolder",
      "outputs": [
        {
          "components": [
            {
              "internalType": "uint256",
              "name": "eventId",
              "type": "uint256"
            },
            {
              "internalType": "string",
              "name": "batchNumber",
              "type": "string"
            },
            {
              "internalType": "address",
              "name": "actor",
              "type": "address"
            },
            {
              "internalType": "enum IRegistry.Role",
              "name": "actorRole",
              "type": "uint8"
            },
            {
              "internalType": "string",
              "name": "actorLicense",
              "type": "string"
            },
            {
              "internalType": "enum TraceContract.EventType",
              "name": "eventType",
              "type": "uint8"
            },
            {
              "internalType": "string",
              "name": "action",
              "type": "string"
            },
            {
              "internalType": "uint256",
              "name": "quantity",
              "type": "uint256"
            },
            {
              "internalType": "string",
              "name": "note",
              "type": "string"
            },
            {
              "internalType": "uint256",
              "name": "timestamp",
              "type": "uint256"
            },
            {
              "internalType": "bytes32",
              "name": "eventHash",
              "type": "bytes32"
            }
          ],
          "internalType": "struct TraceContract.TraceEvent[]",
          "name": "",
          "type": "tuple[]"
        }
      ],
      "stateMutability": "view",
      "type": "function",
      "constant": true
    },
    {
      "inputs": [
        {
          "internalType": "string",
          "name": "_batchNumber",
          "type": "string"
        }
      ],
      "name": "getAnnotations",
      "outputs": [
        {
          "components": [
            {
              "internalType": "address",
              "name": "admin",
              "type": "address"
            },
            {
              "internalType": "string",
              "name": "note",
              "type": "string"
            },
            {
              "internalType": "uint256",
              "name": "timestamp",
              "type": "uint256"
            }
          ],
          "internalType": "struct TraceContract.AdminAnnotation[]",
          "name": "",
          "type": "tuple[]"
        }
      ],
      "stateMutability": "view",
      "type": "function",
      "constant": true
    },
    {
      "inputs": [
        {
          "internalType": "uint256",
          "name": "_from",
          "type": "uint256"
        },
        {
          "internalType": "uint256",
          "name": "_to",
          "type": "uint256"
        }
      ],
      "name": "getGlobalEventSlice",
      "outputs": [
        {
          "components": [
            {
              "internalType": "uint256",
              "name": "eventId",
              "type": "uint256"
            },
            {
              "internalType": "string",
              "name": "batchNumber",
              "type": "string"
            },
            {
              "internalType": "address",
              "name": "actor",
              "type": "address"
            },
            {
              "internalType": "enum IRegistry.Role",
              "name": "actorRole",
              "type": "uint8"
            },
            {
              "internalType": "string",
              "name": "actorLicense",
              "type": "string"
            },
            {
              "internalType": "enum TraceContract.EventType",
              "name": "eventType",
              "type": "uint8"
            },
            {
              "internalType": "string",
              "name": "action",
              "type": "string"
            },
            {
              "internalType": "uint256",
              "name": "quantity",
              "type": "uint256"
            },
            {
              "internalType": "string",
              "name": "note",
              "type": "string"
            },
            {
              "internalType": "uint256",
              "name": "timestamp",
              "type": "uint256"
            },
            {
              "internalType": "bytes32",
              "name": "eventHash",
              "type": "bytes32"
            }
          ],
          "internalType": "struct TraceContract.TraceEvent[]",
          "name": "",
          "type": "tuple[]"
        }
      ],
      "stateMutability": "view",
      "type": "function",
      "constant": true
    },
    {
      "inputs": [
        {
          "internalType": "uint256",
          "name": "_eventId",
          "type": "uint256"
        }
      ],
      "name": "verifyEventIntegrity",
      "outputs": [
        {
          "internalType": "bool",
          "name": "intact",
          "type": "bool"
        },
        {
          "internalType": "bytes32",
          "name": "storedHash",
          "type": "bytes32"
        },
        {
          "internalType": "bytes32",
          "name": "recomputedHash",
          "type": "bytes32"
        }
      ],
      "stateMutability": "view",
      "type": "function",
      "constant": true
    }
  ],
  "bytecode": "0x60e0346200028b57601f6200444138819003918201601f191683019291906001600160401b03841183851017620002905781606092849260409687528339810103126200028b576200005181620002a6565b6020906200006e8462000066848601620002a6565b9401620002a6565b600180556001600160a01b0391821693909190841562000247578116918215620002035716928315620001bf57907f3046d191ee6b1e047d1d9ffca805ece034ff39d74e00f0475f0d0b603879f0de929160805260a0528260c052826000526000815283600020600160ff19825416179055835160018152a2516141859081620002bc8239608051818181610b8301528181610ed101528181610f5e0152818161114d015281816115540152818161194901528181611d86015281816121190152818161325a015281816135370152613b1d015260a05181818161019201528181610368015281816104480152818161061c01528181610c4a015281816111af01528181611479015281816115be01528181611a600152818161313701526131a5015260c0518181816101fb01528181610b3e01528181610cb8015281816133080152818161338401526133ee0152f35b845162461bcd60e51b815260048101849052601460248201527f54726163653a207a65726f207472616e736665720000000000000000000000006044820152606490fd5b855162461bcd60e51b815260048101859052601360248201527f54726163653a207a65726f2070726f64756374000000000000000000000000006044820152606490fd5b855162461bcd60e51b815260048101859052601460248201527f54726163653a207a65726f2072656769737472790000000000000000000000006044820152606490fd5b600080fd5b634e487b7160e01b600052604160045260246000fd5b51906001600160a01b03821682036200028b5756fe608080604052600436101561001357600080fd5b60003560e01c90816302937a4614611ca9575080630ed0f06b14611c8b578063211934e614611bd8578063224e639d14611a8f5780632a28d4df14611a4a5780632e89bd891461190257806333f1d1a1146114e65780633da58fe41461142d578063559a7bf41461110f5780635cdf0397146110445780635f4c47c014610bef5780636c820ac114610bb25780637b10399914610b6d5780637bc3934114610b285780638934555f14610a2657806392efc45314610882578063ad10faf414610831578063b75bd0361461080f578063b98079bc146107aa578063bb93bc06146105ae578063bda660a614610511578063c58d8497146103ec578063c8866a0a1461030c5763ccbf36351461012757600080fd5b3461030757602080600319360112610307576004356001600160401b0381116103075761015890369060040161218e565b6040516308389ea360e21b815260048101849052919291908161017f602482018387612c72565b6001600160a01b039591859185919003817f000000000000000000000000000000000000000000000000000000000000000089165afa9182156102ce576101d36000936101f69585916102da575b50612c93565b60405163ccbf363560e01b81526004810186905293849283926024840191612c72565b0381867f0000000000000000000000000000000000000000000000000000000000000000165afa9081156102ce576000916102ab575b5060405191808301818452825180915260408401918060408360051b8701019401926000965b83881061025f5786860387f35b9091929394838061029a600193603f198b820301875260408a51878151168352848101518584015201519060609081604082015201906121f4565b970193019701969093929193610252565b6102c891503d806000833e6102c081836124bc565b810190613862565b3861022c565b6040513d6000823e3d90fd5b6102fa9150873d8911610300575b6102f281836124bc565b810190612c5a565b386101cd565b503d6102e8565b600080fd5b34610307576060366003190112610307576004356001600160401b0381116103075761033c90369060040161218e565b90604051916308389ea360e21b83526020600484015260208380610364602482018587612c72565b03817f00000000000000000000000000000000000000000000000000000000000000006001600160a01b03165afa9182156102ce576103b16103be936103ca956000916103ce5750612c93565b6044359160243591612f5e565b604051918291826123bc565b0390f35b6103e6915060203d8111610300576102f281836124bc565b866101cd565b3461030757602080600319360112610307576004356001600160401b0381116103075761041d90369060040161218e565b6040516308389ea360e21b8152600481018490529091838280610444602482018786612c72565b03817f00000000000000000000000000000000000000000000000000000000000000006001600160a01b03165afa9182156102ce57849261048c916000916104fa5750612c93565b8260405193849283378101600281520301902080546104aa81612d27565b916104b860405193846124bc565b8183526000908152838120938084015b8383106104dd57604051806103ca87826123bc565b600a826001926104ec89612de2565b8152019601920191946104c8565b6103e69150843d8611610300576102f281836124bc565b3461030757602080600319360112610307576001600160a01b036105336121bb565b166000526005815260406000209081549061054d82612eed565b9260005b83811061056657604051806103ca87826123bc565b806105746105a99284612bb6565b9054600391821b1c600052845261058e6040600020612de2565b6105988288612f4a565b526105a38187612f4a565b50612c4b565b610551565b34610307576040366003190112610307576004356001600160401b038111610307576105de90369060040161218e565b90602490813592600b9081851015928361030757604051906308389ea360e21b825260206004830152602082806106188982018786612c72565b03817f00000000000000000000000000000000000000000000000000000000000000006001600160a01b03165afa9182156102ce576020926106619160009161078d5750612c93565b82604051938492833781016002815203019020936000926000938654945b85811061072e575061069090612eed565b9460009360005b8681106106ac57604051806103ca8a826123bc565b8360ff60046106bb848d61262b565b500154169061071957828110156107195785146106e1575b6106dc90612c4b565b610697565b946107116106dc916106fc6106f6898d61262b565b50612de2565b610706828c612f4a565b526105a3818b612f4a565b9590506106d3565b83634e487b7160e01b60005260216004526000fd5b8260ff600461073d848c61262b565b50015416906107785785811015610778578414610763575b61075e90612c4b565b61067f565b9061077061075e91612c4b565b919050610755565b87634e487b7160e01b60005260216004526000fd5b6107a49150843d8111610300576102f281836124bc565b896101cd565b34610307576020366003190112610307576004356107c6612e96565b508060005260036020526107e3600860406000200154151561301a565b60005260036020526103ca6107fb6040600020612de2565b604051918291602083526020830190612303565b34610307576040366003190112610307576103ca6103be602435600435613986565b34610307576020366003190112610307576004356001600160401b0381116103075760206108648192369060040161218e565b91908260405193849283378101600281520301902054604051908152f35b34610307576020366003190112610307576004356001600160401b038111610307576108b56108bb91369060040161218e565b9061305f565b60405190602082528051151560208301526020810151151560408301526040810151151560608301526060810151151560808301526080810151151560a083015260a08101519061091a610260928360c08601526102808501906121f4565b6109fb61093960c084015192601f1993848883030160e08901526121f4565b6109e661097161095a60e08701519361010094878b830301868c01526121f4565b928601519261012093868a830301858b01526121f4565b918501516101409081890152850151610160908189015260018060a01b03908601511661018090818901528501516109af6101a091828a01906122e9565b8501516101c090818901528501516101e09081890152850151610200908189015285015191610220928589830301848a01526121f4565b908401516102409387830301848801526121f4565b9101516004811015610a105783928301520390f35b634e487b7160e01b600052602160045260246000fd5b3461030757610a3436612219565b9190806040519283376002908201818152829003602001909120805491906000805b848110610ae45750610a6790612eed565b9360009260005b858110610a8357604051806103ca89826123bc565b81610a8e828661262b565b5001546001600160a01b03848116911614610ab2575b610aad90612c4b565b610a6e565b93610adc610aad91610ac76106f6888861262b565b610ad1828b612f4a565b526105a3818a612f4a565b949050610aa4565b83610aef828561262b565b5001546001600160a01b03878116911614610b13575b610b0e90612c4b565b610a56565b90610b20610b0e91612c4b565b919050610b05565b34610307576000366003190112610307576040517f00000000000000000000000000000000000000000000000000000000000000006001600160a01b03168152602090f35b34610307576000366003190112610307576040517f00000000000000000000000000000000000000000000000000000000000000006001600160a01b03168152602090f35b34610307576080610bcb610bc53661225b565b91613810565b9160405193151584521515602084015260018060a01b031660408301526060820152f35b34610307576020366003190112610307576004356001600160401b03811161030757610c1f90369060040161218e565b604051916308389ea360e21b83526020600484015260208380610c46602482018686612c72565b03817f00000000000000000000000000000000000000000000000000000000000000006001600160a01b03165afa9182156102ce57610c91600093610cb495859161102b5750612c93565b60405163ccbf363560e01b81526020600482015293849283926024840191612c72565b03817f00000000000000000000000000000000000000000000000000000000000000006001600160a01b03165afa9081156102ce57600091611010575b50805190610cfe82612d27565b91610d0c60405193846124bc565b808352601f199081610d1d82612d27565b01366020860137610d2d8161393c565b92610d378261393c565b90610d418361393c565b92610d4b81612d27565b94610d5960405196876124bc565b818652610d6582612d27565b0136602087013760005b818110610e395750505060405194859460a0860160a087528251809152602060c0880193019060005b818110610e175750505091610dbc82610dd8959488610dca950360208a015261228d565b90868203604088015261228d565b90848203606086015261228d565b82810360808401526020808351928381520192019060005b818110610dfe575050500390f35b8251845285945060209384019390920191600101610df0565b82516001600160a01b0316855289985060209485019490920191600101610d98565b95969495939492936001600160a01b03610e538285612f4a565b515116610e608286612f4a565b526040610e6d8285612f4a565b510151610e7a8288612f4a565b52610e858187612f4a565b506020610e928285612f4a565b510151610e9f8289612f4a565b526001600160a01b03610eb28285612f4a565b5151604051634427673360e01b815291166004820152906020826024817f00000000000000000000000000000000000000000000000000000000000000006001600160a01b03165afa9182156102ce57610fb192610f1891600091610fe1575b5061401e565b610f22828b612f4a565b52610f2d818a612f4a565b506001600160a01b03610f408286612f4a565b515160405163397297ad60e11b8152911660048201526000816024817f00000000000000000000000000000000000000000000000000000000000000006001600160a01b03165afa60009181610fbc575b5061058e5750604051610fa381612486565b600081526105988288612f4a565b969594939296610d6f565b610fda9192503d806000833e610fd281836124bc565b8101906125e1565b908b610f91565b611003915060203d602011611009575b610ffb81836124bc565b810190612584565b8b610f12565b503d610ff1565b61102591503d806000833e6102c081836124bc565b81610cf1565b6103e6915060203d602011610300576102f281836124bc565b34610307576020366003190112610307576004356001600160401b038111610307576020611078608092369060040161218e565b91906000606060405161108a8161246b565b8281528285820152826040820152015282604051938492833781016006815203019020604051906110ba8261246b565b805491828152600260018301549260208301938452015491604082019060ff606060018060a01b03948587168552019460a01c1615158452604051948552516020850152511660408301525115156060820152f35b346103075761111d3661225b565b604051630b88ded160e01b8152336004820152600260248201529092602092916001600160a01b039084816044817f000000000000000000000000000000000000000000000000000000000000000086165afa9081156102ce57600091611410575b50156113b5576040516308389ea360e21b8152600481018590528481806111aa602482018888612c72565b0381857f0000000000000000000000000000000000000000000000000000000000000000165afa80156102ce576111e8916000916113985750612c93565b841561135f5760ff60026040518585823786818781016006815203019020015460a01c1661130c576040519061121d8261246b565b85825284820190428252600260408401933385526060810193600185526040518888823789818a81016006815203019020915182555160018201550192511682549160ff60a01b9051151560a01b169160018060a81b031916171790556112c661128836848461254d565b611290612cdd565b6040519161129d836124a1565b6016835275119a5b99d95c9c1c9a5b9d081c9959da5cdd195c995960521b878401523390613af2565b8160405192839283378101600081520390209060405192835242908301527fed9f55659993a3c178752fb22e75bb620acd6313add767f31fa343ac1436763160403393a3005b60405162461bcd60e51b815260048101859052602560248201527f54726163653a2066696e6765727072696e7420616c72656164792072656769736044820152641d195c995960da1b6064820152608490fd5b60405162461bcd60e51b81526004810185905260116024820152700a8e4c2c6ca7440cadae0e8f240d0c2e6d607b1b6044820152606490fd5b6113af9150863d8811610300576102f281836124bc565b876101cd565b60405162461bcd60e51b815260048101859052602d60248201527f54726163653a2063616c6c6572206973206e6f7420616e20617070726f76656460448201526c1036b0b73ab330b1ba3ab932b960991b6064820152608490fd5b6114279150853d8711610300576102f281836124bc565b8661117f565b3461030757611465602061144036612219565b90604051809581948293630f6963f960e21b8452604060048501526044840191612c72565b6001600160a01b03938416602483015203917f0000000000000000000000000000000000000000000000000000000000000000165afa80156102ce576000906114b4575b602090604051908152f35b506020813d82116114de575b816114cd602093836124bc565b8101031261030757602090516114a9565b3d91506114c0565b34610307576040366003190112610307576001600160401b036004358181116103075761151790369060040161218e565b9060249283358181116103075761153290369060040161218e565b6040516303e1469160e61b8152919290916001600160a01b03906020816004817f000000000000000000000000000000000000000000000000000000000000000086165afa80156102ce5782906000906118c5575b61159492501633146124f3565b6040516308389ea360e21b815260206004820181905281806115b98b82018b8b612c72565b0381857f0000000000000000000000000000000000000000000000000000000000000000165afa80156102ce576115f7916000916118ac5750612c93565b821561187457604051868682376020818881016007815203019020916040519061162082612450565b33825261162e36868861254d565b60208301908152426040840152845494600160401b86101561185f576001860180825586101561184a57600090815260209020835160038702820180546001600160a01b0319169190961617909455518051909990918211611836575061169d6001600386028501015461265d565b601f81116117e6575b506020601f82116001146117625760029392826003936040936117169b9c9d600092611757575b50508160011b9160001990861b1c1916176001848802860101555b0151930201015561170e6116fd36878761254d565b92611706612d05565b92369161254d565b913390613af2565b816040519283928337810160008152039020604051904282527f9845dad3a8487fcfcef62db225ee84f4994507ad08f64313008cb5d9144ecfb460203393a3005b015190508d806116cd565b60016003860285010160005260206000209960005b601f19841681106117ce5750926001836117169a9b9c60409460029897600397601f198116106117b6575b505050811b016001848802860101556116e8565b015160001983881b60f8161c191690558d80806117a2565b828201518c556001909b019a60209283019201611777565b6001600386028501016000526020600020601f830160051c8101916020841061182c575b601f0160051c01905b81811061182057506116a6565b60008155600101611813565b909150819061180a565b634e487b7160e01b60009081526041600452fd5b8a634e487b7160e01b60005260326004526000fd5b8a634e487b7160e01b60005260416004526000fd5b60405162461bcd60e51b8152602060048201526011818901527054726163653a20656d707479206e6f746560781b6044820152606490fd5b6107a4915060203d602011610300576102f281836124bc565b50506020813d6020116118fa575b816118e0602093836124bc565b8101031261030757816118f5611594926124df565b611587565b3d91506118d3565b346103075760403660031901126103075761191b6121bb565b60243590811515809203610307576040516303e1469160e61b81526020916001600160a01b039183816004817f000000000000000000000000000000000000000000000000000000000000000087165afa80156102ce578390600090611a12575b61198992501633146124f3565b169182156119d757907f3046d191ee6b1e047d1d9ffca805ece034ff39d74e00f0475f0d0b603879f0de918360005260008252604060002060ff1981541660ff8316179055604051908152a2005b60405162461bcd60e51b815260048101839052601360248201527254726163653a207a65726f206164647265737360681b6044820152606490fd5b50508381813d8311611a43575b611a2981836124bc565b810103126103075782611a3e611989926124df565b61197c565b503d611a1f565b34610307576000366003190112610307576040517f00000000000000000000000000000000000000000000000000000000000000006001600160a01b03168152602090f35b3461030757602080600319360112610307576004356001600160401b03811161030757611ac18291369060040161218e565b91908260405193849283378101600781520301902090815491611ae383612d27565b92611af160405194856124bc565b8084528284018092600052836000206000915b838310611b8e5750505050604051918083019381845251809452604083019360408160051b85010192916000955b828710611b3f5785850386f35b909192938280600192603f19898203018552875190848060a01b038251168152604080611b7885850151606080888701528501906121f4565b9301519101529601920196019592919092611b32565b600386600192604099989951611ba381612450565b848060a01b038654168152611bb9858701612d3e565b8382015260028601546040820152815201920192019190959495611b04565b346103075760208060031936011261030757606090600435600052600381526040600020600881015490611c0d82151561301a565b6014611c746040600984015494845494600281015491611c60600683015492600586519889968d88019b8c52611c4889890160018601613a70565b908f600180911b03199060601b168152019101613a70565b9182528882015203868101845201826124bc565b519020906040519281151584528301526040820152f35b34610307576000366003190112610307576020600454604051908152f35b346103075760a0366003190112610307576001600160401b039060043582811161030757611cdb90369060040161218e565b916024356001600160a01b0381811693918490036103075760443586811161030757611d0b90369060040161218e565b91909660843590811161030757611d2690369060040161218e565b9092336000526020956000875260ff60406000205416908115612106575b50156120ab57871561206a578615612031578015611ff657611d6f611d6a36838c61254d565b613d97565b9360405193634427673360e01b85528860048601527f000000000000000000000000000000000000000000000000000000000000000016928785602481875afa9485156102ce57600095611fd7575b50604051611dcb81612486565b600081529360008a60246040518094819363397297ad60e11b835260048301525afa60009181611fba575b50611fb2575b5060019a8b5493600019430195438711611f9c57898d8c84826040519384938401958c8752604085013760243560601b6001600160601b03191660409184019182015281886054830137016064359a8b60548301524260748301524060948201520360948101825260b401611e7190826124bc565b5190209760405196611e828861241e565b8752611e8f368f8d61254d565b8c8801528c60408801526060870190611ea791612613565b6080860152611eb98860a0870161261f565b3690611ec49261254d565b60c08401528360e08401523690611eda9261254d565b6101008201524261012082015282610140820152806040518987823787818b8101600281520301902090611f0d91612b71565b885460005260038652604060002090611f2591612697565b8754611f3090612bce565b856000526005855260406000208854611f4891612c16565b8754968794816040519283928337810160008152039020946040519384611f6e916122f6565b8301526040820152426060820152608060008051602061413083398151915291a4611f9890612c4b565b9055005b634e487b7160e01b600052601160045260246000fd5b93508b611dfc565b611fd09192503d806000833e610fd281836124bc565b908d611df6565b611fef919550883d8a1161100957610ffb81836124bc565b938b611dbe565b60405162461bcd60e51b81526004810187905260136024820152722a3930b1b29d1032b6b83a3c9030b1ba34b7b760691b6044820152606490fd5b60405162461bcd60e51b81526004810187905260116024820152702a3930b1b29d103d32b9379030b1ba37b960791b6044820152606490fd5b60405162461bcd60e51b81526004810187905260196024820152782a3930b1b29d1032b6b83a3c903130ba31b410373ab6b132b960391b6044820152606490fd5b60405162461bcd60e51b815260048101879052602d60248201527f54726163653a2063616c6c6572206e6f7420617574686f726973656420746f2060448201526c7265636f7264206576656e747360981b6064820152608490fd5b6303e1469160e61b8152905086816004817f000000000000000000000000000000000000000000000000000000000000000088165afa80156102ce578491600091612156575b501633148a611d44565b809250888092503d8311612187575b61216f81836124bc565b810103126103075761218184916124df565b8b61214c565b503d612165565b9181601f84011215610307578235916001600160401b038311610307576020838186019501011161030757565b600435906001600160a01b038216820361030757565b60005b8381106121e45750506000910152565b81810151838201526020016121d4565b9060209161220d815180928185528580860191016121d1565b601f01601f1916010190565b604060031982011261030757600435906001600160401b038211610307576122439160040161218e565b90916024356001600160a01b03811681036103075790565b604060031982011261030757600435906001600160401b038211610307576122859160040161218e565b909160243590565b908082519081815260208091019281808460051b8301019501936000915b8483106122bb5750505050505090565b90919293949584806122d9600193601f198682030187528a516121f4565b98019301930191949392906122ab565b906006821015610a105752565b90600b821015610a105752565b90815181526123a361238561236161232a60208601516101608060208801528601906121f4565b6040868101516001600160a01b03169086015260608087015161234f918701906122e9565b608086015185820360808701526121f4565b61237360a086015160a08601906122f6565b60c085015184820360c08601526121f4565b60e084015160e08401526101008085015190848303908501526121f4565b9161012080820151908301526101408091015191015290565b602080820190808352835180925260408301928160408460051b8301019501936000915b8483106123f05750505050505090565b909192939495848061240e600193603f198682030187528a51612303565b98019301930191949392906123e0565b61016081019081106001600160401b0382111761243a57604052565b634e487b7160e01b600052604160045260246000fd5b606081019081106001600160401b0382111761243a57604052565b608081019081106001600160401b0382111761243a57604052565b602081019081106001600160401b0382111761243a57604052565b604081019081106001600160401b0382111761243a57604052565b601f909101601f19168101906001600160401b0382119082101761243a57604052565b51906001600160a01b038216820361030757565b156124fa57565b60405162461bcd60e51b815260206004820152601060248201526f2a3930b1b29d103737ba1030b236b4b760811b6044820152606490fd5b6001600160401b03811161243a57601f01601f191660200190565b92919261255982612532565b9161256760405193846124bc565b829481845281830111610307578281602093846000960137010152565b90816020910312610307575160068110156103075790565b81601f820112156103075780516125b281612532565b926125c060405194856124bc565b81845260208284010111610307576125de91602080850191016121d1565b90565b906020828203126103075781516001600160401b038111610307576125de920161259c565b91908203918211611f9c57565b6006821015610a105752565b600b821015610a105752565b805482101561264757600052600a602060002091020190600090565b634e487b7160e01b600052603260045260246000fd5b90600182811c9216801561268d575b602083101461267757565b634e487b7160e01b600052602260045260246000fd5b91607f169161266c565b8151815560208083015180519293926001600160401b0391906001908187019084811161243a57806126c9835461265d565b94601f95868111612b1f575b508790868311600114612abc57600092612ab1575b5050600019600383901b1c191690831b1790555b6002860160018060a01b0360408701511681549060608801516006811015610a10576001600160a81b03199092161760a09190911b60ff60a01b161790556080850151805160039391888501919086821161243a57819061275f845461265d565b858111612a60575b5088908583116001146129fe576000926129f3575b505060001982871b1c191690841b1790555b6004870160a0870151600b811015610a105760ff801983541691161790556005870160c087015180519086821161243a5781906127cb845461265d565b8581116129a2575b50889085831160011461294057600092612935575b505060001982871b1c191690841b1790555b60e08601516006880155600787019461010087015190815195861161243a57612823875461265d565b8381116128ef575b508092861160011461287b57509284809360099896936101409896600095612870575b50501b92600019911b1c19161790555b61012081015160088501550151910155565b01519350388061284e565b9294939190601f1985168760005284600020946000905b8282106128d857505091859391610140989660099a989694106128be575b50505050811b01905561285e565b01519060f884600019921b161c19169055388080806128b0565b808986988294978701518155019701940190612892565b87600052816000208480890160051c820192848a1061292c575b0160051c019085905b82811061292057505061282b565b60008155018590612912565b92508192612909565b0151905038806127e8565b90869350601f19831691856000528a6000209260005b8c82821061298c5750508411612974575b505050811b0190556127fa565b015160001983891b60f8161c19169055388080612967565b8385015186558a97909501949384019301612956565b90915083600052886000208580850160051c8201928b86106129ea575b918891869594930160051c01915b8281106129db5750506127d3565b600081558594508891016129cd565b925081926129bf565b01519050388061277c565b90869350601f19831691856000528a6000209260005b8c828210612a4a5750508411612a32575b505050811b01905561278e565b015160001983891b60f8161c19169055388080612a25565b8385015186558a97909501949384019301612a14565b90915083600052886000208580850160051c8201928b8610612aa8575b918891869594930160051c01915b828110612a99575050612767565b60008155859450889101612a8b565b92508192612a7d565b0151905038806126ea565b90859350601f1983169185600052896000209260005b8b828210612b095750508411612af0575b505050811b0190556126fe565b015160001960f88460031b161c19169055388080612ae3565b8385015186558997909501949384019301612ad2565b90915060008481528881208780860160051c8201938b8710612b68575b91889187969594930160051c01925b838110612b5a575050506126d5565b828155869550889101612b4b565b93508193612b3c565b8054600160401b81101561243a57612b8e9160018201815561262b565b919091612ba057612b9e91612697565b565b634e487b7160e01b600052600060045260246000fd5b80548210156126475760005260206000200190600090565b600454600160401b81101561243a5760018101806004558110156126475760046000527f8a35acfbc15ff81a39ae7d344fd709f28e8600b4aa8c65c6b64bfe7fe36bd19b0155565b8054600160401b81101561243a57612c3391600182018155612bb6565b819291549060031b91821b91600019901b1916179055565b6000198114611f9c5760010190565b90816020910312610307575180151581036103075790565b908060209392818452848401376000828201840152601f01601f1916010190565b15612c9a57565b60405162461bcd60e51b815260206004820152601b60248201527a151c9858d94e8818985d18da08191bd95cc81b9bdd08195e1a5cdd602a1b6044820152606490fd5b60405190612cea826124a1565b600c82526b10985d18da10dc99585d195960a21b6020830152565b60405190612d12826124a1565b6006825265437573746f6d60d01b6020830152565b6001600160401b03811161243a5760051b60200190565b9060405191826000825492612d528461265d565b908184526001948581169081600014612dbf5750600114612d7c575b5050612b9e925003836124bc565b9093915060005260209081600020936000915b818310612da7575050612b9e93508201013880612d6e565b85548884018501529485019487945091830191612d8f565b915050612b9e94506020925060ff191682840152151560051b8201013880612d6e565b90604051612def8161241e565b6101406009829480548452612e0660018201612d3e565b602085015260028101546001600160a01b0381166040860152612e329060a01c60ff1660608601612613565b612e3e60038201612d3e565b6080850152612e5760ff60048301541660a0860161261f565b612e6360058201612d3e565b60c0850152600681015460e0850152612e7e60078201612d3e565b61010085015260088101546101208501520154910152565b60405190612ea38261241e565b8161014060009182815260606020820152826040820152826060820152606060808201528260a0820152606060c08201528260e08201526060610100820152826101208201520152565b90612ef782612d27565b612f0460405191826124bc565b8281528092612f15601f1991612d27565b019060005b828110612f2657505050565b602090612f31612e96565b82828501015201612f1a565b91908201809211611f9c57565b80518210156126475760209160051b010190565b602090939293826040519384928337810160028152030190209081549081158015613010575b612ff9578390828110612fef5750506000198101908111611f9c5782612fa991612606565b9060018201809211611f9c57612fbe82612eed565b9260005b838110612fd0575050505090565b8061058e6106f6612fe4612fea9486612f3d565b8661262b565b612fc2565b612fa99250612606565b5050505060405161300981612486565b6000815290565b5081841015612f84565b1561302157565b60405162461bcd60e51b8152602060048201526016602482015275151c9858d94e88195d995b9d081b9bdd08199bdd5b9960521b6044820152606490fd5b60405192919061026084016001600160401b0381118582101761243a576040526000845260006020850152600060408501526000606085015260006080850152606060a0850152606060c0850152606060e08501526060610100850152600061012085015260006101408501526000610160850152600061018085015260006101a085015260006101c085015260006101e0850152606061020085015260606102208501526000610240850152836040516308389ea360e21b81526020600482015260208180613133602482018888612c72565b03817f00000000000000000000000000000000000000000000000000000000000000006001600160a01b03165afa9081156102ce576000916137f1575b50156137e7575060018452604051633e72909d60e21b815260206004820152600081806131a1602482018787612c72565b03817f00000000000000000000000000000000000000000000000000000000000000006001600160a01b03165afa80156102ce57600091600090600093600094600090600094600093600095600098613624575b5060a08d015260c08c015260e08b01526101208a0152826101408a015261020089015261022088015260048210159081610a1057610240880183905260405163397297ad60e11b81526001600160a01b038581166004830152600090829060249082907f0000000000000000000000000000000000000000000000000000000000000000165afa60009181613607575b506135fc575060405161329781612486565b600081526101008901525b42108015906135ef575b15156040880152610a1057600281149081606088015260408701511591826135e6575b50816135dd575b501515608086015260405163d55a772d60e01b81526020600482018190528180613304602482018888612c72565b03817f00000000000000000000000000000000000000000000000000000000000000006001600160a01b03165afa9081156102ce576000916135a3575b506001600160a01b031661016086018190528061351a575b5060405163037dca0560e31b81526020600482018190528180613380602482018888612c72565b03817f00000000000000000000000000000000000000000000000000000000000000006001600160a01b03165afa9081156102ce576000916134e8575b506101a0860152604051637b9702d360e01b815260206004820181905281806133ea602482018888612c72565b03817f00000000000000000000000000000000000000000000000000000000000000006001600160a01b03165afa9081156102ce576000916134b6575b506101c0860152604051838382376020818581016002815203019020546101e086015260208501926000845260ff6002604051838682376020818581016006815203019020015460a01c1661347d575b50505050565b80600291604051948537600690840190815283900360200190922091909101546001600160a01b03908116911614905238808080613477565b90506020813d6020116134e0575b816134d1602093836124bc565b81010312610307575138613427565b3d91506134c4565b90506020813d602011613512575b81613503602093836124bc565b810103126103075751386133bd565b3d91506134f6565b604051634427673360e01b815260048101919091526020816024817f00000000000000000000000000000000000000000000000000000000000000006001600160a01b03165afa80156102ce5761357e91600091613584575b506101808701612613565b38613359565b61359d915060203d60201161100957610ffb81836124bc565b38613573565b90506020813d6020116135d5575b816135be602093836124bc565b81010312610307576135cf906124df565b38613341565b3d91506135b1565b905015386132d6565b159150386132cf565b50506000600182146132ac565b6101008901526132a2565b61361d9192503d806000833e610fd281836124bc565b9038613285565b985050505050505050503d90816000823e61363f82826124bc565b6102608183810103126103075780516001600160401b0381116103075761366b9083830190830161259c565b5060208101516001600160401b0381116103075761368e9083830190830161259c565b60408201516001600160401b038111610307576136b09084840190840161259c565b60608301519092906001600160401b038111610307576136d59085830190830161259c565b5060808101516001600160401b038111610307576136f89085830190830161259c565b5060a08101516001600160401b0381116103075761371b9085830190830161259c565b9361372860c083016124df565b6101008301519095906001600160401b0381116103075761374e9083850190850161259c565b5061012083015195610140840151916101e085015160018060401b0381116103075761377f9085870190870161259c565b6102008601519096906001600160401b038111610307576137a59086880190880161259c565b94610220870151966004881015610307576102408101516001600160401b038111610307576137d7928201910161259c565b50969091979295939496386131f5565b6000815293505050565b61380a915060203d602011610300576102f281836124bc565b38613170565b6020908260405193849283378101600681520301902060028101549160ff8360a01c161561385157815460019283015491149391926001600160a01b031691565b505050600090600090600090600090565b60209081818403126103075780516001600160401b039182821161030757019083601f8301121561030757815161389881612d27565b9460406138a7815197886124bc565b828752858088019360051b8601019482861161030757868101935b8685106138d457505050505050505090565b84518681116103075782019060609081601f198488030112610307578451916138fc83612450565b6139078b85016124df565b8352858401518b840152830151918883116103075761392d878c8096958196010161259c565b868201528152019401936138c2565b9061394682612d27565b61395360405191826124bc565b8281528092613964601f1991612d27565b019060005b82811061397557505050565b806060602080938501015201613969565b9060049081549081158015613a66575b612ff95783828210613a5d5750506000198101818111613a4857836139ba91612606565b9060018201809211613a48576139cf82612eed565b9360005b8381106139e257505050505090565b6139ec8183612f3d565b83811015613a3357906003613a2e928760005260209081600020015460005252613a196040600020612de2565b613a238289612f4a565b526105a38188612f4a565b6139d3565b603286634e487b7160e01b6000525260246000fd5b601183634e487b7160e01b6000525260246000fd5b6139ba91612606565b5081841015613996565b600092918154613a7f8161265d565b92600191808316908115613ad75750600114613a9b5750505050565b90919293945060005260209081600020906000915b858310613ac65750505050019038808080613477565b805485840152918301918101613ab0565b60ff1916845250505081151590910201915038808080613477565b9291613afd81613d97565b604051634427673360e01b81526001600160a01b038481166004830152957f00000000000000000000000000000000000000000000000000000000000000008716959293919290916020846024818a5afa9384156102ce57600094613d76575b5060246000604051613b6e81612486565b818152986040519283809263397297ad60e11b82528d8c1660048301525afa60009181613d5b575b50613d53575b5060019788549643600019430111611f9c57613ce4613d229860008051602061413083398151915295608095613d4f9c613c758a613c4760b46040518093896020830152613bf48151809260206040860191016121d1565b60608c901b6001600160601b031916604091830191820152875190613c20826054830160208c016121d1565b016000605482015242607482015260001943014060948201520360948101845201826124bc565b602081519101209b60405195613c5c8761241e565b86528b6020870152888816604087015260608601612613565b87840152613c868b60a0850161261f565b60c0830152600060e08301526101008201524261012082015287610140820152613cd08160405160208181613cc18d838151938492016121d1565b81016002815203019020612b71565b8b5460005260036020526040600020612697565b613cee8a54612bce565b8181166000526005602052613d0960406000208b5490612c16565b89549788956020604051928284809451938492016121d1565b810103902095613d3560405180996122f6565b6000602089015260408801524260608801521694a4612c4b565b9055565b965038613b9c565b613d6f91923d8091833e610fd281836124bc565b9038613b96565b613d9091945060203d60201161100957610ffb81836124bc565b9238613b5d565b805160208092012090613da8612cdd565b81815191012082146140175760406019828251613dc4816124a1565b828152017826b0b73ab330b1ba3ab932b92a37a234b9ba3934b13aba37b960391b815220831461400f576015828251613dfc816124a1565b82815201742234b9ba3934b13aba37b92a37a9bab8383634b2b960591b8152208314614007576014828251613e30816124a1565b828152017314dd5c1c1b1a595c951bd41a185c9b5858da5cdd60621b8152208314613fff576011828251613e63816124a1565b8281520170283430b936b0b1b4b9ba2a37a13abcb2b960791b8152208314613ff75760218151613e9281612450565b818152603960f91b83858301927f4578706972656452657475726e506861726d6163697374546f537570706c696584520152208314613fef5760228151613ed881612450565b8181526137b960f11b83858301927f4578706972656452657475726e537570706c696572546f44697374726962757484520152208314613fe75760268151613f1f81612450565b8181526531ba3ab932b960d11b83858301927f4578706972656452657475726e4469737472696275746f72546f4d616e75666184520152208314613fdf57600d828251613f6b816124a1565b828152016c10985d18da149958d85b1b1959609a1b8152208314613fd75781600c9151613f97816124a1565b828152016b10985d18da115e1c1a5c995960a21b8152208214613fd057613fbc612d05565b805191012014613fcb57600a90565b600a90565b5050600990565b505050600890565b505050600790565b505050600690565b505050600590565b505050600490565b505050600390565b505050600290565b505050600190565b5050600090565b6006811015610a10576001811461410d57600281146140e457600381146140bc5760048114614097576005146140715760405161405a816124a1565b60078152662ab735b737bbb760c91b602082015290565b60405161407d816124a1565b600a815269141a185c9b5858da5cdd60b21b602082015290565b506040516140a4816124a1565b600881526729bab8383634b2b960c11b602082015290565b506040516140c9816124a1565b600b81526a2234b9ba3934b13aba37b960a91b602082015290565b506040516140f1816124a1565b600c81526b26b0b73ab330b1ba3ab932b960a11b602082015290565b5060405161411a816124a1565b600581526420b236b4b760d91b60208201529056fe6686edc499100c5652532c4dd3d2c0c3b4806a90682677e39e9f3020f6e6b1b4a2646970667358221220c0ff9c5941ba0e0cd6465c8bf38e5295d872c6b1185b03e9458897d0c5ed811964736f6c63430008140033",
  "immutableReferences": {
    "3658": [
      {
        "length": 32,
        "start": 2947
      },
      {
        "length": 32,
        "start": 3793
      },
      {
        "length": 32,
        "start": 3934
      },
      {
        "length": 32,
        "start": 4429
      },
      {
        "length": 32,
        "start": 5460
      },
      {
        "length": 32,
        "start": 6473
      },
      {
        "length": 32,
        "start": 7558
      },
      {
        "length": 32,
        "start": 8473
      },
      {
        "length": 32,
        "start": 12890
      },
      {
        "length": 32,
        "start": 13623
      },
      {
        "length": 32,
        "start": 15133
      }
    ],
    "3661": [
      {
        "length": 32,
        "start": 402
      },
      {
        "length": 32,
        "start": 872
      },
      {
        "length": 32,
        "start": 1096
      },
      {
        "length": 32,
        "start": 1564
      },
      {
        "length": 32,
        "start": 3146
      },
      {
        "length": 32,
        "start": 4527
      },
      {
        "length": 32,
        "start": 5241
      },
      {
        "length": 32,
        "start": 5566
      },
      {
        "length": 32,
        "start": 6752
      },
      {
        "length": 32,
        "start": 12599
      },
      {
        "length": 32,
        "start": 12709
      }
    ],
    "3664": [
      {
        "length": 32,
        "start": 507
      },
      {
        "length": 32,
        "start": 2878
      },
      {
        "length": 32,
        "start": 3256
      },
      {
        "length": 32,
        "start": 13064
      },
      {
        "length": 32,
        "start": 13188
      },
      {
        "length": 32,
        "start": 13294
      }
    ]
  },
  "source": "// SPDX-License-Identifier: MIT\npragma solidity ^0.8.20;\n\n// ─────────────────────────────────────────────────────────────────────────────\n// Interface — RegistryContract\n// ─────────────────────────────────────────────────────────────────────────────\n\nimport \"./IRegistry.sol\";\n\n// ─────────────────────────────────────────────────────────────────────────────\n// Interface — ProductContract\n// ─────────────────────────────────────────────────────────────────────────────\n\nimport \"./IProduct.sol\";\n\n// ─────────────────────────────────────────────────────────────────────────────\n// Interface — TransferContract\n// ─────────────────────────────────────────────────────────────────────────────\n\ninterface ITransfer {\n    struct CustodyEntry {\n        address holder;\n        uint256 timestamp;\n        string  action;\n    }\n\n    function getCurrentOwner(string calldata _batchNumber)\n        external view returns (address);\n\n    function getCustodyChain(string calldata _batchNumber)\n        external view returns (ITransfer.CustodyEntry[] memory);\n\n    function getTotalSoldForBatch(string calldata _batchNumber)\n        external view returns (uint256);\n\n    function getAcceptedTransferCount(string calldata _batchNumber)\n        external view returns (uint256);\n}\n\n// ─────────────────────────────────────────────────────────────────────────────\n// TraceContract\n// ─────────────────────────────────────────────────────────────────────────────\n\n/// @title  TraceContract\n/// @notice The read/audit layer of the medicine supply chain.\n///         Records every on-chain event (called by TransferContract),\n///         stores product hash fingerprints for originality checks,\n///         and exposes rich query functions for every dashboard and\n///         the public Buyer verification page.\n///\n/// @dev    Write path  : only TransferContract (authorised caller) can push events.\n///         Read path   : anyone — no role restriction on view functions.\n///         This contract never moves tokens or stock; it is purely observational\n///         except for the event log it maintains.\ncontract TraceContract {\n\n    // ─────────────────────────────────────────────────────────────\n    // Contract references\n    // ─────────────────────────────────────────────────────────────\n\n    IRegistry public immutable registry;\n    IProduct  public immutable productContract;\n    ITransfer public immutable transferContract;\n\n    // ─────────────────────────────────────────────────────────────\n    // Enums\n    // ─────────────────────────────────────────────────────────────\n\n    /// @dev High-level category tag stored alongside every TraceEvent.\n    ///      Lets the frontend filter events by type without string parsing.\n    enum EventType {\n        BatchCreated,                       // 0 – manufacturer added batch\n        ManufacturerToDistributor,          // 1\n        DistributorToSupplier,              // 2\n        SupplierToPharmacist,               // 3\n        PharmacistToBuyer,                  // 4\n        ExpiredReturnPharmacistToSupplier,  // 5\n        ExpiredReturnSupplierToDistributor, // 6\n        ExpiredReturnDistributorToManufacturer, // 7\n        BatchRecalled,                      // 8\n        BatchExpired,                       // 9\n        Custom                              // 10 – admin annotations\n    }\n\n    // ─────────────────────────────────────────────────────────────\n    // Structs\n    // ─────────────────────────────────────────────────────────────\n\n    struct TraceEvent {\n        uint256   eventId;\n        string    batchNumber;\n        address   actor;            // who triggered the action\n        IRegistry.Role actorRole;   // role at time of event (snapshot)\n        string    actorLicense;     // license number snapshot\n        EventType eventType;\n        string    action;           // human-readable label\n        uint256   quantity;         // units involved (0 for non-stock events)\n        string    note;             // optional delivery / prescription note\n        uint256   timestamp;\n        bytes32   eventHash;        // tamper-evident fingerprint\n    }\n\n    struct ProductFingerprint {\n        bytes32 dataHash;           // keccak256 of core batch fields at creation\n        uint256 registeredAt;\n        address registeredBy;       // manufacturer address\n        bool    exists;\n    }\n\n    struct VerificationResult {\n        bool    batchFound;\n        bool    isOriginal;         // dataHash matches on-chain fingerprint\n        bool    isExpired;\n        bool    isRecalled;\n        bool    isActive;\n        string  productName;\n        string  genericName;\n        string  manufacturer;\n        string  manufacturerLicense;\n        uint256 mfgDate;\n        uint256 expiryDate;\n        address currentOwner;\n        IRegistry.Role currentOwnerRole;\n        uint256 totalTransfers;\n        uint256 totalSold;\n        uint256 eventCount;\n        string  qrCodeCID;\n        string  metadataCID;\n        IProduct.BatchStatus batchStatus;\n    }\n\n    // ─────────────────────────────────────────────────────────────\n    // Storage\n    // ─────────────────────────────────────────────────────────────\n\n    /// @dev Authorised callers that may push events (TransferContract).\n    mapping(address => bool) private authorisedCallers;\n\n    /// @dev Global event counter\n    uint256 private nextEventId = 1;\n\n    /// @dev Per-batch event log: batchNumber → TraceEvent[]\n    mapping(string => TraceEvent[]) private batchEvents;\n\n    /// @dev Global event index: eventId → TraceEvent (for admin global queries)\n    mapping(uint256 => TraceEvent) private eventById;\n\n    /// @dev All event IDs ever (for full system audit)\n    uint256[] private allEventIds;\n\n    /// @dev Per-actor event index: actor address → eventIds[]\n    mapping(address => uint256[]) private actorEvents;\n\n    /// @dev Per-batch originality fingerprint\n    mapping(string => ProductFingerprint) private fingerprints;\n\n    /// @dev Alert log: admin can annotate any batch with a note\n    struct AdminAnnotation {\n        address admin;\n        string  note;\n        uint256 timestamp;\n    }\n    mapping(string => AdminAnnotation[]) private adminAnnotations;\n\n    // ─────────────────────────────────────────────────────────────\n    // Events (Solidity events — indexed for off-chain listeners)\n    // ─────────────────────────────────────────────────────────────\n\n    event TraceEventRecorded(\n        uint256 indexed eventId,\n        string  indexed batchNumber,\n        address indexed actor,\n        EventType       eventType,\n        uint256         quantity,\n        bytes32         eventHash,\n        uint256         timestamp\n    );\n\n    event FingerprintRegistered(\n        string  indexed batchNumber,\n        bytes32         dataHash,\n        address indexed registeredBy,\n        uint256         timestamp\n    );\n\n    event AdminAnnotationAdded(\n        string  indexed batchNumber,\n        address indexed admin,\n        uint256         timestamp\n    );\n\n    event AuthorisedCallerSet(address indexed caller, bool authorised);\n\n    // ─────────────────────────────────────────────────────────────\n    // Modifiers\n    // ─────────────────────────────────────────────────────────────\n\n    modifier onlyAdmin() {\n        require(msg.sender == registry.admin(), \"Trace: not admin\");\n        _;\n    }\n\n    modifier onlyAuthorised() {\n        require(\n            authorisedCallers[msg.sender] || msg.sender == registry.admin(),\n            \"Trace: caller not authorised to record events\"\n        );\n        _;\n    }\n\n    modifier onlyManufacturer() {\n        require(\n            registry.isApprovedWithRole(msg.sender, IRegistry.Role.Manufacturer),\n            \"Trace: caller is not an approved manufacturer\"\n        );\n        _;\n    }\n\n    modifier batchMustExist(string calldata _batchNumber) {\n        require(\n            productContract.batchExistsCheck(_batchNumber),\n            \"Trace: batch does not exist\"\n        );\n        _;\n    }\n\n    // ─────────────────────────────────────────────────────────────\n    // Constructor\n    // ─────────────────────────────────────────────────────────────\n\n    constructor(\n        address _registry,\n        address _product,\n        address _transfer\n    ) {\n        require(_registry != address(0), \"Trace: zero registry\");\n        require(_product  != address(0), \"Trace: zero product\");\n        require(_transfer != address(0), \"Trace: zero transfer\");\n\n        registry         = IRegistry(_registry);\n        productContract  = IProduct(_product);\n        transferContract = ITransfer(_transfer);\n\n        // Authorise TransferContract to push events\n        authorisedCallers[_transfer] = true;\n        emit AuthorisedCallerSet(_transfer, true);\n    }\n\n    // ─────────────────────────────────────────────────────────────\n    // Authorised Caller Management  (Admin)\n    // ─────────────────────────────────────────────────────────────\n\n    /// @notice Grant or revoke event-recording permission for a contract.\n    function setAuthorisedCaller(address _caller, bool _authorised)\n        external\n        onlyAdmin\n    {\n        require(_caller != address(0), \"Trace: zero address\");\n        authorisedCallers[_caller] = _authorised;\n        emit AuthorisedCallerSet(_caller, _authorised);\n    }\n\n    // ─────────────────────────────────────────────────────────────\n    // Event Recording  (called by TransferContract)\n    // ─────────────────────────────────────────────────────────────\n\n    /// @notice Record a supply-chain event.\n    ///         Called by TransferContract on every accepted transfer and sale.\n    /// @param _batchNumber  The batch involved.\n    /// @param _actor        The address that triggered the action.\n    /// @param _action       String label (must match EventType — see _parseEventType).\n    /// @param _quantity     Units involved. 0 for non-stock events.\n    /// @param _note         Optional delivery / prescription note.\n    function recordEvent(\n        string  calldata _batchNumber,\n        address          _actor,\n        string  calldata _action,\n        uint256          _quantity,\n        string  calldata _note\n    )\n        external\n        onlyAuthorised\n    {\n        require(bytes(_batchNumber).length > 0, \"Trace: empty batch number\");\n        require(_actor != address(0),           \"Trace: zero actor\");\n        require(bytes(_action).length > 0,      \"Trace: empty action\");\n\n        EventType    eType   = _parseEventType(_action);\n        IRegistry.Role role  = registry.getRole(_actor);\n        string memory license = \"\";\n\n        // Snapshot the license number — it may change or be revoked later\n        try registry.getLicenseNumber(_actor) returns (string memory lic) {\n            license = lic;\n        } catch {}\n\n        // Build tamper-evident hash\n        bytes32 eHash = keccak256(abi.encodePacked(\n            nextEventId,\n            _batchNumber,\n            _actor,\n            _action,\n            _quantity,\n            block.timestamp,\n            blockhash(block.number - 1)\n        ));\n\n        TraceEvent memory te = TraceEvent({\n            eventId:      nextEventId,\n            batchNumber:  _batchNumber,\n            actor:        _actor,\n            actorRole:    role,\n            actorLicense: license,\n            eventType:    eType,\n            action:       _action,\n            quantity:     _quantity,\n            note:         _note,\n            timestamp:    block.timestamp,\n            eventHash:    eHash\n        });\n\n        // Store in all indexes\n        batchEvents[_batchNumber].push(te);\n        eventById[nextEventId] = te;\n        allEventIds.push(nextEventId);\n        actorEvents[_actor].push(nextEventId);\n\n        emit TraceEventRecorded(\n            nextEventId,\n            _batchNumber,\n            _actor,\n            eType,\n            _quantity,\n            eHash,\n            block.timestamp\n        );\n\n        nextEventId++;\n    }\n\n    // ─────────────────────────────────────────────────────────────\n    // Fingerprint Registration  (called by Manufacturer)\n    // ─────────────────────────────────────────────────────────────\n\n    /// @notice Manufacturer registers a cryptographic fingerprint of a batch\n    ///         at the time of creation. Used later by buyers to verify originality.\n    ///\n    ///         The hash should be computed OFF-CHAIN as:\n    ///         keccak256(abi.encodePacked(\n    ///             batchNumber, productName, genericName, strength,\n    ///             manufacturerAddr, mfgDate, expiryDate, totalQuantity\n    ///         ))\n    ///         and then passed here. This way the data is verifiable without\n    ///         storing all fields again on-chain.\n    ///\n    /// @param _batchNumber The batch to fingerprint.\n    /// @param _dataHash    keccak256 hash of core batch fields.\n    function registerFingerprint(\n        string  calldata _batchNumber,\n        bytes32          _dataHash\n    )\n        external\n        onlyManufacturer\n        batchMustExist(_batchNumber)\n    {\n        require(_dataHash != bytes32(0),                   \"Trace: empty hash\");\n        require(!fingerprints[_batchNumber].exists,        \"Trace: fingerprint already registered\");\n\n        fingerprints[_batchNumber] = ProductFingerprint({\n            dataHash:     _dataHash,\n            registeredAt: block.timestamp,\n            registeredBy: msg.sender,\n            exists:       true\n        });\n\n        // Record a trace event for the registration itself\n        _recordInternalEvent(\n            _batchNumber,\n            msg.sender,\n            \"BatchCreated\",\n            0,\n            \"Fingerprint registered\"\n        );\n\n        emit FingerprintRegistered(_batchNumber, _dataHash, msg.sender, block.timestamp);\n    }\n\n    // ─────────────────────────────────────────────────────────────\n    // Admin Annotation\n    // ─────────────────────────────────────────────────────────────\n\n    /// @notice Admin can attach an on-chain note to any batch\n    ///         (e.g. \"Inspection passed\", \"Quality alert\", \"Under investigation\").\n    function annotate(string calldata _batchNumber, string calldata _note)\n        external\n        onlyAdmin\n        batchMustExist(_batchNumber)\n    {\n        require(bytes(_note).length > 0, \"Trace: empty note\");\n\n        adminAnnotations[_batchNumber].push(AdminAnnotation({\n            admin:     msg.sender,\n            note:      _note,\n            timestamp: block.timestamp\n        }));\n\n        _recordInternalEvent(_batchNumber, msg.sender, \"Custom\", 0, _note);\n\n        emit AdminAnnotationAdded(_batchNumber, msg.sender, block.timestamp);\n    }\n\n    // ─────────────────────────────────────────────────────────────\n    // VIEW — Full History (for all role dashboards)\n    // ─────────────────────────────────────────────────────────────\n\n    /// @notice Returns the complete ordered event log for a batch.\n    ///         Used by all role dashboards to show the \"trace timeline\".\n    function getFullHistory(string calldata _batchNumber)\n        external\n        view\n        batchMustExist(_batchNumber)\n        returns (TraceEvent[] memory)\n    {\n        return batchEvents[_batchNumber];\n    }\n\n    /// @notice Returns a slice of events for pagination.\n    /// @param _from  Start index (0-based, inclusive).\n    /// @param _to    End index (inclusive). If _to >= array length, clamps to last.\n    function getHistorySlice(\n        string calldata _batchNumber,\n        uint256 _from,\n        uint256 _to\n    )\n        external\n        view\n        batchMustExist(_batchNumber)\n        returns (TraceEvent[] memory)\n    {\n        TraceEvent[] storage events = batchEvents[_batchNumber];\n        uint256 len = events.length;\n        if (len == 0 || _from >= len) return new TraceEvent[](0);\n\n        uint256 end = _to >= len ? len - 1 : _to;\n        uint256 size = end - _from + 1;\n\n        TraceEvent[] memory result = new TraceEvent[](size);\n        for (uint256 i = 0; i < size; i++) {\n            result[i] = events[_from + i];\n        }\n        return result;\n    }\n\n    /// @notice Returns events filtered by EventType (e.g. only transfers).\n    function getHistoryByType(\n        string    calldata _batchNumber,\n        EventType          _eventType\n    )\n        external\n        view\n        batchMustExist(_batchNumber)\n        returns (TraceEvent[] memory)\n    {\n        TraceEvent[] storage events = batchEvents[_batchNumber];\n        uint256 count = 0;\n        for (uint256 i = 0; i < events.length; i++) {\n            if (events[i].eventType == _eventType) count++;\n        }\n        TraceEvent[] memory result = new TraceEvent[](count);\n        uint256 idx = 0;\n        for (uint256 i = 0; i < events.length; i++) {\n            if (events[i].eventType == _eventType) {\n                result[idx] = events[i];\n                idx++;\n            }\n        }\n        return result;\n    }\n\n    /// @notice Returns all events triggered by a specific actor address.\n    function getEventsByActor(address _actor)\n        external\n        view\n        returns (TraceEvent[] memory)\n    {\n        uint256[] storage ids = actorEvents[_actor];\n        TraceEvent[] memory result = new TraceEvent[](ids.length);\n        for (uint256 i = 0; i < ids.length; i++) {\n            result[i] = eventById[ids[i]];\n        }\n        return result;\n    }\n\n    /// @notice Returns a single event by its global ID.\n    function getEventById(uint256 _eventId)\n        external\n        view\n        returns (TraceEvent memory)\n    {\n        require(eventById[_eventId].timestamp != 0, \"Trace: event not found\");\n        return eventById[_eventId];\n    }\n\n    /// @notice Returns the total number of events recorded for a batch.\n    function getEventCount(string calldata _batchNumber)\n        external\n        view\n        returns (uint256)\n    {\n        return batchEvents[_batchNumber].length;\n    }\n\n    /// @notice Returns the total number of events in the whole system.\n    function getTotalEventCount() external view returns (uint256) {\n        return allEventIds.length;\n    }\n\n    // ─────────────────────────────────────────────────────────────\n    // VIEW — Verification (Buyer / Public)\n    // ─────────────────────────────────────────────────────────────\n\n    /// @notice The primary buyer-facing function. Given a batch number\n    ///         (typed or scanned via QR), returns a complete VerificationResult\n    ///         struct with all the information needed to confirm:\n    ///           1. The product exists on-chain.\n    ///           2. It matches the manufacturer's registered fingerprint.\n    ///           3. It has not expired or been recalled.\n    ///           4. Where it currently is in the supply chain.\n    ///           5. How many times it changed hands.\n    function verifyProduct(string calldata _batchNumber)\n        external\n        view\n        returns (VerificationResult memory result)\n    {\n        // ── Does the batch exist? ────────────────────────────────\n        if (!productContract.batchExistsCheck(_batchNumber)) {\n            result.batchFound = false;\n            return result;\n        }\n\n        result.batchFound = true;\n\n        // ── Pull batch data ──────────────────────────────────────\n        (\n            ,                           // batchNumber (same as input)\n            string memory productName,\n            string memory genericName,\n            ,                           // dosageForm\n            ,                           // strength\n            string memory manufacturer,\n            address manufacturerAddr,\n            ,                           // costPerUnit\n            ,                           // currency\n            uint256 mfgDate,\n            uint256 expiryDate,\n            ,                           // createdAt\n            ,                           // totalQuantity\n            ,                           // remainingAtSource\n            ,                           // transferredOut\n            string memory qrCodeCID,\n            string memory metadataCID,\n            IProduct.BatchStatus bStatus,\n            // recallReason\n        ) = productContract.getBatch(_batchNumber);\n\n        result.productName   = productName;\n        result.genericName   = genericName;\n        result.manufacturer  = manufacturer;\n        result.mfgDate       = mfgDate;\n        result.expiryDate    = expiryDate;\n        result.qrCodeCID     = qrCodeCID;\n        result.metadataCID   = metadataCID;\n        result.batchStatus   = bStatus;\n\n        // ── Manufacturer license snapshot ────────────────────────\n        try registry.getLicenseNumber(manufacturerAddr) returns (string memory lic) {\n            result.manufacturerLicense = lic;\n        } catch {\n            result.manufacturerLicense = \"\";\n        }\n\n        // ── Expiry & recall flags ────────────────────────────────\n        result.isExpired  = (block.timestamp >= expiryDate) ||\n                            (bStatus == IProduct.BatchStatus.Expired);\n        result.isRecalled = (bStatus == IProduct.BatchStatus.Recalled);\n        result.isActive   = !result.isExpired && !result.isRecalled &&\n                            (bStatus == IProduct.BatchStatus.Active);\n\n        // ── Current owner ────────────────────────────────────────\n        result.currentOwner = transferContract.getCurrentOwner(_batchNumber);\n        if (result.currentOwner != address(0)) {\n            result.currentOwnerRole = registry.getRole(result.currentOwner);\n        }\n\n        // ── Transfer & sale stats ────────────────────────────────\n        result.totalTransfers = transferContract.getAcceptedTransferCount(_batchNumber);\n        result.totalSold      = transferContract.getTotalSoldForBatch(_batchNumber);\n\n        // ── Event count ──────────────────────────────────────────\n        result.eventCount = batchEvents[_batchNumber].length;\n\n        // ── Originality check — fingerprint not required to be set ──\n        result.isOriginal = false;  // default\n        if (fingerprints[_batchNumber].exists) {\n            // Caller can supply hash off-chain; here we just confirm\n            // fingerprint exists and was set by the correct manufacturer\n            result.isOriginal = (fingerprints[_batchNumber].registeredBy == manufacturerAddr);\n        }\n    }\n\n    /// @notice Buyer supplies the hash they computed from the medicine packaging.\n    ///         Returns true if it matches the on-chain fingerprint exactly.\n    ///         This is the tamper / counterfeit detection call.\n    function verifyFingerprint(\n        string  calldata _batchNumber,\n        bytes32          _suppliedHash\n    )\n        external\n        view\n        returns (\n            bool    matches,\n            bool    fingerprintExists,\n            address registeredBy,\n            uint256 registeredAt\n        )\n    {\n        ProductFingerprint storage fp = fingerprints[_batchNumber];\n        if (!fp.exists) {\n            return (false, false, address(0), 0);\n        }\n        return (\n            fp.dataHash == _suppliedHash,\n            true,\n            fp.registeredBy,\n            fp.registeredAt\n        );\n    }\n\n    /// @notice Returns the full fingerprint record for a batch.\n    function getFingerprint(string calldata _batchNumber)\n        external\n        view\n        returns (ProductFingerprint memory)\n    {\n        return fingerprints[_batchNumber];\n    }\n\n    // ─────────────────────────────────────────────────────────────\n    // VIEW — Custody Chain (timeline for all roles & buyer)\n    // ─────────────────────────────────────────────────────────────\n\n    /// @notice Returns the full ordered custody chain from TransferContract.\n    ///         Each entry shows who held the batch and when.\n    function getCustodyChain(string calldata _batchNumber)\n        external\n        view\n        batchMustExist(_batchNumber)\n        returns (ITransfer.CustodyEntry[] memory)\n    {\n        return transferContract.getCustodyChain(_batchNumber);\n    }\n\n    /// @notice Returns a human-readable summary of each custody step,\n    ///         enriched with role and license data from RegistryContract.\n    ///         Ideal for the buyer's \"journey\" card view.\n    function getCustodyTimeline(string calldata _batchNumber)\n        external\n        view\n        batchMustExist(_batchNumber)\n        returns (\n            address[] memory holders,\n            string[]  memory roles,\n            string[]  memory licenses,\n            string[]  memory actions,\n            uint256[] memory timestamps\n        )\n    {\n        ITransfer.CustodyEntry[] memory chain =\n            transferContract.getCustodyChain(_batchNumber);\n\n        uint256 len = chain.length;\n        holders    = new address[](len);\n        roles      = new string[](len);\n        licenses   = new string[](len);\n        actions    = new string[](len);\n        timestamps = new uint256[](len);\n\n        for (uint256 i = 0; i < len; i++) {\n            holders[i]    = chain[i].holder;\n            actions[i]    = chain[i].action;\n            timestamps[i] = chain[i].timestamp;\n            roles[i]      = _roleLabel(registry.getRole(chain[i].holder));\n            try registry.getLicenseNumber(chain[i].holder) returns (string memory lic) {\n                licenses[i] = lic;\n            } catch {\n                licenses[i] = \"\";\n            }\n        }\n    }\n\n    // ─────────────────────────────────────────────────────────────\n    // VIEW — Role-Specific Stock Dashboards\n    // ─────────────────────────────────────────────────────────────\n\n    /// @notice Returns the current stock quantity for a holder across a batch.\n    ///         Thin wrapper — delegates to ProductContract.\n    function getStockOf(string calldata _batchNumber, address _holder)\n        external\n        view\n        returns (uint256)\n    {\n        return productContract.getStockOf(_batchNumber, _holder);\n    }\n\n    /// @notice Returns events relevant to a specific node (role dashboard).\n    ///         Filters the batch event log to only events where actor == _holder.\n    function getEventsForHolder(\n        string  calldata _batchNumber,\n        address          _holder\n    )\n        external\n        view\n        returns (TraceEvent[] memory)\n    {\n        TraceEvent[] storage events = batchEvents[_batchNumber];\n        uint256 count = 0;\n        for (uint256 i = 0; i < events.length; i++) {\n            if (events[i].actor == _holder) count++;\n        }\n        TraceEvent[] memory result = new TraceEvent[](count);\n        uint256 idx = 0;\n        for (uint256 i = 0; i < events.length; i++) {\n            if (events[i].actor == _holder) {\n                result[idx] = events[i];\n                idx++;\n            }\n        }\n        return result;\n    }\n\n    // ─────────────────────────────────────────────────────────────\n    // VIEW — Admin Queries\n    // ─────────────────────────────────────────────────────────────\n\n    /// @notice Returns all admin annotations on a batch.\n    function getAnnotations(string calldata _batchNumber)\n        external\n        view\n        returns (AdminAnnotation[] memory)\n    {\n        return adminAnnotations[_batchNumber];\n    }\n\n    /// @notice Returns a batch of global events by IDs (admin audit log).\n    /// @param _from  Start index in allEventIds[].\n    /// @param _to    End index in allEventIds[] (inclusive, clamped).\n    function getGlobalEventSlice(uint256 _from, uint256 _to)\n        external\n        view\n        returns (TraceEvent[] memory)\n    {\n        uint256 len = allEventIds.length;\n        if (len == 0 || _from >= len) return new TraceEvent[](0);\n\n        uint256 end  = _to >= len ? len - 1 : _to;\n        uint256 size = end - _from + 1;\n\n        TraceEvent[] memory result = new TraceEvent[](size);\n        for (uint256 i = 0; i < size; i++) {\n            result[i] = eventById[allEventIds[_from + i]];\n        }\n        return result;\n    }\n\n    // ─────────────────────────────────────────────────────────────\n    // VIEW — Integrity Check\n    // ─────────────────────────────────────────────────────────────\n\n    /// @notice Re-computes a stored event's hash and compares it to\n    ///         what is stored. Returns false if anyone tampered with\n    ///         the struct after recording (should never happen in Solidity,\n    ///         but useful as a defensive audit tool on a test chain).\n    function verifyEventIntegrity(uint256 _eventId)\n        external\n        view\n        returns (bool intact, bytes32 storedHash, bytes32 recomputedHash)\n    {\n        TraceEvent storage te = eventById[_eventId];\n        require(te.timestamp != 0, \"Trace: event not found\");\n\n        storedHash = te.eventHash;\n\n        // NOTE: blockhash(block.number - 1) at query time ≠ at record time,\n        // so we cannot re-derive the full original hash here.\n        // Instead we return stored hash + a secondary hash of the stable fields\n        // that the caller can compare externally.\n        recomputedHash = keccak256(abi.encodePacked(\n            te.eventId,\n            te.batchNumber,\n            te.actor,\n            te.action,\n            te.quantity,\n            te.timestamp\n        ));\n\n        intact = (storedHash != bytes32(0));\n    }\n\n    // ─────────────────────────────────────────────────────────────\n    // Internal Helpers\n    // ─────────────────────────────────────────────────────────────\n\n    /// @dev Records an event internally (not via TransferContract).\n    ///      Used for fingerprint registration and admin annotations.\n    function _recordInternalEvent(\n        string memory _batchNumber,\n        address       _actor,\n        string memory _action,\n        uint256       _quantity,\n        string memory _note\n    ) internal {\n        EventType eType = _parseEventType(_action);\n        IRegistry.Role role = registry.getRole(_actor);\n\n        string memory license = \"\";\n        try registry.getLicenseNumber(_actor) returns (string memory lic) {\n            license = lic;\n        } catch {}\n\n        bytes32 eHash = keccak256(abi.encodePacked(\n            nextEventId,\n            _batchNumber,\n            _actor,\n            _action,\n            _quantity,\n            block.timestamp,\n            blockhash(block.number - 1)\n        ));\n\n        TraceEvent memory te = TraceEvent({\n            eventId:      nextEventId,\n            batchNumber:  _batchNumber,\n            actor:        _actor,\n            actorRole:    role,\n            actorLicense: license,\n            eventType:    eType,\n            action:       _action,\n            quantity:     _quantity,\n            note:         _note,\n            timestamp:    block.timestamp,\n            eventHash:    eHash\n        });\n\n        batchEvents[_batchNumber].push(te);\n        eventById[nextEventId] = te;\n        allEventIds.push(nextEventId);\n        actorEvents[_actor].push(nextEventId);\n\n        emit TraceEventRecorded(\n            nextEventId, _batchNumber, _actor, eType,\n            _quantity, eHash, block.timestamp\n        );\n\n        nextEventId++;\n    }\n\n    /// @dev Maps the action string from TransferContract to an EventType enum.\n    ///      Any unrecognised string falls through to EventType.Custom.\n    function _parseEventType(string memory _action)\n        internal\n        pure\n        returns (EventType)\n    {\n        bytes32 h = keccak256(bytes(_action));\n\n        if (h == keccak256(bytes(\"BatchCreated\")))\n            return EventType.BatchCreated;\n        if (h == keccak256(bytes(\"ManufacturerToDistributor\")))\n            return EventType.ManufacturerToDistributor;\n        if (h == keccak256(bytes(\"DistributorToSupplier\")))\n            return EventType.DistributorToSupplier;\n        if (h == keccak256(bytes(\"SupplierToPharmacist\")))\n            return EventType.SupplierToPharmacist;\n        if (h == keccak256(bytes(\"PharmacistToBuyer\")))\n            return EventType.PharmacistToBuyer;\n        if (h == keccak256(bytes(\"ExpiredReturnPharmacistToSupplier\")))\n            return EventType.ExpiredReturnPharmacistToSupplier;\n        if (h == keccak256(bytes(\"ExpiredReturnSupplierToDistributor\")))\n            return EventType.ExpiredReturnSupplierToDistributor;\n        if (h == keccak256(bytes(\"ExpiredReturnDistributorToManufacturer\")))\n            return EventType.ExpiredReturnDistributorToManufacturer;\n        if (h == keccak256(bytes(\"BatchRecalled\")))\n            return EventType.BatchRecalled;\n        if (h == keccak256(bytes(\"BatchExpired\")))\n            return EventType.BatchExpired;\n        if (h == keccak256(bytes(\"Custom\")))\n            return EventType.Custom;\n\n        return EventType.Custom;\n    }\n\n    /// @dev Converts a Role enum to a human-readable string for the timeline.\n    function _roleLabel(IRegistry.Role _role)\n        internal\n        pure\n        returns (string memory)\n    {\n        if (_role == IRegistry.Role.Admin)        return \"Admin\";\n        if (_role == IRegistry.Role.Manufacturer) return \"Manufacturer\";\n        if (_role == IRegistry.Role.Distributor)  return \"Distributor\";\n        if (_role == IRegistry.Role.Supplier)     return \"Supplier\";\n        if (_role == IRegistry.Role.Pharmacist)   return \"Pharmacist\";\n        return \"Unknown\";\n    }\n}\n",
  "sourcePath": "D:\\FYP Final\\Project\\medicine-supply-chain\\myProject\\contracts\\TraceContract.sol",
  "compiler": {
    "name": "solc",
    "version": "0.8.20+commit.a1b79de6.Emscripten.clang"
  },
  "schemaVersion": "3.4.16",
  "updatedAt": "2026-04-25T20:02:47.350Z",
  "networkType": "ethereum",
  "devdoc": {
    "details": "Write path  : only TransferContract (authorised caller) can push events.         Read path   : anyone — no role restriction on view functions.         This contract never moves tokens or stock; it is purely observational         except for the event log it maintains.",
    "kind": "dev",
    "methods": {
      "getGlobalEventSlice(uint256,uint256)": {
        "params": {
          "_from": "Start index in allEventIds[].",
          "_to": "End index in allEventIds[] (inclusive, clamped)."
        }
      },
      "getHistorySlice(string,uint256,uint256)": {
        "params": {
          "_from": "Start index (0-based, inclusive).",
          "_to": "End index (inclusive). If _to >= array length, clamps to last."
        }
      },
      "recordEvent(string,address,string,uint256,string)": {
        "params": {
          "_action": "String label (must match EventType — see _parseEventType).",
          "_actor": "The address that triggered the action.",
          "_batchNumber": "The batch involved.",
          "_note": "Optional delivery / prescription note.",
          "_quantity": "Units involved. 0 for non-stock events."
        }
      },
      "registerFingerprint(string,bytes32)": {
        "params": {
          "_batchNumber": "The batch to fingerprint.",
          "_dataHash": "keccak256 hash of core batch fields."
        }
      }
    },
    "stateVariables": {
      "actorEvents": {
        "details": "Per-actor event index: actor address → eventIds[]"
      },
      "allEventIds": {
        "details": "All event IDs ever (for full system audit)"
      },
      "authorisedCallers": {
        "details": "Authorised callers that may push events (TransferContract)."
      },
      "batchEvents": {
        "details": "Per-batch event log: batchNumber → TraceEvent[]"
      },
      "eventById": {
        "details": "Global event index: eventId → TraceEvent (for admin global queries)"
      },
      "fingerprints": {
        "details": "Per-batch originality fingerprint"
      },
      "nextEventId": {
        "details": "Global event counter"
      }
    },
    "title": "TraceContract",
    "version": 1
  },
  "userdoc": {
    "kind": "user",
    "methods": {
      "annotate(string,string)": {
        "notice": "Admin can attach an on-chain note to any batch         (e.g. \"Inspection passed\", \"Quality alert\", \"Under investigation\")."
      },
      "getAnnotations(string)": {
        "notice": "Returns all admin annotations on a batch."
      },
      "getCustodyChain(string)": {
        "notice": "Returns the full ordered custody chain from TransferContract.         Each entry shows who held the batch and when."
      },
      "getCustodyTimeline(string)": {
        "notice": "Returns a human-readable summary of each custody step,         enriched with role and license data from RegistryContract.         Ideal for the buyer's \"journey\" card view."
      },
      "getEventById(uint256)": {
        "notice": "Returns a single event by its global ID."
      },
      "getEventCount(string)": {
        "notice": "Returns the total number of events recorded for a batch."
      },
      "getEventsByActor(address)": {
        "notice": "Returns all events triggered by a specific actor address."
      },
      "getEventsForHolder(string,address)": {
        "notice": "Returns events relevant to a specific node (role dashboard).         Filters the batch event log to only events where actor == _holder."
      },
      "getFingerprint(string)": {
        "notice": "Returns the full fingerprint record for a batch."
      },
      "getFullHistory(string)": {
        "notice": "Returns the complete ordered event log for a batch.         Used by all role dashboards to show the \"trace timeline\"."
      },
      "getGlobalEventSlice(uint256,uint256)": {
        "notice": "Returns a batch of global events by IDs (admin audit log)."
      },
      "getHistoryByType(string,uint8)": {
        "notice": "Returns events filtered by EventType (e.g. only transfers)."
      },
      "getHistorySlice(string,uint256,uint256)": {
        "notice": "Returns a slice of events for pagination."
      },
      "getStockOf(string,address)": {
        "notice": "Returns the current stock quantity for a holder across a batch.         Thin wrapper — delegates to ProductContract."
      },
      "getTotalEventCount()": {
        "notice": "Returns the total number of events in the whole system."
      },
      "recordEvent(string,address,string,uint256,string)": {
        "notice": "Record a supply-chain event.         Called by TransferContract on every accepted transfer and sale."
      },
      "registerFingerprint(string,bytes32)": {
        "notice": "Manufacturer registers a cryptographic fingerprint of a batch         at the time of creation. Used later by buyers to verify originality.         The hash should be computed OFF-CHAIN as:         keccak256(abi.encodePacked(             batchNumber, productName, genericName, strength,             manufacturerAddr, mfgDate, expiryDate, totalQuantity         ))         and then passed here. This way the data is verifiable without         storing all fields again on-chain."
      },
      "setAuthorisedCaller(address,bool)": {
        "notice": "Grant or revoke event-recording permission for a contract."
      },
      "verifyEventIntegrity(uint256)": {
        "notice": "Re-computes a stored event's hash and compares it to         what is stored. Returns false if anyone tampered with         the struct after recording (should never happen in Solidity,         but useful as a defensive audit tool on a test chain)."
      },
      "verifyFingerprint(string,bytes32)": {
        "notice": "Buyer supplies the hash they computed from the medicine packaging.         Returns true if it matches the on-chain fingerprint exactly.         This is the tamper / counterfeit detection call."
      },
      "verifyProduct(string)": {
        "notice": "The primary buyer-facing function. Given a batch number         (typed or scanned via QR), returns a complete VerificationResult         struct with all the information needed to confirm:           1. The product exists on-chain.           2. It matches the manufacturer's registered fingerprint.           3. It has not expired or been recalled.           4. Where it currently is in the supply chain.           5. How many times it changed hands."
      }
    },
    "notice": "The read/audit layer of the medicine supply chain.         Records every on-chain event (called by TransferContract),         stores product hash fingerprints for originality checks,         and exposes rich query functions for every dashboard and         the public Buyer verification page.",
    "version": 1
  }
}