{
  "contractName": "TransferContract",
  "abi": [
    {
      "inputs": [
        {
          "internalType": "address",
          "name": "_r",
          "type": "address"
        },
        {
          "internalType": "address",
          "name": "_p",
          "type": "address"
        }
      ],
      "stateMutability": "nonpayable",
      "type": "constructor"
    },
    {
      "anonymous": false,
      "inputs": [
        {
          "indexed": true,
          "internalType": "address",
          "name": "m",
          "type": "address"
        },
        {
          "indexed": true,
          "internalType": "address",
          "name": "d",
          "type": "address"
        },
        {
          "indexed": false,
          "internalType": "uint256",
          "name": "t",
          "type": "uint256"
        }
      ],
      "name": "DistributorAdded",
      "type": "event"
    },
    {
      "anonymous": false,
      "inputs": [
        {
          "indexed": true,
          "internalType": "address",
          "name": "m",
          "type": "address"
        },
        {
          "indexed": true,
          "internalType": "address",
          "name": "d",
          "type": "address"
        },
        {
          "indexed": false,
          "internalType": "uint256",
          "name": "t",
          "type": "uint256"
        }
      ],
      "name": "DistributorRemoved",
      "type": "event"
    },
    {
      "anonymous": false,
      "inputs": [
        {
          "indexed": true,
          "internalType": "uint256",
          "name": "id",
          "type": "uint256"
        },
        {
          "indexed": true,
          "internalType": "string",
          "name": "b",
          "type": "string"
        },
        {
          "indexed": true,
          "internalType": "address",
          "name": "p",
          "type": "address"
        },
        {
          "indexed": false,
          "internalType": "uint256",
          "name": "q",
          "type": "uint256"
        },
        {
          "indexed": false,
          "internalType": "bytes32",
          "name": "h",
          "type": "bytes32"
        },
        {
          "indexed": false,
          "internalType": "uint256",
          "name": "t",
          "type": "uint256"
        }
      ],
      "name": "MedicineSold",
      "type": "event"
    },
    {
      "anonymous": false,
      "inputs": [
        {
          "indexed": true,
          "internalType": "string",
          "name": "b",
          "type": "string"
        },
        {
          "indexed": true,
          "internalType": "address",
          "name": "prev",
          "type": "address"
        },
        {
          "indexed": true,
          "internalType": "address",
          "name": "next",
          "type": "address"
        },
        {
          "indexed": false,
          "internalType": "uint256",
          "name": "t",
          "type": "uint256"
        }
      ],
      "name": "OwnershipUpdated",
      "type": "event"
    },
    {
      "anonymous": false,
      "inputs": [
        {
          "indexed": true,
          "internalType": "address",
          "name": "s",
          "type": "address"
        },
        {
          "indexed": true,
          "internalType": "address",
          "name": "p",
          "type": "address"
        },
        {
          "indexed": false,
          "internalType": "uint256",
          "name": "t",
          "type": "uint256"
        }
      ],
      "name": "PharmacistAdded",
      "type": "event"
    },
    {
      "anonymous": false,
      "inputs": [
        {
          "indexed": true,
          "internalType": "address",
          "name": "s",
          "type": "address"
        },
        {
          "indexed": true,
          "internalType": "address",
          "name": "p",
          "type": "address"
        },
        {
          "indexed": false,
          "internalType": "uint256",
          "name": "t",
          "type": "uint256"
        }
      ],
      "name": "PharmacistRemoved",
      "type": "event"
    },
    {
      "anonymous": false,
      "inputs": [
        {
          "indexed": true,
          "internalType": "address",
          "name": "d",
          "type": "address"
        },
        {
          "indexed": true,
          "internalType": "address",
          "name": "s",
          "type": "address"
        },
        {
          "indexed": false,
          "internalType": "uint256",
          "name": "t",
          "type": "uint256"
        }
      ],
      "name": "SupplierAdded",
      "type": "event"
    },
    {
      "anonymous": false,
      "inputs": [
        {
          "indexed": true,
          "internalType": "address",
          "name": "d",
          "type": "address"
        },
        {
          "indexed": true,
          "internalType": "address",
          "name": "s",
          "type": "address"
        },
        {
          "indexed": false,
          "internalType": "uint256",
          "name": "t",
          "type": "uint256"
        }
      ],
      "name": "SupplierRemoved",
      "type": "event"
    },
    {
      "anonymous": false,
      "inputs": [
        {
          "indexed": true,
          "internalType": "address",
          "name": "tr",
          "type": "address"
        },
        {
          "indexed": false,
          "internalType": "uint256",
          "name": "t",
          "type": "uint256"
        }
      ],
      "name": "TraceContractSet",
      "type": "event"
    },
    {
      "anonymous": false,
      "inputs": [
        {
          "indexed": true,
          "internalType": "uint256",
          "name": "id",
          "type": "uint256"
        },
        {
          "indexed": true,
          "internalType": "address",
          "name": "r",
          "type": "address"
        },
        {
          "indexed": false,
          "internalType": "bytes32",
          "name": "h",
          "type": "bytes32"
        },
        {
          "indexed": false,
          "internalType": "uint256",
          "name": "t",
          "type": "uint256"
        }
      ],
      "name": "TransferAccepted",
      "type": "event"
    },
    {
      "anonymous": false,
      "inputs": [
        {
          "indexed": true,
          "internalType": "uint256",
          "name": "id",
          "type": "uint256"
        },
        {
          "indexed": true,
          "internalType": "address",
          "name": "s",
          "type": "address"
        },
        {
          "indexed": false,
          "internalType": "uint256",
          "name": "t",
          "type": "uint256"
        }
      ],
      "name": "TransferCancelled",
      "type": "event"
    },
    {
      "anonymous": false,
      "inputs": [
        {
          "indexed": true,
          "internalType": "uint256",
          "name": "id",
          "type": "uint256"
        },
        {
          "indexed": true,
          "internalType": "address",
          "name": "r",
          "type": "address"
        },
        {
          "indexed": false,
          "internalType": "string",
          "name": "rs",
          "type": "string"
        },
        {
          "indexed": false,
          "internalType": "uint256",
          "name": "t",
          "type": "uint256"
        }
      ],
      "name": "TransferRejected",
      "type": "event"
    },
    {
      "anonymous": false,
      "inputs": [
        {
          "indexed": true,
          "internalType": "uint256",
          "name": "id",
          "type": "uint256"
        },
        {
          "indexed": false,
          "internalType": "enum TransferContract.TransferDirection",
          "name": "dir",
          "type": "uint8"
        },
        {
          "indexed": true,
          "internalType": "string",
          "name": "b",
          "type": "string"
        },
        {
          "indexed": true,
          "internalType": "address",
          "name": "s",
          "type": "address"
        },
        {
          "indexed": false,
          "internalType": "address",
          "name": "r",
          "type": "address"
        },
        {
          "indexed": false,
          "internalType": "uint256",
          "name": "q",
          "type": "uint256"
        },
        {
          "indexed": false,
          "internalType": "uint256",
          "name": "t",
          "type": "uint256"
        }
      ],
      "name": "TransferRequested",
      "type": "event"
    },
    {
      "inputs": [],
      "name": "product",
      "outputs": [
        {
          "internalType": "contract IProduct",
          "name": "",
          "type": "address"
        }
      ],
      "stateMutability": "view",
      "type": "function",
      "constant": true
    },
    {
      "inputs": [],
      "name": "registry",
      "outputs": [
        {
          "internalType": "contract IRegistry",
          "name": "",
          "type": "address"
        }
      ],
      "stateMutability": "view",
      "type": "function",
      "constant": true
    },
    {
      "inputs": [],
      "name": "trace",
      "outputs": [
        {
          "internalType": "contract ITrace",
          "name": "",
          "type": "address"
        }
      ],
      "stateMutability": "view",
      "type": "function",
      "constant": true
    },
    {
      "inputs": [],
      "name": "traceSet",
      "outputs": [
        {
          "internalType": "bool",
          "name": "",
          "type": "bool"
        }
      ],
      "stateMutability": "view",
      "type": "function",
      "constant": true
    },
    {
      "inputs": [
        {
          "internalType": "address",
          "name": "_t",
          "type": "address"
        }
      ],
      "name": "setTraceContract",
      "outputs": [],
      "stateMutability": "nonpayable",
      "type": "function"
    },
    {
      "inputs": [
        {
          "internalType": "address",
          "name": "_d",
          "type": "address"
        }
      ],
      "name": "addDistributor",
      "outputs": [],
      "stateMutability": "nonpayable",
      "type": "function"
    },
    {
      "inputs": [
        {
          "internalType": "address",
          "name": "_d",
          "type": "address"
        }
      ],
      "name": "removeDistributor",
      "outputs": [],
      "stateMutability": "nonpayable",
      "type": "function"
    },
    {
      "inputs": [
        {
          "internalType": "address",
          "name": "_s",
          "type": "address"
        }
      ],
      "name": "addSupplier",
      "outputs": [],
      "stateMutability": "nonpayable",
      "type": "function"
    },
    {
      "inputs": [
        {
          "internalType": "address",
          "name": "_s",
          "type": "address"
        }
      ],
      "name": "removeSupplier",
      "outputs": [],
      "stateMutability": "nonpayable",
      "type": "function"
    },
    {
      "inputs": [
        {
          "internalType": "address",
          "name": "_p",
          "type": "address"
        }
      ],
      "name": "addPharmacist",
      "outputs": [],
      "stateMutability": "nonpayable",
      "type": "function"
    },
    {
      "inputs": [
        {
          "internalType": "address",
          "name": "_p",
          "type": "address"
        }
      ],
      "name": "removePharmacist",
      "outputs": [],
      "stateMutability": "nonpayable",
      "type": "function"
    },
    {
      "inputs": [
        {
          "internalType": "enum TransferContract.TransferDirection",
          "name": "_dir",
          "type": "uint8"
        },
        {
          "internalType": "string",
          "name": "_b",
          "type": "string"
        },
        {
          "internalType": "address",
          "name": "_r",
          "type": "address"
        },
        {
          "internalType": "uint256",
          "name": "_q",
          "type": "uint256"
        },
        {
          "internalType": "uint256",
          "name": "_p",
          "type": "uint256"
        },
        {
          "internalType": "string",
          "name": "_c",
          "type": "string"
        },
        {
          "internalType": "string",
          "name": "_n",
          "type": "string"
        }
      ],
      "name": "requestTransfer",
      "outputs": [
        {
          "internalType": "uint256",
          "name": "",
          "type": "uint256"
        }
      ],
      "stateMutability": "nonpayable",
      "type": "function"
    },
    {
      "inputs": [
        {
          "internalType": "uint256",
          "name": "_id",
          "type": "uint256"
        },
        {
          "internalType": "string",
          "name": "_n",
          "type": "string"
        }
      ],
      "name": "acceptTransfer",
      "outputs": [],
      "stateMutability": "nonpayable",
      "type": "function"
    },
    {
      "inputs": [
        {
          "internalType": "uint256",
          "name": "_id",
          "type": "uint256"
        },
        {
          "internalType": "string",
          "name": "_r",
          "type": "string"
        }
      ],
      "name": "rejectTransfer",
      "outputs": [],
      "stateMutability": "nonpayable",
      "type": "function"
    },
    {
      "inputs": [
        {
          "internalType": "uint256",
          "name": "_id",
          "type": "uint256"
        }
      ],
      "name": "cancelTransfer",
      "outputs": [],
      "stateMutability": "nonpayable",
      "type": "function"
    },
    {
      "inputs": [
        {
          "internalType": "string",
          "name": "_b",
          "type": "string"
        },
        {
          "internalType": "address",
          "name": "_to",
          "type": "address"
        },
        {
          "internalType": "uint256",
          "name": "_q",
          "type": "uint256"
        },
        {
          "internalType": "enum TransferContract.TransferDirection",
          "name": "_dir",
          "type": "uint8"
        },
        {
          "internalType": "string",
          "name": "_n",
          "type": "string"
        }
      ],
      "name": "directTransfer",
      "outputs": [],
      "stateMutability": "nonpayable",
      "type": "function"
    },
    {
      "inputs": [
        {
          "internalType": "string",
          "name": "_b",
          "type": "string"
        },
        {
          "internalType": "uint256",
          "name": "_q",
          "type": "uint256"
        },
        {
          "internalType": "uint256",
          "name": "_p",
          "type": "uint256"
        },
        {
          "internalType": "string",
          "name": "_c",
          "type": "string"
        },
        {
          "internalType": "string",
          "name": "_n",
          "type": "string"
        }
      ],
      "name": "sellToBuyer",
      "outputs": [],
      "stateMutability": "nonpayable",
      "type": "function"
    },
    {
      "inputs": [
        {
          "internalType": "string",
          "name": "_b",
          "type": "string"
        },
        {
          "internalType": "address",
          "name": "_to",
          "type": "address"
        },
        {
          "internalType": "uint256",
          "name": "_q",
          "type": "uint256"
        },
        {
          "internalType": "string",
          "name": "_n",
          "type": "string"
        },
        {
          "internalType": "string",
          "name": "_act",
          "type": "string"
        }
      ],
      "name": "returnExpired",
      "outputs": [],
      "stateMutability": "nonpayable",
      "type": "function"
    },
    {
      "inputs": [
        {
          "internalType": "address",
          "name": "_m",
          "type": "address"
        }
      ],
      "name": "getDistributors",
      "outputs": [
        {
          "internalType": "address[]",
          "name": "",
          "type": "address[]"
        }
      ],
      "stateMutability": "view",
      "type": "function",
      "constant": true
    },
    {
      "inputs": [
        {
          "internalType": "address",
          "name": "_d",
          "type": "address"
        }
      ],
      "name": "getSuppliers",
      "outputs": [
        {
          "internalType": "address[]",
          "name": "",
          "type": "address[]"
        }
      ],
      "stateMutability": "view",
      "type": "function",
      "constant": true
    },
    {
      "inputs": [
        {
          "internalType": "address",
          "name": "_s",
          "type": "address"
        }
      ],
      "name": "getPharmacists",
      "outputs": [
        {
          "internalType": "address[]",
          "name": "",
          "type": "address[]"
        }
      ],
      "stateMutability": "view",
      "type": "function",
      "constant": true
    },
    {
      "inputs": [
        {
          "internalType": "address",
          "name": "_m",
          "type": "address"
        },
        {
          "internalType": "address",
          "name": "_d",
          "type": "address"
        }
      ],
      "name": "isDistributorOf",
      "outputs": [
        {
          "internalType": "bool",
          "name": "",
          "type": "bool"
        }
      ],
      "stateMutability": "view",
      "type": "function",
      "constant": true
    },
    {
      "inputs": [
        {
          "internalType": "address",
          "name": "_d",
          "type": "address"
        },
        {
          "internalType": "address",
          "name": "_s",
          "type": "address"
        }
      ],
      "name": "isSupplierOf",
      "outputs": [
        {
          "internalType": "bool",
          "name": "",
          "type": "bool"
        }
      ],
      "stateMutability": "view",
      "type": "function",
      "constant": true
    },
    {
      "inputs": [
        {
          "internalType": "address",
          "name": "_s",
          "type": "address"
        },
        {
          "internalType": "address",
          "name": "_p",
          "type": "address"
        }
      ],
      "name": "isPharmacistOf",
      "outputs": [
        {
          "internalType": "bool",
          "name": "",
          "type": "bool"
        }
      ],
      "stateMutability": "view",
      "type": "function",
      "constant": true
    },
    {
      "inputs": [
        {
          "internalType": "uint256",
          "name": "_id",
          "type": "uint256"
        }
      ],
      "name": "getTransfer",
      "outputs": [
        {
          "components": [
            {
              "internalType": "uint256",
              "name": "id",
              "type": "uint256"
            },
            {
              "internalType": "enum TransferContract.TransferDirection",
              "name": "direction",
              "type": "uint8"
            },
            {
              "internalType": "enum TransferContract.TransferStatus",
              "name": "status",
              "type": "uint8"
            },
            {
              "internalType": "string",
              "name": "batchNumber",
              "type": "string"
            },
            {
              "internalType": "address",
              "name": "sender",
              "type": "address"
            },
            {
              "internalType": "address",
              "name": "receiver",
              "type": "address"
            },
            {
              "internalType": "uint256",
              "name": "quantity",
              "type": "uint256"
            },
            {
              "internalType": "uint256",
              "name": "pricePerUnit",
              "type": "uint256"
            },
            {
              "internalType": "string",
              "name": "currency",
              "type": "string"
            },
            {
              "internalType": "string",
              "name": "note",
              "type": "string"
            },
            {
              "internalType": "uint256",
              "name": "createdAt",
              "type": "uint256"
            },
            {
              "internalType": "uint256",
              "name": "resolvedAt",
              "type": "uint256"
            },
            {
              "internalType": "bytes32",
              "name": "transferHash",
              "type": "bytes32"
            }
          ],
          "internalType": "struct TransferContract.TransferRequest",
          "name": "",
          "type": "tuple"
        }
      ],
      "stateMutability": "view",
      "type": "function",
      "constant": true
    },
    {
      "inputs": [
        {
          "internalType": "address",
          "name": "_s",
          "type": "address"
        }
      ],
      "name": "getSentTransfers",
      "outputs": [
        {
          "internalType": "uint256[]",
          "name": "",
          "type": "uint256[]"
        }
      ],
      "stateMutability": "view",
      "type": "function",
      "constant": true
    },
    {
      "inputs": [
        {
          "internalType": "address",
          "name": "_r",
          "type": "address"
        }
      ],
      "name": "getReceivedTransfers",
      "outputs": [
        {
          "internalType": "uint256[]",
          "name": "",
          "type": "uint256[]"
        }
      ],
      "stateMutability": "view",
      "type": "function",
      "constant": true
    },
    {
      "inputs": [
        {
          "internalType": "string",
          "name": "_b",
          "type": "string"
        }
      ],
      "name": "getBatchTransfers",
      "outputs": [
        {
          "internalType": "uint256[]",
          "name": "",
          "type": "uint256[]"
        }
      ],
      "stateMutability": "view",
      "type": "function",
      "constant": true
    },
    {
      "inputs": [],
      "name": "getMyPendingInbox",
      "outputs": [
        {
          "components": [
            {
              "internalType": "uint256",
              "name": "id",
              "type": "uint256"
            },
            {
              "internalType": "enum TransferContract.TransferDirection",
              "name": "direction",
              "type": "uint8"
            },
            {
              "internalType": "enum TransferContract.TransferStatus",
              "name": "status",
              "type": "uint8"
            },
            {
              "internalType": "string",
              "name": "batchNumber",
              "type": "string"
            },
            {
              "internalType": "address",
              "name": "sender",
              "type": "address"
            },
            {
              "internalType": "address",
              "name": "receiver",
              "type": "address"
            },
            {
              "internalType": "uint256",
              "name": "quantity",
              "type": "uint256"
            },
            {
              "internalType": "uint256",
              "name": "pricePerUnit",
              "type": "uint256"
            },
            {
              "internalType": "string",
              "name": "currency",
              "type": "string"
            },
            {
              "internalType": "string",
              "name": "note",
              "type": "string"
            },
            {
              "internalType": "uint256",
              "name": "createdAt",
              "type": "uint256"
            },
            {
              "internalType": "uint256",
              "name": "resolvedAt",
              "type": "uint256"
            },
            {
              "internalType": "bytes32",
              "name": "transferHash",
              "type": "bytes32"
            }
          ],
          "internalType": "struct TransferContract.TransferRequest[]",
          "name": "",
          "type": "tuple[]"
        }
      ],
      "stateMutability": "view",
      "type": "function",
      "constant": true
    },
    {
      "inputs": [],
      "name": "getMyPendingOutbox",
      "outputs": [
        {
          "components": [
            {
              "internalType": "uint256",
              "name": "id",
              "type": "uint256"
            },
            {
              "internalType": "enum TransferContract.TransferDirection",
              "name": "direction",
              "type": "uint8"
            },
            {
              "internalType": "enum TransferContract.TransferStatus",
              "name": "status",
              "type": "uint8"
            },
            {
              "internalType": "string",
              "name": "batchNumber",
              "type": "string"
            },
            {
              "internalType": "address",
              "name": "sender",
              "type": "address"
            },
            {
              "internalType": "address",
              "name": "receiver",
              "type": "address"
            },
            {
              "internalType": "uint256",
              "name": "quantity",
              "type": "uint256"
            },
            {
              "internalType": "uint256",
              "name": "pricePerUnit",
              "type": "uint256"
            },
            {
              "internalType": "string",
              "name": "currency",
              "type": "string"
            },
            {
              "internalType": "string",
              "name": "note",
              "type": "string"
            },
            {
              "internalType": "uint256",
              "name": "createdAt",
              "type": "uint256"
            },
            {
              "internalType": "uint256",
              "name": "resolvedAt",
              "type": "uint256"
            },
            {
              "internalType": "bytes32",
              "name": "transferHash",
              "type": "bytes32"
            }
          ],
          "internalType": "struct TransferContract.TransferRequest[]",
          "name": "",
          "type": "tuple[]"
        }
      ],
      "stateMutability": "view",
      "type": "function",
      "constant": true
    },
    {
      "inputs": [
        {
          "internalType": "string",
          "name": "_b",
          "type": "string"
        }
      ],
      "name": "getCurrentOwner",
      "outputs": [
        {
          "internalType": "address",
          "name": "",
          "type": "address"
        }
      ],
      "stateMutability": "view",
      "type": "function",
      "constant": true
    },
    {
      "inputs": [
        {
          "internalType": "string",
          "name": "_b",
          "type": "string"
        }
      ],
      "name": "getCustodyChain",
      "outputs": [
        {
          "components": [
            {
              "internalType": "address",
              "name": "holder",
              "type": "address"
            },
            {
              "internalType": "uint256",
              "name": "timestamp",
              "type": "uint256"
            },
            {
              "internalType": "string",
              "name": "action",
              "type": "string"
            }
          ],
          "internalType": "struct TransferContract.CustodyEntry[]",
          "name": "",
          "type": "tuple[]"
        }
      ],
      "stateMutability": "view",
      "type": "function",
      "constant": true
    },
    {
      "inputs": [
        {
          "internalType": "uint256",
          "name": "_id",
          "type": "uint256"
        }
      ],
      "name": "getSale",
      "outputs": [
        {
          "components": [
            {
              "internalType": "uint256",
              "name": "saleId",
              "type": "uint256"
            },
            {
              "internalType": "string",
              "name": "batchNumber",
              "type": "string"
            },
            {
              "internalType": "address",
              "name": "pharmacist",
              "type": "address"
            },
            {
              "internalType": "uint256",
              "name": "quantity",
              "type": "uint256"
            },
            {
              "internalType": "uint256",
              "name": "pricePerUnit",
              "type": "uint256"
            },
            {
              "internalType": "string",
              "name": "currency",
              "type": "string"
            },
            {
              "internalType": "string",
              "name": "buyerNote",
              "type": "string"
            },
            {
              "internalType": "uint256",
              "name": "soldAt",
              "type": "uint256"
            },
            {
              "internalType": "bytes32",
              "name": "saleHash",
              "type": "bytes32"
            }
          ],
          "internalType": "struct TransferContract.SaleRecord",
          "name": "",
          "type": "tuple"
        }
      ],
      "stateMutability": "view",
      "type": "function",
      "constant": true
    },
    {
      "inputs": [
        {
          "internalType": "address",
          "name": "_p",
          "type": "address"
        }
      ],
      "name": "getSalesByPharmacist",
      "outputs": [
        {
          "internalType": "uint256[]",
          "name": "",
          "type": "uint256[]"
        }
      ],
      "stateMutability": "view",
      "type": "function",
      "constant": true
    },
    {
      "inputs": [
        {
          "internalType": "string",
          "name": "_b",
          "type": "string"
        }
      ],
      "name": "getSalesByBatch",
      "outputs": [
        {
          "internalType": "uint256[]",
          "name": "",
          "type": "uint256[]"
        }
      ],
      "stateMutability": "view",
      "type": "function",
      "constant": true
    },
    {
      "inputs": [
        {
          "internalType": "string",
          "name": "_b",
          "type": "string"
        }
      ],
      "name": "getTotalSoldForBatch",
      "outputs": [
        {
          "internalType": "uint256",
          "name": "total",
          "type": "uint256"
        }
      ],
      "stateMutability": "view",
      "type": "function",
      "constant": true
    },
    {
      "inputs": [
        {
          "internalType": "string",
          "name": "_b",
          "type": "string"
        }
      ],
      "name": "getAcceptedTransferCount",
      "outputs": [
        {
          "internalType": "uint256",
          "name": "count",
          "type": "uint256"
        }
      ],
      "stateMutability": "view",
      "type": "function",
      "constant": true
    }
  ],
  "bytecode": "0x60c0346200011d57601f6200422938819003918201601f19168301916001600160401b03831184841017620001225780849260409485528339810103126200011d576200005a6020620000528362000138565b920162000138565b600160038190556008556001600160a01b039182166080521660a0526040516140db90816200014e823960805181818161057f0152818161065f015281816107ee015281816111900152818161152301528181611e0301528181611e860152818161229a01528181612a290152612b8b015260a05181818161024d015281816102960152818161030701528181610e75015281816113070152818161158b015281816115db0152818161164501528181611bcf0152818161248e0152612dcf0152f35b600080fd5b634e487b7160e01b600052604160045260246000fd5b51906001600160a01b03821682036200011d5756fe608080604052600436101561001357600080fd5b600090813560e01c90816308872c5214612d12575080630f5f817a14612b3857806317df4745146129d55780631af2fc7f1461291a5780631bee50281461285d578063384e01d114610c125780633c7170da146127d057806343c7aff71461269d578063577a169d1461240457806357c1f9e21461224757806359caecb51461219257806363be91001461211f5780636b43c9e414611f815780637250e22414611e32578063755efa9c14610c125780637b10399914611ded5780637b9702d314611d375780637c17d5af14611cc457806383e43bf51461148e5780639c27a2aa14611469578063aad96ad414611442578063ab8f9bda146113b5578063b62966c514611336578063bf9ce952146112f1578063c09e26931461113c578063c10c2f6c1461061f578063c16fe907146110f0578063c92d1dfb14610dcd578063ccbf363514610c73578063d55a772d14610c17578063d8a14dd414610c12578063d8f6d59614610a2a578063d9c54dcd1461079b578063daed7d4d1461061f578063e33faa7214610624578063e3e298681461061f5763eb02c2cc146101b857600080fd5b3461061c576101c6366135e0565b8284939293526004602052604084209060098201541515806105fc575b6101ec90613858565b60048201546001600160a01b031633811480610563575b61020c90613892565b60018060a01b0360038401541660405191630f6963f960e21b835260406004840152602083806102426044820160028a01613907565b6024820186905203817f00000000000000000000000000000000000000000000000000000000000000006001600160a01b03165afa92831561055857889361051f575b5060058501548093106104ec5787927f00000000000000000000000000000000000000000000000000000000000000006001600160a01b03163b156104e85760405163017ca07f60e61b81526080600482015292849284928392916102f06084850160028c01613907565b6024850193909352604484015260648301520381837f00000000000000000000000000000000000000000000000000000000000000006001600160a01b03165af180156104dd576104c5575b5050600382015493600483015460058401549060405186602082015288886002880154610368816138cd565b90600181169081156104a35750600114610464575b5092826103e660687fd9a515181e6f872bb4966b315acfe33bcef0d9075ed4bc3588f3af1e4aaefafe9a9895610447989560409b9860018060601b0319809160601b1682528660601b1660148201528660288201524260488201520360488101845201826136ea565b602081519101209961041860ff6001890180549061010061ff0019831617905542600a8b01558d600b8b015516613f6f565b918851906104348261042d8160028d01613907565b03836136ea565b6001600160a01b03908116921690613ca3565b6004015481519485524260208601526001600160a01b031693a380f35b909150600288018b5260208b208b905b8282106104895750508201604001908261037d565b8054604083870101528b9350602090910190600101610474565b60ff19166040808701919091528215159092028501909101925083905061037d565b6104ce90613669565b6104d957843861033c565b8480fd5b6040513d84823e3d90fd5b8380fd5b60405162461bcd60e51b815260206004820152600b60248201526a29ba37b1b59032b93937b960a91b6044820152606490fd5b9092506020813d602011610550575b8161053b602093836136ea565b8101031261054b57519138610285565b600080fd5b3d915061052e565b6040513d8a823e3d90fd5b5060405163673448dd60e01b81523360048201526020816024817f00000000000000000000000000000000000000000000000000000000000000006001600160a01b03165afa80156105f15761020c9188916105c2575b509050610203565b6105e4915060203d6020116105ea575b6105dc81836136ea565b810190613731565b386105ba565b503d6105d2565b6040513d89823e3d90fd5b506101ec60ff600184015460081c1661061481613364565b1590506101e3565b80fd5b613613565b503461061c576020806003193601126107975761063f613338565b6040516303e1469160e61b81529091906001600160a01b039082816004817f000000000000000000000000000000000000000000000000000000000000000086165afa801561078c5782918691610752575b501633036107205783549260ff8460a01c166106ed576001600160a81b03199093169216918217600160a01b1783556040514281527fcbf26ec6a705799eef4be0c025ad611f3f05ff3d9b3bfb2bc52e0355a4424ea19190a280f35b60405162461bcd60e51b815260048101849052600b60248201526a105b1c9958591e481cd95d60aa1b6044820152606490fd5b60405162461bcd60e51b815260048101839052600a60248201526941646d696e206f6e6c7960b01b6044820152606490fd5b809250848092503d8311610785575b61076b81836136ea565b810103126104d9575181811681036104d957819038610691565b503d610761565b6040513d87823e3d90fd5b5080fd5b503461061c57602080600319360112610797576107b6613338565b6107be6137e9565b604051630b88ded160e01b81529290836107db846004830161377d565b6001600160a01b039591849183919003817f000000000000000000000000000000000000000000000000000000000000000089165afa908115610a1e57600091610a01575b50156109db57503360005260019283825280604060002093169283600052825260ff60406000205416156109a857336000528382526040600020836000528252604060002060ff1981541690553360005260028252604060002090846000905b6108b6575b8685857fab0285705c9ec4ab9f52bc1524c59272bcb0b797ec3f5352b4b99c2e3e423daf604051914283523392a380f35b8254808210156109a2578290866108cd8487613797565b939054600394851b1c16146108ed5750506108e790613ad6565b85610880565b909293949596506000199384820191821161098c5761093f936109136109209388613797565b9054911b1c169185613797565b90919082549060031b9160018060a01b03809116831b921b1916179055565b8154801561097657019061096b6109568383613797565b81549060018060a01b039060031b1b19169055565b558190388080610885565b634e487b7160e01b600052603160045260246000fd5b634e487b7160e01b600052601160045260246000fd5b50610885565b60405162461bcd60e51b815260048101839052600b60248201526a139bdd081a5b881b1a5cdd60aa1b6044820152606490fd5b906109fd60405192839262461bcd60e51b8452600484015260248301906133a7565b0390fd5b610a189150833d85116105ea576105dc81836136ea565b38610820565b6040513d6000823e3d90fd5b503461061c576020806003193601126107975760043560405192610a4d8461367c565b808452606091828486015281604086015281838601528160808601528260a08601528260c08601528160e0860152816101008096015280825260098452600760408320015415610be157815260098352604090209060405190610aaf8261367c565b825482526040519485610ac58160018701613907565b03610ad090876136ea565b82850195865260028401546001600160a01b0390811660408086019182526003870154858701908152600488015460808801908152915193959293919082610b1b8160058c01613907565b03610b2690846136ea565b60a088019283526040519384610b3f8160068d01613907565b03610b4a90866136ea565b60c0890194855260078a01549960e08a019a8b526008015497878a019889526040519c8c8e9d9b8e9c8d5251908c0152516101206040819c01526101408d01610b92916133a7565b965116908b01525160808a01525160a089015251601f1992838982030160c08a0152610bbd916133a7565b9051918782030160e0880152610bd2916133a7565b93519085015251908301520390f35b60405162461bcd60e51b8152600481018590526009602482015268139bdd08199bdd5b9960ba1b6044820152606490fd5b6134f6565b503461061c57602036600319011261061c57600435906001600160401b03821161061c576020610c4a366004850161330b565b80604051928337600c90820190815281900382019020546040516001600160a01b039091168152f35b503461061c57602080600319360112610797576004356001600160401b038111610dc95781610ca78492369060040161330b565b91908260405193849283378101600d815203019020805491610cc883613c28565b92610cd660405194856136ea565b8084528484018093835285832083915b838310610d6e5750505050604051928484019085855251809152604084019460408260051b8601019392955b828710610d1f5785850386f35b909192938280610d5e600193603f198a820301865260408951868060a01b038151168352848101518584015201519060609081604082015201906133a7565b9601920196019592919092610d12565b60038860019260409a99979a51610d8481613698565b848060a01b0386541681528486015483820152604051610db281610dab8160028b01613907565b03826136ea565b604082015281520192019201919096939596610ce6565b8280fd5b503461061c5760031960a036820112610797576001600160401b036004358181116104e857610e0090369060040161330b565b91610e0961334e565b926064358281116110ec57610e2290369060040161330b565b93909260843590811161101d57610e3d90369060040161330b565b93906040519563e7bac6ef60e01b8752896020998a60048a015288610e6660248201898961380e565b039460018060a01b03998c818c7f00000000000000000000000000000000000000000000000000000000000000001698818a5afa9081156110475784916110cf575b5015806110c4575b80611052575b610ebf90613a6d565b853b15610dc957868389610ef3988e83604051809c8195829463017ca07f60e61b8452604435998a923391600487016139f1565b03925af1968715611047578c9761102e575b508a845460ff8160a01c16610f6f575b5050505050505093610f4d91610f4760008051602061406683398151915296610f3f368888613a27565b933691613a27565b91613e0b565b816040519283928337810160008152039020916040519342855216933393a480f35b9091929394959697501690813b156104d95784898b948a938a9984986040519c8d998a988997630149bd2360e11b89526004890160a0905260a4890190610fb59261380e565b9033602489015283888303016044890152610fcf9261380e565b926064860152848303016084850152610fe79261380e565b03925af1928315611021578893611004575b8080808a8594610f15565b61101091929350613669565b61101d5785908838610ff9565b8780fd5b50604051903d90823e3d90fd5b8491975061103b90613669565b610dc9578a9538610f05565b6040513d86823e3d90fd5b50604051630f6963f960e21b81528c8180611072338d8d6004850161382f565b03818a5afa908115611047578491611090575b506044351115610eb6565b8094508d8092503d83116110bd575b6110a981836136ea565b8101031261054b57610ebf8d935190611085565b503d61109f565b506044351515610eb0565b6110e691508d803d106105ea576105dc81836136ea565b38610ea8565b8680fd5b503461061c57602036600319011261061c57611124604061113892611113613ae5565b506004358152600460205220613b48565b6040519182916020835260208301906133cc565b0390f35b503461061c5760208060031936011261079757611157613338565b906111606137e9565b604051630b88ded160e01b815292908361117d836004830161377d565b6001600160a01b039591859183919003817f000000000000000000000000000000000000000000000000000000000000000089165afa908115610a1e576000916112d4575b50156112b25750336000526001825260406000209281169283600052825260ff6040600020541661128457336000526001825260406000208360005282526040600020600160ff198254161790553360005260028252604060002090815491600160401b83101561126e578261092091600161124095018155613797565b7f7f06388964a5bb0158a1d66343e4ad8af077abd72f7335f9638621cfcb91e61a604051914283523392a380f35b634e487b7160e01b600052604160045260246000fd5b60405162461bcd60e51b815260048101839052600660248201526545786973747360d01b6044820152606490fd5b826109fd60405192839262461bcd60e51b8452600484015260248301906133a7565b6112eb9150843d86116105ea576105dc81836136ea565b386111c2565b503461061c578060031936011261061c576040517f00000000000000000000000000000000000000000000000000000000000000006001600160a01b03168152602090f35b503461061c57602080600319360112610797576001600160a01b03611359613338565b168252600a815260408220916040518092808554928381520194835280832092905b82821061139e5761113885611392818903826136ea565b604051918291826135a5565b83548652948501946001938401939091019061137b565b503461061c57602080600319360112610797576004356001600160401b038111610dc9576113e88291369060040161330b565b91908260405193849283378101600b815203019020916040518092808554928381520194835280832092905b82821061142b5761113885611392818903826136ea565b835486529485019460019384019390910190611414565b503461061c578060031936011261061c57546040516001600160a01b039091168152602090f35b503461061c578060031936011261061c5760ff6020915460a01c166040519015158152f35b503461061c5760a036600319011261061c576004356001600160401b038111610797576114bf90369060040161330b565b906064356001600160401b0381116104e8576114df90369060040161330b565b6084356001600160401b038111611cc0576114fe90369060040161330b565b604051630b88ded160e01b8152336004820152600560248201529092906020816044817f00000000000000000000000000000000000000000000000000000000000000006001600160a01b03165afa908115610558578891611ca1575b5015611c705760405163e7bac6ef60e01b81526020600482018190528180611587602482018b8b61380e565b03817f00000000000000000000000000000000000000000000000000000000000000006001600160a01b03165afa908115610558578891611c51575b5080611c46575b80611baa575b6115d990613a6d565b7f00000000000000000000000000000000000000000000000000000000000000006001600160a01b03163b156110ec57604051630228f30f60e41b8152606060048201528790818180611630606482018c8c61380e565b336024838101919091523560448301520381837f00000000000000000000000000000000000000000000000000000000000000006001600160a01b03165af180156104dd57611b96575b5050600854936040516020810190868252888860408301376116c06094828b81013360601b604082015260243560548201524260748201520360748101845201826136ea565b51902094611707604051926116d48461367c565b8284526116e2368b8b613a27565b9460208501958652336040860152602435606086015260443560808601523691613a27565b60a0830152611717368686613a27565b60c08301524260e0830152610100820186905288526009602052604088208151815591518051906001600160401b038211611a8e5781906117688261175f60018801546138cd565b6001880161399d565b602090601f8311600114611b27578b92611b1c575b50508160011b916000199060031b1c19161760018301555b60408101516002830180546001600160a01b0319166001600160a01b0392909216919091179055606081015160038301556080810151600483015560a08101518051906001600160401b038211611a8e578190611802826117f960058801546138cd565b6005880161399d565b602090601f8311600114611aad578b92611aa2575b50508160011b916000199060031b1c19161760058301555b60c08101518051906001600160401b038211611a8e57908392916118668261185d60068e9a999801546138cd565b6006870161399d565b602090601f8311600114611a1857918060089492610100948a92611a0d575b50508160011b916000199060031b1c19161760068501555b60e081015160078501550151910155338352600a6020526118c46040842060085490613aa1565b6118e560405187878237602081898101600b81520301902060085490613aa1565b825460ff8160a01c16611957575b5050505061195192600854928160405192839283378101600081520390206040519160243583526020830152426040830152827fd44f472fe38d7e60063c00dd898beed2f1592c4579410b2ba586c1767d5dd60b60603394a4613ad6565b60085580f35b6001600160a01b031691823b156104e8576040928685896119e3829661199b968951998a9889978896630149bd2360e11b885260a0600489015260a488019161380e565b336024870152603c868203600319810160448901526011835270283430b936b0b1b4b9ba2a37a13abcb2b960791b60208401526024356064890152016084870152019161380e565b03925af180156104dd576119f9575b80806118f3565b611a0290613669565b6104e85783386119f2565b015190503880611885565b906006850188526020882091885b601f1985168110611a73575092600894926001926101009583601f19811610611a5a575b505050811b01600685015561189d565b015160001960f88460031b161c19169055388080611a4a565b8183015184558d995060019093019260209283019201611a26565b634e487b7160e01b8a52604160045260248afd5b015190503880611817565b9250600585018b5260208b20908b935b601f1984168510611b01576001945083601f19811610611ae8575b505050811b01600583015561182f565b015160001960f88460031b161c19169055388080611ad8565b81810151835560209485019460019093019290910190611abd565b01519050388061177d565b9250600185018b5260208b20908b935b601f1984168510611b7b576001945083601f19811610611b62575b505050811b016001830155611795565b015160001960f88460031b161c19169055388080611b52565b81810151835560209485019460019093019290910190611b37565b611b9f90613669565b6110ec57863861167a565b50604051630f6963f960e21b815260208180611bcb338b8b6004850161382f565b03817f00000000000000000000000000000000000000000000000000000000000000006001600160a01b03165afa8015610558578890611c12575b602435111590506115d0565b506020813d602011611c3e575b81611c2c602093836136ea565b8101031261054b576115d99051611c06565b3d9150611c1f565b5060243515156115ca565b611c6a915060203d6020116105ea576105dc81836136ea565b386115c3565b60405162461bcd60e51b81526020600482015260096024820152684e6f7420506861726d60b81b6044820152606490fd5b611cba915060203d6020116105ea576105dc81836136ea565b3861155b565b8580fd5b503461061c57602080600319360112610797576001600160a01b03611ce7613338565b1682526006815260408220916040518092808554928381520194835280832092905b828210611d205761113885611392818903826136ea565b835486529485019460019384019390910190611d09565b503461061c576020908160031936011261061c576004356001600160401b03811161079757611d6a90369060040161330b565b829192508382938260405193849283378101600b8152030190209080918054905b818410611d9c578585604051908152f35b90919293611daa8583613797565b9054600391821b1c8552600987526040852001548101809111611dd957611dd19094613ad6565b929190611d8b565b634e487b7160e01b84526011600452602484fd5b503461061c578060031936011261061c576040517f00000000000000000000000000000000000000000000000000000000000000006001600160a01b03168152602090f35b503461061c5760208060031936011261079757611e4d613338565b90611e5661370d565b604051630b88ded160e01b8152929083611e738360048301613763565b6001600160a01b039591859183919003817f000000000000000000000000000000000000000000000000000000000000000089165afa908115610a1e57600091611f64575b50156112b25750336000526001825260406000209281169283600052825260ff6040600020541661128457336000526001825260406000208360005282526040600020600160ff198254161790553360005260028252604060002090815491600160401b83101561126e5782610920916001611f3695018155613797565b7fa230551b50eaf6ff9ae2b2475c95a8a5f2d680c6acbef708a3af9bfd59895408604051914283523392a380f35b611f7b9150843d86116105ea576105dc81836136ea565b38611eb8565b503461061c57611f90366135e0565b828493929352602092600484526040852060098101541515806120ff575b611fb790613858565b611fce60018060a01b036004830154163314613892565b6001818101805461ff00191661020017905542600a830155600891909101906001600160401b0384116120eb5761200f8461200984546138cd565b8461399d565b86601f85116001146120785791848060008051602061408683398151915296959361205e958b9361206d575b501b906000198660031b1c19161790555b6040519260408452604084019161380e565b9342908201528033940390a380f35b85013592503861203b565b82885286882090601f198616895b898282106120d757505091869593916000805160206140868339815191529761205e9694106120bd575b505084811b01905561204c565b840135600019600388901b60f8161c1916905538806120b0565b878401358555938501939283019201612086565b634e487b7160e01b87526041600452602487fd5b50611fb760ff600183015460081c1661211781613364565b159050611fae565b503461061c57602080600319360112610797576001600160a01b03612142613338565b1682526005815260408220916040518092808554928381520194835280832092905b82821061217b5761113885611392818903826136ea565b835486529485019460019384019390910190612164565b503461061c57602036600319011261061c576004358082526004602052604082206009810154151580612227575b6121c990613858565b6121e060018060a01b036003830154163314613892565b6001810161030061ff0019825416179055600a42910155604051904282527fb7abe5f195d680e5bcd17832c377e8e76d10854e586fdbaf41601b27d29dba1a60203393a380f35b506121c960ff600183015460081c1661223f81613364565b1590506121c0565b503461061c5760208060031936011261079757612262613338565b61226a61370d565b604051630b88ded160e01b81529290836122878460048301613763565b6001600160a01b039591849183919003817f000000000000000000000000000000000000000000000000000000000000000089165afa908115610a1e576000916123e7575b50156109db57503360005260019283825280604060002093169283600052825260ff60406000205416156109a857336000528382526040600020836000528252604060002060ff1981541690553360005260028252604060002090846000905b612362575b8685857f4bb1d006ac82c1a0143d9821c25a14eb74d413b40c95a072946b52d318c81b06604051914283523392a380f35b8254808210156123e1578290866123798487613797565b939054600394851b1c161461239957505061239390613ad6565b8561232c565b909293949596506000199384820191821161098c576123bf936109136109209388613797565b815480156109765701906123d66109568383613797565b558190388080612331565b50612331565b6123fe9150833d85116105ea576105dc81836136ea565b386122cc565b503461061c5760a036600319011261061c576001600160401b03906004358281116107975761243790369060040161330b565b61243f61334e565b9160443590606435956004871015611cc057608435908111611cc05761246990369060040161330b565b60405163e7bac6ef60e01b815260206004820181905291969295916001600160a01b037f0000000000000000000000000000000000000000000000000000000000000000811692908282806124c260248201898c61380e565b0381875afa918215612692578b92612673575b5081612651575b5015612619578515158061259b575b1561256b5750803b1561101d5760405163017ca07f60e61b8152908890829081838161251e8b8a338b8e600487016139f1565b03925af1801561055857612550575b5061254861253e61254d9899613f6f565b9333923691613a27565b613ca3565b80f35b61253e61254d9861256361254893613669565b98505061252d565b6064906040519062461bcd60e51b82526004820152600960248201526853746f636b2f51747960b81b6044820152fd5b50604051630f6963f960e21b81528181806125bb33888b6004850161382f565b0381865afa90811561260e579087918b916125d9575b5010156124eb565b809250838092503d8311612607575b6125f281836136ea565b8101031261260357869051386125d1565b8980fd5b503d6125e8565b6040513d8c823e3d90fd5b6064906040519062461bcd60e51b825260048201526011602482015270125b9d985b1a590bd5da1a5d195b1a5cdd607a1b6044820152fd5b9050338a526001825260408a209085168a52815260ff60408a205416386124dc565b61268b919250833d85116105ea576105dc81836136ea565b90386124d5565b6040513d8d823e3d90fd5b503461061c578060031936011261061c5733815260056020908152604082208054919083805b84811061277957506126d490613c3f565b938091815b8581106126ee57604051806111388982613494565b806126fc61272d9284613797565b9054600391821b1c85526004875260ff600160408720015460081c1661272181613364565b15612732575b50613ad6565b6126d9565b61273c8285613797565b9054911b1c845260048652612772604085209561276161275b82613ad6565b97613b48565b61276b828c613c8f565b5289613c8f565b5038612727565b6127838184613797565b90549060031b1c86526004845260ff600160408820015460081c166127a781613364565b156127bb575b6127b690613ad6565b6126c3565b906127c86127b691613ad6565b9190506127ad565b503461061c57602080600319360112610797576004356001600160401b038111610dc9576128038291369060040161330b565b919082604051938492833781016007815203019020916040518092808554928381520194835280832092905b8282106128465761113885611392818903826136ea565b83548652948501946001938401939091019061282f565b503461061c576020908160031936011261061c576004356001600160401b0381116107975761289090369060040161330b565b82919250838293826040519384928337810160078152030190209080918054925b8381106128c2578585604051908152f35b6128cc8183613797565b90549060031b1c835260048652600160ff8160408620015460081c166128f181613364565b14612905575b61290090613ad6565b6128b1565b9361291261290091613ad6565b9490506128f7565b503461061c578060031936011261061c5733815260066020908152604082208054919083805b84811061297e575061295190613c3f565b938091815b85811061296b57604051806111388982613494565b806126fc6129799284613797565b612956565b6129888184613797565b90549060031b1c86526004845260ff600160408820015460081c166129ac81613364565b156129c0575b6129bb90613ad6565b612940565b906129cd6129bb91613ad6565b9190506129b2565b503461061c57602080600319360112610797576129f0613338565b906129f96137c5565b604051630b88ded160e01b8152929083612a168360048301613749565b6001600160a01b039591859183919003817f000000000000000000000000000000000000000000000000000000000000000089165afa908115612b2d578691612b10575b50156112b25750338452600182526040842092811692838552825260ff604085205416611284573384526001825260408420838552825260408420600160ff198254161790553384526002825260408420805490600160401b821015612afc5781610920916001612ace9594018155613797565b7f9a008481f9f676e9c05c7a28b6507aa1540483ea23498870c06b1726d0c37897604051914283523392a380f35b634e487b7160e01b86526041600452602486fd5b612b279150843d86116105ea576105dc81836136ea565b38612a5a565b6040513d88823e3d90fd5b503461061c5760208060031936011261079757612b53613338565b612b5b6137c5565b604051630b88ded160e01b8152929083612b788460048301613749565b6001600160a01b039591849183919003817f000000000000000000000000000000000000000000000000000000000000000089165afa908115612b2d578691612cf5575b50156109db57503384526001928382528060408620931692838652825260ff604086205416156109a8573380865284835260408087208588528452808720805460ff191690559086526002835285209085855b612c45575b8685857f3e656be25f1fe0438790e54ab80373ccbe6091b904e14d522c578f57e42ef523604051914283523392a380f35b825480821015612cef578286612c5b8487613797565b929054600393841b1c1614612c7b575050612c7590613ad6565b85612c0f565b90939495965060009291921993848101908111612cdb579161092091610913612ca5959488613797565b81548015612cc7570190612cbc6109568383613797565b558190388080612c14565b634e487b7160e01b86526031600452602486fd5b634e487b7160e01b89526011600452602489fd5b50612c14565b612d0c9150833d85116105ea576105dc81836136ea565b38612bbc565b823461061c5760e036600319011261061c5760048035101561061c576024356001600160401b03811161079757612d4d90369060040161330b565b604435916001600160a01b03919082841684036104d95760a4356001600160401b038111611cc057612d8390369060040161330b565b90959060c4356001600160401b038111610dc957612da590369060040161330b565b63e7bac6ef60e01b8a52602060048b0152909880612dc760248201888861380e565b0390602081897f0000000000000000000000000000000000000000000000000000000000000000169381855afa90811561078c5785916132ec575b50156132b757338452600160205260408420878916855260205260ff60408520541615613280576064351515908161320b575b50156131d45760035497612e4889613ad6565b6003558884526004602052604084209289845560018401612e6a600435613364565b805461ffff191660043560ff161790556001600160401b03871161314b57612ea287612e9960028701546138cd565b6002870161399d565b8685601f821160011461316a57869161315f575b508760011b906000198960031b1c19161760028501555b6003840180546001600160a01b031990811633179091556004850180549091168a8a16179055606435600585015560843560068501556001600160401b03811161314b57806007850192612f2b82612f2586546138cd565b8661399d565b8690601f83116001146130e55787926130da575b50508160011b916000199060031b1c19161790555b60088201906001600160401b0381116130c6578060209a612f7982612f2586546138cd565b8590601f8311600114613062578692613057575b50508160011b916000199060031b1c19161790555b60094291015533815260058752612fbc8660408320613aa1565b838516815260068752612fd28660408320613aa1565b612fef866040518585823789818781016007815203019020613aa1565b82604051938493843782019081520390209060405192613010600435613364565b600435845216848301526064356040830152426060830152827fb4738862ee293372d57df079d65155a57a8a1e3c735b014d506d5ff516d3b86260803394a4604051908152f35b013590508b80612f8d565b8487528c8720925090601f198416875b8181106130af5750908460019594939210613095575b505050811b019055612fa2565b0135600019600384901b60f8161c191690558b8080613088565b91938e600181928787013581550195019201613072565b634e487b7160e01b84526041600452602484fd5b013590508c80612f3f565b84885260208820925090601f198416885b8181106131335750908460019594939210613119575b505050811b019055612f54565b0135600019600384901b60f8161c191690558c808061310c565b919360206001819287870135815501950192016130f6565b634e487b7160e01b85526041600452602485fd5b90508601358c612eb6565b600286018752602087209150865b601f198a1681106131bc575088601f198116106131a2575b5050600187811b016002850155612ecd565b87013560001960038a901b60f8161c191690558b80613190565b9091602060018192858c013581550193019101613178565b60405162461bcd60e51b815260206004820152600f60248201526e29ba37b1b597a8ba3c9032b93937b960891b6044820152606490fd5b604051630f6963f960e21b8152915060209082908180613230338c8c6004850161382f565b03915afa90811561104757849161324e575b5060643511158a612e35565b90506020813d602011613278575b81613269602093836136ea565b810103126104e857518a613242565b3d915061325c565b60405162461bcd60e51b815260206004820152600f60248201526e139bdd081dda1a5d195b1a5cdd1959608a1b6044820152606490fd5b60405162461bcd60e51b815260206004820152600d60248201526c092dcecc2d8d2c840c4c2e8c6d609b1b6044820152606490fd5b613305915060203d6020116105ea576105dc81836136ea565b8b612e02565b9181601f8401121561054b578235916001600160401b03831161054b576020838186019501011161054b57565b600435906001600160a01b038216820361054b57565b602435906001600160a01b038216820361054b57565b6004111561336e57565b634e487b7160e01b600052602160045260246000fd5b60005b8381106133975750506000910152565b8181015183820152602001613387565b906020916133c081518092818552858086019101613384565b601f01601f1916010190565b908151815260208201516133df81613364565b602082015260408201516133f281613364565b604082015261347061345c61341660608501516101a08060608701528501906133a7565b60018060a01b0380608087015116608086015260a08601511660a085015260c085015160c085015260e085015160e08501526101008086015190858303908601526133a7565b6101208085015190848303908501526133a7565b91610140808201519083015261016080820151908301526101808091015191015290565b602080820190808352835180925260408301928160408460051b8301019501936000915b8483106134c85750505050505090565b90919293949584806134e6600193603f198682030187528a516133cc565b98019301930191949392906134b8565b3461054b5760208060031936011261054b576001600160a01b03908161351a613338565b166000908152600282526040812090604051808484549182815201908194845285842090845b81811061358f57505050816135569103826136ea565b6040519380850191818652518092526040850193925b8281106135795785850386f35b835187168552938101939281019260010161356c565b8254891684529287019260019283019201613540565b6020908160408183019282815285518094520193019160005b8281106135cc575050505090565b8351855293810193928101926001016135be565b90604060031983011261054b5760043591602435906001600160401b03821161054b5761360f9160040161330b565b9091565b3461054b57604036600319011261054b5761362c613338565b61363461334e565b9060018060a01b03809116600052600160205260406000209116600052602052602060ff604060002054166040519015158152f35b6001600160401b03811161126e57604052565b61012081019081106001600160401b0382111761126e57604052565b606081019081106001600160401b0382111761126e57604052565b6101a081019081106001600160401b0382111761126e57604052565b604081019081106001600160401b0382111761126e57604052565b601f909101601f19168101906001600160401b0382119082101761126e57604052565b6040519061371a826136cf565b6008825267139bdd08111a5cdd60c21b6020830152565b9081602091031261054b5751801515810361054b5790565b6001600160a01b0390911681526004602082015260400190565b6001600160a01b0390911681526003602082015260400190565b6001600160a01b0390911681526005602082015260400190565b80548210156137af5760005260206000200190600090565b634e487b7160e01b600052603260045260246000fd5b604051906137d2826136cf565b600882526704e6f7420537570760c41b6020830152565b604051906137f6826136cf565b60098252684e6f7420506861726d60b81b6020830152565b908060209392818452848401376000828201840152601f01601f1916010190565b916020916138489195949560408552604085019161380e565b6001600160a01b03909416910152565b1561385f57565b60405162461bcd60e51b815260206004820152600b60248201526a4e6f742050656e64696e6760a81b6044820152606490fd5b1561389957565b60405162461bcd60e51b815260206004820152600c60248201526b155b985d5d1a1bdc9a5e995960a21b6044820152606490fd5b90600182811c921680156138fd575b60208310146138e757565b634e487b7160e01b600052602260045260246000fd5b91607f16916138dc565b9060009291805491613918836138cd565b91828252600193848116908160001461397a575060011461393a575b50505050565b90919394506000526020928360002092846000945b838610613966575050505001019038808080613934565b80548587018301529401938590820161394f565b9294505050602093945060ff191683830152151560051b01019038808080613934565b90601f81116139ab57505050565b600091825260208220906020601f850160051c830194106139e7575b601f0160051c01915b8281106139dc57505050565b8181556001016139d0565b90925082906139c7565b9160609391613a0c919796959760808552608085019161380e565b6001600160a01b039182166020840152951660408201520152565b9192916001600160401b03821161126e5760405191613a50601f8201601f1916602001846136ea565b82948184528183011161054b578281602093846000960137010152565b15613a7457565b60405162461bcd60e51b815260206004820152600560248201526422b93937b960d91b6044820152606490fd5b8054600160401b81101561126e57613abe91600182018155613797565b819291549060031b91821b91600019901b1916179055565b600019811461098c5760010190565b60405190613af2826136b3565b816101806000918281528260208201528260408201526060808201528260808201528260a08201528260c08201528260e08201526060610100820152606061012082015282610140820152826101608201520152565b90604051613b55816136b3565b610180600b82948054845260ff6001820154818116613b7381613364565b602087015260081c16613b8581613364565b6040850152604051613b9e81610dab8160028601613907565b606085015260038101546001600160a01b03908116608086015260048201541660a0850152600581015460c0850152600681015460e0850152604051613beb81610dab8160078601613907565b610100850152604051613c0581610dab8160088601613907565b6101208501526009810154610140850152600a8101546101608501520154910152565b6001600160401b03811161126e5760051b60200190565b90613c4982613c28565b613c5660405191826136ea565b8281528092613c67601f1991613c28565b019060005b828110613c7857505050565b602090613c83613ae5565b82828501015201613c6c565b80518210156137af5760209160051b010190565b9193929490946040519383519460208181870197613cc281838b613384565b600c9082019081520301902080546001600160a01b0319166001600160a01b03888116918217909255989096613cfa90849087613e0b565b60009387855460ff8160a01c16613d4c575b50505050505050613d3a60008051602061406683398151915292602092604051928392839251928391613384565b810103902092604051944286521693a4565b1693843b15611cc0578587613dbb829794968e96613da79a98613d8e966040519c8d9a8b998a98630149bd2360e11b8a5260a060048b015260a48a01906133a7565b90602489015260031992838983030160448a01526133a7565b93606487015285840301608486015261380e565b03925af1908115613dff575092602092613d3a9260008051602061406683398151915295613df0575b82958295508782613d0c565b613df990613669565b38613de4565b604051903d90823e3d90fd5b906040518281809451613e248160209788809601613384565b8101600d81520301902090604051613e3b81613698565b6001600160a01b039182168152428482019081526040820195865283549190600160401b83101561126e576001938484018087558410156137af576002936000968752600388882091020192511660018060a01b031983541617825551838201550193519182519260018060401b038411613f5b57613ec484613ebe88546138cd565b8861399d565b8491601f8511600114613efc579394508492919083613ef1575b50501b916000199060031b1c1916179055565b015192503880613ede565b86815285812093958591601f198316915b88838310613f415750505010613f28575b505050811b019055565b015160001960f88460031b161c19169055388080613f1e565b858701518855909601959485019487935090810190613f0d565b634e487b7160e01b82526041600452602482fd5b613f7881613364565b801561402f57613f8781613364565b60018114613ffd5780613f9b600292613364565b14613fcd57604051613fac816136cf565b6011815270283430b936b0b1b4b9ba2a37a13abcb2b960791b602082015290565b604051613fd9816136cf565b601481527314dd5c1c1b1a595c951bd41a185c9b5858da5cdd60621b602082015290565b5060405161400a816136cf565b60158152742234b9ba3934b13aba37b92a37a9bab8383634b2b960591b602082015290565b5060405161403c816136cf565b601981527826b0b73ab330b1ba3ab932b92a37a234b9ba3934b13aba37b960391b60208201529056fe3996982ce55133a4dfe1327ba9b708190a80e561dddb5065290e7687db8dcaed3e382f164f1ecbbe570eaa924d2865fbf90566a28ae267e2224043de6aa9d297a26469706673582212202810bd7e36243a496f9e5c32ae7af0f1be5b70c89465bc0d0dd29a0a80a870e964736f6c63430008140033",
  "immutableReferences": {
    "5779": [
      {
        "length": 32,
        "start": 1407
      },
      {
        "length": 32,
        "start": 1631
      },
      {
        "length": 32,
        "start": 2030
      },
      {
        "length": 32,
        "start": 4496
      },
      {
        "length": 32,
        "start": 5411
      },
      {
        "length": 32,
        "start": 7683
      },
      {
        "length": 32,
        "start": 7814
      },
      {
        "length": 32,
        "start": 8858
      },
      {
        "length": 32,
        "start": 10793
      },
      {
        "length": 32,
        "start": 11147
      }
    ],
    "5782": [
      {
        "length": 32,
        "start": 589
      },
      {
        "length": 32,
        "start": 662
      },
      {
        "length": 32,
        "start": 775
      },
      {
        "length": 32,
        "start": 3701
      },
      {
        "length": 32,
        "start": 4871
      },
      {
        "length": 32,
        "start": 5515
      },
      {
        "length": 32,
        "start": 5595
      },
      {
        "length": 32,
        "start": 5701
      },
      {
        "length": 32,
        "start": 7119
      },
      {
        "length": 32,
        "start": 9358
      },
      {
        "length": 32,
        "start": 11727
      }
    ]
  },
  "source": "// SPDX-License-Identifier: MIT\npragma solidity ^0.8.20;\n\nimport \"./IRegistry.sol\";\nimport \"./IProduct.sol\";\n\ninterface ITrace {\n    function recordEvent(string calldata b, address a, string calldata ac, uint256 q, string calldata n) external;\n}\n\ncontract TransferContract {\n    IRegistry public immutable registry;\n    IProduct  public immutable product;\n    ITrace    public            trace;\n    bool      public            traceSet;\n\n    enum TransferStatus { Pending, Accepted, Rejected, Cancelled }\n    enum TransferDirection { MFR_TO_DIST, DIST_TO_SUPP, SUPP_TO_PHARM, PHARM_TO_BUYER }\n\n    struct TransferRequest {\n        uint256           id;\n        TransferDirection direction;\n        TransferStatus    status;\n        string            batchNumber;\n        address           sender;\n        address           receiver;\n        uint256           quantity;\n        uint256           pricePerUnit;\n        string            currency;\n        string            note;\n        uint256           createdAt;\n        uint256           resolvedAt;\n        bytes32           transferHash;\n    }\n\n    struct SaleRecord {\n        uint256 saleId;\n        string  batchNumber;\n        address pharmacist;\n        uint256 quantity;\n        uint256 pricePerUnit;\n        string  currency;\n        string  buyerNote;\n        uint256 soldAt;\n        bytes32 saleHash;\n    }\n\n    struct CustodyEntry {\n        address holder;\n        uint256 timestamp;\n        string  action;\n    }\n\n    mapping(address => mapping(address => bool)) private whitelist;\n    mapping(address => address[])                private whitelistList;\n    uint256 private nextTransferId = 1;\n    mapping(uint256 => TransferRequest) private transfers;\n    mapping(address => uint256[]) private senderTransfers;\n    mapping(address => uint256[]) private receiverTransfers;\n    mapping(string => uint256[]) private batchTransfers;\n    uint256 private nextSaleId = 1;\n    mapping(uint256 => SaleRecord)  private sales;\n    mapping(address => uint256[])   private pharmacistSales;\n    mapping(string  => uint256[])   private batchSales;\n    mapping(string => address) private currentOwner;\n    mapping(string => CustodyEntry[]) private custodyChain;\n\n    event DistributorAdded(address indexed m, address indexed d, uint256 t);\n    event DistributorRemoved(address indexed m, address indexed d, uint256 t);\n    event SupplierAdded(address indexed d, address indexed s, uint256 t);\n    event SupplierRemoved(address indexed d, address indexed s, uint256 t);\n    event PharmacistAdded(address indexed s, address indexed p, uint256 t);\n    event PharmacistRemoved(address indexed s, address indexed p, uint256 t);\n    event TransferRequested(uint256 indexed id, TransferDirection dir, string indexed b, address indexed s, address r, uint256 q, uint256 t);\n    event TransferAccepted(uint256 indexed id, address indexed r, bytes32 h, uint256 t);\n    event TransferRejected(uint256 indexed id, address indexed r, string rs, uint256 t);\n    event TransferCancelled(uint256 indexed id, address indexed s, uint256 t);\n    event MedicineSold(uint256 indexed id, string indexed b, address indexed p, uint256 q, bytes32 h, uint256 t);\n    event OwnershipUpdated(string indexed b, address indexed prev, address indexed next, uint256 t);\n    event TraceContractSet(address indexed tr, uint256 t);\n\n    constructor(address _r, address _p) {\n        registry = IRegistry(_r);\n        product  = IProduct(_p);\n    }\n\n    function setTraceContract(address _t) external {\n        require(msg.sender == registry.admin(), \"Admin only\");\n        require(!traceSet, \"Already set\");\n        trace = ITrace(_t);\n        traceSet = true;\n        emit TraceContractSet(_t, block.timestamp);\n    }\n\n    function _updateWhitelist(address _r, bool _add, IRegistry.Role _role, string memory _msg) internal {\n        require(registry.isApprovedWithRole(_r, _role), _msg);\n        if (_add) {\n            require(!whitelist[msg.sender][_r], \"Exists\");\n            whitelist[msg.sender][_r] = true;\n            whitelistList[msg.sender].push(_r);\n        } else {\n            require(whitelist[msg.sender][_r], \"Not in list\");\n            whitelist[msg.sender][_r] = false;\n            _removeFromList(whitelistList[msg.sender], _r);\n        }\n    }\n\n    function addDistributor(address _d) external { _updateWhitelist(_d, true, IRegistry.Role.Distributor, \"Not Dist\"); emit DistributorAdded(msg.sender, _d, block.timestamp); }\n    function removeDistributor(address _d) external { _updateWhitelist(_d, false, IRegistry.Role.Distributor, \"Not Dist\"); emit DistributorRemoved(msg.sender, _d, block.timestamp); }\n    function addSupplier(address _s) external { _updateWhitelist(_s, true, IRegistry.Role.Supplier, \"Not Supp\"); emit SupplierAdded(msg.sender, _s, block.timestamp); }\n    function removeSupplier(address _s) external { _updateWhitelist(_s, false, IRegistry.Role.Supplier, \"Not Supp\"); emit SupplierRemoved(msg.sender, _s, block.timestamp); }\n    function addPharmacist(address _p) external { _updateWhitelist(_p, true, IRegistry.Role.Pharmacist, \"Not Pharm\"); emit PharmacistAdded(msg.sender, _p, block.timestamp); }\n    function removePharmacist(address _p) external { _updateWhitelist(_p, false, IRegistry.Role.Pharmacist, \"Not Pharm\"); emit PharmacistRemoved(msg.sender, _p, block.timestamp); }\n\n    function requestTransfer(TransferDirection _dir, string calldata _b, address _r, uint256 _q, uint256 _p, string calldata _c, string calldata _n) external returns (uint256) {\n        require(product.isBatchValid(_b), \"Invalid batch\");\n        require(whitelist[msg.sender][_r], \"Not whitelisted\");\n        require(_q > 0 && product.getStockOf(_b, msg.sender) >= _q, \"Stock/Qty error\");\n        return _createTransferRequest(_dir, _b, msg.sender, _r, _q, _p, _c, _n);\n    }\n\n    function acceptTransfer(uint256 _id, string calldata _n) external {\n        TransferRequest storage req = transfers[_id];\n        require(req.createdAt != 0 && req.status == TransferStatus.Pending, \"Not Pending\");\n        require(msg.sender == req.receiver && registry.isApproved(msg.sender), \"Unauthorized\");\n        require(product.getStockOf(req.batchNumber, req.sender) >= req.quantity, \"Stock error\");\n\n        product.adjustStock(req.batchNumber, req.sender, req.receiver, req.quantity);\n        bytes32 h = keccak256(abi.encodePacked(_id, req.batchNumber, req.sender, req.receiver, req.quantity, block.timestamp));\n        req.status = TransferStatus.Accepted;\n        req.resolvedAt = block.timestamp;\n        req.transferHash = h;\n\n        _recordOwnershipChange(req.batchNumber, req.sender, req.receiver, _directionLabel(req.direction), req.quantity, _n);\n        emit TransferAccepted(_id, req.receiver, h, block.timestamp);\n    }\n\n    function rejectTransfer(uint256 _id, string calldata _r) external {\n        TransferRequest storage req = transfers[_id];\n        require(req.createdAt != 0 && req.status == TransferStatus.Pending, \"Not Pending\");\n        require(msg.sender == req.receiver, \"Unauthorized\");\n        req.status = TransferStatus.Rejected;\n        req.resolvedAt = block.timestamp;\n        req.note = _r;\n        emit TransferRejected(_id, msg.sender, _r, block.timestamp);\n    }\n\n    function cancelTransfer(uint256 _id) external {\n        TransferRequest storage req = transfers[_id];\n        require(req.createdAt != 0 && req.status == TransferStatus.Pending, \"Not Pending\");\n        require(msg.sender == req.sender, \"Unauthorized\");\n        req.status = TransferStatus.Cancelled;\n        req.resolvedAt = block.timestamp;\n        emit TransferCancelled(_id, msg.sender, block.timestamp);\n    }\n\n    function directTransfer(string calldata _b, address _to, uint256 _q, TransferDirection _dir, string calldata _n) external {\n        require(product.isBatchValid(_b) && whitelist[msg.sender][_to], \"Invalid/Whitelist\");\n        require(_q > 0 && product.getStockOf(_b, msg.sender) >= _q, \"Stock/Qty\");\n        product.adjustStock(_b, msg.sender, _to, _q);\n        _recordOwnershipChange(_b, msg.sender, _to, _directionLabel(_dir), _q, _n);\n    }\n\n    function sellToBuyer(string calldata _b, uint256 _q, uint256 _p, string calldata _c, string calldata _n) external {\n        require(registry.isApprovedWithRole(msg.sender, IRegistry.Role.Pharmacist), \"Not Pharm\");\n        require(product.isBatchValid(_b) && _q > 0 && product.getStockOf(_b, msg.sender) >= _q, \"Error\");\n        product.deductSale(_b, msg.sender, _q);\n        bytes32 h = keccak256(abi.encodePacked(nextSaleId, _b, msg.sender, _q, block.timestamp));\n        sales[nextSaleId] = SaleRecord(nextSaleId, _b, msg.sender, _q, _p, _c, _n, block.timestamp, h);\n        pharmacistSales[msg.sender].push(nextSaleId);\n        batchSales[_b].push(nextSaleId);\n        if (traceSet) trace.recordEvent(_b, msg.sender, \"PharmacistToBuyer\", _q, _n);\n        emit MedicineSold(nextSaleId, _b, msg.sender, _q, h, block.timestamp);\n        nextSaleId++;\n    }\n\n    function returnExpired(string calldata _b, address _to, uint256 _q, string calldata _n, string calldata _act) external {\n        require(!product.isBatchValid(_b) && _q > 0 && product.getStockOf(_b, msg.sender) >= _q, \"Error\");\n        product.adjustStock(_b, msg.sender, _to, _q);\n        if (traceSet) trace.recordEvent(_b, msg.sender, _act, _q, _n);\n        _recordCustodyEntry(_b, _to, _act);\n        emit OwnershipUpdated(_b, msg.sender, _to, block.timestamp);\n    }\n\n    function getDistributors(address _m) external view returns (address[] memory) { return whitelistList[_m]; }\n    function getSuppliers(address _d) external view returns (address[] memory) { return whitelistList[_d]; }\n    function getPharmacists(address _s) external view returns (address[] memory) { return whitelistList[_s]; }\n    function isDistributorOf(address _m, address _d) external view returns (bool) { return whitelist[_m][_d]; }\n    function isSupplierOf(address _d, address _s) external view returns (bool) { return whitelist[_d][_s]; }\n    function isPharmacistOf(address _s, address _p) external view returns (bool) { return whitelist[_s][_p]; }\n\n    function getTransfer(uint256 _id) external view returns (TransferRequest memory) { return transfers[_id]; }\n    function getSentTransfers(address _s) external view returns (uint256[] memory) { return senderTransfers[_s]; }\n    function getReceivedTransfers(address _r) external view returns (uint256[] memory) { return receiverTransfers[_r]; }\n    function getBatchTransfers(string calldata _b) external view returns (uint256[] memory) { return batchTransfers[_b]; }\n\n    function getMyPendingInbox() external view returns (TransferRequest[] memory) {\n        uint256[] storage ids = receiverTransfers[msg.sender];\n        uint256 count = 0;\n        for (uint256 i = 0; i < ids.length; i++) if (transfers[ids[i]].status == TransferStatus.Pending) count++;\n        TransferRequest[] memory res = new TransferRequest[](count);\n        uint256 idx = 0;\n        for (uint256 i = 0; i < ids.length; i++) if (transfers[ids[i]].status == TransferStatus.Pending) res[idx++] = transfers[ids[i]];\n        return res;\n    }\n\n    function getMyPendingOutbox() external view returns (TransferRequest[] memory) {\n        uint256[] storage ids = senderTransfers[msg.sender];\n        uint256 count = 0;\n        for (uint256 i = 0; i < ids.length; i++) if (transfers[ids[i]].status == TransferStatus.Pending) count++;\n        TransferRequest[] memory res = new TransferRequest[](count);\n        uint256 idx = 0;\n        for (uint256 i = 0; i < ids.length; i++) if (transfers[ids[i]].status == TransferStatus.Pending) res[idx++] = transfers[ids[i]];\n        return res;\n    }\n\n    function getCurrentOwner(string calldata _b) external view returns (address) { return currentOwner[_b]; }\n    function getCustodyChain(string calldata _b) external view returns (CustodyEntry[] memory) { return custodyChain[_b]; }\n    function getSale(uint256 _id) external view returns (SaleRecord memory) { require(sales[_id].soldAt != 0, \"Not found\"); return sales[_id]; }\n    function getSalesByPharmacist(address _p) external view returns (uint256[] memory) { return pharmacistSales[_p]; }\n    function getSalesByBatch(string calldata _b) external view returns (uint256[] memory) { return batchSales[_b]; }\n\n    function getTotalSoldForBatch(string calldata _b) external view returns (uint256 total) {\n        uint256[] storage ids = batchSales[_b];\n        for (uint256 i = 0; i < ids.length; i++) total += sales[ids[i]].quantity;\n    }\n\n    function getAcceptedTransferCount(string calldata _b) external view returns (uint256 count) {\n        uint256[] storage ids = batchTransfers[_b];\n        for (uint256 i = 0; i < ids.length; i++) if (transfers[ids[i]].status == TransferStatus.Accepted) count++;\n    }\n\n    function _createTransferRequest(TransferDirection _dir, string calldata _b, address _s, address _r, uint256 _q, uint256 _p, string calldata _c, string calldata _n) internal returns (uint256 id) {\n        id = nextTransferId++;\n        TransferRequest storage req = transfers[id];\n        req.id = id; req.direction = _dir; req.status = TransferStatus.Pending; req.batchNumber = _b; req.sender = _s; req.receiver = _r; req.quantity = _q; req.pricePerUnit = _p; req.currency = _c; req.note = _n; req.createdAt = block.timestamp;\n        senderTransfers[_s].push(id); receiverTransfers[_r].push(id); batchTransfers[_b].push(id);\n        emit TransferRequested(id, _dir, _b, _s, _r, _q, block.timestamp);\n    }\n\n    function _recordOwnershipChange(string memory _b, address _prev, address _to, string memory _act, uint256 _q, string calldata _n) internal {\n        currentOwner[_b] = _to;\n        _recordCustodyEntry(_b, _to, _act);\n        if (traceSet) trace.recordEvent(_b, _to, _act, _q, _n);\n        emit OwnershipUpdated(_b, _prev, _to, block.timestamp);\n    }\n\n    function _recordCustodyEntry(string memory _b, address _h, string memory _a) internal {\n        custodyChain[_b].push(CustodyEntry(_h, block.timestamp, _a));\n    }\n\n    function _directionLabel(TransferDirection _d) internal pure returns (string memory) {\n        if (_d == TransferDirection.MFR_TO_DIST) return \"ManufacturerToDistributor\";\n        if (_d == TransferDirection.DIST_TO_SUPP) return \"DistributorToSupplier\";\n        if (_d == TransferDirection.SUPP_TO_PHARM) return \"SupplierToPharmacist\";\n        return \"PharmacistToBuyer\";\n    }\n\n    function _removeFromList(address[] storage _l, address _a) internal {\n        for (uint256 i = 0; i < _l.length; i++) {\n            if (_l[i] == _a) {\n                _l[i] = _l[_l.length - 1];\n                _l.pop();\n                break;\n            }\n        }\n    }\n}\n",
  "sourcePath": "D:\\FYP Final\\Project\\medicine-supply-chain\\myProject\\contracts\\TransferContract.sol",
  "compiler": {
    "name": "solc",
    "version": "0.8.20+commit.a1b79de6.Emscripten.clang"
  },
  "schemaVersion": "3.4.16",
  "updatedAt": "2026-04-25T20:18:29.548Z",
  "networkType": "ethereum",
  "devdoc": {
    "kind": "dev",
    "methods": {},
    "version": 1
  },
  "userdoc": {
    "kind": "user",
    "methods": {},
    "version": 1
  }
}